{
	"contracts2025/CrowdSale.sol": {
		"CrowdSale": {
			"abi": [
				{
					"inputs": [
						{
							"internalType": "uint256",
							"name": "initialSupply",
							"type": "uint256"
						}
					],
					"stateMutability": "nonpayable",
					"type": "constructor"
				},
				{
					"inputs": [],
					"name": "rate",
					"outputs": [
						{
							"internalType": "uint256",
							"name": "",
							"type": "uint256"
						}
					],
					"stateMutability": "view",
					"type": "function"
				},
				{
					"inputs": [],
					"name": "token",
					"outputs": [
						{
							"internalType": "contract Token",
							"name": "",
							"type": "address"
						}
					],
					"stateMutability": "view",
					"type": "function"
				},
				{
					"stateMutability": "payable",
					"type": "receive"
				}
			],
			"devdoc": {
				"kind": "dev",
				"methods": {},
				"version": 1
			},
			"evm": {
				"assembly": "    /* \"contracts2025/CrowdSale.sol\":431:931  contract CrowdSale... */\n  mstore(0x40, 0x80)\n    /* \"contracts2025/CrowdSale.sol\":475:478  200 */\n  0xc8\n    /* \"contracts2025/CrowdSale.sol\":456:478  uint public rate = 200 */\n  0x00\n  sstore\n    /* \"contracts2025/CrowdSale.sol\":521:609  constructor(uint256 initialSupply)... */\n  callvalue\n  dup1\n  iszero\n  tag_1\n  jumpi\n  revert(0x00, 0x00)\ntag_1:\n  pop\n  mload(0x40)\n  sub(codesize, bytecodeSize)\n  dup1\n  bytecodeSize\n  dup4\n  codecopy\n  dup2\n  dup2\n  add\n  0x40\n  mstore\n  dup2\n  add\n  swap1\n  tag_2\n  swap2\n  swap1\n  tag_3\n  jump\t// in\ntag_2:\n    /* \"contracts2025/CrowdSale.sol\":588:601  initialSupply */\n  dup1\n    /* \"contracts2025/CrowdSale.sol\":578:602  new Token(initialSupply) */\n  mload(0x40)\n  tag_6\n  swap1\n  tag_7\n  jump\t// in\ntag_6:\n  tag_8\n  swap2\n  swap1\n  tag_9\n  jump\t// in\ntag_8:\n  mload(0x40)\n  dup1\n  swap2\n  sub\n  swap1\n  0x00\n  create\n  dup1\n  iszero\n  dup1\n  iszero\n  tag_10\n  jumpi\n  returndatacopy(0x00, 0x00, returndatasize)\n  revert(0x00, returndatasize)\ntag_10:\n  pop\n    /* \"contracts2025/CrowdSale.sol\":570:575  token */\n  0x01\n  0x00\n    /* \"contracts2025/CrowdSale.sol\":570:602  token = new Token(initialSupply) */\n  0x0100\n  exp\n  dup2\n  sload\n  dup2\n  0xffffffffffffffffffffffffffffffffffffffff\n  mul\n  not\n  and\n  swap1\n  dup4\n  0xffffffffffffffffffffffffffffffffffffffff\n  and\n  mul\n  or\n  swap1\n  sstore\n  pop\n    /* \"contracts2025/CrowdSale.sol\":521:609  constructor(uint256 initialSupply)... */\n  pop\n    /* \"contracts2025/CrowdSale.sol\":431:931  contract CrowdSale... */\n  jump(tag_11)\ntag_7:\n  dataSize(sub_1)\n  dup1\n  dataOffset(sub_1)\n  dup4\n  codecopy\n  add\n  swap1\n  jump\t// out\n    /* \"#utility.yul\":88:205   */\ntag_13:\n    /* \"#utility.yul\":197:198   */\n  0x00\n    /* \"#utility.yul\":194:195   */\n  0x00\n    /* \"#utility.yul\":187:199   */\n  revert\n    /* \"#utility.yul\":334:411   */\ntag_15:\n    /* \"#utility.yul\":371:378   */\n  0x00\n    /* \"#utility.yul\":400:405   */\n  dup2\n    /* \"#utility.yul\":389:405   */\n  swap1\n  pop\n    /* \"#utility.yul\":334:411   */\n  swap2\n  swap1\n  pop\n  jump\t// out\n    /* \"#utility.yul\":417:539   */\ntag_16:\n    /* \"#utility.yul\":490:514   */\n  tag_25\n    /* \"#utility.yul\":508:513   */\n  dup2\n    /* \"#utility.yul\":490:514   */\n  tag_15\n  jump\t// in\ntag_25:\n    /* \"#utility.yul\":483:488   */\n  dup2\n    /* \"#utility.yul\":480:515   */\n  eq\n    /* \"#utility.yul\":470:533   */\n  tag_26\n  jumpi\n    /* \"#utility.yul\":529:530   */\n  0x00\n    /* \"#utility.yul\":526:527   */\n  0x00\n    /* \"#utility.yul\":519:531   */\n  revert\n    /* \"#utility.yul\":470:533   */\ntag_26:\n    /* \"#utility.yul\":417:539   */\n  pop\n  jump\t// out\n    /* \"#utility.yul\":545:688   */\ntag_17:\n    /* \"#utility.yul\":602:607   */\n  0x00\n    /* \"#utility.yul\":633:639   */\n  dup2\n    /* \"#utility.yul\":627:640   */\n  mload\n    /* \"#utility.yul\":618:640   */\n  swap1\n  pop\n    /* \"#utility.yul\":649:682   */\n  tag_28\n    /* \"#utility.yul\":676:681   */\n  dup2\n    /* \"#utility.yul\":649:682   */\n  tag_16\n  jump\t// in\ntag_28:\n    /* \"#utility.yul\":545:688   */\n  swap3\n  swap2\n  pop\n  pop\n  jump\t// out\n    /* \"#utility.yul\":694:1045   */\ntag_3:\n    /* \"#utility.yul\":764:770   */\n  0x00\n    /* \"#utility.yul\":813:815   */\n  0x20\n    /* \"#utility.yul\":801:810   */\n  dup3\n    /* \"#utility.yul\":792:799   */\n  dup5\n    /* \"#utility.yul\":788:811   */\n  sub\n    /* \"#utility.yul\":784:816   */\n  slt\n    /* \"#utility.yul\":781:900   */\n  iszero\n  tag_30\n  jumpi\n    /* \"#utility.yul\":819:898   */\n  tag_31\n  tag_13\n  jump\t// in\ntag_31:\n    /* \"#utility.yul\":781:900   */\ntag_30:\n    /* \"#utility.yul\":939:940   */\n  0x00\n    /* \"#utility.yul\":964:1028   */\n  tag_32\n    /* \"#utility.yul\":1020:1027   */\n  dup5\n    /* \"#utility.yul\":1011:1017   */\n  dup3\n    /* \"#utility.yul\":1000:1009   */\n  dup6\n    /* \"#utility.yul\":996:1018   */\n  add\n    /* \"#utility.yul\":964:1028   */\n  tag_17\n  jump\t// in\ntag_32:\n    /* \"#utility.yul\":954:1028   */\n  swap2\n  pop\n    /* \"#utility.yul\":910:1038   */\n  pop\n    /* \"#utility.yul\":694:1045   */\n  swap3\n  swap2\n  pop\n  pop\n  jump\t// out\n    /* \"#utility.yul\":1051:1169   */\ntag_18:\n    /* \"#utility.yul\":1138:1162   */\n  tag_34\n    /* \"#utility.yul\":1156:1161   */\n  dup2\n    /* \"#utility.yul\":1138:1162   */\n  tag_15\n  jump\t// in\ntag_34:\n    /* \"#utility.yul\":1133:1136   */\n  dup3\n    /* \"#utility.yul\":1126:1163   */\n  mstore\n    /* \"#utility.yul\":1051:1169   */\n  pop\n  pop\n  jump\t// out\n    /* \"#utility.yul\":1175:1397   */\ntag_9:\n    /* \"#utility.yul\":1268:1272   */\n  0x00\n    /* \"#utility.yul\":1306:1308   */\n  0x20\n    /* \"#utility.yul\":1295:1304   */\n  dup3\n    /* \"#utility.yul\":1291:1309   */\n  add\n    /* \"#utility.yul\":1283:1309   */\n  swap1\n  pop\n    /* \"#utility.yul\":1319:1390   */\n  tag_36\n    /* \"#utility.yul\":1387:1388   */\n  0x00\n    /* \"#utility.yul\":1376:1385   */\n  dup4\n    /* \"#utility.yul\":1372:1389   */\n  add\n    /* \"#utility.yul\":1363:1369   */\n  dup5\n    /* \"#utility.yul\":1319:1390   */\n  tag_18\n  jump\t// in\ntag_36:\n    /* \"#utility.yul\":1175:1397   */\n  swap3\n  swap2\n  pop\n  pop\n  jump\t// out\n    /* \"contracts2025/CrowdSale.sol\":431:931  contract CrowdSale... */\ntag_11:\n  dataSize(sub_0)\n  dup1\n  dataOffset(sub_0)\n  0x00\n  codecopy\n  0x00\n  return\nstop\n\nsub_0: assembly {\n        /* \"contracts2025/CrowdSale.sol\":431:931  contract CrowdSale... */\n      mstore(0x40, 0x80)\n      jumpi(tag_1, lt(calldatasize, 0x04))\n      shr(0xe0, calldataload(0x00))\n      dup1\n      0x2c4e722e\n      eq\n      tag_3\n      jumpi\n      dup1\n      0xfc0c546a\n      eq\n      tag_4\n      jumpi\n      jump(tag_2)\n    tag_1:\n      jumpi(tag_2, calldatasize)\n        /* \"contracts2025/CrowdSale.sol\":681:690  0.1 ether */\n      0x016345785d8a0000\n        /* \"contracts2025/CrowdSale.sol\":668:677  msg.value */\n      callvalue\n        /* \"contracts2025/CrowdSale.sol\":668:690  msg.value >= 0.1 ether */\n      lt\n      iszero\n        /* \"contracts2025/CrowdSale.sol\":660:729  require(msg.value >= 0.1 ether, \"You can't send less than 0.1 ether\") */\n      tag_7\n      jumpi\n      mload(0x40)\n      0x08c379a000000000000000000000000000000000000000000000000000000000\n      dup2\n      mstore\n      0x04\n      add\n      tag_8\n      swap1\n      tag_9\n      jump\t// in\n    tag_8:\n      mload(0x40)\n      dup1\n      swap2\n      sub\n      swap1\n      revert\n    tag_7:\n        /* \"contracts2025/CrowdSale.sol\":739:760  distribute(msg.value) */\n      tag_10\n        /* \"contracts2025/CrowdSale.sol\":750:759  msg.value */\n      callvalue\n        /* \"contracts2025/CrowdSale.sol\":739:749  distribute */\n      tag_11\n        /* \"contracts2025/CrowdSale.sol\":739:760  distribute(msg.value) */\n      jump\t// in\n    tag_10:\n        /* \"contracts2025/CrowdSale.sol\":431:931  contract CrowdSale... */\n      stop\n    tag_2:\n      revert(0x00, 0x00)\n        /* \"contracts2025/CrowdSale.sol\":456:478  uint public rate = 200 */\n    tag_3:\n      callvalue\n      dup1\n      iszero\n      tag_12\n      jumpi\n      revert(0x00, 0x00)\n    tag_12:\n      pop\n      tag_13\n      tag_14\n      jump\t// in\n    tag_13:\n      mload(0x40)\n      tag_15\n      swap2\n      swap1\n      tag_16\n      jump\t// in\n    tag_15:\n      mload(0x40)\n      dup1\n      swap2\n      sub\n      swap1\n      return\n        /* \"contracts2025/CrowdSale.sol\":492:510  Token public token */\n    tag_4:\n      callvalue\n      dup1\n      iszero\n      tag_17\n      jumpi\n      revert(0x00, 0x00)\n    tag_17:\n      pop\n      tag_18\n      tag_19\n      jump\t// in\n    tag_18:\n      mload(0x40)\n      tag_20\n      swap2\n      swap1\n      tag_21\n      jump\t// in\n    tag_20:\n      mload(0x40)\n      dup1\n      swap2\n      sub\n      swap1\n      return\n        /* \"contracts2025/CrowdSale.sol\":773:929  function distribute(uint256 amount)... */\n    tag_11:\n        /* \"contracts2025/CrowdSale.sol\":836:856  uint256 tokensToSent */\n      0x00\n        /* \"contracts2025/CrowdSale.sol\":868:872  rate */\n      sload(0x00)\n        /* \"contracts2025/CrowdSale.sol\":859:865  amount */\n      dup3\n        /* \"contracts2025/CrowdSale.sol\":859:872  amount * rate */\n      tag_23\n      swap2\n      swap1\n      tag_24\n      jump\t// in\n    tag_23:\n        /* \"contracts2025/CrowdSale.sol\":836:872  uint256 tokensToSent = amount * rate */\n      swap1\n      pop\n        /* \"contracts2025/CrowdSale.sol\":882:887  token */\n      0x01\n      0x00\n      swap1\n      sload\n      swap1\n      0x0100\n      exp\n      swap1\n      div\n      0xffffffffffffffffffffffffffffffffffffffff\n      and\n        /* \"contracts2025/CrowdSale.sol\":882:896  token.transfer */\n      0xffffffffffffffffffffffffffffffffffffffff\n      and\n      0xa9059cbb\n        /* \"contracts2025/CrowdSale.sol\":897:907  msg.sender */\n      caller\n        /* \"contracts2025/CrowdSale.sol\":909:921  tokensToSent */\n      dup4\n        /* \"contracts2025/CrowdSale.sol\":882:922  token.transfer(msg.sender, tokensToSent) */\n      mload(0x40)\n      dup4\n      0xffffffff\n      and\n      0xe0\n      shl\n      dup2\n      mstore\n      0x04\n      add\n      tag_25\n      swap3\n      swap2\n      swap1\n      tag_26\n      jump\t// in\n    tag_25:\n      0x20\n      mload(0x40)\n      dup1\n      dup4\n      sub\n      dup2\n      0x00\n      dup8\n      gas\n      call\n      iszero\n      dup1\n      iszero\n      tag_28\n      jumpi\n      returndatacopy(0x00, 0x00, returndatasize)\n      revert(0x00, returndatasize)\n    tag_28:\n      pop\n      pop\n      pop\n      pop\n      mload(0x40)\n      returndatasize\n      not(0x1f)\n      0x1f\n      dup3\n      add\n      and\n      dup3\n      add\n      dup1\n      0x40\n      mstore\n      pop\n      dup2\n      add\n      swap1\n      tag_29\n      swap2\n      swap1\n      tag_30\n      jump\t// in\n    tag_29:\n      pop\n        /* \"contracts2025/CrowdSale.sol\":826:929  {... */\n      pop\n        /* \"contracts2025/CrowdSale.sol\":773:929  function distribute(uint256 amount)... */\n      pop\n      jump\t// out\n        /* \"contracts2025/CrowdSale.sol\":456:478  uint public rate = 200 */\n    tag_14:\n      sload(0x00)\n      dup2\n      jump\t// out\n        /* \"contracts2025/CrowdSale.sol\":492:510  Token public token */\n    tag_19:\n      0x01\n      0x00\n      swap1\n      sload\n      swap1\n      0x0100\n      exp\n      swap1\n      div\n      0xffffffffffffffffffffffffffffffffffffffff\n      and\n      dup2\n      jump\t// out\n        /* \"#utility.yul\":7:176   */\n    tag_31:\n        /* \"#utility.yul\":91:102   */\n      0x00\n        /* \"#utility.yul\":125:131   */\n      dup3\n        /* \"#utility.yul\":120:123   */\n      dup3\n        /* \"#utility.yul\":113:132   */\n      mstore\n        /* \"#utility.yul\":165:169   */\n      0x20\n        /* \"#utility.yul\":160:163   */\n      dup3\n        /* \"#utility.yul\":156:170   */\n      add\n        /* \"#utility.yul\":141:170   */\n      swap1\n      pop\n        /* \"#utility.yul\":7:176   */\n      swap3\n      swap2\n      pop\n      pop\n      jump\t// out\n        /* \"#utility.yul\":182:403   */\n    tag_32:\n        /* \"#utility.yul\":322:356   */\n      0x596f752063616e27742073656e64206c657373207468616e20302e3120657468\n        /* \"#utility.yul\":318:319   */\n      0x00\n        /* \"#utility.yul\":310:316   */\n      dup3\n        /* \"#utility.yul\":306:320   */\n      add\n        /* \"#utility.yul\":299:357   */\n      mstore\n        /* \"#utility.yul\":391:395   */\n      0x6572000000000000000000000000000000000000000000000000000000000000\n        /* \"#utility.yul\":386:388   */\n      0x20\n        /* \"#utility.yul\":378:384   */\n      dup3\n        /* \"#utility.yul\":374:389   */\n      add\n        /* \"#utility.yul\":367:396   */\n      mstore\n        /* \"#utility.yul\":182:403   */\n      pop\n      jump\t// out\n        /* \"#utility.yul\":409:775   */\n    tag_33:\n        /* \"#utility.yul\":551:554   */\n      0x00\n        /* \"#utility.yul\":572:639   */\n      tag_55\n        /* \"#utility.yul\":636:638   */\n      0x22\n        /* \"#utility.yul\":631:634   */\n      dup4\n        /* \"#utility.yul\":572:639   */\n      tag_31\n      jump\t// in\n    tag_55:\n        /* \"#utility.yul\":565:639   */\n      swap2\n      pop\n        /* \"#utility.yul\":648:741   */\n      tag_56\n        /* \"#utility.yul\":737:740   */\n      dup3\n        /* \"#utility.yul\":648:741   */\n      tag_32\n      jump\t// in\n    tag_56:\n        /* \"#utility.yul\":766:768   */\n      0x40\n        /* \"#utility.yul\":761:764   */\n      dup3\n        /* \"#utility.yul\":757:769   */\n      add\n        /* \"#utility.yul\":750:769   */\n      swap1\n      pop\n        /* \"#utility.yul\":409:775   */\n      swap2\n      swap1\n      pop\n      jump\t// out\n        /* \"#utility.yul\":781:1200   */\n    tag_9:\n        /* \"#utility.yul\":947:951   */\n      0x00\n        /* \"#utility.yul\":985:987   */\n      0x20\n        /* \"#utility.yul\":974:983   */\n      dup3\n        /* \"#utility.yul\":970:988   */\n      add\n        /* \"#utility.yul\":962:988   */\n      swap1\n      pop\n        /* \"#utility.yul\":1034:1043   */\n      dup2\n        /* \"#utility.yul\":1028:1032   */\n      dup2\n        /* \"#utility.yul\":1024:1044   */\n      sub\n        /* \"#utility.yul\":1020:1021   */\n      0x00\n        /* \"#utility.yul\":1009:1018   */\n      dup4\n        /* \"#utility.yul\":1005:1022   */\n      add\n        /* \"#utility.yul\":998:1045   */\n      mstore\n        /* \"#utility.yul\":1062:1193   */\n      tag_58\n        /* \"#utility.yul\":1188:1192   */\n      dup2\n        /* \"#utility.yul\":1062:1193   */\n      tag_33\n      jump\t// in\n    tag_58:\n        /* \"#utility.yul\":1054:1193   */\n      swap1\n      pop\n        /* \"#utility.yul\":781:1200   */\n      swap2\n      swap1\n      pop\n      jump\t// out\n        /* \"#utility.yul\":1206:1283   */\n    tag_34:\n        /* \"#utility.yul\":1243:1250   */\n      0x00\n        /* \"#utility.yul\":1272:1277   */\n      dup2\n        /* \"#utility.yul\":1261:1277   */\n      swap1\n      pop\n        /* \"#utility.yul\":1206:1283   */\n      swap2\n      swap1\n      pop\n      jump\t// out\n        /* \"#utility.yul\":1289:1407   */\n    tag_35:\n        /* \"#utility.yul\":1376:1400   */\n      tag_61\n        /* \"#utility.yul\":1394:1399   */\n      dup2\n        /* \"#utility.yul\":1376:1400   */\n      tag_34\n      jump\t// in\n    tag_61:\n        /* \"#utility.yul\":1371:1374   */\n      dup3\n        /* \"#utility.yul\":1364:1401   */\n      mstore\n        /* \"#utility.yul\":1289:1407   */\n      pop\n      pop\n      jump\t// out\n        /* \"#utility.yul\":1413:1635   */\n    tag_16:\n        /* \"#utility.yul\":1506:1510   */\n      0x00\n        /* \"#utility.yul\":1544:1546   */\n      0x20\n        /* \"#utility.yul\":1533:1542   */\n      dup3\n        /* \"#utility.yul\":1529:1547   */\n      add\n        /* \"#utility.yul\":1521:1547   */\n      swap1\n      pop\n        /* \"#utility.yul\":1557:1628   */\n      tag_63\n        /* \"#utility.yul\":1625:1626   */\n      0x00\n        /* \"#utility.yul\":1614:1623   */\n      dup4\n        /* \"#utility.yul\":1610:1627   */\n      add\n        /* \"#utility.yul\":1601:1607   */\n      dup5\n        /* \"#utility.yul\":1557:1628   */\n      tag_35\n      jump\t// in\n    tag_63:\n        /* \"#utility.yul\":1413:1635   */\n      swap3\n      swap2\n      pop\n      pop\n      jump\t// out\n        /* \"#utility.yul\":1641:1767   */\n    tag_36:\n        /* \"#utility.yul\":1678:1685   */\n      0x00\n        /* \"#utility.yul\":1718:1760   */\n      0xffffffffffffffffffffffffffffffffffffffff\n        /* \"#utility.yul\":1711:1716   */\n      dup3\n        /* \"#utility.yul\":1707:1761   */\n      and\n        /* \"#utility.yul\":1696:1761   */\n      swap1\n      pop\n        /* \"#utility.yul\":1641:1767   */\n      swap2\n      swap1\n      pop\n      jump\t// out\n        /* \"#utility.yul\":1773:1833   */\n    tag_37:\n        /* \"#utility.yul\":1801:1804   */\n      0x00\n        /* \"#utility.yul\":1822:1827   */\n      dup2\n        /* \"#utility.yul\":1815:1827   */\n      swap1\n      pop\n        /* \"#utility.yul\":1773:1833   */\n      swap2\n      swap1\n      pop\n      jump\t// out\n        /* \"#utility.yul\":1839:1981   */\n    tag_38:\n        /* \"#utility.yul\":1889:1898   */\n      0x00\n        /* \"#utility.yul\":1922:1975   */\n      tag_67\n        /* \"#utility.yul\":1940:1974   */\n      tag_68\n        /* \"#utility.yul\":1949:1973   */\n      tag_69\n        /* \"#utility.yul\":1967:1972   */\n      dup5\n        /* \"#utility.yul\":1949:1973   */\n      tag_36\n      jump\t// in\n    tag_69:\n        /* \"#utility.yul\":1940:1974   */\n      tag_37\n      jump\t// in\n    tag_68:\n        /* \"#utility.yul\":1922:1975   */\n      tag_36\n      jump\t// in\n    tag_67:\n        /* \"#utility.yul\":1909:1975   */\n      swap1\n      pop\n        /* \"#utility.yul\":1839:1981   */\n      swap2\n      swap1\n      pop\n      jump\t// out\n        /* \"#utility.yul\":1987:2113   */\n    tag_39:\n        /* \"#utility.yul\":2037:2046   */\n      0x00\n        /* \"#utility.yul\":2070:2107   */\n      tag_71\n        /* \"#utility.yul\":2101:2106   */\n      dup3\n        /* \"#utility.yul\":2070:2107   */\n      tag_38\n      jump\t// in\n    tag_71:\n        /* \"#utility.yul\":2057:2107   */\n      swap1\n      pop\n        /* \"#utility.yul\":1987:2113   */\n      swap2\n      swap1\n      pop\n      jump\t// out\n        /* \"#utility.yul\":2119:2257   */\n    tag_40:\n        /* \"#utility.yul\":2181:2190   */\n      0x00\n        /* \"#utility.yul\":2214:2251   */\n      tag_73\n        /* \"#utility.yul\":2245:2250   */\n      dup3\n        /* \"#utility.yul\":2214:2251   */\n      tag_39\n      jump\t// in\n    tag_73:\n        /* \"#utility.yul\":2201:2251   */\n      swap1\n      pop\n        /* \"#utility.yul\":2119:2257   */\n      swap2\n      swap1\n      pop\n      jump\t// out\n        /* \"#utility.yul\":2263:2418   */\n    tag_41:\n        /* \"#utility.yul\":2362:2411   */\n      tag_75\n        /* \"#utility.yul\":2405:2410   */\n      dup2\n        /* \"#utility.yul\":2362:2411   */\n      tag_40\n      jump\t// in\n    tag_75:\n        /* \"#utility.yul\":2357:2360   */\n      dup3\n        /* \"#utility.yul\":2350:2412   */\n      mstore\n        /* \"#utility.yul\":2263:2418   */\n      pop\n      pop\n      jump\t// out\n        /* \"#utility.yul\":2424:2670   */\n    tag_21:\n        /* \"#utility.yul\":2529:2533   */\n      0x00\n        /* \"#utility.yul\":2567:2569   */\n      0x20\n        /* \"#utility.yul\":2556:2565   */\n      dup3\n        /* \"#utility.yul\":2552:2570   */\n      add\n        /* \"#utility.yul\":2544:2570   */\n      swap1\n      pop\n        /* \"#utility.yul\":2580:2663   */\n      tag_77\n        /* \"#utility.yul\":2660:2661   */\n      0x00\n        /* \"#utility.yul\":2649:2658   */\n      dup4\n        /* \"#utility.yul\":2645:2662   */\n      add\n        /* \"#utility.yul\":2636:2642   */\n      dup5\n        /* \"#utility.yul\":2580:2663   */\n      tag_41\n      jump\t// in\n    tag_77:\n        /* \"#utility.yul\":2424:2670   */\n      swap3\n      swap2\n      pop\n      pop\n      jump\t// out\n        /* \"#utility.yul\":2676:2856   */\n    tag_42:\n        /* \"#utility.yul\":2724:2801   */\n      0x4e487b7100000000000000000000000000000000000000000000000000000000\n        /* \"#utility.yul\":2721:2722   */\n      0x00\n        /* \"#utility.yul\":2714:2802   */\n      mstore\n        /* \"#utility.yul\":2821:2825   */\n      0x11\n        /* \"#utility.yul\":2818:2819   */\n      0x04\n        /* \"#utility.yul\":2811:2826   */\n      mstore\n        /* \"#utility.yul\":2845:2849   */\n      0x24\n        /* \"#utility.yul\":2842:2843   */\n      0x00\n        /* \"#utility.yul\":2835:2850   */\n      revert\n        /* \"#utility.yul\":2862:3272   */\n    tag_24:\n        /* \"#utility.yul\":2902:2909   */\n      0x00\n        /* \"#utility.yul\":2925:2945   */\n      tag_80\n        /* \"#utility.yul\":2943:2944   */\n      dup3\n        /* \"#utility.yul\":2925:2945   */\n      tag_34\n      jump\t// in\n    tag_80:\n        /* \"#utility.yul\":2920:2945   */\n      swap2\n      pop\n        /* \"#utility.yul\":2959:2979   */\n      tag_81\n        /* \"#utility.yul\":2977:2978   */\n      dup4\n        /* \"#utility.yul\":2959:2979   */\n      tag_34\n      jump\t// in\n    tag_81:\n        /* \"#utility.yul\":2954:2979   */\n      swap3\n      pop\n        /* \"#utility.yul\":3014:3015   */\n      dup3\n        /* \"#utility.yul\":3011:3012   */\n      dup3\n        /* \"#utility.yul\":3007:3016   */\n      mul\n        /* \"#utility.yul\":3036:3066   */\n      tag_82\n        /* \"#utility.yul\":3054:3065   */\n      dup2\n        /* \"#utility.yul\":3036:3066   */\n      tag_34\n      jump\t// in\n    tag_82:\n        /* \"#utility.yul\":3025:3066   */\n      swap2\n      pop\n        /* \"#utility.yul\":3215:3216   */\n      dup3\n        /* \"#utility.yul\":3206:3213   */\n      dup3\n        /* \"#utility.yul\":3202:3217   */\n      div\n        /* \"#utility.yul\":3199:3200   */\n      dup5\n        /* \"#utility.yul\":3196:3218   */\n      eq\n        /* \"#utility.yul\":3176:3177   */\n      dup4\n        /* \"#utility.yul\":3169:3178   */\n      iszero\n        /* \"#utility.yul\":3149:3232   */\n      or\n        /* \"#utility.yul\":3126:3265   */\n      tag_83\n      jumpi\n        /* \"#utility.yul\":3245:3263   */\n      tag_84\n      tag_42\n      jump\t// in\n    tag_84:\n        /* \"#utility.yul\":3126:3265   */\n    tag_83:\n        /* \"#utility.yul\":2910:3272   */\n      pop\n        /* \"#utility.yul\":2862:3272   */\n      swap3\n      swap2\n      pop\n      pop\n      jump\t// out\n        /* \"#utility.yul\":3278:3374   */\n    tag_43:\n        /* \"#utility.yul\":3315:3322   */\n      0x00\n        /* \"#utility.yul\":3344:3368   */\n      tag_86\n        /* \"#utility.yul\":3362:3367   */\n      dup3\n        /* \"#utility.yul\":3344:3368   */\n      tag_36\n      jump\t// in\n    tag_86:\n        /* \"#utility.yul\":3333:3368   */\n      swap1\n      pop\n        /* \"#utility.yul\":3278:3374   */\n      swap2\n      swap1\n      pop\n      jump\t// out\n        /* \"#utility.yul\":3380:3498   */\n    tag_44:\n        /* \"#utility.yul\":3467:3491   */\n      tag_88\n        /* \"#utility.yul\":3485:3490   */\n      dup2\n        /* \"#utility.yul\":3467:3491   */\n      tag_43\n      jump\t// in\n    tag_88:\n        /* \"#utility.yul\":3462:3465   */\n      dup3\n        /* \"#utility.yul\":3455:3492   */\n      mstore\n        /* \"#utility.yul\":3380:3498   */\n      pop\n      pop\n      jump\t// out\n        /* \"#utility.yul\":3504:3836   */\n    tag_26:\n        /* \"#utility.yul\":3625:3629   */\n      0x00\n        /* \"#utility.yul\":3663:3665   */\n      0x40\n        /* \"#utility.yul\":3652:3661   */\n      dup3\n        /* \"#utility.yul\":3648:3666   */\n      add\n        /* \"#utility.yul\":3640:3666   */\n      swap1\n      pop\n        /* \"#utility.yul\":3676:3747   */\n      tag_90\n        /* \"#utility.yul\":3744:3745   */\n      0x00\n        /* \"#utility.yul\":3733:3742   */\n      dup4\n        /* \"#utility.yul\":3729:3746   */\n      add\n        /* \"#utility.yul\":3720:3726   */\n      dup6\n        /* \"#utility.yul\":3676:3747   */\n      tag_44\n      jump\t// in\n    tag_90:\n        /* \"#utility.yul\":3757:3829   */\n      tag_91\n        /* \"#utility.yul\":3825:3827   */\n      0x20\n        /* \"#utility.yul\":3814:3823   */\n      dup4\n        /* \"#utility.yul\":3810:3828   */\n      add\n        /* \"#utility.yul\":3801:3807   */\n      dup5\n        /* \"#utility.yul\":3757:3829   */\n      tag_35\n      jump\t// in\n    tag_91:\n        /* \"#utility.yul\":3504:3836   */\n      swap4\n      swap3\n      pop\n      pop\n      pop\n      jump\t// out\n        /* \"#utility.yul\":3923:4040   */\n    tag_46:\n        /* \"#utility.yul\":4032:4033   */\n      0x00\n        /* \"#utility.yul\":4029:4030   */\n      0x00\n        /* \"#utility.yul\":4022:4034   */\n      revert\n        /* \"#utility.yul\":4169:4259   */\n    tag_48:\n        /* \"#utility.yul\":4203:4210   */\n      0x00\n        /* \"#utility.yul\":4246:4251   */\n      dup2\n        /* \"#utility.yul\":4239:4252   */\n      iszero\n        /* \"#utility.yul\":4232:4253   */\n      iszero\n        /* \"#utility.yul\":4221:4253   */\n      swap1\n      pop\n        /* \"#utility.yul\":4169:4259   */\n      swap2\n      swap1\n      pop\n      jump\t// out\n        /* \"#utility.yul\":4265:4381   */\n    tag_49:\n        /* \"#utility.yul\":4335:4356   */\n      tag_97\n        /* \"#utility.yul\":4350:4355   */\n      dup2\n        /* \"#utility.yul\":4335:4356   */\n      tag_48\n      jump\t// in\n    tag_97:\n        /* \"#utility.yul\":4328:4333   */\n      dup2\n        /* \"#utility.yul\":4325:4357   */\n      eq\n        /* \"#utility.yul\":4315:4375   */\n      tag_98\n      jumpi\n        /* \"#utility.yul\":4371:4372   */\n      0x00\n        /* \"#utility.yul\":4368:4369   */\n      0x00\n        /* \"#utility.yul\":4361:4373   */\n      revert\n        /* \"#utility.yul\":4315:4375   */\n    tag_98:\n        /* \"#utility.yul\":4265:4381   */\n      pop\n      jump\t// out\n        /* \"#utility.yul\":4387:4524   */\n    tag_50:\n        /* \"#utility.yul\":4441:4446   */\n      0x00\n        /* \"#utility.yul\":4472:4478   */\n      dup2\n        /* \"#utility.yul\":4466:4479   */\n      mload\n        /* \"#utility.yul\":4457:4479   */\n      swap1\n      pop\n        /* \"#utility.yul\":4488:4518   */\n      tag_100\n        /* \"#utility.yul\":4512:4517   */\n      dup2\n        /* \"#utility.yul\":4488:4518   */\n      tag_49\n      jump\t// in\n    tag_100:\n        /* \"#utility.yul\":4387:4524   */\n      swap3\n      swap2\n      pop\n      pop\n      jump\t// out\n        /* \"#utility.yul\":4530:4875   */\n    tag_30:\n        /* \"#utility.yul\":4597:4603   */\n      0x00\n        /* \"#utility.yul\":4646:4648   */\n      0x20\n        /* \"#utility.yul\":4634:4643   */\n      dup3\n        /* \"#utility.yul\":4625:4632   */\n      dup5\n        /* \"#utility.yul\":4621:4644   */\n      sub\n        /* \"#utility.yul\":4617:4649   */\n      slt\n        /* \"#utility.yul\":4614:4733   */\n      iszero\n      tag_102\n      jumpi\n        /* \"#utility.yul\":4652:4731   */\n      tag_103\n      tag_46\n      jump\t// in\n    tag_103:\n        /* \"#utility.yul\":4614:4733   */\n    tag_102:\n        /* \"#utility.yul\":4772:4773   */\n      0x00\n        /* \"#utility.yul\":4797:4858   */\n      tag_104\n        /* \"#utility.yul\":4850:4857   */\n      dup5\n        /* \"#utility.yul\":4841:4847   */\n      dup3\n        /* \"#utility.yul\":4830:4839   */\n      dup6\n        /* \"#utility.yul\":4826:4848   */\n      add\n        /* \"#utility.yul\":4797:4858   */\n      tag_50\n      jump\t// in\n    tag_104:\n        /* \"#utility.yul\":4787:4858   */\n      swap2\n      pop\n        /* \"#utility.yul\":4743:4868   */\n      pop\n        /* \"#utility.yul\":4530:4875   */\n      swap3\n      swap2\n      pop\n      pop\n      jump\t// out\n\n    auxdata: 0xa2646970667358221220f4aad05fa98793c64d44852dd85893d0cd5f7b45e0a6b6caefe4a14885ca507564736f6c634300081e0033\n}\n\nsub_1: assembly {\n        /* \"contracts2025/Token.sol\":518:689  contract Token is ERC20 ... */\n      mstore(0x40, 0x80)\n        /* \"contracts2025/Token.sol\":569:687  constructor(uint256 initialSupply)... */\n      callvalue\n      dup1\n      iszero\n      tag_1\n      jumpi\n      revert(0x00, 0x00)\n    tag_1:\n      pop\n      mload(0x40)\n      sub(codesize, bytecodeSize)\n      dup1\n      bytecodeSize\n      dup4\n      codecopy\n      dup2\n      dup2\n      add\n      0x40\n      mstore\n      dup2\n      add\n      swap1\n      tag_2\n      swap2\n      swap1\n      tag_3\n      jump\t// in\n    tag_2:\n        /* \"https://github.com/OpenZeppelin/openzeppelin-contracts/blob/master/contracts/token/ERC20/ERC20.sol\":1582:1695  constructor(string memory name_, string memory symbol_) {... */\n      mload(0x40)\n      dup1\n      0x40\n      add\n      0x40\n      mstore\n      dup1\n      0x08\n      dup2\n      mstore\n      0x20\n      add\n      0x41555241434f494e000000000000000000000000000000000000000000000000\n      dup2\n      mstore\n      pop\n      mload(0x40)\n      dup1\n      0x40\n      add\n      0x40\n      mstore\n      dup1\n      0x04\n      dup2\n      mstore\n      0x20\n      add\n      0x4155524100000000000000000000000000000000000000000000000000000000\n      dup2\n      mstore\n      pop\n        /* \"https://github.com/OpenZeppelin/openzeppelin-contracts/blob/master/contracts/token/ERC20/ERC20.sol\":1656:1661  name_ */\n      dup2\n        /* \"https://github.com/OpenZeppelin/openzeppelin-contracts/blob/master/contracts/token/ERC20/ERC20.sol\":1648:1653  _name */\n      0x03\n        /* \"https://github.com/OpenZeppelin/openzeppelin-contracts/blob/master/contracts/token/ERC20/ERC20.sol\":1648:1661  _name = name_ */\n      swap1\n      dup2\n      tag_7\n      swap2\n      swap1\n      tag_8\n      jump\t// in\n    tag_7:\n      pop\n        /* \"https://github.com/OpenZeppelin/openzeppelin-contracts/blob/master/contracts/token/ERC20/ERC20.sol\":1681:1688  symbol_ */\n      dup1\n        /* \"https://github.com/OpenZeppelin/openzeppelin-contracts/blob/master/contracts/token/ERC20/ERC20.sol\":1671:1678  _symbol */\n      0x04\n        /* \"https://github.com/OpenZeppelin/openzeppelin-contracts/blob/master/contracts/token/ERC20/ERC20.sol\":1671:1688  _symbol = symbol_ */\n      swap1\n      dup2\n      tag_9\n      swap2\n      swap1\n      tag_8\n      jump\t// in\n    tag_9:\n      pop\n        /* \"https://github.com/OpenZeppelin/openzeppelin-contracts/blob/master/contracts/token/ERC20/ERC20.sol\":1582:1695  constructor(string memory name_, string memory symbol_) {... */\n      pop\n      pop\n        /* \"contracts2025/Token.sol\":648:680  _mint(msg.sender, initialSupply) */\n      tag_11\n        /* \"contracts2025/Token.sol\":654:664  msg.sender */\n      caller\n        /* \"contracts2025/Token.sol\":666:679  initialSupply */\n      dup3\n        /* \"contracts2025/Token.sol\":648:653  _mint */\n      shl(0x20, tag_12)\n        /* \"contracts2025/Token.sol\":648:680  _mint(msg.sender, initialSupply) */\n      0x20\n      shr\n      jump\t// in\n    tag_11:\n        /* \"contracts2025/Token.sol\":569:687  constructor(uint256 initialSupply)... */\n      pop\n        /* \"contracts2025/Token.sol\":518:689  contract Token is ERC20 ... */\n      jump(tag_13)\n        /* \"https://github.com/OpenZeppelin/openzeppelin-contracts/blob/master/contracts/token/ERC20/ERC20.sol\":7362:7570  function _mint(address account, uint256 value) internal {... */\n    tag_12:\n        /* \"https://github.com/OpenZeppelin/openzeppelin-contracts/blob/master/contracts/token/ERC20/ERC20.sol\":7451:7452  0 */\n      0x00\n        /* \"https://github.com/OpenZeppelin/openzeppelin-contracts/blob/master/contracts/token/ERC20/ERC20.sol\":7432:7453  account == address(0) */\n      0xffffffffffffffffffffffffffffffffffffffff\n      and\n        /* \"https://github.com/OpenZeppelin/openzeppelin-contracts/blob/master/contracts/token/ERC20/ERC20.sol\":7432:7439  account */\n      dup3\n        /* \"https://github.com/OpenZeppelin/openzeppelin-contracts/blob/master/contracts/token/ERC20/ERC20.sol\":7432:7453  account == address(0) */\n      0xffffffffffffffffffffffffffffffffffffffff\n      and\n      sub\n        /* \"https://github.com/OpenZeppelin/openzeppelin-contracts/blob/master/contracts/token/ERC20/ERC20.sol\":7428:7519  if (account == address(0)) {... */\n      tag_15\n      jumpi\n        /* \"https://github.com/OpenZeppelin/openzeppelin-contracts/blob/master/contracts/token/ERC20/ERC20.sol\":7505:7506  0 */\n      0x00\n        /* \"https://github.com/OpenZeppelin/openzeppelin-contracts/blob/master/contracts/token/ERC20/ERC20.sol\":7476:7508  ERC20InvalidReceiver(address(0)) */\n      mload(0x40)\n      0xec442f0500000000000000000000000000000000000000000000000000000000\n      dup2\n      mstore\n      0x04\n      add\n      tag_16\n      swap2\n      swap1\n      tag_17\n      jump\t// in\n    tag_16:\n      mload(0x40)\n      dup1\n      swap2\n      sub\n      swap1\n      revert\n        /* \"https://github.com/OpenZeppelin/openzeppelin-contracts/blob/master/contracts/token/ERC20/ERC20.sol\":7428:7519  if (account == address(0)) {... */\n    tag_15:\n        /* \"https://github.com/OpenZeppelin/openzeppelin-contracts/blob/master/contracts/token/ERC20/ERC20.sol\":7528:7563  _update(address(0), account, value) */\n      tag_18\n        /* \"https://github.com/OpenZeppelin/openzeppelin-contracts/blob/master/contracts/token/ERC20/ERC20.sol\":7544:7545  0 */\n      0x00\n        /* \"https://github.com/OpenZeppelin/openzeppelin-contracts/blob/master/contracts/token/ERC20/ERC20.sol\":7548:7555  account */\n      dup4\n        /* \"https://github.com/OpenZeppelin/openzeppelin-contracts/blob/master/contracts/token/ERC20/ERC20.sol\":7557:7562  value */\n      dup4\n        /* \"https://github.com/OpenZeppelin/openzeppelin-contracts/blob/master/contracts/token/ERC20/ERC20.sol\":7528:7535  _update */\n      shl(0x20, tag_19)\n        /* \"https://github.com/OpenZeppelin/openzeppelin-contracts/blob/master/contracts/token/ERC20/ERC20.sol\":7528:7563  _update(address(0), account, value) */\n      0x20\n      shr\n      jump\t// in\n    tag_18:\n        /* \"https://github.com/OpenZeppelin/openzeppelin-contracts/blob/master/contracts/token/ERC20/ERC20.sol\":7362:7570  function _mint(address account, uint256 value) internal {... */\n      pop\n      pop\n      jump\t// out\n        /* \"https://github.com/OpenZeppelin/openzeppelin-contracts/blob/master/contracts/token/ERC20/ERC20.sol\":5912:7019  function _update(address from, address to, uint256 value) internal virtual {... */\n    tag_19:\n        /* \"https://github.com/OpenZeppelin/openzeppelin-contracts/blob/master/contracts/token/ERC20/ERC20.sol\":6017:6018  0 */\n      0x00\n        /* \"https://github.com/OpenZeppelin/openzeppelin-contracts/blob/master/contracts/token/ERC20/ERC20.sol\":6001:6019  from == address(0) */\n      0xffffffffffffffffffffffffffffffffffffffff\n      and\n        /* \"https://github.com/OpenZeppelin/openzeppelin-contracts/blob/master/contracts/token/ERC20/ERC20.sol\":6001:6005  from */\n      dup4\n        /* \"https://github.com/OpenZeppelin/openzeppelin-contracts/blob/master/contracts/token/ERC20/ERC20.sol\":6001:6019  from == address(0) */\n      0xffffffffffffffffffffffffffffffffffffffff\n      and\n      sub\n        /* \"https://github.com/OpenZeppelin/openzeppelin-contracts/blob/master/contracts/token/ERC20/ERC20.sol\":5997:6537  if (from == address(0)) {... */\n      tag_21\n      jumpi\n        /* \"https://github.com/OpenZeppelin/openzeppelin-contracts/blob/master/contracts/token/ERC20/ERC20.sol\":6153:6158  value */\n      dup1\n        /* \"https://github.com/OpenZeppelin/openzeppelin-contracts/blob/master/contracts/token/ERC20/ERC20.sol\":6137:6149  _totalSupply */\n      0x02\n      0x00\n        /* \"https://github.com/OpenZeppelin/openzeppelin-contracts/blob/master/contracts/token/ERC20/ERC20.sol\":6137:6158  _totalSupply += value */\n      dup3\n      dup3\n      sload\n      tag_22\n      swap2\n      swap1\n      tag_23\n      jump\t// in\n    tag_22:\n      swap3\n      pop\n      pop\n      dup2\n      swap1\n      sstore\n      pop\n        /* \"https://github.com/OpenZeppelin/openzeppelin-contracts/blob/master/contracts/token/ERC20/ERC20.sol\":5997:6537  if (from == address(0)) {... */\n      jump(tag_24)\n    tag_21:\n        /* \"https://github.com/OpenZeppelin/openzeppelin-contracts/blob/master/contracts/token/ERC20/ERC20.sol\":6189:6208  uint256 fromBalance */\n      0x00\n        /* \"https://github.com/OpenZeppelin/openzeppelin-contracts/blob/master/contracts/token/ERC20/ERC20.sol\":6211:6220  _balances */\n      0x00\n        /* \"https://github.com/OpenZeppelin/openzeppelin-contracts/blob/master/contracts/token/ERC20/ERC20.sol\":6211:6226  _balances[from] */\n      0x00\n        /* \"https://github.com/OpenZeppelin/openzeppelin-contracts/blob/master/contracts/token/ERC20/ERC20.sol\":6221:6225  from */\n      dup6\n        /* \"https://github.com/OpenZeppelin/openzeppelin-contracts/blob/master/contracts/token/ERC20/ERC20.sol\":6211:6226  _balances[from] */\n      0xffffffffffffffffffffffffffffffffffffffff\n      and\n      0xffffffffffffffffffffffffffffffffffffffff\n      and\n      dup2\n      mstore\n      0x20\n      add\n      swap1\n      dup2\n      mstore\n      0x20\n      add\n      0x00\n      keccak256\n      sload\n        /* \"https://github.com/OpenZeppelin/openzeppelin-contracts/blob/master/contracts/token/ERC20/ERC20.sol\":6189:6226  uint256 fromBalance = _balances[from] */\n      swap1\n      pop\n        /* \"https://github.com/OpenZeppelin/openzeppelin-contracts/blob/master/contracts/token/ERC20/ERC20.sol\":6258:6263  value */\n      dup2\n        /* \"https://github.com/OpenZeppelin/openzeppelin-contracts/blob/master/contracts/token/ERC20/ERC20.sol\":6244:6255  fromBalance */\n      dup2\n        /* \"https://github.com/OpenZeppelin/openzeppelin-contracts/blob/master/contracts/token/ERC20/ERC20.sol\":6244:6263  fromBalance < value */\n      lt\n        /* \"https://github.com/OpenZeppelin/openzeppelin-contracts/blob/master/contracts/token/ERC20/ERC20.sol\":6240:6355  if (fromBalance < value) {... */\n      iszero\n      tag_25\n      jumpi\n        /* \"https://github.com/OpenZeppelin/openzeppelin-contracts/blob/master/contracts/token/ERC20/ERC20.sol\":6315:6319  from */\n      dup4\n        /* \"https://github.com/OpenZeppelin/openzeppelin-contracts/blob/master/contracts/token/ERC20/ERC20.sol\":6321:6332  fromBalance */\n      dup2\n        /* \"https://github.com/OpenZeppelin/openzeppelin-contracts/blob/master/contracts/token/ERC20/ERC20.sol\":6334:6339  value */\n      dup4\n        /* \"https://github.com/OpenZeppelin/openzeppelin-contracts/blob/master/contracts/token/ERC20/ERC20.sol\":6290:6340  ERC20InsufficientBalance(from, fromBalance, value) */\n      mload(0x40)\n      0xe450d38c00000000000000000000000000000000000000000000000000000000\n      dup2\n      mstore\n      0x04\n      add\n      tag_26\n      swap4\n      swap3\n      swap2\n      swap1\n      tag_27\n      jump\t// in\n    tag_26:\n      mload(0x40)\n      dup1\n      swap2\n      sub\n      swap1\n      revert\n        /* \"https://github.com/OpenZeppelin/openzeppelin-contracts/blob/master/contracts/token/ERC20/ERC20.sol\":6240:6355  if (fromBalance < value) {... */\n    tag_25:\n        /* \"https://github.com/OpenZeppelin/openzeppelin-contracts/blob/master/contracts/token/ERC20/ERC20.sol\":6507:6512  value */\n      dup2\n        /* \"https://github.com/OpenZeppelin/openzeppelin-contracts/blob/master/contracts/token/ERC20/ERC20.sol\":6493:6504  fromBalance */\n      dup2\n        /* \"https://github.com/OpenZeppelin/openzeppelin-contracts/blob/master/contracts/token/ERC20/ERC20.sol\":6493:6512  fromBalance - value */\n      sub\n        /* \"https://github.com/OpenZeppelin/openzeppelin-contracts/blob/master/contracts/token/ERC20/ERC20.sol\":6475:6484  _balances */\n      0x00\n        /* \"https://github.com/OpenZeppelin/openzeppelin-contracts/blob/master/contracts/token/ERC20/ERC20.sol\":6475:6490  _balances[from] */\n      0x00\n        /* \"https://github.com/OpenZeppelin/openzeppelin-contracts/blob/master/contracts/token/ERC20/ERC20.sol\":6485:6489  from */\n      dup7\n        /* \"https://github.com/OpenZeppelin/openzeppelin-contracts/blob/master/contracts/token/ERC20/ERC20.sol\":6475:6490  _balances[from] */\n      0xffffffffffffffffffffffffffffffffffffffff\n      and\n      0xffffffffffffffffffffffffffffffffffffffff\n      and\n      dup2\n      mstore\n      0x20\n      add\n      swap1\n      dup2\n      mstore\n      0x20\n      add\n      0x00\n      keccak256\n        /* \"https://github.com/OpenZeppelin/openzeppelin-contracts/blob/master/contracts/token/ERC20/ERC20.sol\":6475:6512  _balances[from] = fromBalance - value */\n      dup2\n      swap1\n      sstore\n      pop\n        /* \"https://github.com/OpenZeppelin/openzeppelin-contracts/blob/master/contracts/token/ERC20/ERC20.sol\":6175:6537  {... */\n      pop\n        /* \"https://github.com/OpenZeppelin/openzeppelin-contracts/blob/master/contracts/token/ERC20/ERC20.sol\":5997:6537  if (from == address(0)) {... */\n    tag_24:\n        /* \"https://github.com/OpenZeppelin/openzeppelin-contracts/blob/master/contracts/token/ERC20/ERC20.sol\":6565:6566  0 */\n      0x00\n        /* \"https://github.com/OpenZeppelin/openzeppelin-contracts/blob/master/contracts/token/ERC20/ERC20.sol\":6551:6567  to == address(0) */\n      0xffffffffffffffffffffffffffffffffffffffff\n      and\n        /* \"https://github.com/OpenZeppelin/openzeppelin-contracts/blob/master/contracts/token/ERC20/ERC20.sol\":6551:6553  to */\n      dup3\n        /* \"https://github.com/OpenZeppelin/openzeppelin-contracts/blob/master/contracts/token/ERC20/ERC20.sol\":6551:6567  to == address(0) */\n      0xffffffffffffffffffffffffffffffffffffffff\n      and\n      sub\n        /* \"https://github.com/OpenZeppelin/openzeppelin-contracts/blob/master/contracts/token/ERC20/ERC20.sol\":6547:6972  if (to == address(0)) {... */\n      tag_28\n      jumpi\n        /* \"https://github.com/OpenZeppelin/openzeppelin-contracts/blob/master/contracts/token/ERC20/ERC20.sol\":6730:6735  value */\n      dup1\n        /* \"https://github.com/OpenZeppelin/openzeppelin-contracts/blob/master/contracts/token/ERC20/ERC20.sol\":6714:6726  _totalSupply */\n      0x02\n      0x00\n        /* \"https://github.com/OpenZeppelin/openzeppelin-contracts/blob/master/contracts/token/ERC20/ERC20.sol\":6714:6735  _totalSupply -= value */\n      dup3\n      dup3\n      sload\n      sub\n      swap3\n      pop\n      pop\n      dup2\n      swap1\n      sstore\n      pop\n        /* \"https://github.com/OpenZeppelin/openzeppelin-contracts/blob/master/contracts/token/ERC20/ERC20.sol\":6547:6972  if (to == address(0)) {... */\n      jump(tag_29)\n    tag_28:\n        /* \"https://github.com/OpenZeppelin/openzeppelin-contracts/blob/master/contracts/token/ERC20/ERC20.sol\":6942:6947  value */\n      dup1\n        /* \"https://github.com/OpenZeppelin/openzeppelin-contracts/blob/master/contracts/token/ERC20/ERC20.sol\":6925:6934  _balances */\n      0x00\n        /* \"https://github.com/OpenZeppelin/openzeppelin-contracts/blob/master/contracts/token/ERC20/ERC20.sol\":6925:6938  _balances[to] */\n      0x00\n        /* \"https://github.com/OpenZeppelin/openzeppelin-contracts/blob/master/contracts/token/ERC20/ERC20.sol\":6935:6937  to */\n      dup5\n        /* \"https://github.com/OpenZeppelin/openzeppelin-contracts/blob/master/contracts/token/ERC20/ERC20.sol\":6925:6938  _balances[to] */\n      0xffffffffffffffffffffffffffffffffffffffff\n      and\n      0xffffffffffffffffffffffffffffffffffffffff\n      and\n      dup2\n      mstore\n      0x20\n      add\n      swap1\n      dup2\n      mstore\n      0x20\n      add\n      0x00\n      keccak256\n      0x00\n        /* \"https://github.com/OpenZeppelin/openzeppelin-contracts/blob/master/contracts/token/ERC20/ERC20.sol\":6925:6947  _balances[to] += value */\n      dup3\n      dup3\n      sload\n      add\n      swap3\n      pop\n      pop\n      dup2\n      swap1\n      sstore\n      pop\n        /* \"https://github.com/OpenZeppelin/openzeppelin-contracts/blob/master/contracts/token/ERC20/ERC20.sol\":6547:6972  if (to == address(0)) {... */\n    tag_29:\n        /* \"https://github.com/OpenZeppelin/openzeppelin-contracts/blob/master/contracts/token/ERC20/ERC20.sol\":7002:7004  to */\n      dup2\n        /* \"https://github.com/OpenZeppelin/openzeppelin-contracts/blob/master/contracts/token/ERC20/ERC20.sol\":6987:7012  Transfer(from, to, value) */\n      0xffffffffffffffffffffffffffffffffffffffff\n      and\n        /* \"https://github.com/OpenZeppelin/openzeppelin-contracts/blob/master/contracts/token/ERC20/ERC20.sol\":6996:7000  from */\n      dup4\n        /* \"https://github.com/OpenZeppelin/openzeppelin-contracts/blob/master/contracts/token/ERC20/ERC20.sol\":6987:7012  Transfer(from, to, value) */\n      0xffffffffffffffffffffffffffffffffffffffff\n      and\n      0xddf252ad1be2c89b69c2b068fc378daa952ba7f163c4a11628f55a4df523b3ef\n        /* \"https://github.com/OpenZeppelin/openzeppelin-contracts/blob/master/contracts/token/ERC20/ERC20.sol\":7006:7011  value */\n      dup4\n        /* \"https://github.com/OpenZeppelin/openzeppelin-contracts/blob/master/contracts/token/ERC20/ERC20.sol\":6987:7012  Transfer(from, to, value) */\n      mload(0x40)\n      tag_30\n      swap2\n      swap1\n      tag_31\n      jump\t// in\n    tag_30:\n      mload(0x40)\n      dup1\n      swap2\n      sub\n      swap1\n      log3\n        /* \"https://github.com/OpenZeppelin/openzeppelin-contracts/blob/master/contracts/token/ERC20/ERC20.sol\":5912:7019  function _update(address from, address to, uint256 value) internal virtual {... */\n      pop\n      pop\n      pop\n      jump\t// out\n        /* \"#utility.yul\":88:205   */\n    tag_33:\n        /* \"#utility.yul\":197:198   */\n      0x00\n        /* \"#utility.yul\":194:195   */\n      0x00\n        /* \"#utility.yul\":187:199   */\n      revert\n        /* \"#utility.yul\":334:411   */\n    tag_35:\n        /* \"#utility.yul\":371:378   */\n      0x00\n        /* \"#utility.yul\":400:405   */\n      dup2\n        /* \"#utility.yul\":389:405   */\n      swap1\n      pop\n        /* \"#utility.yul\":334:411   */\n      swap2\n      swap1\n      pop\n      jump\t// out\n        /* \"#utility.yul\":417:539   */\n    tag_36:\n        /* \"#utility.yul\":490:514   */\n      tag_68\n        /* \"#utility.yul\":508:513   */\n      dup2\n        /* \"#utility.yul\":490:514   */\n      tag_35\n      jump\t// in\n    tag_68:\n        /* \"#utility.yul\":483:488   */\n      dup2\n        /* \"#utility.yul\":480:515   */\n      eq\n        /* \"#utility.yul\":470:533   */\n      tag_69\n      jumpi\n        /* \"#utility.yul\":529:530   */\n      0x00\n        /* \"#utility.yul\":526:527   */\n      0x00\n        /* \"#utility.yul\":519:531   */\n      revert\n        /* \"#utility.yul\":470:533   */\n    tag_69:\n        /* \"#utility.yul\":417:539   */\n      pop\n      jump\t// out\n        /* \"#utility.yul\":545:688   */\n    tag_37:\n        /* \"#utility.yul\":602:607   */\n      0x00\n        /* \"#utility.yul\":633:639   */\n      dup2\n        /* \"#utility.yul\":627:640   */\n      mload\n        /* \"#utility.yul\":618:640   */\n      swap1\n      pop\n        /* \"#utility.yul\":649:682   */\n      tag_71\n        /* \"#utility.yul\":676:681   */\n      dup2\n        /* \"#utility.yul\":649:682   */\n      tag_36\n      jump\t// in\n    tag_71:\n        /* \"#utility.yul\":545:688   */\n      swap3\n      swap2\n      pop\n      pop\n      jump\t// out\n        /* \"#utility.yul\":694:1045   */\n    tag_3:\n        /* \"#utility.yul\":764:770   */\n      0x00\n        /* \"#utility.yul\":813:815   */\n      0x20\n        /* \"#utility.yul\":801:810   */\n      dup3\n        /* \"#utility.yul\":792:799   */\n      dup5\n        /* \"#utility.yul\":788:811   */\n      sub\n        /* \"#utility.yul\":784:816   */\n      slt\n        /* \"#utility.yul\":781:900   */\n      iszero\n      tag_73\n      jumpi\n        /* \"#utility.yul\":819:898   */\n      tag_74\n      tag_33\n      jump\t// in\n    tag_74:\n        /* \"#utility.yul\":781:900   */\n    tag_73:\n        /* \"#utility.yul\":939:940   */\n      0x00\n        /* \"#utility.yul\":964:1028   */\n      tag_75\n        /* \"#utility.yul\":1020:1027   */\n      dup5\n        /* \"#utility.yul\":1011:1017   */\n      dup3\n        /* \"#utility.yul\":1000:1009   */\n      dup6\n        /* \"#utility.yul\":996:1018   */\n      add\n        /* \"#utility.yul\":964:1028   */\n      tag_37\n      jump\t// in\n    tag_75:\n        /* \"#utility.yul\":954:1028   */\n      swap2\n      pop\n        /* \"#utility.yul\":910:1038   */\n      pop\n        /* \"#utility.yul\":694:1045   */\n      swap3\n      swap2\n      pop\n      pop\n      jump\t// out\n        /* \"#utility.yul\":1051:1150   */\n    tag_38:\n        /* \"#utility.yul\":1103:1109   */\n      0x00\n        /* \"#utility.yul\":1137:1142   */\n      dup2\n        /* \"#utility.yul\":1131:1143   */\n      mload\n        /* \"#utility.yul\":1121:1143   */\n      swap1\n      pop\n        /* \"#utility.yul\":1051:1150   */\n      swap2\n      swap1\n      pop\n      jump\t// out\n        /* \"#utility.yul\":1156:1336   */\n    tag_39:\n        /* \"#utility.yul\":1204:1281   */\n      0x4e487b7100000000000000000000000000000000000000000000000000000000\n        /* \"#utility.yul\":1201:1202   */\n      0x00\n        /* \"#utility.yul\":1194:1282   */\n      mstore\n        /* \"#utility.yul\":1301:1305   */\n      0x41\n        /* \"#utility.yul\":1298:1299   */\n      0x04\n        /* \"#utility.yul\":1291:1306   */\n      mstore\n        /* \"#utility.yul\":1325:1329   */\n      0x24\n        /* \"#utility.yul\":1322:1323   */\n      0x00\n        /* \"#utility.yul\":1315:1330   */\n      revert\n        /* \"#utility.yul\":1342:1522   */\n    tag_40:\n        /* \"#utility.yul\":1390:1467   */\n      0x4e487b7100000000000000000000000000000000000000000000000000000000\n        /* \"#utility.yul\":1387:1388   */\n      0x00\n        /* \"#utility.yul\":1380:1468   */\n      mstore\n        /* \"#utility.yul\":1487:1491   */\n      0x22\n        /* \"#utility.yul\":1484:1485   */\n      0x04\n        /* \"#utility.yul\":1477:1492   */\n      mstore\n        /* \"#utility.yul\":1511:1515   */\n      0x24\n        /* \"#utility.yul\":1508:1509   */\n      0x00\n        /* \"#utility.yul\":1501:1516   */\n      revert\n        /* \"#utility.yul\":1528:1848   */\n    tag_41:\n        /* \"#utility.yul\":1572:1578   */\n      0x00\n        /* \"#utility.yul\":1609:1610   */\n      0x02\n        /* \"#utility.yul\":1603:1607   */\n      dup3\n        /* \"#utility.yul\":1599:1611   */\n      div\n        /* \"#utility.yul\":1589:1611   */\n      swap1\n      pop\n        /* \"#utility.yul\":1656:1657   */\n      0x01\n        /* \"#utility.yul\":1650:1654   */\n      dup3\n        /* \"#utility.yul\":1646:1658   */\n      and\n        /* \"#utility.yul\":1677:1695   */\n      dup1\n        /* \"#utility.yul\":1667:1748   */\n      tag_80\n      jumpi\n        /* \"#utility.yul\":1733:1737   */\n      0x7f\n        /* \"#utility.yul\":1725:1731   */\n      dup3\n        /* \"#utility.yul\":1721:1738   */\n      and\n        /* \"#utility.yul\":1711:1738   */\n      swap2\n      pop\n        /* \"#utility.yul\":1667:1748   */\n    tag_80:\n        /* \"#utility.yul\":1795:1797   */\n      0x20\n        /* \"#utility.yul\":1787:1793   */\n      dup3\n        /* \"#utility.yul\":1784:1798   */\n      lt\n        /* \"#utility.yul\":1764:1782   */\n      dup2\n        /* \"#utility.yul\":1761:1799   */\n      sub\n        /* \"#utility.yul\":1758:1842   */\n      tag_81\n      jumpi\n        /* \"#utility.yul\":1814:1832   */\n      tag_82\n      tag_40\n      jump\t// in\n    tag_82:\n        /* \"#utility.yul\":1758:1842   */\n    tag_81:\n        /* \"#utility.yul\":1579:1848   */\n      pop\n        /* \"#utility.yul\":1528:1848   */\n      swap2\n      swap1\n      pop\n      jump\t// out\n        /* \"#utility.yul\":1854:1995   */\n    tag_42:\n        /* \"#utility.yul\":1903:1907   */\n      0x00\n        /* \"#utility.yul\":1926:1929   */\n      dup2\n        /* \"#utility.yul\":1918:1929   */\n      swap1\n      pop\n        /* \"#utility.yul\":1949:1952   */\n      dup2\n        /* \"#utility.yul\":1946:1947   */\n      0x00\n        /* \"#utility.yul\":1939:1953   */\n      mstore\n        /* \"#utility.yul\":1983:1987   */\n      0x20\n        /* \"#utility.yul\":1980:1981   */\n      0x00\n        /* \"#utility.yul\":1970:1988   */\n      keccak256\n        /* \"#utility.yul\":1962:1988   */\n      swap1\n      pop\n        /* \"#utility.yul\":1854:1995   */\n      swap2\n      swap1\n      pop\n      jump\t// out\n        /* \"#utility.yul\":2001:2094   */\n    tag_43:\n        /* \"#utility.yul\":2038:2044   */\n      0x00\n        /* \"#utility.yul\":2085:2087   */\n      0x20\n        /* \"#utility.yul\":2080:2082   */\n      0x1f\n        /* \"#utility.yul\":2073:2078   */\n      dup4\n        /* \"#utility.yul\":2069:2083   */\n      add\n        /* \"#utility.yul\":2065:2088   */\n      div\n        /* \"#utility.yul\":2055:2088   */\n      swap1\n      pop\n        /* \"#utility.yul\":2001:2094   */\n      swap2\n      swap1\n      pop\n      jump\t// out\n        /* \"#utility.yul\":2100:2207   */\n    tag_44:\n        /* \"#utility.yul\":2144:2152   */\n      0x00\n        /* \"#utility.yul\":2194:2199   */\n      dup3\n        /* \"#utility.yul\":2188:2192   */\n      dup3\n        /* \"#utility.yul\":2184:2200   */\n      shl\n        /* \"#utility.yul\":2163:2200   */\n      swap1\n      pop\n        /* \"#utility.yul\":2100:2207   */\n      swap3\n      swap2\n      pop\n      pop\n      jump\t// out\n        /* \"#utility.yul\":2213:2606   */\n    tag_45:\n        /* \"#utility.yul\":2282:2288   */\n      0x00\n        /* \"#utility.yul\":2332:2333   */\n      0x08\n        /* \"#utility.yul\":2320:2330   */\n      dup4\n        /* \"#utility.yul\":2316:2334   */\n      mul\n        /* \"#utility.yul\":2355:2452   */\n      tag_87\n        /* \"#utility.yul\":2385:2451   */\n      0xffffffffffffffffffffffffffffffffffffffffffffffffffffffffffffffff\n        /* \"#utility.yul\":2374:2383   */\n      dup3\n        /* \"#utility.yul\":2355:2452   */\n      tag_44\n      jump\t// in\n    tag_87:\n        /* \"#utility.yul\":2473:2512   */\n      tag_88\n        /* \"#utility.yul\":2503:2511   */\n      dup7\n        /* \"#utility.yul\":2492:2501   */\n      dup4\n        /* \"#utility.yul\":2473:2512   */\n      tag_44\n      jump\t// in\n    tag_88:\n        /* \"#utility.yul\":2461:2512   */\n      swap6\n      pop\n        /* \"#utility.yul\":2545:2549   */\n      dup1\n        /* \"#utility.yul\":2541:2550   */\n      not\n        /* \"#utility.yul\":2534:2539   */\n      dup5\n        /* \"#utility.yul\":2530:2551   */\n      and\n        /* \"#utility.yul\":2521:2551   */\n      swap4\n      pop\n        /* \"#utility.yul\":2594:2598   */\n      dup1\n        /* \"#utility.yul\":2584:2592   */\n      dup7\n        /* \"#utility.yul\":2580:2599   */\n      and\n        /* \"#utility.yul\":2573:2578   */\n      dup5\n        /* \"#utility.yul\":2570:2600   */\n      or\n        /* \"#utility.yul\":2560:2600   */\n      swap3\n      pop\n        /* \"#utility.yul\":2289:2606   */\n      pop\n      pop\n        /* \"#utility.yul\":2213:2606   */\n      swap4\n      swap3\n      pop\n      pop\n      pop\n      jump\t// out\n        /* \"#utility.yul\":2612:2672   */\n    tag_46:\n        /* \"#utility.yul\":2640:2643   */\n      0x00\n        /* \"#utility.yul\":2661:2666   */\n      dup2\n        /* \"#utility.yul\":2654:2666   */\n      swap1\n      pop\n        /* \"#utility.yul\":2612:2672   */\n      swap2\n      swap1\n      pop\n      jump\t// out\n        /* \"#utility.yul\":2678:2820   */\n    tag_47:\n        /* \"#utility.yul\":2728:2737   */\n      0x00\n        /* \"#utility.yul\":2761:2814   */\n      tag_91\n        /* \"#utility.yul\":2779:2813   */\n      tag_92\n        /* \"#utility.yul\":2788:2812   */\n      tag_93\n        /* \"#utility.yul\":2806:2811   */\n      dup5\n        /* \"#utility.yul\":2788:2812   */\n      tag_35\n      jump\t// in\n    tag_93:\n        /* \"#utility.yul\":2779:2813   */\n      tag_46\n      jump\t// in\n    tag_92:\n        /* \"#utility.yul\":2761:2814   */\n      tag_35\n      jump\t// in\n    tag_91:\n        /* \"#utility.yul\":2748:2814   */\n      swap1\n      pop\n        /* \"#utility.yul\":2678:2820   */\n      swap2\n      swap1\n      pop\n      jump\t// out\n        /* \"#utility.yul\":2826:2901   */\n    tag_48:\n        /* \"#utility.yul\":2869:2872   */\n      0x00\n        /* \"#utility.yul\":2890:2895   */\n      dup2\n        /* \"#utility.yul\":2883:2895   */\n      swap1\n      pop\n        /* \"#utility.yul\":2826:2901   */\n      swap2\n      swap1\n      pop\n      jump\t// out\n        /* \"#utility.yul\":2907:3176   */\n    tag_49:\n        /* \"#utility.yul\":3017:3056   */\n      tag_96\n        /* \"#utility.yul\":3048:3055   */\n      dup4\n        /* \"#utility.yul\":3017:3056   */\n      tag_47\n      jump\t// in\n    tag_96:\n        /* \"#utility.yul\":3078:3169   */\n      tag_97\n        /* \"#utility.yul\":3127:3168   */\n      tag_98\n        /* \"#utility.yul\":3151:3167   */\n      dup3\n        /* \"#utility.yul\":3127:3168   */\n      tag_48\n      jump\t// in\n    tag_98:\n        /* \"#utility.yul\":3119:3125   */\n      dup5\n        /* \"#utility.yul\":3112:3116   */\n      dup5\n        /* \"#utility.yul\":3106:3117   */\n      sload\n        /* \"#utility.yul\":3078:3169   */\n      tag_45\n      jump\t// in\n    tag_97:\n        /* \"#utility.yul\":3072:3076   */\n      dup3\n        /* \"#utility.yul\":3065:3170   */\n      sstore\n        /* \"#utility.yul\":2983:3176   */\n      pop\n        /* \"#utility.yul\":2907:3176   */\n      pop\n      pop\n      pop\n      jump\t// out\n        /* \"#utility.yul\":3182:3255   */\n    tag_50:\n        /* \"#utility.yul\":3227:3230   */\n      0x00\n        /* \"#utility.yul\":3248:3249   */\n      0x00\n        /* \"#utility.yul\":3241:3249   */\n      swap1\n      pop\n        /* \"#utility.yul\":3182:3255   */\n      swap1\n      jump\t// out\n        /* \"#utility.yul\":3261:3450   */\n    tag_51:\n        /* \"#utility.yul\":3338:3370   */\n      tag_101\n      tag_50\n      jump\t// in\n    tag_101:\n        /* \"#utility.yul\":3379:3444   */\n      tag_102\n        /* \"#utility.yul\":3437:3443   */\n      dup2\n        /* \"#utility.yul\":3429:3435   */\n      dup5\n        /* \"#utility.yul\":3423:3427   */\n      dup5\n        /* \"#utility.yul\":3379:3444   */\n      tag_49\n      jump\t// in\n    tag_102:\n        /* \"#utility.yul\":3314:3450   */\n      pop\n        /* \"#utility.yul\":3261:3450   */\n      pop\n      pop\n      jump\t// out\n        /* \"#utility.yul\":3456:3642   */\n    tag_52:\n        /* \"#utility.yul\":3516:3636   */\n    tag_104:\n        /* \"#utility.yul\":3533:3536   */\n      dup2\n        /* \"#utility.yul\":3526:3531   */\n      dup2\n        /* \"#utility.yul\":3523:3537   */\n      lt\n        /* \"#utility.yul\":3516:3636   */\n      iszero\n      tag_106\n      jumpi\n        /* \"#utility.yul\":3587:3626   */\n      tag_107\n        /* \"#utility.yul\":3624:3625   */\n      0x00\n        /* \"#utility.yul\":3617:3622   */\n      dup3\n        /* \"#utility.yul\":3587:3626   */\n      tag_51\n      jump\t// in\n    tag_107:\n        /* \"#utility.yul\":3560:3561   */\n      0x01\n        /* \"#utility.yul\":3553:3558   */\n      dup2\n        /* \"#utility.yul\":3549:3562   */\n      add\n        /* \"#utility.yul\":3540:3562   */\n      swap1\n      pop\n        /* \"#utility.yul\":3516:3636   */\n      jump(tag_104)\n    tag_106:\n        /* \"#utility.yul\":3456:3642   */\n      pop\n      pop\n      jump\t// out\n        /* \"#utility.yul\":3648:4191   */\n    tag_53:\n        /* \"#utility.yul\":3749:3751   */\n      0x1f\n        /* \"#utility.yul\":3744:3747   */\n      dup3\n        /* \"#utility.yul\":3741:3752   */\n      gt\n        /* \"#utility.yul\":3738:4184   */\n      iszero\n      tag_109\n      jumpi\n        /* \"#utility.yul\":3783:3821   */\n      tag_110\n        /* \"#utility.yul\":3815:3820   */\n      dup2\n        /* \"#utility.yul\":3783:3821   */\n      tag_42\n      jump\t// in\n    tag_110:\n        /* \"#utility.yul\":3867:3896   */\n      tag_111\n        /* \"#utility.yul\":3885:3895   */\n      dup5\n        /* \"#utility.yul\":3867:3896   */\n      tag_43\n      jump\t// in\n    tag_111:\n        /* \"#utility.yul\":3857:3865   */\n      dup2\n        /* \"#utility.yul\":3853:3897   */\n      add\n        /* \"#utility.yul\":4050:4052   */\n      0x20\n        /* \"#utility.yul\":4038:4048   */\n      dup6\n        /* \"#utility.yul\":4035:4053   */\n      lt\n        /* \"#utility.yul\":4032:4081   */\n      iszero\n      tag_112\n      jumpi\n        /* \"#utility.yul\":4071:4079   */\n      dup2\n        /* \"#utility.yul\":4056:4079   */\n      swap1\n      pop\n        /* \"#utility.yul\":4032:4081   */\n    tag_112:\n        /* \"#utility.yul\":4094:4174   */\n      tag_113\n        /* \"#utility.yul\":4150:4172   */\n      tag_114\n        /* \"#utility.yul\":4168:4171   */\n      dup6\n        /* \"#utility.yul\":4150:4172   */\n      tag_43\n      jump\t// in\n    tag_114:\n        /* \"#utility.yul\":4140:4148   */\n      dup4\n        /* \"#utility.yul\":4136:4173   */\n      add\n        /* \"#utility.yul\":4123:4134   */\n      dup3\n        /* \"#utility.yul\":4094:4174   */\n      tag_52\n      jump\t// in\n    tag_113:\n        /* \"#utility.yul\":3753:4184   */\n      pop\n      pop\n        /* \"#utility.yul\":3738:4184   */\n    tag_109:\n        /* \"#utility.yul\":3648:4191   */\n      pop\n      pop\n      pop\n      jump\t// out\n        /* \"#utility.yul\":4197:4314   */\n    tag_54:\n        /* \"#utility.yul\":4251:4259   */\n      0x00\n        /* \"#utility.yul\":4301:4306   */\n      dup3\n        /* \"#utility.yul\":4295:4299   */\n      dup3\n        /* \"#utility.yul\":4291:4307   */\n      shr\n        /* \"#utility.yul\":4270:4307   */\n      swap1\n      pop\n        /* \"#utility.yul\":4197:4314   */\n      swap3\n      swap2\n      pop\n      pop\n      jump\t// out\n        /* \"#utility.yul\":4320:4489   */\n    tag_55:\n        /* \"#utility.yul\":4364:4370   */\n      0x00\n        /* \"#utility.yul\":4397:4448   */\n      tag_117\n        /* \"#utility.yul\":4445:4446   */\n      0x00\n        /* \"#utility.yul\":4441:4447   */\n      not\n        /* \"#utility.yul\":4433:4438   */\n      dup5\n        /* \"#utility.yul\":4430:4431   */\n      0x08\n        /* \"#utility.yul\":4426:4439   */\n      mul\n        /* \"#utility.yul\":4397:4448   */\n      tag_54\n      jump\t// in\n    tag_117:\n        /* \"#utility.yul\":4393:4449   */\n      not\n        /* \"#utility.yul\":4478:4482   */\n      dup1\n        /* \"#utility.yul\":4472:4476   */\n      dup4\n        /* \"#utility.yul\":4468:4483   */\n      and\n        /* \"#utility.yul\":4458:4483   */\n      swap2\n      pop\n        /* \"#utility.yul\":4371:4489   */\n      pop\n        /* \"#utility.yul\":4320:4489   */\n      swap3\n      swap2\n      pop\n      pop\n      jump\t// out\n        /* \"#utility.yul\":4494:4789   */\n    tag_56:\n        /* \"#utility.yul\":4570:4574   */\n      0x00\n        /* \"#utility.yul\":4716:4745   */\n      tag_119\n        /* \"#utility.yul\":4741:4744   */\n      dup4\n        /* \"#utility.yul\":4735:4739   */\n      dup4\n        /* \"#utility.yul\":4716:4745   */\n      tag_55\n      jump\t// in\n    tag_119:\n        /* \"#utility.yul\":4708:4745   */\n      swap2\n      pop\n        /* \"#utility.yul\":4778:4781   */\n      dup3\n        /* \"#utility.yul\":4775:4776   */\n      0x02\n        /* \"#utility.yul\":4771:4782   */\n      mul\n        /* \"#utility.yul\":4765:4769   */\n      dup3\n        /* \"#utility.yul\":4762:4783   */\n      or\n        /* \"#utility.yul\":4754:4783   */\n      swap1\n      pop\n        /* \"#utility.yul\":4494:4789   */\n      swap3\n      swap2\n      pop\n      pop\n      jump\t// out\n        /* \"#utility.yul\":4794:6189   */\n    tag_8:\n        /* \"#utility.yul\":4911:4948   */\n      tag_121\n        /* \"#utility.yul\":4944:4947   */\n      dup3\n        /* \"#utility.yul\":4911:4948   */\n      tag_38\n      jump\t// in\n    tag_121:\n        /* \"#utility.yul\":5013:5031   */\n      0xffffffffffffffff\n        /* \"#utility.yul\":5005:5011   */\n      dup2\n        /* \"#utility.yul\":5002:5032   */\n      gt\n        /* \"#utility.yul\":4999:5055   */\n      iszero\n      tag_122\n      jumpi\n        /* \"#utility.yul\":5035:5053   */\n      tag_123\n      tag_39\n      jump\t// in\n    tag_123:\n        /* \"#utility.yul\":4999:5055   */\n    tag_122:\n        /* \"#utility.yul\":5079:5117   */\n      tag_124\n        /* \"#utility.yul\":5111:5115   */\n      dup3\n        /* \"#utility.yul\":5105:5116   */\n      sload\n        /* \"#utility.yul\":5079:5117   */\n      tag_41\n      jump\t// in\n    tag_124:\n        /* \"#utility.yul\":5164:5231   */\n      tag_125\n        /* \"#utility.yul\":5224:5230   */\n      dup3\n        /* \"#utility.yul\":5216:5222   */\n      dup3\n        /* \"#utility.yul\":5210:5214   */\n      dup6\n        /* \"#utility.yul\":5164:5231   */\n      tag_53\n      jump\t// in\n    tag_125:\n        /* \"#utility.yul\":5258:5259   */\n      0x00\n        /* \"#utility.yul\":5282:5286   */\n      0x20\n        /* \"#utility.yul\":5269:5286   */\n      swap1\n      pop\n        /* \"#utility.yul\":5314:5316   */\n      0x1f\n        /* \"#utility.yul\":5306:5312   */\n      dup4\n        /* \"#utility.yul\":5303:5317   */\n      gt\n        /* \"#utility.yul\":5331:5332   */\n      0x01\n        /* \"#utility.yul\":5326:5944   */\n      dup2\n      eq\n      tag_127\n      jumpi\n        /* \"#utility.yul\":5988:5989   */\n      0x00\n        /* \"#utility.yul\":6005:6011   */\n      dup5\n        /* \"#utility.yul\":6002:6079   */\n      iszero\n      tag_128\n      jumpi\n        /* \"#utility.yul\":6054:6063   */\n      dup3\n        /* \"#utility.yul\":6049:6052   */\n      dup8\n        /* \"#utility.yul\":6045:6064   */\n      add\n        /* \"#utility.yul\":6039:6065   */\n      mload\n        /* \"#utility.yul\":6030:6065   */\n      swap1\n      pop\n        /* \"#utility.yul\":6002:6079   */\n    tag_128:\n        /* \"#utility.yul\":6105:6172   */\n      tag_129\n        /* \"#utility.yul\":6165:6171   */\n      dup6\n        /* \"#utility.yul\":6158:6163   */\n      dup3\n        /* \"#utility.yul\":6105:6172   */\n      tag_56\n      jump\t// in\n    tag_129:\n        /* \"#utility.yul\":6099:6103   */\n      dup7\n        /* \"#utility.yul\":6092:6173   */\n      sstore\n        /* \"#utility.yul\":5961:6183   */\n      pop\n        /* \"#utility.yul\":5296:6183   */\n      jump(tag_126)\n        /* \"#utility.yul\":5326:5944   */\n    tag_127:\n        /* \"#utility.yul\":5378:5382   */\n      0x1f\n        /* \"#utility.yul\":5374:5383   */\n      not\n        /* \"#utility.yul\":5366:5372   */\n      dup5\n        /* \"#utility.yul\":5362:5384   */\n      and\n        /* \"#utility.yul\":5412:5449   */\n      tag_130\n        /* \"#utility.yul\":5444:5448   */\n      dup7\n        /* \"#utility.yul\":5412:5449   */\n      tag_42\n      jump\t// in\n    tag_130:\n        /* \"#utility.yul\":5471:5472   */\n      0x00\n        /* \"#utility.yul\":5485:5693   */\n    tag_131:\n        /* \"#utility.yul\":5499:5506   */\n      dup3\n        /* \"#utility.yul\":5496:5497   */\n      dup2\n        /* \"#utility.yul\":5493:5507   */\n      lt\n        /* \"#utility.yul\":5485:5693   */\n      iszero\n      tag_133\n      jumpi\n        /* \"#utility.yul\":5578:5587   */\n      dup5\n        /* \"#utility.yul\":5573:5576   */\n      dup10\n        /* \"#utility.yul\":5569:5588   */\n      add\n        /* \"#utility.yul\":5563:5589   */\n      mload\n        /* \"#utility.yul\":5555:5561   */\n      dup3\n        /* \"#utility.yul\":5548:5590   */\n      sstore\n        /* \"#utility.yul\":5629:5630   */\n      0x01\n        /* \"#utility.yul\":5621:5627   */\n      dup3\n        /* \"#utility.yul\":5617:5631   */\n      add\n        /* \"#utility.yul\":5607:5631   */\n      swap2\n      pop\n        /* \"#utility.yul\":5676:5678   */\n      0x20\n        /* \"#utility.yul\":5665:5674   */\n      dup6\n        /* \"#utility.yul\":5661:5679   */\n      add\n        /* \"#utility.yul\":5648:5679   */\n      swap5\n      pop\n        /* \"#utility.yul\":5522:5526   */\n      0x20\n        /* \"#utility.yul\":5519:5520   */\n      dup2\n        /* \"#utility.yul\":5515:5527   */\n      add\n        /* \"#utility.yul\":5510:5527   */\n      swap1\n      pop\n        /* \"#utility.yul\":5485:5693   */\n      jump(tag_131)\n    tag_133:\n        /* \"#utility.yul\":5721:5727   */\n      dup7\n        /* \"#utility.yul\":5712:5719   */\n      dup4\n        /* \"#utility.yul\":5709:5728   */\n      lt\n        /* \"#utility.yul\":5706:5885   */\n      iszero\n      tag_134\n      jumpi\n        /* \"#utility.yul\":5779:5788   */\n      dup5\n        /* \"#utility.yul\":5774:5777   */\n      dup10\n        /* \"#utility.yul\":5770:5789   */\n      add\n        /* \"#utility.yul\":5764:5790   */\n      mload\n        /* \"#utility.yul\":5822:5870   */\n      tag_135\n        /* \"#utility.yul\":5864:5868   */\n      0x1f\n        /* \"#utility.yul\":5856:5862   */\n      dup10\n        /* \"#utility.yul\":5852:5869   */\n      and\n        /* \"#utility.yul\":5841:5850   */\n      dup3\n        /* \"#utility.yul\":5822:5870   */\n      tag_55\n      jump\t// in\n    tag_135:\n        /* \"#utility.yul\":5814:5820   */\n      dup4\n        /* \"#utility.yul\":5807:5871   */\n      sstore\n        /* \"#utility.yul\":5729:5885   */\n      pop\n        /* \"#utility.yul\":5706:5885   */\n    tag_134:\n        /* \"#utility.yul\":5931:5932   */\n      0x01\n        /* \"#utility.yul\":5927:5928   */\n      0x02\n        /* \"#utility.yul\":5919:5925   */\n      dup9\n        /* \"#utility.yul\":5915:5929   */\n      mul\n        /* \"#utility.yul\":5911:5933   */\n      add\n        /* \"#utility.yul\":5905:5909   */\n      dup9\n        /* \"#utility.yul\":5898:5934   */\n      sstore\n        /* \"#utility.yul\":5333:5944   */\n      pop\n      pop\n      pop\n        /* \"#utility.yul\":5296:6183   */\n    tag_126:\n      pop\n        /* \"#utility.yul\":4886:6189   */\n      pop\n      pop\n      pop\n        /* \"#utility.yul\":4794:6189   */\n      pop\n      pop\n      jump\t// out\n        /* \"#utility.yul\":6195:6321   */\n    tag_57:\n        /* \"#utility.yul\":6232:6239   */\n      0x00\n        /* \"#utility.yul\":6272:6314   */\n      0xffffffffffffffffffffffffffffffffffffffff\n        /* \"#utility.yul\":6265:6270   */\n      dup3\n        /* \"#utility.yul\":6261:6315   */\n      and\n        /* \"#utility.yul\":6250:6315   */\n      swap1\n      pop\n        /* \"#utility.yul\":6195:6321   */\n      swap2\n      swap1\n      pop\n      jump\t// out\n        /* \"#utility.yul\":6327:6423   */\n    tag_58:\n        /* \"#utility.yul\":6364:6371   */\n      0x00\n        /* \"#utility.yul\":6393:6417   */\n      tag_138\n        /* \"#utility.yul\":6411:6416   */\n      dup3\n        /* \"#utility.yul\":6393:6417   */\n      tag_57\n      jump\t// in\n    tag_138:\n        /* \"#utility.yul\":6382:6417   */\n      swap1\n      pop\n        /* \"#utility.yul\":6327:6423   */\n      swap2\n      swap1\n      pop\n      jump\t// out\n        /* \"#utility.yul\":6429:6547   */\n    tag_59:\n        /* \"#utility.yul\":6516:6540   */\n      tag_140\n        /* \"#utility.yul\":6534:6539   */\n      dup2\n        /* \"#utility.yul\":6516:6540   */\n      tag_58\n      jump\t// in\n    tag_140:\n        /* \"#utility.yul\":6511:6514   */\n      dup3\n        /* \"#utility.yul\":6504:6541   */\n      mstore\n        /* \"#utility.yul\":6429:6547   */\n      pop\n      pop\n      jump\t// out\n        /* \"#utility.yul\":6553:6775   */\n    tag_17:\n        /* \"#utility.yul\":6646:6650   */\n      0x00\n        /* \"#utility.yul\":6684:6686   */\n      0x20\n        /* \"#utility.yul\":6673:6682   */\n      dup3\n        /* \"#utility.yul\":6669:6687   */\n      add\n        /* \"#utility.yul\":6661:6687   */\n      swap1\n      pop\n        /* \"#utility.yul\":6697:6768   */\n      tag_142\n        /* \"#utility.yul\":6765:6766   */\n      0x00\n        /* \"#utility.yul\":6754:6763   */\n      dup4\n        /* \"#utility.yul\":6750:6767   */\n      add\n        /* \"#utility.yul\":6741:6747   */\n      dup5\n        /* \"#utility.yul\":6697:6768   */\n      tag_59\n      jump\t// in\n    tag_142:\n        /* \"#utility.yul\":6553:6775   */\n      swap3\n      swap2\n      pop\n      pop\n      jump\t// out\n        /* \"#utility.yul\":6781:6961   */\n    tag_60:\n        /* \"#utility.yul\":6829:6906   */\n      0x4e487b7100000000000000000000000000000000000000000000000000000000\n        /* \"#utility.yul\":6826:6827   */\n      0x00\n        /* \"#utility.yul\":6819:6907   */\n      mstore\n        /* \"#utility.yul\":6926:6930   */\n      0x11\n        /* \"#utility.yul\":6923:6924   */\n      0x04\n        /* \"#utility.yul\":6916:6931   */\n      mstore\n        /* \"#utility.yul\":6950:6954   */\n      0x24\n        /* \"#utility.yul\":6947:6948   */\n      0x00\n        /* \"#utility.yul\":6940:6955   */\n      revert\n        /* \"#utility.yul\":6967:7158   */\n    tag_23:\n        /* \"#utility.yul\":7007:7010   */\n      0x00\n        /* \"#utility.yul\":7026:7046   */\n      tag_145\n        /* \"#utility.yul\":7044:7045   */\n      dup3\n        /* \"#utility.yul\":7026:7046   */\n      tag_35\n      jump\t// in\n    tag_145:\n        /* \"#utility.yul\":7021:7046   */\n      swap2\n      pop\n        /* \"#utility.yul\":7060:7080   */\n      tag_146\n        /* \"#utility.yul\":7078:7079   */\n      dup4\n        /* \"#utility.yul\":7060:7080   */\n      tag_35\n      jump\t// in\n    tag_146:\n        /* \"#utility.yul\":7055:7080   */\n      swap3\n      pop\n        /* \"#utility.yul\":7103:7104   */\n      dup3\n        /* \"#utility.yul\":7100:7101   */\n      dup3\n        /* \"#utility.yul\":7096:7105   */\n      add\n        /* \"#utility.yul\":7089:7105   */\n      swap1\n      pop\n        /* \"#utility.yul\":7124:7127   */\n      dup1\n        /* \"#utility.yul\":7121:7122   */\n      dup3\n        /* \"#utility.yul\":7118:7128   */\n      gt\n        /* \"#utility.yul\":7115:7151   */\n      iszero\n      tag_147\n      jumpi\n        /* \"#utility.yul\":7131:7149   */\n      tag_148\n      tag_60\n      jump\t// in\n    tag_148:\n        /* \"#utility.yul\":7115:7151   */\n    tag_147:\n        /* \"#utility.yul\":6967:7158   */\n      swap3\n      swap2\n      pop\n      pop\n      jump\t// out\n        /* \"#utility.yul\":7164:7282   */\n    tag_61:\n        /* \"#utility.yul\":7251:7275   */\n      tag_150\n        /* \"#utility.yul\":7269:7274   */\n      dup2\n        /* \"#utility.yul\":7251:7275   */\n      tag_35\n      jump\t// in\n    tag_150:\n        /* \"#utility.yul\":7246:7249   */\n      dup3\n        /* \"#utility.yul\":7239:7276   */\n      mstore\n        /* \"#utility.yul\":7164:7282   */\n      pop\n      pop\n      jump\t// out\n        /* \"#utility.yul\":7288:7730   */\n    tag_27:\n        /* \"#utility.yul\":7437:7441   */\n      0x00\n        /* \"#utility.yul\":7475:7477   */\n      0x60\n        /* \"#utility.yul\":7464:7473   */\n      dup3\n        /* \"#utility.yul\":7460:7478   */\n      add\n        /* \"#utility.yul\":7452:7478   */\n      swap1\n      pop\n        /* \"#utility.yul\":7488:7559   */\n      tag_152\n        /* \"#utility.yul\":7556:7557   */\n      0x00\n        /* \"#utility.yul\":7545:7554   */\n      dup4\n        /* \"#utility.yul\":7541:7558   */\n      add\n        /* \"#utility.yul\":7532:7538   */\n      dup7\n        /* \"#utility.yul\":7488:7559   */\n      tag_59\n      jump\t// in\n    tag_152:\n        /* \"#utility.yul\":7569:7641   */\n      tag_153\n        /* \"#utility.yul\":7637:7639   */\n      0x20\n        /* \"#utility.yul\":7626:7635   */\n      dup4\n        /* \"#utility.yul\":7622:7640   */\n      add\n        /* \"#utility.yul\":7613:7619   */\n      dup6\n        /* \"#utility.yul\":7569:7641   */\n      tag_61\n      jump\t// in\n    tag_153:\n        /* \"#utility.yul\":7651:7723   */\n      tag_154\n        /* \"#utility.yul\":7719:7721   */\n      0x40\n        /* \"#utility.yul\":7708:7717   */\n      dup4\n        /* \"#utility.yul\":7704:7722   */\n      add\n        /* \"#utility.yul\":7695:7701   */\n      dup5\n        /* \"#utility.yul\":7651:7723   */\n      tag_61\n      jump\t// in\n    tag_154:\n        /* \"#utility.yul\":7288:7730   */\n      swap5\n      swap4\n      pop\n      pop\n      pop\n      pop\n      jump\t// out\n        /* \"#utility.yul\":7736:7958   */\n    tag_31:\n        /* \"#utility.yul\":7829:7833   */\n      0x00\n        /* \"#utility.yul\":7867:7869   */\n      0x20\n        /* \"#utility.yul\":7856:7865   */\n      dup3\n        /* \"#utility.yul\":7852:7870   */\n      add\n        /* \"#utility.yul\":7844:7870   */\n      swap1\n      pop\n        /* \"#utility.yul\":7880:7951   */\n      tag_156\n        /* \"#utility.yul\":7948:7949   */\n      0x00\n        /* \"#utility.yul\":7937:7946   */\n      dup4\n        /* \"#utility.yul\":7933:7950   */\n      add\n        /* \"#utility.yul\":7924:7930   */\n      dup5\n        /* \"#utility.yul\":7880:7951   */\n      tag_61\n      jump\t// in\n    tag_156:\n        /* \"#utility.yul\":7736:7958   */\n      swap3\n      swap2\n      pop\n      pop\n      jump\t// out\n        /* \"contracts2025/Token.sol\":518:689  contract Token is ERC20 ... */\n    tag_13:\n      dataSize(sub_0)\n      dup1\n      dataOffset(sub_0)\n      0x00\n      codecopy\n      0x00\n      return\n    stop\n\n    sub_0: assembly {\n            /* \"contracts2025/Token.sol\":518:689  contract Token is ERC20 ... */\n          mstore(0x40, 0x80)\n          callvalue\n          dup1\n          iszero\n          tag_1\n          jumpi\n          revert(0x00, 0x00)\n        tag_1:\n          pop\n          jumpi(tag_2, lt(calldatasize, 0x04))\n          shr(0xe0, calldataload(0x00))\n          dup1\n          0x313ce567\n          gt\n          tag_12\n          jumpi\n          dup1\n          0x313ce567\n          eq\n          tag_7\n          jumpi\n          dup1\n          0x70a08231\n          eq\n          tag_8\n          jumpi\n          dup1\n          0x95d89b41\n          eq\n          tag_9\n          jumpi\n          dup1\n          0xa9059cbb\n          eq\n          tag_10\n          jumpi\n          dup1\n          0xdd62ed3e\n          eq\n          tag_11\n          jumpi\n          jump(tag_2)\n        tag_12:\n          dup1\n          0x06fdde03\n          eq\n          tag_3\n          jumpi\n          dup1\n          0x095ea7b3\n          eq\n          tag_4\n          jumpi\n          dup1\n          0x18160ddd\n          eq\n          tag_5\n          jumpi\n          dup1\n          0x23b872dd\n          eq\n          tag_6\n          jumpi\n        tag_2:\n          revert(0x00, 0x00)\n            /* \"https://github.com/OpenZeppelin/openzeppelin-contracts/blob/master/contracts/token/ERC20/ERC20.sol\":1760:1849  function name() public view virtual returns (string memory) {... */\n        tag_3:\n          tag_13\n          tag_14\n          jump\t// in\n        tag_13:\n          mload(0x40)\n          tag_15\n          swap2\n          swap1\n          tag_16\n          jump\t// in\n        tag_15:\n          mload(0x40)\n          dup1\n          swap2\n          sub\n          swap1\n          return\n            /* \"https://github.com/OpenZeppelin/openzeppelin-contracts/blob/master/contracts/token/ERC20/ERC20.sol\":3902:4088  function approve(address spender, uint256 value) public virtual returns (bool) {... */\n        tag_4:\n          tag_17\n          0x04\n          dup1\n          calldatasize\n          sub\n          dup2\n          add\n          swap1\n          tag_18\n          swap2\n          swap1\n          tag_19\n          jump\t// in\n        tag_18:\n          tag_20\n          jump\t// in\n        tag_17:\n          mload(0x40)\n          tag_21\n          swap2\n          swap1\n          tag_22\n          jump\t// in\n        tag_21:\n          mload(0x40)\n          dup1\n          swap2\n          sub\n          swap1\n          return\n            /* \"https://github.com/OpenZeppelin/openzeppelin-contracts/blob/master/contracts/token/ERC20/ERC20.sol\":2803:2900  function totalSupply() public view virtual returns (uint256) {... */\n        tag_5:\n          tag_23\n          tag_24\n          jump\t// in\n        tag_23:\n          mload(0x40)\n          tag_25\n          swap2\n          swap1\n          tag_26\n          jump\t// in\n        tag_25:\n          mload(0x40)\n          dup1\n          swap2\n          sub\n          swap1\n          return\n            /* \"https://github.com/OpenZeppelin/openzeppelin-contracts/blob/master/contracts/token/ERC20/ERC20.sol\":4680:4924  function transferFrom(address from, address to, uint256 value) public virtual returns (bool) {... */\n        tag_6:\n          tag_27\n          0x04\n          dup1\n          calldatasize\n          sub\n          dup2\n          add\n          swap1\n          tag_28\n          swap2\n          swap1\n          tag_29\n          jump\t// in\n        tag_28:\n          tag_30\n          jump\t// in\n        tag_27:\n          mload(0x40)\n          tag_31\n          swap2\n          swap1\n          tag_22\n          jump\t// in\n        tag_31:\n          mload(0x40)\n          dup1\n          swap2\n          sub\n          swap1\n          return\n            /* \"https://github.com/OpenZeppelin/openzeppelin-contracts/blob/master/contracts/token/ERC20/ERC20.sol\":2688:2770  function decimals() public view virtual returns (uint8) {... */\n        tag_7:\n          tag_32\n          tag_33\n          jump\t// in\n        tag_32:\n          mload(0x40)\n          tag_34\n          swap2\n          swap1\n          tag_35\n          jump\t// in\n        tag_34:\n          mload(0x40)\n          dup1\n          swap2\n          sub\n          swap1\n          return\n            /* \"https://github.com/OpenZeppelin/openzeppelin-contracts/blob/master/contracts/token/ERC20/ERC20.sol\":2933:3049  function balanceOf(address account) public view virtual returns (uint256) {... */\n        tag_8:\n          tag_36\n          0x04\n          dup1\n          calldatasize\n          sub\n          dup2\n          add\n          swap1\n          tag_37\n          swap2\n          swap1\n          tag_38\n          jump\t// in\n        tag_37:\n          tag_39\n          jump\t// in\n        tag_36:\n          mload(0x40)\n          tag_40\n          swap2\n          swap1\n          tag_26\n          jump\t// in\n        tag_40:\n          mload(0x40)\n          dup1\n          swap2\n          sub\n          swap1\n          return\n            /* \"https://github.com/OpenZeppelin/openzeppelin-contracts/blob/master/contracts/token/ERC20/ERC20.sol\":1962:2055  function symbol() public view virtual returns (string memory) {... */\n        tag_9:\n          tag_41\n          tag_42\n          jump\t// in\n        tag_41:\n          mload(0x40)\n          tag_43\n          swap2\n          swap1\n          tag_16\n          jump\t// in\n        tag_43:\n          mload(0x40)\n          dup1\n          swap2\n          sub\n          swap1\n          return\n            /* \"https://github.com/OpenZeppelin/openzeppelin-contracts/blob/master/contracts/token/ERC20/ERC20.sol\":3244:3422  function transfer(address to, uint256 value) public virtual returns (bool) {... */\n        tag_10:\n          tag_44\n          0x04\n          dup1\n          calldatasize\n          sub\n          dup2\n          add\n          swap1\n          tag_45\n          swap2\n          swap1\n          tag_19\n          jump\t// in\n        tag_45:\n          tag_46\n          jump\t// in\n        tag_44:\n          mload(0x40)\n          tag_47\n          swap2\n          swap1\n          tag_22\n          jump\t// in\n        tag_47:\n          mload(0x40)\n          dup1\n          swap2\n          sub\n          swap1\n          return\n            /* \"https://github.com/OpenZeppelin/openzeppelin-contracts/blob/master/contracts/token/ERC20/ERC20.sol\":3455:3595  function allowance(address owner, address spender) public view virtual returns (uint256) {... */\n        tag_11:\n          tag_48\n          0x04\n          dup1\n          calldatasize\n          sub\n          dup2\n          add\n          swap1\n          tag_49\n          swap2\n          swap1\n          tag_50\n          jump\t// in\n        tag_49:\n          tag_51\n          jump\t// in\n        tag_48:\n          mload(0x40)\n          tag_52\n          swap2\n          swap1\n          tag_26\n          jump\t// in\n        tag_52:\n          mload(0x40)\n          dup1\n          swap2\n          sub\n          swap1\n          return\n            /* \"https://github.com/OpenZeppelin/openzeppelin-contracts/blob/master/contracts/token/ERC20/ERC20.sol\":1760:1849  function name() public view virtual returns (string memory) {... */\n        tag_14:\n            /* \"https://github.com/OpenZeppelin/openzeppelin-contracts/blob/master/contracts/token/ERC20/ERC20.sol\":1805:1818  string memory */\n          0x60\n            /* \"https://github.com/OpenZeppelin/openzeppelin-contracts/blob/master/contracts/token/ERC20/ERC20.sol\":1837:1842  _name */\n          0x03\n            /* \"https://github.com/OpenZeppelin/openzeppelin-contracts/blob/master/contracts/token/ERC20/ERC20.sol\":1830:1842  return _name */\n          dup1\n          sload\n          tag_54\n          swap1\n          tag_55\n          jump\t// in\n        tag_54:\n          dup1\n          0x1f\n          add\n          0x20\n          dup1\n          swap2\n          div\n          mul\n          0x20\n          add\n          mload(0x40)\n          swap1\n          dup2\n          add\n          0x40\n          mstore\n          dup1\n          swap3\n          swap2\n          swap1\n          dup2\n          dup2\n          mstore\n          0x20\n          add\n          dup3\n          dup1\n          sload\n          tag_56\n          swap1\n          tag_55\n          jump\t// in\n        tag_56:\n          dup1\n          iszero\n          tag_57\n          jumpi\n          dup1\n          0x1f\n          lt\n          tag_58\n          jumpi\n          0x0100\n          dup1\n          dup4\n          sload\n          div\n          mul\n          dup4\n          mstore\n          swap2\n          0x20\n          add\n          swap2\n          jump(tag_57)\n        tag_58:\n          dup3\n          add\n          swap2\n          swap1\n          0x00\n          mstore\n          keccak256(0x00, 0x20)\n          swap1\n        tag_59:\n          dup2\n          sload\n          dup2\n          mstore\n          swap1\n          0x01\n          add\n          swap1\n          0x20\n          add\n          dup1\n          dup4\n          gt\n          tag_59\n          jumpi\n          dup3\n          swap1\n          sub\n          0x1f\n          and\n          dup3\n          add\n          swap2\n        tag_57:\n          pop\n          pop\n          pop\n          pop\n          pop\n          swap1\n          pop\n            /* \"https://github.com/OpenZeppelin/openzeppelin-contracts/blob/master/contracts/token/ERC20/ERC20.sol\":1760:1849  function name() public view virtual returns (string memory) {... */\n          swap1\n          jump\t// out\n            /* \"https://github.com/OpenZeppelin/openzeppelin-contracts/blob/master/contracts/token/ERC20/ERC20.sol\":3902:4088  function approve(address spender, uint256 value) public virtual returns (bool) {... */\n        tag_20:\n            /* \"https://github.com/OpenZeppelin/openzeppelin-contracts/blob/master/contracts/token/ERC20/ERC20.sol\":3975:3979  bool */\n          0x00\n            /* \"https://github.com/OpenZeppelin/openzeppelin-contracts/blob/master/contracts/token/ERC20/ERC20.sol\":3991:4004  address owner */\n          0x00\n            /* \"https://github.com/OpenZeppelin/openzeppelin-contracts/blob/master/contracts/token/ERC20/ERC20.sol\":4007:4019  _msgSender() */\n          tag_61\n            /* \"https://github.com/OpenZeppelin/openzeppelin-contracts/blob/master/contracts/token/ERC20/ERC20.sol\":4007:4017  _msgSender */\n          tag_62\n            /* \"https://github.com/OpenZeppelin/openzeppelin-contracts/blob/master/contracts/token/ERC20/ERC20.sol\":4007:4019  _msgSender() */\n          jump\t// in\n        tag_61:\n            /* \"https://github.com/OpenZeppelin/openzeppelin-contracts/blob/master/contracts/token/ERC20/ERC20.sol\":3991:4019  address owner = _msgSender() */\n          swap1\n          pop\n            /* \"https://github.com/OpenZeppelin/openzeppelin-contracts/blob/master/contracts/token/ERC20/ERC20.sol\":4029:4060  _approve(owner, spender, value) */\n          tag_63\n            /* \"https://github.com/OpenZeppelin/openzeppelin-contracts/blob/master/contracts/token/ERC20/ERC20.sol\":4038:4043  owner */\n          dup2\n            /* \"https://github.com/OpenZeppelin/openzeppelin-contracts/blob/master/contracts/token/ERC20/ERC20.sol\":4045:4052  spender */\n          dup6\n            /* \"https://github.com/OpenZeppelin/openzeppelin-contracts/blob/master/contracts/token/ERC20/ERC20.sol\":4054:4059  value */\n          dup6\n            /* \"https://github.com/OpenZeppelin/openzeppelin-contracts/blob/master/contracts/token/ERC20/ERC20.sol\":4029:4037  _approve */\n          tag_64\n            /* \"https://github.com/OpenZeppelin/openzeppelin-contracts/blob/master/contracts/token/ERC20/ERC20.sol\":4029:4060  _approve(owner, spender, value) */\n          jump\t// in\n        tag_63:\n            /* \"https://github.com/OpenZeppelin/openzeppelin-contracts/blob/master/contracts/token/ERC20/ERC20.sol\":4077:4081  true */\n          0x01\n            /* \"https://github.com/OpenZeppelin/openzeppelin-contracts/blob/master/contracts/token/ERC20/ERC20.sol\":4070:4081  return true */\n          swap2\n          pop\n          pop\n            /* \"https://github.com/OpenZeppelin/openzeppelin-contracts/blob/master/contracts/token/ERC20/ERC20.sol\":3902:4088  function approve(address spender, uint256 value) public virtual returns (bool) {... */\n          swap3\n          swap2\n          pop\n          pop\n          jump\t// out\n            /* \"https://github.com/OpenZeppelin/openzeppelin-contracts/blob/master/contracts/token/ERC20/ERC20.sol\":2803:2900  function totalSupply() public view virtual returns (uint256) {... */\n        tag_24:\n            /* \"https://github.com/OpenZeppelin/openzeppelin-contracts/blob/master/contracts/token/ERC20/ERC20.sol\":2855:2862  uint256 */\n          0x00\n            /* \"https://github.com/OpenZeppelin/openzeppelin-contracts/blob/master/contracts/token/ERC20/ERC20.sol\":2881:2893  _totalSupply */\n          sload(0x02)\n            /* \"https://github.com/OpenZeppelin/openzeppelin-contracts/blob/master/contracts/token/ERC20/ERC20.sol\":2874:2893  return _totalSupply */\n          swap1\n          pop\n            /* \"https://github.com/OpenZeppelin/openzeppelin-contracts/blob/master/contracts/token/ERC20/ERC20.sol\":2803:2900  function totalSupply() public view virtual returns (uint256) {... */\n          swap1\n          jump\t// out\n            /* \"https://github.com/OpenZeppelin/openzeppelin-contracts/blob/master/contracts/token/ERC20/ERC20.sol\":4680:4924  function transferFrom(address from, address to, uint256 value) public virtual returns (bool) {... */\n        tag_30:\n            /* \"https://github.com/OpenZeppelin/openzeppelin-contracts/blob/master/contracts/token/ERC20/ERC20.sol\":4767:4771  bool */\n          0x00\n            /* \"https://github.com/OpenZeppelin/openzeppelin-contracts/blob/master/contracts/token/ERC20/ERC20.sol\":4783:4798  address spender */\n          0x00\n            /* \"https://github.com/OpenZeppelin/openzeppelin-contracts/blob/master/contracts/token/ERC20/ERC20.sol\":4801:4813  _msgSender() */\n          tag_67\n            /* \"https://github.com/OpenZeppelin/openzeppelin-contracts/blob/master/contracts/token/ERC20/ERC20.sol\":4801:4811  _msgSender */\n          tag_62\n            /* \"https://github.com/OpenZeppelin/openzeppelin-contracts/blob/master/contracts/token/ERC20/ERC20.sol\":4801:4813  _msgSender() */\n          jump\t// in\n        tag_67:\n            /* \"https://github.com/OpenZeppelin/openzeppelin-contracts/blob/master/contracts/token/ERC20/ERC20.sol\":4783:4813  address spender = _msgSender() */\n          swap1\n          pop\n            /* \"https://github.com/OpenZeppelin/openzeppelin-contracts/blob/master/contracts/token/ERC20/ERC20.sol\":4823:4860  _spendAllowance(from, spender, value) */\n          tag_68\n            /* \"https://github.com/OpenZeppelin/openzeppelin-contracts/blob/master/contracts/token/ERC20/ERC20.sol\":4839:4843  from */\n          dup6\n            /* \"https://github.com/OpenZeppelin/openzeppelin-contracts/blob/master/contracts/token/ERC20/ERC20.sol\":4845:4852  spender */\n          dup3\n            /* \"https://github.com/OpenZeppelin/openzeppelin-contracts/blob/master/contracts/token/ERC20/ERC20.sol\":4854:4859  value */\n          dup6\n            /* \"https://github.com/OpenZeppelin/openzeppelin-contracts/blob/master/contracts/token/ERC20/ERC20.sol\":4823:4838  _spendAllowance */\n          tag_69\n            /* \"https://github.com/OpenZeppelin/openzeppelin-contracts/blob/master/contracts/token/ERC20/ERC20.sol\":4823:4860  _spendAllowance(from, spender, value) */\n          jump\t// in\n        tag_68:\n            /* \"https://github.com/OpenZeppelin/openzeppelin-contracts/blob/master/contracts/token/ERC20/ERC20.sol\":4870:4896  _transfer(from, to, value) */\n          tag_70\n            /* \"https://github.com/OpenZeppelin/openzeppelin-contracts/blob/master/contracts/token/ERC20/ERC20.sol\":4880:4884  from */\n          dup6\n            /* \"https://github.com/OpenZeppelin/openzeppelin-contracts/blob/master/contracts/token/ERC20/ERC20.sol\":4886:4888  to */\n          dup6\n            /* \"https://github.com/OpenZeppelin/openzeppelin-contracts/blob/master/contracts/token/ERC20/ERC20.sol\":4890:4895  value */\n          dup6\n            /* \"https://github.com/OpenZeppelin/openzeppelin-contracts/blob/master/contracts/token/ERC20/ERC20.sol\":4870:4879  _transfer */\n          tag_71\n            /* \"https://github.com/OpenZeppelin/openzeppelin-contracts/blob/master/contracts/token/ERC20/ERC20.sol\":4870:4896  _transfer(from, to, value) */\n          jump\t// in\n        tag_70:\n            /* \"https://github.com/OpenZeppelin/openzeppelin-contracts/blob/master/contracts/token/ERC20/ERC20.sol\":4913:4917  true */\n          0x01\n            /* \"https://github.com/OpenZeppelin/openzeppelin-contracts/blob/master/contracts/token/ERC20/ERC20.sol\":4906:4917  return true */\n          swap2\n          pop\n          pop\n            /* \"https://github.com/OpenZeppelin/openzeppelin-contracts/blob/master/contracts/token/ERC20/ERC20.sol\":4680:4924  function transferFrom(address from, address to, uint256 value) public virtual returns (bool) {... */\n          swap4\n          swap3\n          pop\n          pop\n          pop\n          jump\t// out\n            /* \"https://github.com/OpenZeppelin/openzeppelin-contracts/blob/master/contracts/token/ERC20/ERC20.sol\":2688:2770  function decimals() public view virtual returns (uint8) {... */\n        tag_33:\n            /* \"https://github.com/OpenZeppelin/openzeppelin-contracts/blob/master/contracts/token/ERC20/ERC20.sol\":2737:2742  uint8 */\n          0x00\n            /* \"https://github.com/OpenZeppelin/openzeppelin-contracts/blob/master/contracts/token/ERC20/ERC20.sol\":2761:2763  18 */\n          0x12\n            /* \"https://github.com/OpenZeppelin/openzeppelin-contracts/blob/master/contracts/token/ERC20/ERC20.sol\":2754:2763  return 18 */\n          swap1\n          pop\n            /* \"https://github.com/OpenZeppelin/openzeppelin-contracts/blob/master/contracts/token/ERC20/ERC20.sol\":2688:2770  function decimals() public view virtual returns (uint8) {... */\n          swap1\n          jump\t// out\n            /* \"https://github.com/OpenZeppelin/openzeppelin-contracts/blob/master/contracts/token/ERC20/ERC20.sol\":2933:3049  function balanceOf(address account) public view virtual returns (uint256) {... */\n        tag_39:\n            /* \"https://github.com/OpenZeppelin/openzeppelin-contracts/blob/master/contracts/token/ERC20/ERC20.sol\":2998:3005  uint256 */\n          0x00\n            /* \"https://github.com/OpenZeppelin/openzeppelin-contracts/blob/master/contracts/token/ERC20/ERC20.sol\":3024:3033  _balances */\n          0x00\n            /* \"https://github.com/OpenZeppelin/openzeppelin-contracts/blob/master/contracts/token/ERC20/ERC20.sol\":3024:3042  _balances[account] */\n          0x00\n            /* \"https://github.com/OpenZeppelin/openzeppelin-contracts/blob/master/contracts/token/ERC20/ERC20.sol\":3034:3041  account */\n          dup4\n            /* \"https://github.com/OpenZeppelin/openzeppelin-contracts/blob/master/contracts/token/ERC20/ERC20.sol\":3024:3042  _balances[account] */\n          0xffffffffffffffffffffffffffffffffffffffff\n          and\n          0xffffffffffffffffffffffffffffffffffffffff\n          and\n          dup2\n          mstore\n          0x20\n          add\n          swap1\n          dup2\n          mstore\n          0x20\n          add\n          0x00\n          keccak256\n          sload\n            /* \"https://github.com/OpenZeppelin/openzeppelin-contracts/blob/master/contracts/token/ERC20/ERC20.sol\":3017:3042  return _balances[account] */\n          swap1\n          pop\n            /* \"https://github.com/OpenZeppelin/openzeppelin-contracts/blob/master/contracts/token/ERC20/ERC20.sol\":2933:3049  function balanceOf(address account) public view virtual returns (uint256) {... */\n          swap2\n          swap1\n          pop\n          jump\t// out\n            /* \"https://github.com/OpenZeppelin/openzeppelin-contracts/blob/master/contracts/token/ERC20/ERC20.sol\":1962:2055  function symbol() public view virtual returns (string memory) {... */\n        tag_42:\n            /* \"https://github.com/OpenZeppelin/openzeppelin-contracts/blob/master/contracts/token/ERC20/ERC20.sol\":2009:2022  string memory */\n          0x60\n            /* \"https://github.com/OpenZeppelin/openzeppelin-contracts/blob/master/contracts/token/ERC20/ERC20.sol\":2041:2048  _symbol */\n          0x04\n            /* \"https://github.com/OpenZeppelin/openzeppelin-contracts/blob/master/contracts/token/ERC20/ERC20.sol\":2034:2048  return _symbol */\n          dup1\n          sload\n          tag_75\n          swap1\n          tag_55\n          jump\t// in\n        tag_75:\n          dup1\n          0x1f\n          add\n          0x20\n          dup1\n          swap2\n          div\n          mul\n          0x20\n          add\n          mload(0x40)\n          swap1\n          dup2\n          add\n          0x40\n          mstore\n          dup1\n          swap3\n          swap2\n          swap1\n          dup2\n          dup2\n          mstore\n          0x20\n          add\n          dup3\n          dup1\n          sload\n          tag_76\n          swap1\n          tag_55\n          jump\t// in\n        tag_76:\n          dup1\n          iszero\n          tag_77\n          jumpi\n          dup1\n          0x1f\n          lt\n          tag_78\n          jumpi\n          0x0100\n          dup1\n          dup4\n          sload\n          div\n          mul\n          dup4\n          mstore\n          swap2\n          0x20\n          add\n          swap2\n          jump(tag_77)\n        tag_78:\n          dup3\n          add\n          swap2\n          swap1\n          0x00\n          mstore\n          keccak256(0x00, 0x20)\n          swap1\n        tag_79:\n          dup2\n          sload\n          dup2\n          mstore\n          swap1\n          0x01\n          add\n          swap1\n          0x20\n          add\n          dup1\n          dup4\n          gt\n          tag_79\n          jumpi\n          dup3\n          swap1\n          sub\n          0x1f\n          and\n          dup3\n          add\n          swap2\n        tag_77:\n          pop\n          pop\n          pop\n          pop\n          pop\n          swap1\n          pop\n            /* \"https://github.com/OpenZeppelin/openzeppelin-contracts/blob/master/contracts/token/ERC20/ERC20.sol\":1962:2055  function symbol() public view virtual returns (string memory) {... */\n          swap1\n          jump\t// out\n            /* \"https://github.com/OpenZeppelin/openzeppelin-contracts/blob/master/contracts/token/ERC20/ERC20.sol\":3244:3422  function transfer(address to, uint256 value) public virtual returns (bool) {... */\n        tag_46:\n            /* \"https://github.com/OpenZeppelin/openzeppelin-contracts/blob/master/contracts/token/ERC20/ERC20.sol\":3313:3317  bool */\n          0x00\n            /* \"https://github.com/OpenZeppelin/openzeppelin-contracts/blob/master/contracts/token/ERC20/ERC20.sol\":3329:3342  address owner */\n          0x00\n            /* \"https://github.com/OpenZeppelin/openzeppelin-contracts/blob/master/contracts/token/ERC20/ERC20.sol\":3345:3357  _msgSender() */\n          tag_81\n            /* \"https://github.com/OpenZeppelin/openzeppelin-contracts/blob/master/contracts/token/ERC20/ERC20.sol\":3345:3355  _msgSender */\n          tag_62\n            /* \"https://github.com/OpenZeppelin/openzeppelin-contracts/blob/master/contracts/token/ERC20/ERC20.sol\":3345:3357  _msgSender() */\n          jump\t// in\n        tag_81:\n            /* \"https://github.com/OpenZeppelin/openzeppelin-contracts/blob/master/contracts/token/ERC20/ERC20.sol\":3329:3357  address owner = _msgSender() */\n          swap1\n          pop\n            /* \"https://github.com/OpenZeppelin/openzeppelin-contracts/blob/master/contracts/token/ERC20/ERC20.sol\":3367:3394  _transfer(owner, to, value) */\n          tag_82\n            /* \"https://github.com/OpenZeppelin/openzeppelin-contracts/blob/master/contracts/token/ERC20/ERC20.sol\":3377:3382  owner */\n          dup2\n            /* \"https://github.com/OpenZeppelin/openzeppelin-contracts/blob/master/contracts/token/ERC20/ERC20.sol\":3384:3386  to */\n          dup6\n            /* \"https://github.com/OpenZeppelin/openzeppelin-contracts/blob/master/contracts/token/ERC20/ERC20.sol\":3388:3393  value */\n          dup6\n            /* \"https://github.com/OpenZeppelin/openzeppelin-contracts/blob/master/contracts/token/ERC20/ERC20.sol\":3367:3376  _transfer */\n          tag_71\n            /* \"https://github.com/OpenZeppelin/openzeppelin-contracts/blob/master/contracts/token/ERC20/ERC20.sol\":3367:3394  _transfer(owner, to, value) */\n          jump\t// in\n        tag_82:\n            /* \"https://github.com/OpenZeppelin/openzeppelin-contracts/blob/master/contracts/token/ERC20/ERC20.sol\":3411:3415  true */\n          0x01\n            /* \"https://github.com/OpenZeppelin/openzeppelin-contracts/blob/master/contracts/token/ERC20/ERC20.sol\":3404:3415  return true */\n          swap2\n          pop\n          pop\n            /* \"https://github.com/OpenZeppelin/openzeppelin-contracts/blob/master/contracts/token/ERC20/ERC20.sol\":3244:3422  function transfer(address to, uint256 value) public virtual returns (bool) {... */\n          swap3\n          swap2\n          pop\n          pop\n          jump\t// out\n            /* \"https://github.com/OpenZeppelin/openzeppelin-contracts/blob/master/contracts/token/ERC20/ERC20.sol\":3455:3595  function allowance(address owner, address spender) public view virtual returns (uint256) {... */\n        tag_51:\n            /* \"https://github.com/OpenZeppelin/openzeppelin-contracts/blob/master/contracts/token/ERC20/ERC20.sol\":3535:3542  uint256 */\n          0x00\n            /* \"https://github.com/OpenZeppelin/openzeppelin-contracts/blob/master/contracts/token/ERC20/ERC20.sol\":3561:3572  _allowances */\n          0x01\n            /* \"https://github.com/OpenZeppelin/openzeppelin-contracts/blob/master/contracts/token/ERC20/ERC20.sol\":3561:3579  _allowances[owner] */\n          0x00\n            /* \"https://github.com/OpenZeppelin/openzeppelin-contracts/blob/master/contracts/token/ERC20/ERC20.sol\":3573:3578  owner */\n          dup5\n            /* \"https://github.com/OpenZeppelin/openzeppelin-contracts/blob/master/contracts/token/ERC20/ERC20.sol\":3561:3579  _allowances[owner] */\n          0xffffffffffffffffffffffffffffffffffffffff\n          and\n          0xffffffffffffffffffffffffffffffffffffffff\n          and\n          dup2\n          mstore\n          0x20\n          add\n          swap1\n          dup2\n          mstore\n          0x20\n          add\n          0x00\n          keccak256\n            /* \"https://github.com/OpenZeppelin/openzeppelin-contracts/blob/master/contracts/token/ERC20/ERC20.sol\":3561:3588  _allowances[owner][spender] */\n          0x00\n            /* \"https://github.com/OpenZeppelin/openzeppelin-contracts/blob/master/contracts/token/ERC20/ERC20.sol\":3580:3587  spender */\n          dup4\n            /* \"https://github.com/OpenZeppelin/openzeppelin-contracts/blob/master/contracts/token/ERC20/ERC20.sol\":3561:3588  _allowances[owner][spender] */\n          0xffffffffffffffffffffffffffffffffffffffff\n          and\n          0xffffffffffffffffffffffffffffffffffffffff\n          and\n          dup2\n          mstore\n          0x20\n          add\n          swap1\n          dup2\n          mstore\n          0x20\n          add\n          0x00\n          keccak256\n          sload\n            /* \"https://github.com/OpenZeppelin/openzeppelin-contracts/blob/master/contracts/token/ERC20/ERC20.sol\":3554:3588  return _allowances[owner][spender] */\n          swap1\n          pop\n            /* \"https://github.com/OpenZeppelin/openzeppelin-contracts/blob/master/contracts/token/ERC20/ERC20.sol\":3455:3595  function allowance(address owner, address spender) public view virtual returns (uint256) {... */\n          swap3\n          swap2\n          pop\n          pop\n          jump\t// out\n            /* \"https://github.com/OpenZeppelin/openzeppelin-contracts/blob/master/contracts/utils/Context.sol\":656:752  function _msgSender() internal view virtual returns (address) {... */\n        tag_62:\n            /* \"https://github.com/OpenZeppelin/openzeppelin-contracts/blob/master/contracts/utils/Context.sol\":709:716  address */\n          0x00\n            /* \"https://github.com/OpenZeppelin/openzeppelin-contracts/blob/master/contracts/utils/Context.sol\":735:745  msg.sender */\n          caller\n            /* \"https://github.com/OpenZeppelin/openzeppelin-contracts/blob/master/contracts/utils/Context.sol\":728:745  return msg.sender */\n          swap1\n          pop\n            /* \"https://github.com/OpenZeppelin/openzeppelin-contracts/blob/master/contracts/utils/Context.sol\":656:752  function _msgSender() internal view virtual returns (address) {... */\n          swap1\n          jump\t// out\n            /* \"https://github.com/OpenZeppelin/openzeppelin-contracts/blob/master/contracts/token/ERC20/ERC20.sol\":8630:8758  function _approve(address owner, address spender, uint256 value) internal {... */\n        tag_64:\n            /* \"https://github.com/OpenZeppelin/openzeppelin-contracts/blob/master/contracts/token/ERC20/ERC20.sol\":8714:8751  _approve(owner, spender, value, true) */\n          tag_86\n            /* \"https://github.com/OpenZeppelin/openzeppelin-contracts/blob/master/contracts/token/ERC20/ERC20.sol\":8723:8728  owner */\n          dup4\n            /* \"https://github.com/OpenZeppelin/openzeppelin-contracts/blob/master/contracts/token/ERC20/ERC20.sol\":8730:8737  spender */\n          dup4\n            /* \"https://github.com/OpenZeppelin/openzeppelin-contracts/blob/master/contracts/token/ERC20/ERC20.sol\":8739:8744  value */\n          dup4\n            /* \"https://github.com/OpenZeppelin/openzeppelin-contracts/blob/master/contracts/token/ERC20/ERC20.sol\":8746:8750  true */\n          0x01\n            /* \"https://github.com/OpenZeppelin/openzeppelin-contracts/blob/master/contracts/token/ERC20/ERC20.sol\":8714:8722  _approve */\n          tag_87\n            /* \"https://github.com/OpenZeppelin/openzeppelin-contracts/blob/master/contracts/token/ERC20/ERC20.sol\":8714:8751  _approve(owner, spender, value, true) */\n          jump\t// in\n        tag_86:\n            /* \"https://github.com/OpenZeppelin/openzeppelin-contracts/blob/master/contracts/token/ERC20/ERC20.sol\":8630:8758  function _approve(address owner, address spender, uint256 value) internal {... */\n          pop\n          pop\n          pop\n          jump\t// out\n            /* \"https://github.com/OpenZeppelin/openzeppelin-contracts/blob/master/contracts/token/ERC20/ERC20.sol\":10321:10797  function _spendAllowance(address owner, address spender, uint256 value) internal virtual {... */\n        tag_69:\n            /* \"https://github.com/OpenZeppelin/openzeppelin-contracts/blob/master/contracts/token/ERC20/ERC20.sol\":10420:10444  uint256 currentAllowance */\n          0x00\n            /* \"https://github.com/OpenZeppelin/openzeppelin-contracts/blob/master/contracts/token/ERC20/ERC20.sol\":10447:10472  allowance(owner, spender) */\n          tag_89\n            /* \"https://github.com/OpenZeppelin/openzeppelin-contracts/blob/master/contracts/token/ERC20/ERC20.sol\":10457:10462  owner */\n          dup5\n            /* \"https://github.com/OpenZeppelin/openzeppelin-contracts/blob/master/contracts/token/ERC20/ERC20.sol\":10464:10471  spender */\n          dup5\n            /* \"https://github.com/OpenZeppelin/openzeppelin-contracts/blob/master/contracts/token/ERC20/ERC20.sol\":10447:10456  allowance */\n          tag_51\n            /* \"https://github.com/OpenZeppelin/openzeppelin-contracts/blob/master/contracts/token/ERC20/ERC20.sol\":10447:10472  allowance(owner, spender) */\n          jump\t// in\n        tag_89:\n            /* \"https://github.com/OpenZeppelin/openzeppelin-contracts/blob/master/contracts/token/ERC20/ERC20.sol\":10420:10472  uint256 currentAllowance = allowance(owner, spender) */\n          swap1\n          pop\n            /* \"https://github.com/OpenZeppelin/openzeppelin-contracts/blob/master/contracts/token/ERC20/ERC20.sol\":10505:10522  type(uint256).max */\n          0xffffffffffffffffffffffffffffffffffffffffffffffffffffffffffffffff\n            /* \"https://github.com/OpenZeppelin/openzeppelin-contracts/blob/master/contracts/token/ERC20/ERC20.sol\":10486:10502  currentAllowance */\n          dup2\n            /* \"https://github.com/OpenZeppelin/openzeppelin-contracts/blob/master/contracts/token/ERC20/ERC20.sol\":10486:10522  currentAllowance < type(uint256).max */\n          lt\n            /* \"https://github.com/OpenZeppelin/openzeppelin-contracts/blob/master/contracts/token/ERC20/ERC20.sol\":10482:10791  if (currentAllowance < type(uint256).max) {... */\n          iszero\n          tag_90\n          jumpi\n            /* \"https://github.com/OpenZeppelin/openzeppelin-contracts/blob/master/contracts/token/ERC20/ERC20.sol\":10561:10566  value */\n          dup2\n            /* \"https://github.com/OpenZeppelin/openzeppelin-contracts/blob/master/contracts/token/ERC20/ERC20.sol\":10542:10558  currentAllowance */\n          dup2\n            /* \"https://github.com/OpenZeppelin/openzeppelin-contracts/blob/master/contracts/token/ERC20/ERC20.sol\":10542:10566  currentAllowance < value */\n          lt\n            /* \"https://github.com/OpenZeppelin/openzeppelin-contracts/blob/master/contracts/token/ERC20/ERC20.sol\":10538:10668  if (currentAllowance < value) {... */\n          iszero\n          tag_91\n          jumpi\n            /* \"https://github.com/OpenZeppelin/openzeppelin-contracts/blob/master/contracts/token/ERC20/ERC20.sol\":10620:10627  spender */\n          dup3\n            /* \"https://github.com/OpenZeppelin/openzeppelin-contracts/blob/master/contracts/token/ERC20/ERC20.sol\":10629:10645  currentAllowance */\n          dup2\n            /* \"https://github.com/OpenZeppelin/openzeppelin-contracts/blob/master/contracts/token/ERC20/ERC20.sol\":10647:10652  value */\n          dup4\n            /* \"https://github.com/OpenZeppelin/openzeppelin-contracts/blob/master/contracts/token/ERC20/ERC20.sol\":10593:10653  ERC20InsufficientAllowance(spender, currentAllowance, value) */\n          mload(0x40)\n          0xfb8f41b200000000000000000000000000000000000000000000000000000000\n          dup2\n          mstore\n          0x04\n          add\n          tag_92\n          swap4\n          swap3\n          swap2\n          swap1\n          tag_93\n          jump\t// in\n        tag_92:\n          mload(0x40)\n          dup1\n          swap2\n          sub\n          swap1\n          revert\n            /* \"https://github.com/OpenZeppelin/openzeppelin-contracts/blob/master/contracts/token/ERC20/ERC20.sol\":10538:10668  if (currentAllowance < value) {... */\n        tag_91:\n            /* \"https://github.com/OpenZeppelin/openzeppelin-contracts/blob/master/contracts/token/ERC20/ERC20.sol\":10709:10766  _approve(owner, spender, currentAllowance - value, false) */\n          tag_94\n            /* \"https://github.com/OpenZeppelin/openzeppelin-contracts/blob/master/contracts/token/ERC20/ERC20.sol\":10718:10723  owner */\n          dup5\n            /* \"https://github.com/OpenZeppelin/openzeppelin-contracts/blob/master/contracts/token/ERC20/ERC20.sol\":10725:10732  spender */\n          dup5\n            /* \"https://github.com/OpenZeppelin/openzeppelin-contracts/blob/master/contracts/token/ERC20/ERC20.sol\":10753:10758  value */\n          dup5\n            /* \"https://github.com/OpenZeppelin/openzeppelin-contracts/blob/master/contracts/token/ERC20/ERC20.sol\":10734:10750  currentAllowance */\n          dup5\n            /* \"https://github.com/OpenZeppelin/openzeppelin-contracts/blob/master/contracts/token/ERC20/ERC20.sol\":10734:10758  currentAllowance - value */\n          sub\n            /* \"https://github.com/OpenZeppelin/openzeppelin-contracts/blob/master/contracts/token/ERC20/ERC20.sol\":10760:10765  false */\n          0x00\n            /* \"https://github.com/OpenZeppelin/openzeppelin-contracts/blob/master/contracts/token/ERC20/ERC20.sol\":10709:10717  _approve */\n          tag_87\n            /* \"https://github.com/OpenZeppelin/openzeppelin-contracts/blob/master/contracts/token/ERC20/ERC20.sol\":10709:10766  _approve(owner, spender, currentAllowance - value, false) */\n          jump\t// in\n        tag_94:\n            /* \"https://github.com/OpenZeppelin/openzeppelin-contracts/blob/master/contracts/token/ERC20/ERC20.sol\":10482:10791  if (currentAllowance < type(uint256).max) {... */\n        tag_90:\n            /* \"https://github.com/OpenZeppelin/openzeppelin-contracts/blob/master/contracts/token/ERC20/ERC20.sol\":10410:10797  {... */\n          pop\n            /* \"https://github.com/OpenZeppelin/openzeppelin-contracts/blob/master/contracts/token/ERC20/ERC20.sol\":10321:10797  function _spendAllowance(address owner, address spender, uint256 value) internal virtual {... */\n          pop\n          pop\n          pop\n          jump\t// out\n            /* \"https://github.com/OpenZeppelin/openzeppelin-contracts/blob/master/contracts/token/ERC20/ERC20.sol\":5297:5597  function _transfer(address from, address to, uint256 value) internal {... */\n        tag_71:\n            /* \"https://github.com/OpenZeppelin/openzeppelin-contracts/blob/master/contracts/token/ERC20/ERC20.sol\":5396:5397  0 */\n          0x00\n            /* \"https://github.com/OpenZeppelin/openzeppelin-contracts/blob/master/contracts/token/ERC20/ERC20.sol\":5380:5398  from == address(0) */\n          0xffffffffffffffffffffffffffffffffffffffff\n          and\n            /* \"https://github.com/OpenZeppelin/openzeppelin-contracts/blob/master/contracts/token/ERC20/ERC20.sol\":5380:5384  from */\n          dup4\n            /* \"https://github.com/OpenZeppelin/openzeppelin-contracts/blob/master/contracts/token/ERC20/ERC20.sol\":5380:5398  from == address(0) */\n          0xffffffffffffffffffffffffffffffffffffffff\n          and\n          sub\n            /* \"https://github.com/OpenZeppelin/openzeppelin-contracts/blob/master/contracts/token/ERC20/ERC20.sol\":5376:5462  if (from == address(0)) {... */\n          tag_96\n          jumpi\n            /* \"https://github.com/OpenZeppelin/openzeppelin-contracts/blob/master/contracts/token/ERC20/ERC20.sol\":5448:5449  0 */\n          0x00\n            /* \"https://github.com/OpenZeppelin/openzeppelin-contracts/blob/master/contracts/token/ERC20/ERC20.sol\":5421:5451  ERC20InvalidSender(address(0)) */\n          mload(0x40)\n          0x96c6fd1e00000000000000000000000000000000000000000000000000000000\n          dup2\n          mstore\n          0x04\n          add\n          tag_97\n          swap2\n          swap1\n          tag_98\n          jump\t// in\n        tag_97:\n          mload(0x40)\n          dup1\n          swap2\n          sub\n          swap1\n          revert\n            /* \"https://github.com/OpenZeppelin/openzeppelin-contracts/blob/master/contracts/token/ERC20/ERC20.sol\":5376:5462  if (from == address(0)) {... */\n        tag_96:\n            /* \"https://github.com/OpenZeppelin/openzeppelin-contracts/blob/master/contracts/token/ERC20/ERC20.sol\":5489:5490  0 */\n          0x00\n            /* \"https://github.com/OpenZeppelin/openzeppelin-contracts/blob/master/contracts/token/ERC20/ERC20.sol\":5475:5491  to == address(0) */\n          0xffffffffffffffffffffffffffffffffffffffff\n          and\n            /* \"https://github.com/OpenZeppelin/openzeppelin-contracts/blob/master/contracts/token/ERC20/ERC20.sol\":5475:5477  to */\n          dup3\n            /* \"https://github.com/OpenZeppelin/openzeppelin-contracts/blob/master/contracts/token/ERC20/ERC20.sol\":5475:5491  to == address(0) */\n          0xffffffffffffffffffffffffffffffffffffffff\n          and\n          sub\n            /* \"https://github.com/OpenZeppelin/openzeppelin-contracts/blob/master/contracts/token/ERC20/ERC20.sol\":5471:5557  if (to == address(0)) {... */\n          tag_99\n          jumpi\n            /* \"https://github.com/OpenZeppelin/openzeppelin-contracts/blob/master/contracts/token/ERC20/ERC20.sol\":5543:5544  0 */\n          0x00\n            /* \"https://github.com/OpenZeppelin/openzeppelin-contracts/blob/master/contracts/token/ERC20/ERC20.sol\":5514:5546  ERC20InvalidReceiver(address(0)) */\n          mload(0x40)\n          0xec442f0500000000000000000000000000000000000000000000000000000000\n          dup2\n          mstore\n          0x04\n          add\n          tag_100\n          swap2\n          swap1\n          tag_98\n          jump\t// in\n        tag_100:\n          mload(0x40)\n          dup1\n          swap2\n          sub\n          swap1\n          revert\n            /* \"https://github.com/OpenZeppelin/openzeppelin-contracts/blob/master/contracts/token/ERC20/ERC20.sol\":5471:5557  if (to == address(0)) {... */\n        tag_99:\n            /* \"https://github.com/OpenZeppelin/openzeppelin-contracts/blob/master/contracts/token/ERC20/ERC20.sol\":5566:5590  _update(from, to, value) */\n          tag_101\n            /* \"https://github.com/OpenZeppelin/openzeppelin-contracts/blob/master/contracts/token/ERC20/ERC20.sol\":5574:5578  from */\n          dup4\n            /* \"https://github.com/OpenZeppelin/openzeppelin-contracts/blob/master/contracts/token/ERC20/ERC20.sol\":5580:5582  to */\n          dup4\n            /* \"https://github.com/OpenZeppelin/openzeppelin-contracts/blob/master/contracts/token/ERC20/ERC20.sol\":5584:5589  value */\n          dup4\n            /* \"https://github.com/OpenZeppelin/openzeppelin-contracts/blob/master/contracts/token/ERC20/ERC20.sol\":5566:5573  _update */\n          tag_102\n            /* \"https://github.com/OpenZeppelin/openzeppelin-contracts/blob/master/contracts/token/ERC20/ERC20.sol\":5566:5590  _update(from, to, value) */\n          jump\t// in\n        tag_101:\n            /* \"https://github.com/OpenZeppelin/openzeppelin-contracts/blob/master/contracts/token/ERC20/ERC20.sol\":5297:5597  function _transfer(address from, address to, uint256 value) internal {... */\n          pop\n          pop\n          pop\n          jump\t// out\n            /* \"https://github.com/OpenZeppelin/openzeppelin-contracts/blob/master/contracts/token/ERC20/ERC20.sol\":9607:10039  function _approve(address owner, address spender, uint256 value, bool emitEvent) internal virtual {... */\n        tag_87:\n            /* \"https://github.com/OpenZeppelin/openzeppelin-contracts/blob/master/contracts/token/ERC20/ERC20.sol\":9736:9737  0 */\n          0x00\n            /* \"https://github.com/OpenZeppelin/openzeppelin-contracts/blob/master/contracts/token/ERC20/ERC20.sol\":9719:9738  owner == address(0) */\n          0xffffffffffffffffffffffffffffffffffffffff\n          and\n            /* \"https://github.com/OpenZeppelin/openzeppelin-contracts/blob/master/contracts/token/ERC20/ERC20.sol\":9719:9724  owner */\n          dup5\n            /* \"https://github.com/OpenZeppelin/openzeppelin-contracts/blob/master/contracts/token/ERC20/ERC20.sol\":9719:9738  owner == address(0) */\n          0xffffffffffffffffffffffffffffffffffffffff\n          and\n          sub\n            /* \"https://github.com/OpenZeppelin/openzeppelin-contracts/blob/master/contracts/token/ERC20/ERC20.sol\":9715:9804  if (owner == address(0)) {... */\n          tag_104\n          jumpi\n            /* \"https://github.com/OpenZeppelin/openzeppelin-contracts/blob/master/contracts/token/ERC20/ERC20.sol\":9790:9791  0 */\n          0x00\n            /* \"https://github.com/OpenZeppelin/openzeppelin-contracts/blob/master/contracts/token/ERC20/ERC20.sol\":9761:9793  ERC20InvalidApprover(address(0)) */\n          mload(0x40)\n          0xe602df0500000000000000000000000000000000000000000000000000000000\n          dup2\n          mstore\n          0x04\n          add\n          tag_105\n          swap2\n          swap1\n          tag_98\n          jump\t// in\n        tag_105:\n          mload(0x40)\n          dup1\n          swap2\n          sub\n          swap1\n          revert\n            /* \"https://github.com/OpenZeppelin/openzeppelin-contracts/blob/master/contracts/token/ERC20/ERC20.sol\":9715:9804  if (owner == address(0)) {... */\n        tag_104:\n            /* \"https://github.com/OpenZeppelin/openzeppelin-contracts/blob/master/contracts/token/ERC20/ERC20.sol\":9836:9837  0 */\n          0x00\n            /* \"https://github.com/OpenZeppelin/openzeppelin-contracts/blob/master/contracts/token/ERC20/ERC20.sol\":9817:9838  spender == address(0) */\n          0xffffffffffffffffffffffffffffffffffffffff\n          and\n            /* \"https://github.com/OpenZeppelin/openzeppelin-contracts/blob/master/contracts/token/ERC20/ERC20.sol\":9817:9824  spender */\n          dup4\n            /* \"https://github.com/OpenZeppelin/openzeppelin-contracts/blob/master/contracts/token/ERC20/ERC20.sol\":9817:9838  spender == address(0) */\n          0xffffffffffffffffffffffffffffffffffffffff\n          and\n          sub\n            /* \"https://github.com/OpenZeppelin/openzeppelin-contracts/blob/master/contracts/token/ERC20/ERC20.sol\":9813:9903  if (spender == address(0)) {... */\n          tag_106\n          jumpi\n            /* \"https://github.com/OpenZeppelin/openzeppelin-contracts/blob/master/contracts/token/ERC20/ERC20.sol\":9889:9890  0 */\n          0x00\n            /* \"https://github.com/OpenZeppelin/openzeppelin-contracts/blob/master/contracts/token/ERC20/ERC20.sol\":9861:9892  ERC20InvalidSpender(address(0)) */\n          mload(0x40)\n          0x94280d6200000000000000000000000000000000000000000000000000000000\n          dup2\n          mstore\n          0x04\n          add\n          tag_107\n          swap2\n          swap1\n          tag_98\n          jump\t// in\n        tag_107:\n          mload(0x40)\n          dup1\n          swap2\n          sub\n          swap1\n          revert\n            /* \"https://github.com/OpenZeppelin/openzeppelin-contracts/blob/master/contracts/token/ERC20/ERC20.sol\":9813:9903  if (spender == address(0)) {... */\n        tag_106:\n            /* \"https://github.com/OpenZeppelin/openzeppelin-contracts/blob/master/contracts/token/ERC20/ERC20.sol\":9942:9947  value */\n          dup2\n            /* \"https://github.com/OpenZeppelin/openzeppelin-contracts/blob/master/contracts/token/ERC20/ERC20.sol\":9912:9923  _allowances */\n          0x01\n            /* \"https://github.com/OpenZeppelin/openzeppelin-contracts/blob/master/contracts/token/ERC20/ERC20.sol\":9912:9930  _allowances[owner] */\n          0x00\n            /* \"https://github.com/OpenZeppelin/openzeppelin-contracts/blob/master/contracts/token/ERC20/ERC20.sol\":9924:9929  owner */\n          dup7\n            /* \"https://github.com/OpenZeppelin/openzeppelin-contracts/blob/master/contracts/token/ERC20/ERC20.sol\":9912:9930  _allowances[owner] */\n          0xffffffffffffffffffffffffffffffffffffffff\n          and\n          0xffffffffffffffffffffffffffffffffffffffff\n          and\n          dup2\n          mstore\n          0x20\n          add\n          swap1\n          dup2\n          mstore\n          0x20\n          add\n          0x00\n          keccak256\n            /* \"https://github.com/OpenZeppelin/openzeppelin-contracts/blob/master/contracts/token/ERC20/ERC20.sol\":9912:9939  _allowances[owner][spender] */\n          0x00\n            /* \"https://github.com/OpenZeppelin/openzeppelin-contracts/blob/master/contracts/token/ERC20/ERC20.sol\":9931:9938  spender */\n          dup6\n            /* \"https://github.com/OpenZeppelin/openzeppelin-contracts/blob/master/contracts/token/ERC20/ERC20.sol\":9912:9939  _allowances[owner][spender] */\n          0xffffffffffffffffffffffffffffffffffffffff\n          and\n          0xffffffffffffffffffffffffffffffffffffffff\n          and\n          dup2\n          mstore\n          0x20\n          add\n          swap1\n          dup2\n          mstore\n          0x20\n          add\n          0x00\n          keccak256\n            /* \"https://github.com/OpenZeppelin/openzeppelin-contracts/blob/master/contracts/token/ERC20/ERC20.sol\":9912:9947  _allowances[owner][spender] = value */\n          dup2\n          swap1\n          sstore\n          pop\n            /* \"https://github.com/OpenZeppelin/openzeppelin-contracts/blob/master/contracts/token/ERC20/ERC20.sol\":9961:9970  emitEvent */\n          dup1\n            /* \"https://github.com/OpenZeppelin/openzeppelin-contracts/blob/master/contracts/token/ERC20/ERC20.sol\":9957:10033  if (emitEvent) {... */\n          iszero\n          tag_108\n          jumpi\n            /* \"https://github.com/OpenZeppelin/openzeppelin-contracts/blob/master/contracts/token/ERC20/ERC20.sol\":10007:10014  spender */\n          dup3\n            /* \"https://github.com/OpenZeppelin/openzeppelin-contracts/blob/master/contracts/token/ERC20/ERC20.sol\":9991:10022  Approval(owner, spender, value) */\n          0xffffffffffffffffffffffffffffffffffffffff\n          and\n            /* \"https://github.com/OpenZeppelin/openzeppelin-contracts/blob/master/contracts/token/ERC20/ERC20.sol\":10000:10005  owner */\n          dup5\n            /* \"https://github.com/OpenZeppelin/openzeppelin-contracts/blob/master/contracts/token/ERC20/ERC20.sol\":9991:10022  Approval(owner, spender, value) */\n          0xffffffffffffffffffffffffffffffffffffffff\n          and\n          0x8c5be1e5ebec7d5bd14f71427d1e84f3dd0314c0f7b2291e5b200ac8c7c3b925\n            /* \"https://github.com/OpenZeppelin/openzeppelin-contracts/blob/master/contracts/token/ERC20/ERC20.sol\":10016:10021  value */\n          dup5\n            /* \"https://github.com/OpenZeppelin/openzeppelin-contracts/blob/master/contracts/token/ERC20/ERC20.sol\":9991:10022  Approval(owner, spender, value) */\n          mload(0x40)\n          tag_109\n          swap2\n          swap1\n          tag_26\n          jump\t// in\n        tag_109:\n          mload(0x40)\n          dup1\n          swap2\n          sub\n          swap1\n          log3\n            /* \"https://github.com/OpenZeppelin/openzeppelin-contracts/blob/master/contracts/token/ERC20/ERC20.sol\":9957:10033  if (emitEvent) {... */\n        tag_108:\n            /* \"https://github.com/OpenZeppelin/openzeppelin-contracts/blob/master/contracts/token/ERC20/ERC20.sol\":9607:10039  function _approve(address owner, address spender, uint256 value, bool emitEvent) internal virtual {... */\n          pop\n          pop\n          pop\n          pop\n          jump\t// out\n            /* \"https://github.com/OpenZeppelin/openzeppelin-contracts/blob/master/contracts/token/ERC20/ERC20.sol\":5912:7019  function _update(address from, address to, uint256 value) internal virtual {... */\n        tag_102:\n            /* \"https://github.com/OpenZeppelin/openzeppelin-contracts/blob/master/contracts/token/ERC20/ERC20.sol\":6017:6018  0 */\n          0x00\n            /* \"https://github.com/OpenZeppelin/openzeppelin-contracts/blob/master/contracts/token/ERC20/ERC20.sol\":6001:6019  from == address(0) */\n          0xffffffffffffffffffffffffffffffffffffffff\n          and\n            /* \"https://github.com/OpenZeppelin/openzeppelin-contracts/blob/master/contracts/token/ERC20/ERC20.sol\":6001:6005  from */\n          dup4\n            /* \"https://github.com/OpenZeppelin/openzeppelin-contracts/blob/master/contracts/token/ERC20/ERC20.sol\":6001:6019  from == address(0) */\n          0xffffffffffffffffffffffffffffffffffffffff\n          and\n          sub\n            /* \"https://github.com/OpenZeppelin/openzeppelin-contracts/blob/master/contracts/token/ERC20/ERC20.sol\":5997:6537  if (from == address(0)) {... */\n          tag_111\n          jumpi\n            /* \"https://github.com/OpenZeppelin/openzeppelin-contracts/blob/master/contracts/token/ERC20/ERC20.sol\":6153:6158  value */\n          dup1\n            /* \"https://github.com/OpenZeppelin/openzeppelin-contracts/blob/master/contracts/token/ERC20/ERC20.sol\":6137:6149  _totalSupply */\n          0x02\n          0x00\n            /* \"https://github.com/OpenZeppelin/openzeppelin-contracts/blob/master/contracts/token/ERC20/ERC20.sol\":6137:6158  _totalSupply += value */\n          dup3\n          dup3\n          sload\n          tag_112\n          swap2\n          swap1\n          tag_113\n          jump\t// in\n        tag_112:\n          swap3\n          pop\n          pop\n          dup2\n          swap1\n          sstore\n          pop\n            /* \"https://github.com/OpenZeppelin/openzeppelin-contracts/blob/master/contracts/token/ERC20/ERC20.sol\":5997:6537  if (from == address(0)) {... */\n          jump(tag_114)\n        tag_111:\n            /* \"https://github.com/OpenZeppelin/openzeppelin-contracts/blob/master/contracts/token/ERC20/ERC20.sol\":6189:6208  uint256 fromBalance */\n          0x00\n            /* \"https://github.com/OpenZeppelin/openzeppelin-contracts/blob/master/contracts/token/ERC20/ERC20.sol\":6211:6220  _balances */\n          0x00\n            /* \"https://github.com/OpenZeppelin/openzeppelin-contracts/blob/master/contracts/token/ERC20/ERC20.sol\":6211:6226  _balances[from] */\n          0x00\n            /* \"https://github.com/OpenZeppelin/openzeppelin-contracts/blob/master/contracts/token/ERC20/ERC20.sol\":6221:6225  from */\n          dup6\n            /* \"https://github.com/OpenZeppelin/openzeppelin-contracts/blob/master/contracts/token/ERC20/ERC20.sol\":6211:6226  _balances[from] */\n          0xffffffffffffffffffffffffffffffffffffffff\n          and\n          0xffffffffffffffffffffffffffffffffffffffff\n          and\n          dup2\n          mstore\n          0x20\n          add\n          swap1\n          dup2\n          mstore\n          0x20\n          add\n          0x00\n          keccak256\n          sload\n            /* \"https://github.com/OpenZeppelin/openzeppelin-contracts/blob/master/contracts/token/ERC20/ERC20.sol\":6189:6226  uint256 fromBalance = _balances[from] */\n          swap1\n          pop\n            /* \"https://github.com/OpenZeppelin/openzeppelin-contracts/blob/master/contracts/token/ERC20/ERC20.sol\":6258:6263  value */\n          dup2\n            /* \"https://github.com/OpenZeppelin/openzeppelin-contracts/blob/master/contracts/token/ERC20/ERC20.sol\":6244:6255  fromBalance */\n          dup2\n            /* \"https://github.com/OpenZeppelin/openzeppelin-contracts/blob/master/contracts/token/ERC20/ERC20.sol\":6244:6263  fromBalance < value */\n          lt\n            /* \"https://github.com/OpenZeppelin/openzeppelin-contracts/blob/master/contracts/token/ERC20/ERC20.sol\":6240:6355  if (fromBalance < value) {... */\n          iszero\n          tag_115\n          jumpi\n            /* \"https://github.com/OpenZeppelin/openzeppelin-contracts/blob/master/contracts/token/ERC20/ERC20.sol\":6315:6319  from */\n          dup4\n            /* \"https://github.com/OpenZeppelin/openzeppelin-contracts/blob/master/contracts/token/ERC20/ERC20.sol\":6321:6332  fromBalance */\n          dup2\n            /* \"https://github.com/OpenZeppelin/openzeppelin-contracts/blob/master/contracts/token/ERC20/ERC20.sol\":6334:6339  value */\n          dup4\n            /* \"https://github.com/OpenZeppelin/openzeppelin-contracts/blob/master/contracts/token/ERC20/ERC20.sol\":6290:6340  ERC20InsufficientBalance(from, fromBalance, value) */\n          mload(0x40)\n          0xe450d38c00000000000000000000000000000000000000000000000000000000\n          dup2\n          mstore\n          0x04\n          add\n          tag_116\n          swap4\n          swap3\n          swap2\n          swap1\n          tag_93\n          jump\t// in\n        tag_116:\n          mload(0x40)\n          dup1\n          swap2\n          sub\n          swap1\n          revert\n            /* \"https://github.com/OpenZeppelin/openzeppelin-contracts/blob/master/contracts/token/ERC20/ERC20.sol\":6240:6355  if (fromBalance < value) {... */\n        tag_115:\n            /* \"https://github.com/OpenZeppelin/openzeppelin-contracts/blob/master/contracts/token/ERC20/ERC20.sol\":6507:6512  value */\n          dup2\n            /* \"https://github.com/OpenZeppelin/openzeppelin-contracts/blob/master/contracts/token/ERC20/ERC20.sol\":6493:6504  fromBalance */\n          dup2\n            /* \"https://github.com/OpenZeppelin/openzeppelin-contracts/blob/master/contracts/token/ERC20/ERC20.sol\":6493:6512  fromBalance - value */\n          sub\n            /* \"https://github.com/OpenZeppelin/openzeppelin-contracts/blob/master/contracts/token/ERC20/ERC20.sol\":6475:6484  _balances */\n          0x00\n            /* \"https://github.com/OpenZeppelin/openzeppelin-contracts/blob/master/contracts/token/ERC20/ERC20.sol\":6475:6490  _balances[from] */\n          0x00\n            /* \"https://github.com/OpenZeppelin/openzeppelin-contracts/blob/master/contracts/token/ERC20/ERC20.sol\":6485:6489  from */\n          dup7\n            /* \"https://github.com/OpenZeppelin/openzeppelin-contracts/blob/master/contracts/token/ERC20/ERC20.sol\":6475:6490  _balances[from] */\n          0xffffffffffffffffffffffffffffffffffffffff\n          and\n          0xffffffffffffffffffffffffffffffffffffffff\n          and\n          dup2\n          mstore\n          0x20\n          add\n          swap1\n          dup2\n          mstore\n          0x20\n          add\n          0x00\n          keccak256\n            /* \"https://github.com/OpenZeppelin/openzeppelin-contracts/blob/master/contracts/token/ERC20/ERC20.sol\":6475:6512  _balances[from] = fromBalance - value */\n          dup2\n          swap1\n          sstore\n          pop\n            /* \"https://github.com/OpenZeppelin/openzeppelin-contracts/blob/master/contracts/token/ERC20/ERC20.sol\":6175:6537  {... */\n          pop\n            /* \"https://github.com/OpenZeppelin/openzeppelin-contracts/blob/master/contracts/token/ERC20/ERC20.sol\":5997:6537  if (from == address(0)) {... */\n        tag_114:\n            /* \"https://github.com/OpenZeppelin/openzeppelin-contracts/blob/master/contracts/token/ERC20/ERC20.sol\":6565:6566  0 */\n          0x00\n            /* \"https://github.com/OpenZeppelin/openzeppelin-contracts/blob/master/contracts/token/ERC20/ERC20.sol\":6551:6567  to == address(0) */\n          0xffffffffffffffffffffffffffffffffffffffff\n          and\n            /* \"https://github.com/OpenZeppelin/openzeppelin-contracts/blob/master/contracts/token/ERC20/ERC20.sol\":6551:6553  to */\n          dup3\n            /* \"https://github.com/OpenZeppelin/openzeppelin-contracts/blob/master/contracts/token/ERC20/ERC20.sol\":6551:6567  to == address(0) */\n          0xffffffffffffffffffffffffffffffffffffffff\n          and\n          sub\n            /* \"https://github.com/OpenZeppelin/openzeppelin-contracts/blob/master/contracts/token/ERC20/ERC20.sol\":6547:6972  if (to == address(0)) {... */\n          tag_117\n          jumpi\n            /* \"https://github.com/OpenZeppelin/openzeppelin-contracts/blob/master/contracts/token/ERC20/ERC20.sol\":6730:6735  value */\n          dup1\n            /* \"https://github.com/OpenZeppelin/openzeppelin-contracts/blob/master/contracts/token/ERC20/ERC20.sol\":6714:6726  _totalSupply */\n          0x02\n          0x00\n            /* \"https://github.com/OpenZeppelin/openzeppelin-contracts/blob/master/contracts/token/ERC20/ERC20.sol\":6714:6735  _totalSupply -= value */\n          dup3\n          dup3\n          sload\n          sub\n          swap3\n          pop\n          pop\n          dup2\n          swap1\n          sstore\n          pop\n            /* \"https://github.com/OpenZeppelin/openzeppelin-contracts/blob/master/contracts/token/ERC20/ERC20.sol\":6547:6972  if (to == address(0)) {... */\n          jump(tag_118)\n        tag_117:\n            /* \"https://github.com/OpenZeppelin/openzeppelin-contracts/blob/master/contracts/token/ERC20/ERC20.sol\":6942:6947  value */\n          dup1\n            /* \"https://github.com/OpenZeppelin/openzeppelin-contracts/blob/master/contracts/token/ERC20/ERC20.sol\":6925:6934  _balances */\n          0x00\n            /* \"https://github.com/OpenZeppelin/openzeppelin-contracts/blob/master/contracts/token/ERC20/ERC20.sol\":6925:6938  _balances[to] */\n          0x00\n            /* \"https://github.com/OpenZeppelin/openzeppelin-contracts/blob/master/contracts/token/ERC20/ERC20.sol\":6935:6937  to */\n          dup5\n            /* \"https://github.com/OpenZeppelin/openzeppelin-contracts/blob/master/contracts/token/ERC20/ERC20.sol\":6925:6938  _balances[to] */\n          0xffffffffffffffffffffffffffffffffffffffff\n          and\n          0xffffffffffffffffffffffffffffffffffffffff\n          and\n          dup2\n          mstore\n          0x20\n          add\n          swap1\n          dup2\n          mstore\n          0x20\n          add\n          0x00\n          keccak256\n          0x00\n            /* \"https://github.com/OpenZeppelin/openzeppelin-contracts/blob/master/contracts/token/ERC20/ERC20.sol\":6925:6947  _balances[to] += value */\n          dup3\n          dup3\n          sload\n          add\n          swap3\n          pop\n          pop\n          dup2\n          swap1\n          sstore\n          pop\n            /* \"https://github.com/OpenZeppelin/openzeppelin-contracts/blob/master/contracts/token/ERC20/ERC20.sol\":6547:6972  if (to == address(0)) {... */\n        tag_118:\n            /* \"https://github.com/OpenZeppelin/openzeppelin-contracts/blob/master/contracts/token/ERC20/ERC20.sol\":7002:7004  to */\n          dup2\n            /* \"https://github.com/OpenZeppelin/openzeppelin-contracts/blob/master/contracts/token/ERC20/ERC20.sol\":6987:7012  Transfer(from, to, value) */\n          0xffffffffffffffffffffffffffffffffffffffff\n          and\n            /* \"https://github.com/OpenZeppelin/openzeppelin-contracts/blob/master/contracts/token/ERC20/ERC20.sol\":6996:7000  from */\n          dup4\n            /* \"https://github.com/OpenZeppelin/openzeppelin-contracts/blob/master/contracts/token/ERC20/ERC20.sol\":6987:7012  Transfer(from, to, value) */\n          0xffffffffffffffffffffffffffffffffffffffff\n          and\n          0xddf252ad1be2c89b69c2b068fc378daa952ba7f163c4a11628f55a4df523b3ef\n            /* \"https://github.com/OpenZeppelin/openzeppelin-contracts/blob/master/contracts/token/ERC20/ERC20.sol\":7006:7011  value */\n          dup4\n            /* \"https://github.com/OpenZeppelin/openzeppelin-contracts/blob/master/contracts/token/ERC20/ERC20.sol\":6987:7012  Transfer(from, to, value) */\n          mload(0x40)\n          tag_119\n          swap2\n          swap1\n          tag_26\n          jump\t// in\n        tag_119:\n          mload(0x40)\n          dup1\n          swap2\n          sub\n          swap1\n          log3\n            /* \"https://github.com/OpenZeppelin/openzeppelin-contracts/blob/master/contracts/token/ERC20/ERC20.sol\":5912:7019  function _update(address from, address to, uint256 value) internal virtual {... */\n          pop\n          pop\n          pop\n          jump\t// out\n            /* \"#utility.yul\":7:106   */\n        tag_120:\n            /* \"#utility.yul\":59:65   */\n          0x00\n            /* \"#utility.yul\":93:98   */\n          dup2\n            /* \"#utility.yul\":87:99   */\n          mload\n            /* \"#utility.yul\":77:99   */\n          swap1\n          pop\n            /* \"#utility.yul\":7:106   */\n          swap2\n          swap1\n          pop\n          jump\t// out\n            /* \"#utility.yul\":112:281   */\n        tag_121:\n            /* \"#utility.yul\":196:207   */\n          0x00\n            /* \"#utility.yul\":230:236   */\n          dup3\n            /* \"#utility.yul\":225:228   */\n          dup3\n            /* \"#utility.yul\":218:237   */\n          mstore\n            /* \"#utility.yul\":270:274   */\n          0x20\n            /* \"#utility.yul\":265:268   */\n          dup3\n            /* \"#utility.yul\":261:275   */\n          add\n            /* \"#utility.yul\":246:275   */\n          swap1\n          pop\n            /* \"#utility.yul\":112:281   */\n          swap3\n          swap2\n          pop\n          pop\n          jump\t// out\n            /* \"#utility.yul\":287:426   */\n        tag_122:\n            /* \"#utility.yul\":376:382   */\n          dup3\n            /* \"#utility.yul\":371:374   */\n          dup2\n            /* \"#utility.yul\":366:369   */\n          dup4\n            /* \"#utility.yul\":360:383   */\n          mcopy\n            /* \"#utility.yul\":417:418   */\n          0x00\n            /* \"#utility.yul\":408:414   */\n          dup4\n            /* \"#utility.yul\":403:406   */\n          dup4\n            /* \"#utility.yul\":399:415   */\n          add\n            /* \"#utility.yul\":392:419   */\n          mstore\n            /* \"#utility.yul\":287:426   */\n          pop\n          pop\n          pop\n          jump\t// out\n            /* \"#utility.yul\":432:534   */\n        tag_123:\n            /* \"#utility.yul\":473:479   */\n          0x00\n            /* \"#utility.yul\":524:526   */\n          0x1f\n            /* \"#utility.yul\":520:527   */\n          not\n            /* \"#utility.yul\":515:517   */\n          0x1f\n            /* \"#utility.yul\":508:513   */\n          dup4\n            /* \"#utility.yul\":504:518   */\n          add\n            /* \"#utility.yul\":500:528   */\n          and\n            /* \"#utility.yul\":490:528   */\n          swap1\n          pop\n            /* \"#utility.yul\":432:534   */\n          swap2\n          swap1\n          pop\n          jump\t// out\n            /* \"#utility.yul\":540:917   */\n        tag_124:\n            /* \"#utility.yul\":628:631   */\n          0x00\n            /* \"#utility.yul\":656:695   */\n          tag_149\n            /* \"#utility.yul\":689:694   */\n          dup3\n            /* \"#utility.yul\":656:695   */\n          tag_120\n          jump\t// in\n        tag_149:\n            /* \"#utility.yul\":711:782   */\n          tag_150\n            /* \"#utility.yul\":775:781   */\n          dup2\n            /* \"#utility.yul\":770:773   */\n          dup6\n            /* \"#utility.yul\":711:782   */\n          tag_121\n          jump\t// in\n        tag_150:\n            /* \"#utility.yul\":704:782   */\n          swap4\n          pop\n            /* \"#utility.yul\":791:856   */\n          tag_151\n            /* \"#utility.yul\":849:855   */\n          dup2\n            /* \"#utility.yul\":844:847   */\n          dup6\n            /* \"#utility.yul\":837:841   */\n          0x20\n            /* \"#utility.yul\":830:835   */\n          dup7\n            /* \"#utility.yul\":826:842   */\n          add\n            /* \"#utility.yul\":791:856   */\n          tag_122\n          jump\t// in\n        tag_151:\n            /* \"#utility.yul\":881:910   */\n          tag_152\n            /* \"#utility.yul\":903:909   */\n          dup2\n            /* \"#utility.yul\":881:910   */\n          tag_123\n          jump\t// in\n        tag_152:\n            /* \"#utility.yul\":876:879   */\n          dup5\n            /* \"#utility.yul\":872:911   */\n          add\n            /* \"#utility.yul\":865:911   */\n          swap2\n          pop\n            /* \"#utility.yul\":632:917   */\n          pop\n            /* \"#utility.yul\":540:917   */\n          swap3\n          swap2\n          pop\n          pop\n          jump\t// out\n            /* \"#utility.yul\":923:1236   */\n        tag_16:\n            /* \"#utility.yul\":1036:1040   */\n          0x00\n            /* \"#utility.yul\":1074:1076   */\n          0x20\n            /* \"#utility.yul\":1063:1072   */\n          dup3\n            /* \"#utility.yul\":1059:1077   */\n          add\n            /* \"#utility.yul\":1051:1077   */\n          swap1\n          pop\n            /* \"#utility.yul\":1123:1132   */\n          dup2\n            /* \"#utility.yul\":1117:1121   */\n          dup2\n            /* \"#utility.yul\":1113:1133   */\n          sub\n            /* \"#utility.yul\":1109:1110   */\n          0x00\n            /* \"#utility.yul\":1098:1107   */\n          dup4\n            /* \"#utility.yul\":1094:1111   */\n          add\n            /* \"#utility.yul\":1087:1134   */\n          mstore\n            /* \"#utility.yul\":1151:1229   */\n          tag_154\n            /* \"#utility.yul\":1224:1228   */\n          dup2\n            /* \"#utility.yul\":1215:1221   */\n          dup5\n            /* \"#utility.yul\":1151:1229   */\n          tag_124\n          jump\t// in\n        tag_154:\n            /* \"#utility.yul\":1143:1229   */\n          swap1\n          pop\n            /* \"#utility.yul\":923:1236   */\n          swap3\n          swap2\n          pop\n          pop\n          jump\t// out\n            /* \"#utility.yul\":1323:1440   */\n        tag_126:\n            /* \"#utility.yul\":1432:1433   */\n          0x00\n            /* \"#utility.yul\":1429:1430   */\n          0x00\n            /* \"#utility.yul\":1422:1434   */\n          revert\n            /* \"#utility.yul\":1569:1695   */\n        tag_128:\n            /* \"#utility.yul\":1606:1613   */\n          0x00\n            /* \"#utility.yul\":1646:1688   */\n          0xffffffffffffffffffffffffffffffffffffffff\n            /* \"#utility.yul\":1639:1644   */\n          dup3\n            /* \"#utility.yul\":1635:1689   */\n          and\n            /* \"#utility.yul\":1624:1689   */\n          swap1\n          pop\n            /* \"#utility.yul\":1569:1695   */\n          swap2\n          swap1\n          pop\n          jump\t// out\n            /* \"#utility.yul\":1701:1797   */\n        tag_129:\n            /* \"#utility.yul\":1738:1745   */\n          0x00\n            /* \"#utility.yul\":1767:1791   */\n          tag_160\n            /* \"#utility.yul\":1785:1790   */\n          dup3\n            /* \"#utility.yul\":1767:1791   */\n          tag_128\n          jump\t// in\n        tag_160:\n            /* \"#utility.yul\":1756:1791   */\n          swap1\n          pop\n            /* \"#utility.yul\":1701:1797   */\n          swap2\n          swap1\n          pop\n          jump\t// out\n            /* \"#utility.yul\":1803:1925   */\n        tag_130:\n            /* \"#utility.yul\":1876:1900   */\n          tag_162\n            /* \"#utility.yul\":1894:1899   */\n          dup2\n            /* \"#utility.yul\":1876:1900   */\n          tag_129\n          jump\t// in\n        tag_162:\n            /* \"#utility.yul\":1869:1874   */\n          dup2\n            /* \"#utility.yul\":1866:1901   */\n          eq\n            /* \"#utility.yul\":1856:1919   */\n          tag_163\n          jumpi\n            /* \"#utility.yul\":1915:1916   */\n          0x00\n            /* \"#utility.yul\":1912:1913   */\n          0x00\n            /* \"#utility.yul\":1905:1917   */\n          revert\n            /* \"#utility.yul\":1856:1919   */\n        tag_163:\n            /* \"#utility.yul\":1803:1925   */\n          pop\n          jump\t// out\n            /* \"#utility.yul\":1931:2070   */\n        tag_131:\n            /* \"#utility.yul\":1977:1982   */\n          0x00\n            /* \"#utility.yul\":2015:2021   */\n          dup2\n            /* \"#utility.yul\":2002:2022   */\n          calldataload\n            /* \"#utility.yul\":1993:2022   */\n          swap1\n          pop\n            /* \"#utility.yul\":2031:2064   */\n          tag_165\n            /* \"#utility.yul\":2058:2063   */\n          dup2\n            /* \"#utility.yul\":2031:2064   */\n          tag_130\n          jump\t// in\n        tag_165:\n            /* \"#utility.yul\":1931:2070   */\n          swap3\n          swap2\n          pop\n          pop\n          jump\t// out\n            /* \"#utility.yul\":2076:2153   */\n        tag_132:\n            /* \"#utility.yul\":2113:2120   */\n          0x00\n            /* \"#utility.yul\":2142:2147   */\n          dup2\n            /* \"#utility.yul\":2131:2147   */\n          swap1\n          pop\n            /* \"#utility.yul\":2076:2153   */\n          swap2\n          swap1\n          pop\n          jump\t// out\n            /* \"#utility.yul\":2159:2281   */\n        tag_133:\n            /* \"#utility.yul\":2232:2256   */\n          tag_168\n            /* \"#utility.yul\":2250:2255   */\n          dup2\n            /* \"#utility.yul\":2232:2256   */\n          tag_132\n          jump\t// in\n        tag_168:\n            /* \"#utility.yul\":2225:2230   */\n          dup2\n            /* \"#utility.yul\":2222:2257   */\n          eq\n            /* \"#utility.yul\":2212:2275   */\n          tag_169\n          jumpi\n            /* \"#utility.yul\":2271:2272   */\n          0x00\n            /* \"#utility.yul\":2268:2269   */\n          0x00\n            /* \"#utility.yul\":2261:2273   */\n          revert\n            /* \"#utility.yul\":2212:2275   */\n        tag_169:\n            /* \"#utility.yul\":2159:2281   */\n          pop\n          jump\t// out\n            /* \"#utility.yul\":2287:2426   */\n        tag_134:\n            /* \"#utility.yul\":2333:2338   */\n          0x00\n            /* \"#utility.yul\":2371:2377   */\n          dup2\n            /* \"#utility.yul\":2358:2378   */\n          calldataload\n            /* \"#utility.yul\":2349:2378   */\n          swap1\n          pop\n            /* \"#utility.yul\":2387:2420   */\n          tag_171\n            /* \"#utility.yul\":2414:2419   */\n          dup2\n            /* \"#utility.yul\":2387:2420   */\n          tag_133\n          jump\t// in\n        tag_171:\n            /* \"#utility.yul\":2287:2426   */\n          swap3\n          swap2\n          pop\n          pop\n          jump\t// out\n            /* \"#utility.yul\":2432:2906   */\n        tag_19:\n            /* \"#utility.yul\":2500:2506   */\n          0x00\n            /* \"#utility.yul\":2508:2514   */\n          0x00\n            /* \"#utility.yul\":2557:2559   */\n          0x40\n            /* \"#utility.yul\":2545:2554   */\n          dup4\n            /* \"#utility.yul\":2536:2543   */\n          dup6\n            /* \"#utility.yul\":2532:2555   */\n          sub\n            /* \"#utility.yul\":2528:2560   */\n          slt\n            /* \"#utility.yul\":2525:2644   */\n          iszero\n          tag_173\n          jumpi\n            /* \"#utility.yul\":2563:2642   */\n          tag_174\n          tag_126\n          jump\t// in\n        tag_174:\n            /* \"#utility.yul\":2525:2644   */\n        tag_173:\n            /* \"#utility.yul\":2683:2684   */\n          0x00\n            /* \"#utility.yul\":2708:2761   */\n          tag_175\n            /* \"#utility.yul\":2753:2760   */\n          dup6\n            /* \"#utility.yul\":2744:2750   */\n          dup3\n            /* \"#utility.yul\":2733:2742   */\n          dup7\n            /* \"#utility.yul\":2729:2751   */\n          add\n            /* \"#utility.yul\":2708:2761   */\n          tag_131\n          jump\t// in\n        tag_175:\n            /* \"#utility.yul\":2698:2761   */\n          swap3\n          pop\n            /* \"#utility.yul\":2654:2771   */\n          pop\n            /* \"#utility.yul\":2810:2812   */\n          0x20\n            /* \"#utility.yul\":2836:2889   */\n          tag_176\n            /* \"#utility.yul\":2881:2888   */\n          dup6\n            /* \"#utility.yul\":2872:2878   */\n          dup3\n            /* \"#utility.yul\":2861:2870   */\n          dup7\n            /* \"#utility.yul\":2857:2879   */\n          add\n            /* \"#utility.yul\":2836:2889   */\n          tag_134\n          jump\t// in\n        tag_176:\n            /* \"#utility.yul\":2826:2889   */\n          swap2\n          pop\n            /* \"#utility.yul\":2781:2899   */\n          pop\n            /* \"#utility.yul\":2432:2906   */\n          swap3\n          pop\n          swap3\n          swap1\n          pop\n          jump\t// out\n            /* \"#utility.yul\":2912:3002   */\n        tag_135:\n            /* \"#utility.yul\":2946:2953   */\n          0x00\n            /* \"#utility.yul\":2989:2994   */\n          dup2\n            /* \"#utility.yul\":2982:2995   */\n          iszero\n            /* \"#utility.yul\":2975:2996   */\n          iszero\n            /* \"#utility.yul\":2964:2996   */\n          swap1\n          pop\n            /* \"#utility.yul\":2912:3002   */\n          swap2\n          swap1\n          pop\n          jump\t// out\n            /* \"#utility.yul\":3008:3117   */\n        tag_136:\n            /* \"#utility.yul\":3089:3110   */\n          tag_179\n            /* \"#utility.yul\":3104:3109   */\n          dup2\n            /* \"#utility.yul\":3089:3110   */\n          tag_135\n          jump\t// in\n        tag_179:\n            /* \"#utility.yul\":3084:3087   */\n          dup3\n            /* \"#utility.yul\":3077:3111   */\n          mstore\n            /* \"#utility.yul\":3008:3117   */\n          pop\n          pop\n          jump\t// out\n            /* \"#utility.yul\":3123:3333   */\n        tag_22:\n            /* \"#utility.yul\":3210:3214   */\n          0x00\n            /* \"#utility.yul\":3248:3250   */\n          0x20\n            /* \"#utility.yul\":3237:3246   */\n          dup3\n            /* \"#utility.yul\":3233:3251   */\n          add\n            /* \"#utility.yul\":3225:3251   */\n          swap1\n          pop\n            /* \"#utility.yul\":3261:3326   */\n          tag_181\n            /* \"#utility.yul\":3323:3324   */\n          0x00\n            /* \"#utility.yul\":3312:3321   */\n          dup4\n            /* \"#utility.yul\":3308:3325   */\n          add\n            /* \"#utility.yul\":3299:3305   */\n          dup5\n            /* \"#utility.yul\":3261:3326   */\n          tag_136\n          jump\t// in\n        tag_181:\n            /* \"#utility.yul\":3123:3333   */\n          swap3\n          swap2\n          pop\n          pop\n          jump\t// out\n            /* \"#utility.yul\":3339:3457   */\n        tag_137:\n            /* \"#utility.yul\":3426:3450   */\n          tag_183\n            /* \"#utility.yul\":3444:3449   */\n          dup2\n            /* \"#utility.yul\":3426:3450   */\n          tag_132\n          jump\t// in\n        tag_183:\n            /* \"#utility.yul\":3421:3424   */\n          dup3\n            /* \"#utility.yul\":3414:3451   */\n          mstore\n            /* \"#utility.yul\":3339:3457   */\n          pop\n          pop\n          jump\t// out\n            /* \"#utility.yul\":3463:3685   */\n        tag_26:\n            /* \"#utility.yul\":3556:3560   */\n          0x00\n            /* \"#utility.yul\":3594:3596   */\n          0x20\n            /* \"#utility.yul\":3583:3592   */\n          dup3\n            /* \"#utility.yul\":3579:3597   */\n          add\n            /* \"#utility.yul\":3571:3597   */\n          swap1\n          pop\n            /* \"#utility.yul\":3607:3678   */\n          tag_185\n            /* \"#utility.yul\":3675:3676   */\n          0x00\n            /* \"#utility.yul\":3664:3673   */\n          dup4\n            /* \"#utility.yul\":3660:3677   */\n          add\n            /* \"#utility.yul\":3651:3657   */\n          dup5\n            /* \"#utility.yul\":3607:3678   */\n          tag_137\n          jump\t// in\n        tag_185:\n            /* \"#utility.yul\":3463:3685   */\n          swap3\n          swap2\n          pop\n          pop\n          jump\t// out\n            /* \"#utility.yul\":3691:4310   */\n        tag_29:\n            /* \"#utility.yul\":3768:3774   */\n          0x00\n            /* \"#utility.yul\":3776:3782   */\n          0x00\n            /* \"#utility.yul\":3784:3790   */\n          0x00\n            /* \"#utility.yul\":3833:3835   */\n          0x60\n            /* \"#utility.yul\":3821:3830   */\n          dup5\n            /* \"#utility.yul\":3812:3819   */\n          dup7\n            /* \"#utility.yul\":3808:3831   */\n          sub\n            /* \"#utility.yul\":3804:3836   */\n          slt\n            /* \"#utility.yul\":3801:3920   */\n          iszero\n          tag_187\n          jumpi\n            /* \"#utility.yul\":3839:3918   */\n          tag_188\n          tag_126\n          jump\t// in\n        tag_188:\n            /* \"#utility.yul\":3801:3920   */\n        tag_187:\n            /* \"#utility.yul\":3959:3960   */\n          0x00\n            /* \"#utility.yul\":3984:4037   */\n          tag_189\n            /* \"#utility.yul\":4029:4036   */\n          dup7\n            /* \"#utility.yul\":4020:4026   */\n          dup3\n            /* \"#utility.yul\":4009:4018   */\n          dup8\n            /* \"#utility.yul\":4005:4027   */\n          add\n            /* \"#utility.yul\":3984:4037   */\n          tag_131\n          jump\t// in\n        tag_189:\n            /* \"#utility.yul\":3974:4037   */\n          swap4\n          pop\n            /* \"#utility.yul\":3930:4047   */\n          pop\n            /* \"#utility.yul\":4086:4088   */\n          0x20\n            /* \"#utility.yul\":4112:4165   */\n          tag_190\n            /* \"#utility.yul\":4157:4164   */\n          dup7\n            /* \"#utility.yul\":4148:4154   */\n          dup3\n            /* \"#utility.yul\":4137:4146   */\n          dup8\n            /* \"#utility.yul\":4133:4155   */\n          add\n            /* \"#utility.yul\":4112:4165   */\n          tag_131\n          jump\t// in\n        tag_190:\n            /* \"#utility.yul\":4102:4165   */\n          swap3\n          pop\n            /* \"#utility.yul\":4057:4175   */\n          pop\n            /* \"#utility.yul\":4214:4216   */\n          0x40\n            /* \"#utility.yul\":4240:4293   */\n          tag_191\n            /* \"#utility.yul\":4285:4292   */\n          dup7\n            /* \"#utility.yul\":4276:4282   */\n          dup3\n            /* \"#utility.yul\":4265:4274   */\n          dup8\n            /* \"#utility.yul\":4261:4283   */\n          add\n            /* \"#utility.yul\":4240:4293   */\n          tag_134\n          jump\t// in\n        tag_191:\n            /* \"#utility.yul\":4230:4293   */\n          swap2\n          pop\n            /* \"#utility.yul\":4185:4303   */\n          pop\n            /* \"#utility.yul\":3691:4310   */\n          swap3\n          pop\n          swap3\n          pop\n          swap3\n          jump\t// out\n            /* \"#utility.yul\":4316:4402   */\n        tag_138:\n            /* \"#utility.yul\":4351:4358   */\n          0x00\n            /* \"#utility.yul\":4391:4395   */\n          0xff\n            /* \"#utility.yul\":4384:4389   */\n          dup3\n            /* \"#utility.yul\":4380:4396   */\n          and\n            /* \"#utility.yul\":4369:4396   */\n          swap1\n          pop\n            /* \"#utility.yul\":4316:4402   */\n          swap2\n          swap1\n          pop\n          jump\t// out\n            /* \"#utility.yul\":4408:4520   */\n        tag_139:\n            /* \"#utility.yul\":4491:4513   */\n          tag_194\n            /* \"#utility.yul\":4507:4512   */\n          dup2\n            /* \"#utility.yul\":4491:4513   */\n          tag_138\n          jump\t// in\n        tag_194:\n            /* \"#utility.yul\":4486:4489   */\n          dup3\n            /* \"#utility.yul\":4479:4514   */\n          mstore\n            /* \"#utility.yul\":4408:4520   */\n          pop\n          pop\n          jump\t// out\n            /* \"#utility.yul\":4526:4740   */\n        tag_35:\n            /* \"#utility.yul\":4615:4619   */\n          0x00\n            /* \"#utility.yul\":4653:4655   */\n          0x20\n            /* \"#utility.yul\":4642:4651   */\n          dup3\n            /* \"#utility.yul\":4638:4656   */\n          add\n            /* \"#utility.yul\":4630:4656   */\n          swap1\n          pop\n            /* \"#utility.yul\":4666:4733   */\n          tag_196\n            /* \"#utility.yul\":4730:4731   */\n          0x00\n            /* \"#utility.yul\":4719:4728   */\n          dup4\n            /* \"#utility.yul\":4715:4732   */\n          add\n            /* \"#utility.yul\":4706:4712   */\n          dup5\n            /* \"#utility.yul\":4666:4733   */\n          tag_139\n          jump\t// in\n        tag_196:\n            /* \"#utility.yul\":4526:4740   */\n          swap3\n          swap2\n          pop\n          pop\n          jump\t// out\n            /* \"#utility.yul\":4746:5075   */\n        tag_38:\n            /* \"#utility.yul\":4805:4811   */\n          0x00\n            /* \"#utility.yul\":4854:4856   */\n          0x20\n            /* \"#utility.yul\":4842:4851   */\n          dup3\n            /* \"#utility.yul\":4833:4840   */\n          dup5\n            /* \"#utility.yul\":4829:4852   */\n          sub\n            /* \"#utility.yul\":4825:4857   */\n          slt\n            /* \"#utility.yul\":4822:4941   */\n          iszero\n          tag_198\n          jumpi\n            /* \"#utility.yul\":4860:4939   */\n          tag_199\n          tag_126\n          jump\t// in\n        tag_199:\n            /* \"#utility.yul\":4822:4941   */\n        tag_198:\n            /* \"#utility.yul\":4980:4981   */\n          0x00\n            /* \"#utility.yul\":5005:5058   */\n          tag_200\n            /* \"#utility.yul\":5050:5057   */\n          dup5\n            /* \"#utility.yul\":5041:5047   */\n          dup3\n            /* \"#utility.yul\":5030:5039   */\n          dup6\n            /* \"#utility.yul\":5026:5048   */\n          add\n            /* \"#utility.yul\":5005:5058   */\n          tag_131\n          jump\t// in\n        tag_200:\n            /* \"#utility.yul\":4995:5058   */\n          swap2\n          pop\n            /* \"#utility.yul\":4951:5068   */\n          pop\n            /* \"#utility.yul\":4746:5075   */\n          swap3\n          swap2\n          pop\n          pop\n          jump\t// out\n            /* \"#utility.yul\":5081:5555   */\n        tag_50:\n            /* \"#utility.yul\":5149:5155   */\n          0x00\n            /* \"#utility.yul\":5157:5163   */\n          0x00\n            /* \"#utility.yul\":5206:5208   */\n          0x40\n            /* \"#utility.yul\":5194:5203   */\n          dup4\n            /* \"#utility.yul\":5185:5192   */\n          dup6\n            /* \"#utility.yul\":5181:5204   */\n          sub\n            /* \"#utility.yul\":5177:5209   */\n          slt\n            /* \"#utility.yul\":5174:5293   */\n          iszero\n          tag_202\n          jumpi\n            /* \"#utility.yul\":5212:5291   */\n          tag_203\n          tag_126\n          jump\t// in\n        tag_203:\n            /* \"#utility.yul\":5174:5293   */\n        tag_202:\n            /* \"#utility.yul\":5332:5333   */\n          0x00\n            /* \"#utility.yul\":5357:5410   */\n          tag_204\n            /* \"#utility.yul\":5402:5409   */\n          dup6\n            /* \"#utility.yul\":5393:5399   */\n          dup3\n            /* \"#utility.yul\":5382:5391   */\n          dup7\n            /* \"#utility.yul\":5378:5400   */\n          add\n            /* \"#utility.yul\":5357:5410   */\n          tag_131\n          jump\t// in\n        tag_204:\n            /* \"#utility.yul\":5347:5410   */\n          swap3\n          pop\n            /* \"#utility.yul\":5303:5420   */\n          pop\n            /* \"#utility.yul\":5459:5461   */\n          0x20\n            /* \"#utility.yul\":5485:5538   */\n          tag_205\n            /* \"#utility.yul\":5530:5537   */\n          dup6\n            /* \"#utility.yul\":5521:5527   */\n          dup3\n            /* \"#utility.yul\":5510:5519   */\n          dup7\n            /* \"#utility.yul\":5506:5528   */\n          add\n            /* \"#utility.yul\":5485:5538   */\n          tag_131\n          jump\t// in\n        tag_205:\n            /* \"#utility.yul\":5475:5538   */\n          swap2\n          pop\n            /* \"#utility.yul\":5430:5548   */\n          pop\n            /* \"#utility.yul\":5081:5555   */\n          swap3\n          pop\n          swap3\n          swap1\n          pop\n          jump\t// out\n            /* \"#utility.yul\":5561:5741   */\n        tag_140:\n            /* \"#utility.yul\":5609:5686   */\n          0x4e487b7100000000000000000000000000000000000000000000000000000000\n            /* \"#utility.yul\":5606:5607   */\n          0x00\n            /* \"#utility.yul\":5599:5687   */\n          mstore\n            /* \"#utility.yul\":5706:5710   */\n          0x22\n            /* \"#utility.yul\":5703:5704   */\n          0x04\n            /* \"#utility.yul\":5696:5711   */\n          mstore\n            /* \"#utility.yul\":5730:5734   */\n          0x24\n            /* \"#utility.yul\":5727:5728   */\n          0x00\n            /* \"#utility.yul\":5720:5735   */\n          revert\n            /* \"#utility.yul\":5747:6067   */\n        tag_55:\n            /* \"#utility.yul\":5791:5797   */\n          0x00\n            /* \"#utility.yul\":5828:5829   */\n          0x02\n            /* \"#utility.yul\":5822:5826   */\n          dup3\n            /* \"#utility.yul\":5818:5830   */\n          div\n            /* \"#utility.yul\":5808:5830   */\n          swap1\n          pop\n            /* \"#utility.yul\":5875:5876   */\n          0x01\n            /* \"#utility.yul\":5869:5873   */\n          dup3\n            /* \"#utility.yul\":5865:5877   */\n          and\n            /* \"#utility.yul\":5896:5914   */\n          dup1\n            /* \"#utility.yul\":5886:5967   */\n          tag_208\n          jumpi\n            /* \"#utility.yul\":5952:5956   */\n          0x7f\n            /* \"#utility.yul\":5944:5950   */\n          dup3\n            /* \"#utility.yul\":5940:5957   */\n          and\n            /* \"#utility.yul\":5930:5957   */\n          swap2\n          pop\n            /* \"#utility.yul\":5886:5967   */\n        tag_208:\n            /* \"#utility.yul\":6014:6016   */\n          0x20\n            /* \"#utility.yul\":6006:6012   */\n          dup3\n            /* \"#utility.yul\":6003:6017   */\n          lt\n            /* \"#utility.yul\":5983:6001   */\n          dup2\n            /* \"#utility.yul\":5980:6018   */\n          sub\n            /* \"#utility.yul\":5977:6061   */\n          tag_209\n          jumpi\n            /* \"#utility.yul\":6033:6051   */\n          tag_210\n          tag_140\n          jump\t// in\n        tag_210:\n            /* \"#utility.yul\":5977:6061   */\n        tag_209:\n            /* \"#utility.yul\":5798:6067   */\n          pop\n            /* \"#utility.yul\":5747:6067   */\n          swap2\n          swap1\n          pop\n          jump\t// out\n            /* \"#utility.yul\":6073:6191   */\n        tag_141:\n            /* \"#utility.yul\":6160:6184   */\n          tag_212\n            /* \"#utility.yul\":6178:6183   */\n          dup2\n            /* \"#utility.yul\":6160:6184   */\n          tag_129\n          jump\t// in\n        tag_212:\n            /* \"#utility.yul\":6155:6158   */\n          dup3\n            /* \"#utility.yul\":6148:6185   */\n          mstore\n            /* \"#utility.yul\":6073:6191   */\n          pop\n          pop\n          jump\t// out\n            /* \"#utility.yul\":6197:6639   */\n        tag_93:\n            /* \"#utility.yul\":6346:6350   */\n          0x00\n            /* \"#utility.yul\":6384:6386   */\n          0x60\n            /* \"#utility.yul\":6373:6382   */\n          dup3\n            /* \"#utility.yul\":6369:6387   */\n          add\n            /* \"#utility.yul\":6361:6387   */\n          swap1\n          pop\n            /* \"#utility.yul\":6397:6468   */\n          tag_214\n            /* \"#utility.yul\":6465:6466   */\n          0x00\n            /* \"#utility.yul\":6454:6463   */\n          dup4\n            /* \"#utility.yul\":6450:6467   */\n          add\n            /* \"#utility.yul\":6441:6447   */\n          dup7\n            /* \"#utility.yul\":6397:6468   */\n          tag_141\n          jump\t// in\n        tag_214:\n            /* \"#utility.yul\":6478:6550   */\n          tag_215\n            /* \"#utility.yul\":6546:6548   */\n          0x20\n            /* \"#utility.yul\":6535:6544   */\n          dup4\n            /* \"#utility.yul\":6531:6549   */\n          add\n            /* \"#utility.yul\":6522:6528   */\n          dup6\n            /* \"#utility.yul\":6478:6550   */\n          tag_137\n          jump\t// in\n        tag_215:\n            /* \"#utility.yul\":6560:6632   */\n          tag_216\n            /* \"#utility.yul\":6628:6630   */\n          0x40\n            /* \"#utility.yul\":6617:6626   */\n          dup4\n            /* \"#utility.yul\":6613:6631   */\n          add\n            /* \"#utility.yul\":6604:6610   */\n          dup5\n            /* \"#utility.yul\":6560:6632   */\n          tag_137\n          jump\t// in\n        tag_216:\n            /* \"#utility.yul\":6197:6639   */\n          swap5\n          swap4\n          pop\n          pop\n          pop\n          pop\n          jump\t// out\n            /* \"#utility.yul\":6645:6867   */\n        tag_98:\n            /* \"#utility.yul\":6738:6742   */\n          0x00\n            /* \"#utility.yul\":6776:6778   */\n          0x20\n            /* \"#utility.yul\":6765:6774   */\n          dup3\n            /* \"#utility.yul\":6761:6779   */\n          add\n            /* \"#utility.yul\":6753:6779   */\n          swap1\n          pop\n            /* \"#utility.yul\":6789:6860   */\n          tag_218\n            /* \"#utility.yul\":6857:6858   */\n          0x00\n            /* \"#utility.yul\":6846:6855   */\n          dup4\n            /* \"#utility.yul\":6842:6859   */\n          add\n            /* \"#utility.yul\":6833:6839   */\n          dup5\n            /* \"#utility.yul\":6789:6860   */\n          tag_141\n          jump\t// in\n        tag_218:\n            /* \"#utility.yul\":6645:6867   */\n          swap3\n          swap2\n          pop\n          pop\n          jump\t// out\n            /* \"#utility.yul\":6873:7053   */\n        tag_142:\n            /* \"#utility.yul\":6921:6998   */\n          0x4e487b7100000000000000000000000000000000000000000000000000000000\n            /* \"#utility.yul\":6918:6919   */\n          0x00\n            /* \"#utility.yul\":6911:6999   */\n          mstore\n            /* \"#utility.yul\":7018:7022   */\n          0x11\n            /* \"#utility.yul\":7015:7016   */\n          0x04\n            /* \"#utility.yul\":7008:7023   */\n          mstore\n            /* \"#utility.yul\":7042:7046   */\n          0x24\n            /* \"#utility.yul\":7039:7040   */\n          0x00\n            /* \"#utility.yul\":7032:7047   */\n          revert\n            /* \"#utility.yul\":7059:7250   */\n        tag_113:\n            /* \"#utility.yul\":7099:7102   */\n          0x00\n            /* \"#utility.yul\":7118:7138   */\n          tag_221\n            /* \"#utility.yul\":7136:7137   */\n          dup3\n            /* \"#utility.yul\":7118:7138   */\n          tag_132\n          jump\t// in\n        tag_221:\n            /* \"#utility.yul\":7113:7138   */\n          swap2\n          pop\n            /* \"#utility.yul\":7152:7172   */\n          tag_222\n            /* \"#utility.yul\":7170:7171   */\n          dup4\n            /* \"#utility.yul\":7152:7172   */\n          tag_132\n          jump\t// in\n        tag_222:\n            /* \"#utility.yul\":7147:7172   */\n          swap3\n          pop\n            /* \"#utility.yul\":7195:7196   */\n          dup3\n            /* \"#utility.yul\":7192:7193   */\n          dup3\n            /* \"#utility.yul\":7188:7197   */\n          add\n            /* \"#utility.yul\":7181:7197   */\n          swap1\n          pop\n            /* \"#utility.yul\":7216:7219   */\n          dup1\n            /* \"#utility.yul\":7213:7214   */\n          dup3\n            /* \"#utility.yul\":7210:7220   */\n          gt\n            /* \"#utility.yul\":7207:7243   */\n          iszero\n          tag_223\n          jumpi\n            /* \"#utility.yul\":7223:7241   */\n          tag_224\n          tag_142\n          jump\t// in\n        tag_224:\n            /* \"#utility.yul\":7207:7243   */\n        tag_223:\n            /* \"#utility.yul\":7059:7250   */\n          swap3\n          swap2\n          pop\n          pop\n          jump\t// out\n\n        auxdata: 0xa2646970667358221220236382f059024751c8040a327cc85dd83e92ef3f818ab24f38821372450ac9be64736f6c634300081e0033\n    }\n}\n",
				"bytecode": {
					"linkReferences": {},
					"object": "608060405260c85f55348015610013575f5ffd5b50604051611b96380380611b96833981810160405281019061003591906100ef565b80604051610042906100ab565b61004c9190610129565b604051809103905ff080158015610065573d5f5f3e3d5ffd5b5060015f6101000a81548173ffffffffffffffffffffffffffffffffffffffff021916908373ffffffffffffffffffffffffffffffffffffffff16021790555050610142565b6115dc806105ba83390190565b5f5ffd5b5f819050919050565b6100ce816100bc565b81146100d8575f5ffd5b50565b5f815190506100e9816100c5565b92915050565b5f60208284031215610104576101036100b8565b5b5f610111848285016100db565b91505092915050565b610123816100bc565b82525050565b5f60208201905061013c5f83018461011a565b92915050565b61046b8061014f5f395ff3fe60806040526004361061002c575f3560e01c80632c4e722e1461008b578063fc0c546a146100b557610087565b366100875767016345785d8a000034101561007c576040517f08c379a00000000000000000000000000000000000000000000000000000000081526004016100739061023a565b60405180910390fd5b610085346100df565b005b5f5ffd5b348015610096575f5ffd5b5061009f610190565b6040516100ac9190610270565b60405180910390f35b3480156100c0575f5ffd5b506100c9610195565b6040516100d69190610303565b60405180910390f35b5f5f54826100ed9190610349565b905060015f9054906101000a900473ffffffffffffffffffffffffffffffffffffffff1673ffffffffffffffffffffffffffffffffffffffff1663a9059cbb33836040518363ffffffff1660e01b815260040161014b9291906103aa565b6020604051808303815f875af1158015610167573d5f5f3e3d5ffd5b505050506040513d601f19601f8201168201806040525081019061018b919061040a565b505050565b5f5481565b60015f9054906101000a900473ffffffffffffffffffffffffffffffffffffffff1681565b5f82825260208201905092915050565b7f596f752063616e27742073656e64206c657373207468616e20302e31206574685f8201527f6572000000000000000000000000000000000000000000000000000000000000602082015250565b5f6102246022836101ba565b915061022f826101ca565b604082019050919050565b5f6020820190508181035f83015261025181610218565b9050919050565b5f819050919050565b61026a81610258565b82525050565b5f6020820190506102835f830184610261565b92915050565b5f73ffffffffffffffffffffffffffffffffffffffff82169050919050565b5f819050919050565b5f6102cb6102c66102c184610289565b6102a8565b610289565b9050919050565b5f6102dc826102b1565b9050919050565b5f6102ed826102d2565b9050919050565b6102fd816102e3565b82525050565b5f6020820190506103165f8301846102f4565b92915050565b7f4e487b71000000000000000000000000000000000000000000000000000000005f52601160045260245ffd5b5f61035382610258565b915061035e83610258565b925082820261036c81610258565b915082820484148315176103835761038261031c565b5b5092915050565b5f61039482610289565b9050919050565b6103a48161038a565b82525050565b5f6040820190506103bd5f83018561039b565b6103ca6020830184610261565b9392505050565b5f5ffd5b5f8115159050919050565b6103e9816103d5565b81146103f3575f5ffd5b50565b5f81519050610404816103e0565b92915050565b5f6020828403121561041f5761041e6103d1565b5b5f61042c848285016103f6565b9150509291505056fea2646970667358221220f4aad05fa98793c64d44852dd85893d0cd5f7b45e0a6b6caefe4a14885ca507564736f6c634300081e0033608060405234801561000f575f5ffd5b506040516115dc3803806115dc833981810160405281019061003191906103aa565b6040518060400160405280600881526020017f41555241434f494e0000000000000000000000000000000000000000000000008152506040518060400160405280600481526020017f415552410000000000000000000000000000000000000000000000000000000081525081600390816100ac9190610609565b5080600490816100bc9190610609565b5050506100cf33826100d560201b60201c565b506107ed565b5f73ffffffffffffffffffffffffffffffffffffffff168273ffffffffffffffffffffffffffffffffffffffff1603610145575f6040517fec442f0500000000000000000000000000000000000000000000000000000000815260040161013c9190610717565b60405180910390fd5b6101565f838361015a60201b60201c565b5050565b5f73ffffffffffffffffffffffffffffffffffffffff168373ffffffffffffffffffffffffffffffffffffffff16036101aa578060025f82825461019e919061075d565b92505081905550610278565b5f5f5f8573ffffffffffffffffffffffffffffffffffffffff1673ffffffffffffffffffffffffffffffffffffffff1681526020019081526020015f2054905081811015610233578381836040517fe450d38c00000000000000000000000000000000000000000000000000000000815260040161022a9392919061079f565b60405180910390fd5b8181035f5f8673ffffffffffffffffffffffffffffffffffffffff1673ffffffffffffffffffffffffffffffffffffffff1681526020019081526020015f2081905550505b5f73ffffffffffffffffffffffffffffffffffffffff168273ffffffffffffffffffffffffffffffffffffffff16036102bf578060025f8282540392505081905550610309565b805f5f8473ffffffffffffffffffffffffffffffffffffffff1673ffffffffffffffffffffffffffffffffffffffff1681526020019081526020015f205f82825401925050819055505b8173ffffffffffffffffffffffffffffffffffffffff168373ffffffffffffffffffffffffffffffffffffffff167fddf252ad1be2c89b69c2b068fc378daa952ba7f163c4a11628f55a4df523b3ef8360405161036691906107d4565b60405180910390a3505050565b5f5ffd5b5f819050919050565b61038981610377565b8114610393575f5ffd5b50565b5f815190506103a481610380565b92915050565b5f602082840312156103bf576103be610373565b5b5f6103cc84828501610396565b91505092915050565b5f81519050919050565b7f4e487b71000000000000000000000000000000000000000000000000000000005f52604160045260245ffd5b7f4e487b71000000000000000000000000000000000000000000000000000000005f52602260045260245ffd5b5f600282049050600182168061045057607f821691505b6020821081036104635761046261040c565b5b50919050565b5f819050815f5260205f209050919050565b5f6020601f8301049050919050565b5f82821b905092915050565b5f600883026104c57fffffffffffffffffffffffffffffffffffffffffffffffffffffffffffffffff8261048a565b6104cf868361048a565b95508019841693508086168417925050509392505050565b5f819050919050565b5f61050a61050561050084610377565b6104e7565b610377565b9050919050565b5f819050919050565b610523836104f0565b61053761052f82610511565b848454610496565b825550505050565b5f5f905090565b61054e61053f565b61055981848461051a565b505050565b5b8181101561057c576105715f82610546565b60018101905061055f565b5050565b601f8211156105c15761059281610469565b61059b8461047b565b810160208510156105aa578190505b6105be6105b68561047b565b83018261055e565b50505b505050565b5f82821c905092915050565b5f6105e15f19846008026105c6565b1980831691505092915050565b5f6105f983836105d2565b9150826002028217905092915050565b610612826103d5565b67ffffffffffffffff81111561062b5761062a6103df565b5b6106358254610439565b610640828285610580565b5f60209050601f831160018114610671575f841561065f578287015190505b61066985826105ee565b8655506106d0565b601f19841661067f86610469565b5f5b828110156106a657848901518255600182019150602085019450602081019050610681565b868310156106c357848901516106bf601f8916826105d2565b8355505b6001600288020188555050505b505050505050565b5f73ffffffffffffffffffffffffffffffffffffffff82169050919050565b5f610701826106d8565b9050919050565b610711816106f7565b82525050565b5f60208201905061072a5f830184610708565b92915050565b7f4e487b71000000000000000000000000000000000000000000000000000000005f52601160045260245ffd5b5f61076782610377565b915061077283610377565b925082820190508082111561078a57610789610730565b5b92915050565b61079981610377565b82525050565b5f6060820190506107b25f830186610708565b6107bf6020830185610790565b6107cc6040830184610790565b949350505050565b5f6020820190506107e75f830184610790565b92915050565b610de2806107fa5f395ff3fe608060405234801561000f575f5ffd5b5060043610610091575f3560e01c8063313ce56711610064578063313ce5671461013157806370a082311461014f57806395d89b411461017f578063a9059cbb1461019d578063dd62ed3e146101cd57610091565b806306fdde0314610095578063095ea7b3146100b357806318160ddd146100e357806323b872dd14610101575b5f5ffd5b61009d6101fd565b6040516100aa9190610a5b565b60405180910390f35b6100cd60048036038101906100c89190610b0c565b61028d565b6040516100da9190610b64565b60405180910390f35b6100eb6102af565b6040516100f89190610b8c565b60405180910390f35b61011b60048036038101906101169190610ba5565b6102b8565b6040516101289190610b64565b60405180910390f35b6101396102e6565b6040516101469190610c10565b60405180910390f35b61016960048036038101906101649190610c29565b6102ee565b6040516101769190610b8c565b60405180910390f35b610187610333565b6040516101949190610a5b565b60405180910390f35b6101b760048036038101906101b29190610b0c565b6103c3565b6040516101c49190610b64565b60405180910390f35b6101e760048036038101906101e29190610c54565b6103e5565b6040516101f49190610b8c565b60405180910390f35b60606003805461020c90610cbf565b80601f016020809104026020016040519081016040528092919081815260200182805461023890610cbf565b80156102835780601f1061025a57610100808354040283529160200191610283565b820191905f5260205f20905b81548152906001019060200180831161026657829003601f168201915b5050505050905090565b5f5f610297610467565b90506102a481858561046e565b600191505092915050565b5f600254905090565b5f5f6102c2610467565b90506102cf858285610480565b6102da858585610513565b60019150509392505050565b5f6012905090565b5f5f5f8373ffffffffffffffffffffffffffffffffffffffff1673ffffffffffffffffffffffffffffffffffffffff1681526020019081526020015f20549050919050565b60606004805461034290610cbf565b80601f016020809104026020016040519081016040528092919081815260200182805461036e90610cbf565b80156103b95780601f10610390576101008083540402835291602001916103b9565b820191905f5260205f20905b81548152906001019060200180831161039c57829003601f168201915b5050505050905090565b5f5f6103cd610467565b90506103da818585610513565b600191505092915050565b5f60015f8473ffffffffffffffffffffffffffffffffffffffff1673ffffffffffffffffffffffffffffffffffffffff1681526020019081526020015f205f8373ffffffffffffffffffffffffffffffffffffffff1673ffffffffffffffffffffffffffffffffffffffff1681526020019081526020015f2054905092915050565b5f33905090565b61047b8383836001610603565b505050565b5f61048b84846103e5565b90507fffffffffffffffffffffffffffffffffffffffffffffffffffffffffffffffff81101561050d57818110156104fe578281836040517ffb8f41b20000000000000000000000000000000000000000000000000000000081526004016104f593929190610cfe565b60405180910390fd5b61050c84848484035f610603565b5b50505050565b5f73ffffffffffffffffffffffffffffffffffffffff168373ffffffffffffffffffffffffffffffffffffffff1603610583575f6040517f96c6fd1e00000000000000000000000000000000000000000000000000000000815260040161057a9190610d33565b60405180910390fd5b5f73ffffffffffffffffffffffffffffffffffffffff168273ffffffffffffffffffffffffffffffffffffffff16036105f3575f6040517fec442f050000000000000000000000000000000000000000000000000000000081526004016105ea9190610d33565b60405180910390fd5b6105fe8383836107d2565b505050565b5f73ffffffffffffffffffffffffffffffffffffffff168473ffffffffffffffffffffffffffffffffffffffff1603610673575f6040517fe602df0500000000000000000000000000000000000000000000000000000000815260040161066a9190610d33565b60405180910390fd5b5f73ffffffffffffffffffffffffffffffffffffffff168373ffffffffffffffffffffffffffffffffffffffff16036106e3575f6040517f94280d620000000000000000000000000000000000000000000000000000000081526004016106da9190610d33565b60405180910390fd5b8160015f8673ffffffffffffffffffffffffffffffffffffffff1673ffffffffffffffffffffffffffffffffffffffff1681526020019081526020015f205f8573ffffffffffffffffffffffffffffffffffffffff1673ffffffffffffffffffffffffffffffffffffffff1681526020019081526020015f208190555080156107cc578273ffffffffffffffffffffffffffffffffffffffff168473ffffffffffffffffffffffffffffffffffffffff167f8c5be1e5ebec7d5bd14f71427d1e84f3dd0314c0f7b2291e5b200ac8c7c3b925846040516107c39190610b8c565b60405180910390a35b50505050565b5f73ffffffffffffffffffffffffffffffffffffffff168373ffffffffffffffffffffffffffffffffffffffff1603610822578060025f8282546108169190610d79565b925050819055506108f0565b5f5f5f8573ffffffffffffffffffffffffffffffffffffffff1673ffffffffffffffffffffffffffffffffffffffff1681526020019081526020015f20549050818110156108ab578381836040517fe450d38c0000000000000000000000000000000000000000000000000000000081526004016108a293929190610cfe565b60405180910390fd5b8181035f5f8673ffffffffffffffffffffffffffffffffffffffff1673ffffffffffffffffffffffffffffffffffffffff1681526020019081526020015f2081905550505b5f73ffffffffffffffffffffffffffffffffffffffff168273ffffffffffffffffffffffffffffffffffffffff1603610937578060025f8282540392505081905550610981565b805f5f8473ffffffffffffffffffffffffffffffffffffffff1673ffffffffffffffffffffffffffffffffffffffff1681526020019081526020015f205f82825401925050819055505b8173ffffffffffffffffffffffffffffffffffffffff168373ffffffffffffffffffffffffffffffffffffffff167fddf252ad1be2c89b69c2b068fc378daa952ba7f163c4a11628f55a4df523b3ef836040516109de9190610b8c565b60405180910390a3505050565b5f81519050919050565b5f82825260208201905092915050565b8281835e5f83830152505050565b5f601f19601f8301169050919050565b5f610a2d826109eb565b610a3781856109f5565b9350610a47818560208601610a05565b610a5081610a13565b840191505092915050565b5f6020820190508181035f830152610a738184610a23565b905092915050565b5f5ffd5b5f73ffffffffffffffffffffffffffffffffffffffff82169050919050565b5f610aa882610a7f565b9050919050565b610ab881610a9e565b8114610ac2575f5ffd5b50565b5f81359050610ad381610aaf565b92915050565b5f819050919050565b610aeb81610ad9565b8114610af5575f5ffd5b50565b5f81359050610b0681610ae2565b92915050565b5f5f60408385031215610b2257610b21610a7b565b5b5f610b2f85828601610ac5565b9250506020610b4085828601610af8565b9150509250929050565b5f8115159050919050565b610b5e81610b4a565b82525050565b5f602082019050610b775f830184610b55565b92915050565b610b8681610ad9565b82525050565b5f602082019050610b9f5f830184610b7d565b92915050565b5f5f5f60608486031215610bbc57610bbb610a7b565b5b5f610bc986828701610ac5565b9350506020610bda86828701610ac5565b9250506040610beb86828701610af8565b9150509250925092565b5f60ff82169050919050565b610c0a81610bf5565b82525050565b5f602082019050610c235f830184610c01565b92915050565b5f60208284031215610c3e57610c3d610a7b565b5b5f610c4b84828501610ac5565b91505092915050565b5f5f60408385031215610c6a57610c69610a7b565b5b5f610c7785828601610ac5565b9250506020610c8885828601610ac5565b9150509250929050565b7f4e487b71000000000000000000000000000000000000000000000000000000005f52602260045260245ffd5b5f6002820490506001821680610cd657607f821691505b602082108103610ce957610ce8610c92565b5b50919050565b610cf881610a9e565b82525050565b5f606082019050610d115f830186610cef565b610d1e6020830185610b7d565b610d2b6040830184610b7d565b949350505050565b5f602082019050610d465f830184610cef565b92915050565b7f4e487b71000000000000000000000000000000000000000000000000000000005f52601160045260245ffd5b5f610d8382610ad9565b9150610d8e83610ad9565b9250828201905080821115610da657610da5610d4c565b5b9291505056fea2646970667358221220236382f059024751c8040a327cc85dd83e92ef3f818ab24f38821372450ac9be64736f6c634300081e0033",
					"opcodes": "PUSH1 0x80 PUSH1 0x40 MSTORE PUSH1 0xC8 PUSH0 SSTORE CALLVALUE DUP1 ISZERO PUSH2 0x13 JUMPI PUSH0 PUSH0 REVERT JUMPDEST POP PUSH1 0x40 MLOAD PUSH2 0x1B96 CODESIZE SUB DUP1 PUSH2 0x1B96 DUP4 CODECOPY DUP2 DUP2 ADD PUSH1 0x40 MSTORE DUP2 ADD SWAP1 PUSH2 0x35 SWAP2 SWAP1 PUSH2 0xEF JUMP JUMPDEST DUP1 PUSH1 0x40 MLOAD PUSH2 0x42 SWAP1 PUSH2 0xAB JUMP JUMPDEST PUSH2 0x4C SWAP2 SWAP1 PUSH2 0x129 JUMP JUMPDEST PUSH1 0x40 MLOAD DUP1 SWAP2 SUB SWAP1 PUSH0 CREATE DUP1 ISZERO DUP1 ISZERO PUSH2 0x65 JUMPI RETURNDATASIZE PUSH0 PUSH0 RETURNDATACOPY RETURNDATASIZE PUSH0 REVERT JUMPDEST POP PUSH1 0x1 PUSH0 PUSH2 0x100 EXP DUP2 SLOAD DUP2 PUSH20 0xFFFFFFFFFFFFFFFFFFFFFFFFFFFFFFFFFFFFFFFF MUL NOT AND SWAP1 DUP4 PUSH20 0xFFFFFFFFFFFFFFFFFFFFFFFFFFFFFFFFFFFFFFFF AND MUL OR SWAP1 SSTORE POP POP PUSH2 0x142 JUMP JUMPDEST PUSH2 0x15DC DUP1 PUSH2 0x5BA DUP4 CODECOPY ADD SWAP1 JUMP JUMPDEST PUSH0 PUSH0 REVERT JUMPDEST PUSH0 DUP2 SWAP1 POP SWAP2 SWAP1 POP JUMP JUMPDEST PUSH2 0xCE DUP2 PUSH2 0xBC JUMP JUMPDEST DUP2 EQ PUSH2 0xD8 JUMPI PUSH0 PUSH0 REVERT JUMPDEST POP JUMP JUMPDEST PUSH0 DUP2 MLOAD SWAP1 POP PUSH2 0xE9 DUP2 PUSH2 0xC5 JUMP JUMPDEST SWAP3 SWAP2 POP POP JUMP JUMPDEST PUSH0 PUSH1 0x20 DUP3 DUP5 SUB SLT ISZERO PUSH2 0x104 JUMPI PUSH2 0x103 PUSH2 0xB8 JUMP JUMPDEST JUMPDEST PUSH0 PUSH2 0x111 DUP5 DUP3 DUP6 ADD PUSH2 0xDB JUMP JUMPDEST SWAP2 POP POP SWAP3 SWAP2 POP POP JUMP JUMPDEST PUSH2 0x123 DUP2 PUSH2 0xBC JUMP JUMPDEST DUP3 MSTORE POP POP JUMP JUMPDEST PUSH0 PUSH1 0x20 DUP3 ADD SWAP1 POP PUSH2 0x13C PUSH0 DUP4 ADD DUP5 PUSH2 0x11A JUMP JUMPDEST SWAP3 SWAP2 POP POP JUMP JUMPDEST PUSH2 0x46B DUP1 PUSH2 0x14F PUSH0 CODECOPY PUSH0 RETURN INVALID PUSH1 0x80 PUSH1 0x40 MSTORE PUSH1 0x4 CALLDATASIZE LT PUSH2 0x2C JUMPI PUSH0 CALLDATALOAD PUSH1 0xE0 SHR DUP1 PUSH4 0x2C4E722E EQ PUSH2 0x8B JUMPI DUP1 PUSH4 0xFC0C546A EQ PUSH2 0xB5 JUMPI PUSH2 0x87 JUMP JUMPDEST CALLDATASIZE PUSH2 0x87 JUMPI PUSH8 0x16345785D8A0000 CALLVALUE LT ISZERO PUSH2 0x7C JUMPI PUSH1 0x40 MLOAD PUSH32 0x8C379A000000000000000000000000000000000000000000000000000000000 DUP2 MSTORE PUSH1 0x4 ADD PUSH2 0x73 SWAP1 PUSH2 0x23A JUMP JUMPDEST PUSH1 0x40 MLOAD DUP1 SWAP2 SUB SWAP1 REVERT JUMPDEST PUSH2 0x85 CALLVALUE PUSH2 0xDF JUMP JUMPDEST STOP JUMPDEST PUSH0 PUSH0 REVERT JUMPDEST CALLVALUE DUP1 ISZERO PUSH2 0x96 JUMPI PUSH0 PUSH0 REVERT JUMPDEST POP PUSH2 0x9F PUSH2 0x190 JUMP JUMPDEST PUSH1 0x40 MLOAD PUSH2 0xAC SWAP2 SWAP1 PUSH2 0x270 JUMP JUMPDEST PUSH1 0x40 MLOAD DUP1 SWAP2 SUB SWAP1 RETURN JUMPDEST CALLVALUE DUP1 ISZERO PUSH2 0xC0 JUMPI PUSH0 PUSH0 REVERT JUMPDEST POP PUSH2 0xC9 PUSH2 0x195 JUMP JUMPDEST PUSH1 0x40 MLOAD PUSH2 0xD6 SWAP2 SWAP1 PUSH2 0x303 JUMP JUMPDEST PUSH1 0x40 MLOAD DUP1 SWAP2 SUB SWAP1 RETURN JUMPDEST PUSH0 PUSH0 SLOAD DUP3 PUSH2 0xED SWAP2 SWAP1 PUSH2 0x349 JUMP JUMPDEST SWAP1 POP PUSH1 0x1 PUSH0 SWAP1 SLOAD SWAP1 PUSH2 0x100 EXP SWAP1 DIV PUSH20 0xFFFFFFFFFFFFFFFFFFFFFFFFFFFFFFFFFFFFFFFF AND PUSH20 0xFFFFFFFFFFFFFFFFFFFFFFFFFFFFFFFFFFFFFFFF AND PUSH4 0xA9059CBB CALLER DUP4 PUSH1 0x40 MLOAD DUP4 PUSH4 0xFFFFFFFF AND PUSH1 0xE0 SHL DUP2 MSTORE PUSH1 0x4 ADD PUSH2 0x14B SWAP3 SWAP2 SWAP1 PUSH2 0x3AA JUMP JUMPDEST PUSH1 0x20 PUSH1 0x40 MLOAD DUP1 DUP4 SUB DUP2 PUSH0 DUP8 GAS CALL ISZERO DUP1 ISZERO PUSH2 0x167 JUMPI RETURNDATASIZE PUSH0 PUSH0 RETURNDATACOPY RETURNDATASIZE PUSH0 REVERT JUMPDEST POP POP POP POP PUSH1 0x40 MLOAD RETURNDATASIZE PUSH1 0x1F NOT PUSH1 0x1F DUP3 ADD AND DUP3 ADD DUP1 PUSH1 0x40 MSTORE POP DUP2 ADD SWAP1 PUSH2 0x18B SWAP2 SWAP1 PUSH2 0x40A JUMP JUMPDEST POP POP POP JUMP JUMPDEST PUSH0 SLOAD DUP2 JUMP JUMPDEST PUSH1 0x1 PUSH0 SWAP1 SLOAD SWAP1 PUSH2 0x100 EXP SWAP1 DIV PUSH20 0xFFFFFFFFFFFFFFFFFFFFFFFFFFFFFFFFFFFFFFFF AND DUP2 JUMP JUMPDEST PUSH0 DUP3 DUP3 MSTORE PUSH1 0x20 DUP3 ADD SWAP1 POP SWAP3 SWAP2 POP POP JUMP JUMPDEST PUSH32 0x596F752063616E27742073656E64206C657373207468616E20302E3120657468 PUSH0 DUP3 ADD MSTORE PUSH32 0x6572000000000000000000000000000000000000000000000000000000000000 PUSH1 0x20 DUP3 ADD MSTORE POP JUMP JUMPDEST PUSH0 PUSH2 0x224 PUSH1 0x22 DUP4 PUSH2 0x1BA JUMP JUMPDEST SWAP2 POP PUSH2 0x22F DUP3 PUSH2 0x1CA JUMP JUMPDEST PUSH1 0x40 DUP3 ADD SWAP1 POP SWAP2 SWAP1 POP JUMP JUMPDEST PUSH0 PUSH1 0x20 DUP3 ADD SWAP1 POP DUP2 DUP2 SUB PUSH0 DUP4 ADD MSTORE PUSH2 0x251 DUP2 PUSH2 0x218 JUMP JUMPDEST SWAP1 POP SWAP2 SWAP1 POP JUMP JUMPDEST PUSH0 DUP2 SWAP1 POP SWAP2 SWAP1 POP JUMP JUMPDEST PUSH2 0x26A DUP2 PUSH2 0x258 JUMP JUMPDEST DUP3 MSTORE POP POP JUMP JUMPDEST PUSH0 PUSH1 0x20 DUP3 ADD SWAP1 POP PUSH2 0x283 PUSH0 DUP4 ADD DUP5 PUSH2 0x261 JUMP JUMPDEST SWAP3 SWAP2 POP POP JUMP JUMPDEST PUSH0 PUSH20 0xFFFFFFFFFFFFFFFFFFFFFFFFFFFFFFFFFFFFFFFF DUP3 AND SWAP1 POP SWAP2 SWAP1 POP JUMP JUMPDEST PUSH0 DUP2 SWAP1 POP SWAP2 SWAP1 POP JUMP JUMPDEST PUSH0 PUSH2 0x2CB PUSH2 0x2C6 PUSH2 0x2C1 DUP5 PUSH2 0x289 JUMP JUMPDEST PUSH2 0x2A8 JUMP JUMPDEST PUSH2 0x289 JUMP JUMPDEST SWAP1 POP SWAP2 SWAP1 POP JUMP JUMPDEST PUSH0 PUSH2 0x2DC DUP3 PUSH2 0x2B1 JUMP JUMPDEST SWAP1 POP SWAP2 SWAP1 POP JUMP JUMPDEST PUSH0 PUSH2 0x2ED DUP3 PUSH2 0x2D2 JUMP JUMPDEST SWAP1 POP SWAP2 SWAP1 POP JUMP JUMPDEST PUSH2 0x2FD DUP2 PUSH2 0x2E3 JUMP JUMPDEST DUP3 MSTORE POP POP JUMP JUMPDEST PUSH0 PUSH1 0x20 DUP3 ADD SWAP1 POP PUSH2 0x316 PUSH0 DUP4 ADD DUP5 PUSH2 0x2F4 JUMP JUMPDEST SWAP3 SWAP2 POP POP JUMP JUMPDEST PUSH32 0x4E487B7100000000000000000000000000000000000000000000000000000000 PUSH0 MSTORE PUSH1 0x11 PUSH1 0x4 MSTORE PUSH1 0x24 PUSH0 REVERT JUMPDEST PUSH0 PUSH2 0x353 DUP3 PUSH2 0x258 JUMP JUMPDEST SWAP2 POP PUSH2 0x35E DUP4 PUSH2 0x258 JUMP JUMPDEST SWAP3 POP DUP3 DUP3 MUL PUSH2 0x36C DUP2 PUSH2 0x258 JUMP JUMPDEST SWAP2 POP DUP3 DUP3 DIV DUP5 EQ DUP4 ISZERO OR PUSH2 0x383 JUMPI PUSH2 0x382 PUSH2 0x31C JUMP JUMPDEST JUMPDEST POP SWAP3 SWAP2 POP POP JUMP JUMPDEST PUSH0 PUSH2 0x394 DUP3 PUSH2 0x289 JUMP JUMPDEST SWAP1 POP SWAP2 SWAP1 POP JUMP JUMPDEST PUSH2 0x3A4 DUP2 PUSH2 0x38A JUMP JUMPDEST DUP3 MSTORE POP POP JUMP JUMPDEST PUSH0 PUSH1 0x40 DUP3 ADD SWAP1 POP PUSH2 0x3BD PUSH0 DUP4 ADD DUP6 PUSH2 0x39B JUMP JUMPDEST PUSH2 0x3CA PUSH1 0x20 DUP4 ADD DUP5 PUSH2 0x261 JUMP JUMPDEST SWAP4 SWAP3 POP POP POP JUMP JUMPDEST PUSH0 PUSH0 REVERT JUMPDEST PUSH0 DUP2 ISZERO ISZERO SWAP1 POP SWAP2 SWAP1 POP JUMP JUMPDEST PUSH2 0x3E9 DUP2 PUSH2 0x3D5 JUMP JUMPDEST DUP2 EQ PUSH2 0x3F3 JUMPI PUSH0 PUSH0 REVERT JUMPDEST POP JUMP JUMPDEST PUSH0 DUP2 MLOAD SWAP1 POP PUSH2 0x404 DUP2 PUSH2 0x3E0 JUMP JUMPDEST SWAP3 SWAP2 POP POP JUMP JUMPDEST PUSH0 PUSH1 0x20 DUP3 DUP5 SUB SLT ISZERO PUSH2 0x41F JUMPI PUSH2 0x41E PUSH2 0x3D1 JUMP JUMPDEST JUMPDEST PUSH0 PUSH2 0x42C DUP5 DUP3 DUP6 ADD PUSH2 0x3F6 JUMP JUMPDEST SWAP2 POP POP SWAP3 SWAP2 POP POP JUMP INVALID LOG2 PUSH5 0x6970667358 0x22 SLT KECCAK256 DELEGATECALL 0xAA 0xD0 PUSH0 0xA9 DUP8 SWAP4 0xC6 0x4D PREVRANDAO DUP6 0x2D 0xD8 PC SWAP4 0xD0 0xCD PUSH0 PUSH28 0x45E0A6B6CAEFE4A14885CA507564736F6C634300081E003360806040 MSTORE CALLVALUE DUP1 ISZERO PUSH2 0xF JUMPI PUSH0 PUSH0 REVERT JUMPDEST POP PUSH1 0x40 MLOAD PUSH2 0x15DC CODESIZE SUB DUP1 PUSH2 0x15DC DUP4 CODECOPY DUP2 DUP2 ADD PUSH1 0x40 MSTORE DUP2 ADD SWAP1 PUSH2 0x31 SWAP2 SWAP1 PUSH2 0x3AA JUMP JUMPDEST PUSH1 0x40 MLOAD DUP1 PUSH1 0x40 ADD PUSH1 0x40 MSTORE DUP1 PUSH1 0x8 DUP2 MSTORE PUSH1 0x20 ADD PUSH32 0x41555241434F494E000000000000000000000000000000000000000000000000 DUP2 MSTORE POP PUSH1 0x40 MLOAD DUP1 PUSH1 0x40 ADD PUSH1 0x40 MSTORE DUP1 PUSH1 0x4 DUP2 MSTORE PUSH1 0x20 ADD PUSH32 0x4155524100000000000000000000000000000000000000000000000000000000 DUP2 MSTORE POP DUP2 PUSH1 0x3 SWAP1 DUP2 PUSH2 0xAC SWAP2 SWAP1 PUSH2 0x609 JUMP JUMPDEST POP DUP1 PUSH1 0x4 SWAP1 DUP2 PUSH2 0xBC SWAP2 SWAP1 PUSH2 0x609 JUMP JUMPDEST POP POP POP PUSH2 0xCF CALLER DUP3 PUSH2 0xD5 PUSH1 0x20 SHL PUSH1 0x20 SHR JUMP JUMPDEST POP PUSH2 0x7ED JUMP JUMPDEST PUSH0 PUSH20 0xFFFFFFFFFFFFFFFFFFFFFFFFFFFFFFFFFFFFFFFF AND DUP3 PUSH20 0xFFFFFFFFFFFFFFFFFFFFFFFFFFFFFFFFFFFFFFFF AND SUB PUSH2 0x145 JUMPI PUSH0 PUSH1 0x40 MLOAD PUSH32 0xEC442F0500000000000000000000000000000000000000000000000000000000 DUP2 MSTORE PUSH1 0x4 ADD PUSH2 0x13C SWAP2 SWAP1 PUSH2 0x717 JUMP JUMPDEST PUSH1 0x40 MLOAD DUP1 SWAP2 SUB SWAP1 REVERT JUMPDEST PUSH2 0x156 PUSH0 DUP4 DUP4 PUSH2 0x15A PUSH1 0x20 SHL PUSH1 0x20 SHR JUMP JUMPDEST POP POP JUMP JUMPDEST PUSH0 PUSH20 0xFFFFFFFFFFFFFFFFFFFFFFFFFFFFFFFFFFFFFFFF AND DUP4 PUSH20 0xFFFFFFFFFFFFFFFFFFFFFFFFFFFFFFFFFFFFFFFF AND SUB PUSH2 0x1AA JUMPI DUP1 PUSH1 0x2 PUSH0 DUP3 DUP3 SLOAD PUSH2 0x19E SWAP2 SWAP1 PUSH2 0x75D JUMP JUMPDEST SWAP3 POP POP DUP2 SWAP1 SSTORE POP PUSH2 0x278 JUMP JUMPDEST PUSH0 PUSH0 PUSH0 DUP6 PUSH20 0xFFFFFFFFFFFFFFFFFFFFFFFFFFFFFFFFFFFFFFFF AND PUSH20 0xFFFFFFFFFFFFFFFFFFFFFFFFFFFFFFFFFFFFFFFF AND DUP2 MSTORE PUSH1 0x20 ADD SWAP1 DUP2 MSTORE PUSH1 0x20 ADD PUSH0 KECCAK256 SLOAD SWAP1 POP DUP2 DUP2 LT ISZERO PUSH2 0x233 JUMPI DUP4 DUP2 DUP4 PUSH1 0x40 MLOAD PUSH32 0xE450D38C00000000000000000000000000000000000000000000000000000000 DUP2 MSTORE PUSH1 0x4 ADD PUSH2 0x22A SWAP4 SWAP3 SWAP2 SWAP1 PUSH2 0x79F JUMP JUMPDEST PUSH1 0x40 MLOAD DUP1 SWAP2 SUB SWAP1 REVERT JUMPDEST DUP2 DUP2 SUB PUSH0 PUSH0 DUP7 PUSH20 0xFFFFFFFFFFFFFFFFFFFFFFFFFFFFFFFFFFFFFFFF AND PUSH20 0xFFFFFFFFFFFFFFFFFFFFFFFFFFFFFFFFFFFFFFFF AND DUP2 MSTORE PUSH1 0x20 ADD SWAP1 DUP2 MSTORE PUSH1 0x20 ADD PUSH0 KECCAK256 DUP2 SWAP1 SSTORE POP POP JUMPDEST PUSH0 PUSH20 0xFFFFFFFFFFFFFFFFFFFFFFFFFFFFFFFFFFFFFFFF AND DUP3 PUSH20 0xFFFFFFFFFFFFFFFFFFFFFFFFFFFFFFFFFFFFFFFF AND SUB PUSH2 0x2BF JUMPI DUP1 PUSH1 0x2 PUSH0 DUP3 DUP3 SLOAD SUB SWAP3 POP POP DUP2 SWAP1 SSTORE POP PUSH2 0x309 JUMP JUMPDEST DUP1 PUSH0 PUSH0 DUP5 PUSH20 0xFFFFFFFFFFFFFFFFFFFFFFFFFFFFFFFFFFFFFFFF AND PUSH20 0xFFFFFFFFFFFFFFFFFFFFFFFFFFFFFFFFFFFFFFFF AND DUP2 MSTORE PUSH1 0x20 ADD SWAP1 DUP2 MSTORE PUSH1 0x20 ADD PUSH0 KECCAK256 PUSH0 DUP3 DUP3 SLOAD ADD SWAP3 POP POP DUP2 SWAP1 SSTORE POP JUMPDEST DUP2 PUSH20 0xFFFFFFFFFFFFFFFFFFFFFFFFFFFFFFFFFFFFFFFF AND DUP4 PUSH20 0xFFFFFFFFFFFFFFFFFFFFFFFFFFFFFFFFFFFFFFFF AND PUSH32 0xDDF252AD1BE2C89B69C2B068FC378DAA952BA7F163C4A11628F55A4DF523B3EF DUP4 PUSH1 0x40 MLOAD PUSH2 0x366 SWAP2 SWAP1 PUSH2 0x7D4 JUMP JUMPDEST PUSH1 0x40 MLOAD DUP1 SWAP2 SUB SWAP1 LOG3 POP POP POP JUMP JUMPDEST PUSH0 PUSH0 REVERT JUMPDEST PUSH0 DUP2 SWAP1 POP SWAP2 SWAP1 POP JUMP JUMPDEST PUSH2 0x389 DUP2 PUSH2 0x377 JUMP JUMPDEST DUP2 EQ PUSH2 0x393 JUMPI PUSH0 PUSH0 REVERT JUMPDEST POP JUMP JUMPDEST PUSH0 DUP2 MLOAD SWAP1 POP PUSH2 0x3A4 DUP2 PUSH2 0x380 JUMP JUMPDEST SWAP3 SWAP2 POP POP JUMP JUMPDEST PUSH0 PUSH1 0x20 DUP3 DUP5 SUB SLT ISZERO PUSH2 0x3BF JUMPI PUSH2 0x3BE PUSH2 0x373 JUMP JUMPDEST JUMPDEST PUSH0 PUSH2 0x3CC DUP5 DUP3 DUP6 ADD PUSH2 0x396 JUMP JUMPDEST SWAP2 POP POP SWAP3 SWAP2 POP POP JUMP JUMPDEST PUSH0 DUP2 MLOAD SWAP1 POP SWAP2 SWAP1 POP JUMP JUMPDEST PUSH32 0x4E487B7100000000000000000000000000000000000000000000000000000000 PUSH0 MSTORE PUSH1 0x41 PUSH1 0x4 MSTORE PUSH1 0x24 PUSH0 REVERT JUMPDEST PUSH32 0x4E487B7100000000000000000000000000000000000000000000000000000000 PUSH0 MSTORE PUSH1 0x22 PUSH1 0x4 MSTORE PUSH1 0x24 PUSH0 REVERT JUMPDEST PUSH0 PUSH1 0x2 DUP3 DIV SWAP1 POP PUSH1 0x1 DUP3 AND DUP1 PUSH2 0x450 JUMPI PUSH1 0x7F DUP3 AND SWAP2 POP JUMPDEST PUSH1 0x20 DUP3 LT DUP2 SUB PUSH2 0x463 JUMPI PUSH2 0x462 PUSH2 0x40C JUMP JUMPDEST JUMPDEST POP SWAP2 SWAP1 POP JUMP JUMPDEST PUSH0 DUP2 SWAP1 POP DUP2 PUSH0 MSTORE PUSH1 0x20 PUSH0 KECCAK256 SWAP1 POP SWAP2 SWAP1 POP JUMP JUMPDEST PUSH0 PUSH1 0x20 PUSH1 0x1F DUP4 ADD DIV SWAP1 POP SWAP2 SWAP1 POP JUMP JUMPDEST PUSH0 DUP3 DUP3 SHL SWAP1 POP SWAP3 SWAP2 POP POP JUMP JUMPDEST PUSH0 PUSH1 0x8 DUP4 MUL PUSH2 0x4C5 PUSH32 0xFFFFFFFFFFFFFFFFFFFFFFFFFFFFFFFFFFFFFFFFFFFFFFFFFFFFFFFFFFFFFFFF DUP3 PUSH2 0x48A JUMP JUMPDEST PUSH2 0x4CF DUP7 DUP4 PUSH2 0x48A JUMP JUMPDEST SWAP6 POP DUP1 NOT DUP5 AND SWAP4 POP DUP1 DUP7 AND DUP5 OR SWAP3 POP POP POP SWAP4 SWAP3 POP POP POP JUMP JUMPDEST PUSH0 DUP2 SWAP1 POP SWAP2 SWAP1 POP JUMP JUMPDEST PUSH0 PUSH2 0x50A PUSH2 0x505 PUSH2 0x500 DUP5 PUSH2 0x377 JUMP JUMPDEST PUSH2 0x4E7 JUMP JUMPDEST PUSH2 0x377 JUMP JUMPDEST SWAP1 POP SWAP2 SWAP1 POP JUMP JUMPDEST PUSH0 DUP2 SWAP1 POP SWAP2 SWAP1 POP JUMP JUMPDEST PUSH2 0x523 DUP4 PUSH2 0x4F0 JUMP JUMPDEST PUSH2 0x537 PUSH2 0x52F DUP3 PUSH2 0x511 JUMP JUMPDEST DUP5 DUP5 SLOAD PUSH2 0x496 JUMP JUMPDEST DUP3 SSTORE POP POP POP POP JUMP JUMPDEST PUSH0 PUSH0 SWAP1 POP SWAP1 JUMP JUMPDEST PUSH2 0x54E PUSH2 0x53F JUMP JUMPDEST PUSH2 0x559 DUP2 DUP5 DUP5 PUSH2 0x51A JUMP JUMPDEST POP POP POP JUMP JUMPDEST JUMPDEST DUP2 DUP2 LT ISZERO PUSH2 0x57C JUMPI PUSH2 0x571 PUSH0 DUP3 PUSH2 0x546 JUMP JUMPDEST PUSH1 0x1 DUP2 ADD SWAP1 POP PUSH2 0x55F JUMP JUMPDEST POP POP JUMP JUMPDEST PUSH1 0x1F DUP3 GT ISZERO PUSH2 0x5C1 JUMPI PUSH2 0x592 DUP2 PUSH2 0x469 JUMP JUMPDEST PUSH2 0x59B DUP5 PUSH2 0x47B JUMP JUMPDEST DUP2 ADD PUSH1 0x20 DUP6 LT ISZERO PUSH2 0x5AA JUMPI DUP2 SWAP1 POP JUMPDEST PUSH2 0x5BE PUSH2 0x5B6 DUP6 PUSH2 0x47B JUMP JUMPDEST DUP4 ADD DUP3 PUSH2 0x55E JUMP JUMPDEST POP POP JUMPDEST POP POP POP JUMP JUMPDEST PUSH0 DUP3 DUP3 SHR SWAP1 POP SWAP3 SWAP2 POP POP JUMP JUMPDEST PUSH0 PUSH2 0x5E1 PUSH0 NOT DUP5 PUSH1 0x8 MUL PUSH2 0x5C6 JUMP JUMPDEST NOT DUP1 DUP4 AND SWAP2 POP POP SWAP3 SWAP2 POP POP JUMP JUMPDEST PUSH0 PUSH2 0x5F9 DUP4 DUP4 PUSH2 0x5D2 JUMP JUMPDEST SWAP2 POP DUP3 PUSH1 0x2 MUL DUP3 OR SWAP1 POP SWAP3 SWAP2 POP POP JUMP JUMPDEST PUSH2 0x612 DUP3 PUSH2 0x3D5 JUMP JUMPDEST PUSH8 0xFFFFFFFFFFFFFFFF DUP2 GT ISZERO PUSH2 0x62B JUMPI PUSH2 0x62A PUSH2 0x3DF JUMP JUMPDEST JUMPDEST PUSH2 0x635 DUP3 SLOAD PUSH2 0x439 JUMP JUMPDEST PUSH2 0x640 DUP3 DUP3 DUP6 PUSH2 0x580 JUMP JUMPDEST PUSH0 PUSH1 0x20 SWAP1 POP PUSH1 0x1F DUP4 GT PUSH1 0x1 DUP2 EQ PUSH2 0x671 JUMPI PUSH0 DUP5 ISZERO PUSH2 0x65F JUMPI DUP3 DUP8 ADD MLOAD SWAP1 POP JUMPDEST PUSH2 0x669 DUP6 DUP3 PUSH2 0x5EE JUMP JUMPDEST DUP7 SSTORE POP PUSH2 0x6D0 JUMP JUMPDEST PUSH1 0x1F NOT DUP5 AND PUSH2 0x67F DUP7 PUSH2 0x469 JUMP JUMPDEST PUSH0 JUMPDEST DUP3 DUP2 LT ISZERO PUSH2 0x6A6 JUMPI DUP5 DUP10 ADD MLOAD DUP3 SSTORE PUSH1 0x1 DUP3 ADD SWAP2 POP PUSH1 0x20 DUP6 ADD SWAP5 POP PUSH1 0x20 DUP2 ADD SWAP1 POP PUSH2 0x681 JUMP JUMPDEST DUP7 DUP4 LT ISZERO PUSH2 0x6C3 JUMPI DUP5 DUP10 ADD MLOAD PUSH2 0x6BF PUSH1 0x1F DUP10 AND DUP3 PUSH2 0x5D2 JUMP JUMPDEST DUP4 SSTORE POP JUMPDEST PUSH1 0x1 PUSH1 0x2 DUP9 MUL ADD DUP9 SSTORE POP POP POP JUMPDEST POP POP POP POP POP POP JUMP JUMPDEST PUSH0 PUSH20 0xFFFFFFFFFFFFFFFFFFFFFFFFFFFFFFFFFFFFFFFF DUP3 AND SWAP1 POP SWAP2 SWAP1 POP JUMP JUMPDEST PUSH0 PUSH2 0x701 DUP3 PUSH2 0x6D8 JUMP JUMPDEST SWAP1 POP SWAP2 SWAP1 POP JUMP JUMPDEST PUSH2 0x711 DUP2 PUSH2 0x6F7 JUMP JUMPDEST DUP3 MSTORE POP POP JUMP JUMPDEST PUSH0 PUSH1 0x20 DUP3 ADD SWAP1 POP PUSH2 0x72A PUSH0 DUP4 ADD DUP5 PUSH2 0x708 JUMP JUMPDEST SWAP3 SWAP2 POP POP JUMP JUMPDEST PUSH32 0x4E487B7100000000000000000000000000000000000000000000000000000000 PUSH0 MSTORE PUSH1 0x11 PUSH1 0x4 MSTORE PUSH1 0x24 PUSH0 REVERT JUMPDEST PUSH0 PUSH2 0x767 DUP3 PUSH2 0x377 JUMP JUMPDEST SWAP2 POP PUSH2 0x772 DUP4 PUSH2 0x377 JUMP JUMPDEST SWAP3 POP DUP3 DUP3 ADD SWAP1 POP DUP1 DUP3 GT ISZERO PUSH2 0x78A JUMPI PUSH2 0x789 PUSH2 0x730 JUMP JUMPDEST JUMPDEST SWAP3 SWAP2 POP POP JUMP JUMPDEST PUSH2 0x799 DUP2 PUSH2 0x377 JUMP JUMPDEST DUP3 MSTORE POP POP JUMP JUMPDEST PUSH0 PUSH1 0x60 DUP3 ADD SWAP1 POP PUSH2 0x7B2 PUSH0 DUP4 ADD DUP7 PUSH2 0x708 JUMP JUMPDEST PUSH2 0x7BF PUSH1 0x20 DUP4 ADD DUP6 PUSH2 0x790 JUMP JUMPDEST PUSH2 0x7CC PUSH1 0x40 DUP4 ADD DUP5 PUSH2 0x790 JUMP JUMPDEST SWAP5 SWAP4 POP POP POP POP JUMP JUMPDEST PUSH0 PUSH1 0x20 DUP3 ADD SWAP1 POP PUSH2 0x7E7 PUSH0 DUP4 ADD DUP5 PUSH2 0x790 JUMP JUMPDEST SWAP3 SWAP2 POP POP JUMP JUMPDEST PUSH2 0xDE2 DUP1 PUSH2 0x7FA PUSH0 CODECOPY PUSH0 RETURN INVALID PUSH1 0x80 PUSH1 0x40 MSTORE CALLVALUE DUP1 ISZERO PUSH2 0xF JUMPI PUSH0 PUSH0 REVERT JUMPDEST POP PUSH1 0x4 CALLDATASIZE LT PUSH2 0x91 JUMPI PUSH0 CALLDATALOAD PUSH1 0xE0 SHR DUP1 PUSH4 0x313CE567 GT PUSH2 0x64 JUMPI DUP1 PUSH4 0x313CE567 EQ PUSH2 0x131 JUMPI DUP1 PUSH4 0x70A08231 EQ PUSH2 0x14F JUMPI DUP1 PUSH4 0x95D89B41 EQ PUSH2 0x17F JUMPI DUP1 PUSH4 0xA9059CBB EQ PUSH2 0x19D JUMPI DUP1 PUSH4 0xDD62ED3E EQ PUSH2 0x1CD JUMPI PUSH2 0x91 JUMP JUMPDEST DUP1 PUSH4 0x6FDDE03 EQ PUSH2 0x95 JUMPI DUP1 PUSH4 0x95EA7B3 EQ PUSH2 0xB3 JUMPI DUP1 PUSH4 0x18160DDD EQ PUSH2 0xE3 JUMPI DUP1 PUSH4 0x23B872DD EQ PUSH2 0x101 JUMPI JUMPDEST PUSH0 PUSH0 REVERT JUMPDEST PUSH2 0x9D PUSH2 0x1FD JUMP JUMPDEST PUSH1 0x40 MLOAD PUSH2 0xAA SWAP2 SWAP1 PUSH2 0xA5B JUMP JUMPDEST PUSH1 0x40 MLOAD DUP1 SWAP2 SUB SWAP1 RETURN JUMPDEST PUSH2 0xCD PUSH1 0x4 DUP1 CALLDATASIZE SUB DUP2 ADD SWAP1 PUSH2 0xC8 SWAP2 SWAP1 PUSH2 0xB0C JUMP JUMPDEST PUSH2 0x28D JUMP JUMPDEST PUSH1 0x40 MLOAD PUSH2 0xDA SWAP2 SWAP1 PUSH2 0xB64 JUMP JUMPDEST PUSH1 0x40 MLOAD DUP1 SWAP2 SUB SWAP1 RETURN JUMPDEST PUSH2 0xEB PUSH2 0x2AF JUMP JUMPDEST PUSH1 0x40 MLOAD PUSH2 0xF8 SWAP2 SWAP1 PUSH2 0xB8C JUMP JUMPDEST PUSH1 0x40 MLOAD DUP1 SWAP2 SUB SWAP1 RETURN JUMPDEST PUSH2 0x11B PUSH1 0x4 DUP1 CALLDATASIZE SUB DUP2 ADD SWAP1 PUSH2 0x116 SWAP2 SWAP1 PUSH2 0xBA5 JUMP JUMPDEST PUSH2 0x2B8 JUMP JUMPDEST PUSH1 0x40 MLOAD PUSH2 0x128 SWAP2 SWAP1 PUSH2 0xB64 JUMP JUMPDEST PUSH1 0x40 MLOAD DUP1 SWAP2 SUB SWAP1 RETURN JUMPDEST PUSH2 0x139 PUSH2 0x2E6 JUMP JUMPDEST PUSH1 0x40 MLOAD PUSH2 0x146 SWAP2 SWAP1 PUSH2 0xC10 JUMP JUMPDEST PUSH1 0x40 MLOAD DUP1 SWAP2 SUB SWAP1 RETURN JUMPDEST PUSH2 0x169 PUSH1 0x4 DUP1 CALLDATASIZE SUB DUP2 ADD SWAP1 PUSH2 0x164 SWAP2 SWAP1 PUSH2 0xC29 JUMP JUMPDEST PUSH2 0x2EE JUMP JUMPDEST PUSH1 0x40 MLOAD PUSH2 0x176 SWAP2 SWAP1 PUSH2 0xB8C JUMP JUMPDEST PUSH1 0x40 MLOAD DUP1 SWAP2 SUB SWAP1 RETURN JUMPDEST PUSH2 0x187 PUSH2 0x333 JUMP JUMPDEST PUSH1 0x40 MLOAD PUSH2 0x194 SWAP2 SWAP1 PUSH2 0xA5B JUMP JUMPDEST PUSH1 0x40 MLOAD DUP1 SWAP2 SUB SWAP1 RETURN JUMPDEST PUSH2 0x1B7 PUSH1 0x4 DUP1 CALLDATASIZE SUB DUP2 ADD SWAP1 PUSH2 0x1B2 SWAP2 SWAP1 PUSH2 0xB0C JUMP JUMPDEST PUSH2 0x3C3 JUMP JUMPDEST PUSH1 0x40 MLOAD PUSH2 0x1C4 SWAP2 SWAP1 PUSH2 0xB64 JUMP JUMPDEST PUSH1 0x40 MLOAD DUP1 SWAP2 SUB SWAP1 RETURN JUMPDEST PUSH2 0x1E7 PUSH1 0x4 DUP1 CALLDATASIZE SUB DUP2 ADD SWAP1 PUSH2 0x1E2 SWAP2 SWAP1 PUSH2 0xC54 JUMP JUMPDEST PUSH2 0x3E5 JUMP JUMPDEST PUSH1 0x40 MLOAD PUSH2 0x1F4 SWAP2 SWAP1 PUSH2 0xB8C JUMP JUMPDEST PUSH1 0x40 MLOAD DUP1 SWAP2 SUB SWAP1 RETURN JUMPDEST PUSH1 0x60 PUSH1 0x3 DUP1 SLOAD PUSH2 0x20C SWAP1 PUSH2 0xCBF JUMP JUMPDEST DUP1 PUSH1 0x1F ADD PUSH1 0x20 DUP1 SWAP2 DIV MUL PUSH1 0x20 ADD PUSH1 0x40 MLOAD SWAP1 DUP2 ADD PUSH1 0x40 MSTORE DUP1 SWAP3 SWAP2 SWAP1 DUP2 DUP2 MSTORE PUSH1 0x20 ADD DUP3 DUP1 SLOAD PUSH2 0x238 SWAP1 PUSH2 0xCBF JUMP JUMPDEST DUP1 ISZERO PUSH2 0x283 JUMPI DUP1 PUSH1 0x1F LT PUSH2 0x25A JUMPI PUSH2 0x100 DUP1 DUP4 SLOAD DIV MUL DUP4 MSTORE SWAP2 PUSH1 0x20 ADD SWAP2 PUSH2 0x283 JUMP JUMPDEST DUP3 ADD SWAP2 SWAP1 PUSH0 MSTORE PUSH1 0x20 PUSH0 KECCAK256 SWAP1 JUMPDEST DUP2 SLOAD DUP2 MSTORE SWAP1 PUSH1 0x1 ADD SWAP1 PUSH1 0x20 ADD DUP1 DUP4 GT PUSH2 0x266 JUMPI DUP3 SWAP1 SUB PUSH1 0x1F AND DUP3 ADD SWAP2 JUMPDEST POP POP POP POP POP SWAP1 POP SWAP1 JUMP JUMPDEST PUSH0 PUSH0 PUSH2 0x297 PUSH2 0x467 JUMP JUMPDEST SWAP1 POP PUSH2 0x2A4 DUP2 DUP6 DUP6 PUSH2 0x46E JUMP JUMPDEST PUSH1 0x1 SWAP2 POP POP SWAP3 SWAP2 POP POP JUMP JUMPDEST PUSH0 PUSH1 0x2 SLOAD SWAP1 POP SWAP1 JUMP JUMPDEST PUSH0 PUSH0 PUSH2 0x2C2 PUSH2 0x467 JUMP JUMPDEST SWAP1 POP PUSH2 0x2CF DUP6 DUP3 DUP6 PUSH2 0x480 JUMP JUMPDEST PUSH2 0x2DA DUP6 DUP6 DUP6 PUSH2 0x513 JUMP JUMPDEST PUSH1 0x1 SWAP2 POP POP SWAP4 SWAP3 POP POP POP JUMP JUMPDEST PUSH0 PUSH1 0x12 SWAP1 POP SWAP1 JUMP JUMPDEST PUSH0 PUSH0 PUSH0 DUP4 PUSH20 0xFFFFFFFFFFFFFFFFFFFFFFFFFFFFFFFFFFFFFFFF AND PUSH20 0xFFFFFFFFFFFFFFFFFFFFFFFFFFFFFFFFFFFFFFFF AND DUP2 MSTORE PUSH1 0x20 ADD SWAP1 DUP2 MSTORE PUSH1 0x20 ADD PUSH0 KECCAK256 SLOAD SWAP1 POP SWAP2 SWAP1 POP JUMP JUMPDEST PUSH1 0x60 PUSH1 0x4 DUP1 SLOAD PUSH2 0x342 SWAP1 PUSH2 0xCBF JUMP JUMPDEST DUP1 PUSH1 0x1F ADD PUSH1 0x20 DUP1 SWAP2 DIV MUL PUSH1 0x20 ADD PUSH1 0x40 MLOAD SWAP1 DUP2 ADD PUSH1 0x40 MSTORE DUP1 SWAP3 SWAP2 SWAP1 DUP2 DUP2 MSTORE PUSH1 0x20 ADD DUP3 DUP1 SLOAD PUSH2 0x36E SWAP1 PUSH2 0xCBF JUMP JUMPDEST DUP1 ISZERO PUSH2 0x3B9 JUMPI DUP1 PUSH1 0x1F LT PUSH2 0x390 JUMPI PUSH2 0x100 DUP1 DUP4 SLOAD DIV MUL DUP4 MSTORE SWAP2 PUSH1 0x20 ADD SWAP2 PUSH2 0x3B9 JUMP JUMPDEST DUP3 ADD SWAP2 SWAP1 PUSH0 MSTORE PUSH1 0x20 PUSH0 KECCAK256 SWAP1 JUMPDEST DUP2 SLOAD DUP2 MSTORE SWAP1 PUSH1 0x1 ADD SWAP1 PUSH1 0x20 ADD DUP1 DUP4 GT PUSH2 0x39C JUMPI DUP3 SWAP1 SUB PUSH1 0x1F AND DUP3 ADD SWAP2 JUMPDEST POP POP POP POP POP SWAP1 POP SWAP1 JUMP JUMPDEST PUSH0 PUSH0 PUSH2 0x3CD PUSH2 0x467 JUMP JUMPDEST SWAP1 POP PUSH2 0x3DA DUP2 DUP6 DUP6 PUSH2 0x513 JUMP JUMPDEST PUSH1 0x1 SWAP2 POP POP SWAP3 SWAP2 POP POP JUMP JUMPDEST PUSH0 PUSH1 0x1 PUSH0 DUP5 PUSH20 0xFFFFFFFFFFFFFFFFFFFFFFFFFFFFFFFFFFFFFFFF AND PUSH20 0xFFFFFFFFFFFFFFFFFFFFFFFFFFFFFFFFFFFFFFFF AND DUP2 MSTORE PUSH1 0x20 ADD SWAP1 DUP2 MSTORE PUSH1 0x20 ADD PUSH0 KECCAK256 PUSH0 DUP4 PUSH20 0xFFFFFFFFFFFFFFFFFFFFFFFFFFFFFFFFFFFFFFFF AND PUSH20 0xFFFFFFFFFFFFFFFFFFFFFFFFFFFFFFFFFFFFFFFF AND DUP2 MSTORE PUSH1 0x20 ADD SWAP1 DUP2 MSTORE PUSH1 0x20 ADD PUSH0 KECCAK256 SLOAD SWAP1 POP SWAP3 SWAP2 POP POP JUMP JUMPDEST PUSH0 CALLER SWAP1 POP SWAP1 JUMP JUMPDEST PUSH2 0x47B DUP4 DUP4 DUP4 PUSH1 0x1 PUSH2 0x603 JUMP JUMPDEST POP POP POP JUMP JUMPDEST PUSH0 PUSH2 0x48B DUP5 DUP5 PUSH2 0x3E5 JUMP JUMPDEST SWAP1 POP PUSH32 0xFFFFFFFFFFFFFFFFFFFFFFFFFFFFFFFFFFFFFFFFFFFFFFFFFFFFFFFFFFFFFFFF DUP2 LT ISZERO PUSH2 0x50D JUMPI DUP2 DUP2 LT ISZERO PUSH2 0x4FE JUMPI DUP3 DUP2 DUP4 PUSH1 0x40 MLOAD PUSH32 0xFB8F41B200000000000000000000000000000000000000000000000000000000 DUP2 MSTORE PUSH1 0x4 ADD PUSH2 0x4F5 SWAP4 SWAP3 SWAP2 SWAP1 PUSH2 0xCFE JUMP JUMPDEST PUSH1 0x40 MLOAD DUP1 SWAP2 SUB SWAP1 REVERT JUMPDEST PUSH2 0x50C DUP5 DUP5 DUP5 DUP5 SUB PUSH0 PUSH2 0x603 JUMP JUMPDEST JUMPDEST POP POP POP POP JUMP JUMPDEST PUSH0 PUSH20 0xFFFFFFFFFFFFFFFFFFFFFFFFFFFFFFFFFFFFFFFF AND DUP4 PUSH20 0xFFFFFFFFFFFFFFFFFFFFFFFFFFFFFFFFFFFFFFFF AND SUB PUSH2 0x583 JUMPI PUSH0 PUSH1 0x40 MLOAD PUSH32 0x96C6FD1E00000000000000000000000000000000000000000000000000000000 DUP2 MSTORE PUSH1 0x4 ADD PUSH2 0x57A SWAP2 SWAP1 PUSH2 0xD33 JUMP JUMPDEST PUSH1 0x40 MLOAD DUP1 SWAP2 SUB SWAP1 REVERT JUMPDEST PUSH0 PUSH20 0xFFFFFFFFFFFFFFFFFFFFFFFFFFFFFFFFFFFFFFFF AND DUP3 PUSH20 0xFFFFFFFFFFFFFFFFFFFFFFFFFFFFFFFFFFFFFFFF AND SUB PUSH2 0x5F3 JUMPI PUSH0 PUSH1 0x40 MLOAD PUSH32 0xEC442F0500000000000000000000000000000000000000000000000000000000 DUP2 MSTORE PUSH1 0x4 ADD PUSH2 0x5EA SWAP2 SWAP1 PUSH2 0xD33 JUMP JUMPDEST PUSH1 0x40 MLOAD DUP1 SWAP2 SUB SWAP1 REVERT JUMPDEST PUSH2 0x5FE DUP4 DUP4 DUP4 PUSH2 0x7D2 JUMP JUMPDEST POP POP POP JUMP JUMPDEST PUSH0 PUSH20 0xFFFFFFFFFFFFFFFFFFFFFFFFFFFFFFFFFFFFFFFF AND DUP5 PUSH20 0xFFFFFFFFFFFFFFFFFFFFFFFFFFFFFFFFFFFFFFFF AND SUB PUSH2 0x673 JUMPI PUSH0 PUSH1 0x40 MLOAD PUSH32 0xE602DF0500000000000000000000000000000000000000000000000000000000 DUP2 MSTORE PUSH1 0x4 ADD PUSH2 0x66A SWAP2 SWAP1 PUSH2 0xD33 JUMP JUMPDEST PUSH1 0x40 MLOAD DUP1 SWAP2 SUB SWAP1 REVERT JUMPDEST PUSH0 PUSH20 0xFFFFFFFFFFFFFFFFFFFFFFFFFFFFFFFFFFFFFFFF AND DUP4 PUSH20 0xFFFFFFFFFFFFFFFFFFFFFFFFFFFFFFFFFFFFFFFF AND SUB PUSH2 0x6E3 JUMPI PUSH0 PUSH1 0x40 MLOAD PUSH32 0x94280D6200000000000000000000000000000000000000000000000000000000 DUP2 MSTORE PUSH1 0x4 ADD PUSH2 0x6DA SWAP2 SWAP1 PUSH2 0xD33 JUMP JUMPDEST PUSH1 0x40 MLOAD DUP1 SWAP2 SUB SWAP1 REVERT JUMPDEST DUP2 PUSH1 0x1 PUSH0 DUP7 PUSH20 0xFFFFFFFFFFFFFFFFFFFFFFFFFFFFFFFFFFFFFFFF AND PUSH20 0xFFFFFFFFFFFFFFFFFFFFFFFFFFFFFFFFFFFFFFFF AND DUP2 MSTORE PUSH1 0x20 ADD SWAP1 DUP2 MSTORE PUSH1 0x20 ADD PUSH0 KECCAK256 PUSH0 DUP6 PUSH20 0xFFFFFFFFFFFFFFFFFFFFFFFFFFFFFFFFFFFFFFFF AND PUSH20 0xFFFFFFFFFFFFFFFFFFFFFFFFFFFFFFFFFFFFFFFF AND DUP2 MSTORE PUSH1 0x20 ADD SWAP1 DUP2 MSTORE PUSH1 0x20 ADD PUSH0 KECCAK256 DUP2 SWAP1 SSTORE POP DUP1 ISZERO PUSH2 0x7CC JUMPI DUP3 PUSH20 0xFFFFFFFFFFFFFFFFFFFFFFFFFFFFFFFFFFFFFFFF AND DUP5 PUSH20 0xFFFFFFFFFFFFFFFFFFFFFFFFFFFFFFFFFFFFFFFF AND PUSH32 0x8C5BE1E5EBEC7D5BD14F71427D1E84F3DD0314C0F7B2291E5B200AC8C7C3B925 DUP5 PUSH1 0x40 MLOAD PUSH2 0x7C3 SWAP2 SWAP1 PUSH2 0xB8C JUMP JUMPDEST PUSH1 0x40 MLOAD DUP1 SWAP2 SUB SWAP1 LOG3 JUMPDEST POP POP POP POP JUMP JUMPDEST PUSH0 PUSH20 0xFFFFFFFFFFFFFFFFFFFFFFFFFFFFFFFFFFFFFFFF AND DUP4 PUSH20 0xFFFFFFFFFFFFFFFFFFFFFFFFFFFFFFFFFFFFFFFF AND SUB PUSH2 0x822 JUMPI DUP1 PUSH1 0x2 PUSH0 DUP3 DUP3 SLOAD PUSH2 0x816 SWAP2 SWAP1 PUSH2 0xD79 JUMP JUMPDEST SWAP3 POP POP DUP2 SWAP1 SSTORE POP PUSH2 0x8F0 JUMP JUMPDEST PUSH0 PUSH0 PUSH0 DUP6 PUSH20 0xFFFFFFFFFFFFFFFFFFFFFFFFFFFFFFFFFFFFFFFF AND PUSH20 0xFFFFFFFFFFFFFFFFFFFFFFFFFFFFFFFFFFFFFFFF AND DUP2 MSTORE PUSH1 0x20 ADD SWAP1 DUP2 MSTORE PUSH1 0x20 ADD PUSH0 KECCAK256 SLOAD SWAP1 POP DUP2 DUP2 LT ISZERO PUSH2 0x8AB JUMPI DUP4 DUP2 DUP4 PUSH1 0x40 MLOAD PUSH32 0xE450D38C00000000000000000000000000000000000000000000000000000000 DUP2 MSTORE PUSH1 0x4 ADD PUSH2 0x8A2 SWAP4 SWAP3 SWAP2 SWAP1 PUSH2 0xCFE JUMP JUMPDEST PUSH1 0x40 MLOAD DUP1 SWAP2 SUB SWAP1 REVERT JUMPDEST DUP2 DUP2 SUB PUSH0 PUSH0 DUP7 PUSH20 0xFFFFFFFFFFFFFFFFFFFFFFFFFFFFFFFFFFFFFFFF AND PUSH20 0xFFFFFFFFFFFFFFFFFFFFFFFFFFFFFFFFFFFFFFFF AND DUP2 MSTORE PUSH1 0x20 ADD SWAP1 DUP2 MSTORE PUSH1 0x20 ADD PUSH0 KECCAK256 DUP2 SWAP1 SSTORE POP POP JUMPDEST PUSH0 PUSH20 0xFFFFFFFFFFFFFFFFFFFFFFFFFFFFFFFFFFFFFFFF AND DUP3 PUSH20 0xFFFFFFFFFFFFFFFFFFFFFFFFFFFFFFFFFFFFFFFF AND SUB PUSH2 0x937 JUMPI DUP1 PUSH1 0x2 PUSH0 DUP3 DUP3 SLOAD SUB SWAP3 POP POP DUP2 SWAP1 SSTORE POP PUSH2 0x981 JUMP JUMPDEST DUP1 PUSH0 PUSH0 DUP5 PUSH20 0xFFFFFFFFFFFFFFFFFFFFFFFFFFFFFFFFFFFFFFFF AND PUSH20 0xFFFFFFFFFFFFFFFFFFFFFFFFFFFFFFFFFFFFFFFF AND DUP2 MSTORE PUSH1 0x20 ADD SWAP1 DUP2 MSTORE PUSH1 0x20 ADD PUSH0 KECCAK256 PUSH0 DUP3 DUP3 SLOAD ADD SWAP3 POP POP DUP2 SWAP1 SSTORE POP JUMPDEST DUP2 PUSH20 0xFFFFFFFFFFFFFFFFFFFFFFFFFFFFFFFFFFFFFFFF AND DUP4 PUSH20 0xFFFFFFFFFFFFFFFFFFFFFFFFFFFFFFFFFFFFFFFF AND PUSH32 0xDDF252AD1BE2C89B69C2B068FC378DAA952BA7F163C4A11628F55A4DF523B3EF DUP4 PUSH1 0x40 MLOAD PUSH2 0x9DE SWAP2 SWAP1 PUSH2 0xB8C JUMP JUMPDEST PUSH1 0x40 MLOAD DUP1 SWAP2 SUB SWAP1 LOG3 POP POP POP JUMP JUMPDEST PUSH0 DUP2 MLOAD SWAP1 POP SWAP2 SWAP1 POP JUMP JUMPDEST PUSH0 DUP3 DUP3 MSTORE PUSH1 0x20 DUP3 ADD SWAP1 POP SWAP3 SWAP2 POP POP JUMP JUMPDEST DUP3 DUP2 DUP4 MCOPY PUSH0 DUP4 DUP4 ADD MSTORE POP POP POP JUMP JUMPDEST PUSH0 PUSH1 0x1F NOT PUSH1 0x1F DUP4 ADD AND SWAP1 POP SWAP2 SWAP1 POP JUMP JUMPDEST PUSH0 PUSH2 0xA2D DUP3 PUSH2 0x9EB JUMP JUMPDEST PUSH2 0xA37 DUP2 DUP6 PUSH2 0x9F5 JUMP JUMPDEST SWAP4 POP PUSH2 0xA47 DUP2 DUP6 PUSH1 0x20 DUP7 ADD PUSH2 0xA05 JUMP JUMPDEST PUSH2 0xA50 DUP2 PUSH2 0xA13 JUMP JUMPDEST DUP5 ADD SWAP2 POP POP SWAP3 SWAP2 POP POP JUMP JUMPDEST PUSH0 PUSH1 0x20 DUP3 ADD SWAP1 POP DUP2 DUP2 SUB PUSH0 DUP4 ADD MSTORE PUSH2 0xA73 DUP2 DUP5 PUSH2 0xA23 JUMP JUMPDEST SWAP1 POP SWAP3 SWAP2 POP POP JUMP JUMPDEST PUSH0 PUSH0 REVERT JUMPDEST PUSH0 PUSH20 0xFFFFFFFFFFFFFFFFFFFFFFFFFFFFFFFFFFFFFFFF DUP3 AND SWAP1 POP SWAP2 SWAP1 POP JUMP JUMPDEST PUSH0 PUSH2 0xAA8 DUP3 PUSH2 0xA7F JUMP JUMPDEST SWAP1 POP SWAP2 SWAP1 POP JUMP JUMPDEST PUSH2 0xAB8 DUP2 PUSH2 0xA9E JUMP JUMPDEST DUP2 EQ PUSH2 0xAC2 JUMPI PUSH0 PUSH0 REVERT JUMPDEST POP JUMP JUMPDEST PUSH0 DUP2 CALLDATALOAD SWAP1 POP PUSH2 0xAD3 DUP2 PUSH2 0xAAF JUMP JUMPDEST SWAP3 SWAP2 POP POP JUMP JUMPDEST PUSH0 DUP2 SWAP1 POP SWAP2 SWAP1 POP JUMP JUMPDEST PUSH2 0xAEB DUP2 PUSH2 0xAD9 JUMP JUMPDEST DUP2 EQ PUSH2 0xAF5 JUMPI PUSH0 PUSH0 REVERT JUMPDEST POP JUMP JUMPDEST PUSH0 DUP2 CALLDATALOAD SWAP1 POP PUSH2 0xB06 DUP2 PUSH2 0xAE2 JUMP JUMPDEST SWAP3 SWAP2 POP POP JUMP JUMPDEST PUSH0 PUSH0 PUSH1 0x40 DUP4 DUP6 SUB SLT ISZERO PUSH2 0xB22 JUMPI PUSH2 0xB21 PUSH2 0xA7B JUMP JUMPDEST JUMPDEST PUSH0 PUSH2 0xB2F DUP6 DUP3 DUP7 ADD PUSH2 0xAC5 JUMP JUMPDEST SWAP3 POP POP PUSH1 0x20 PUSH2 0xB40 DUP6 DUP3 DUP7 ADD PUSH2 0xAF8 JUMP JUMPDEST SWAP2 POP POP SWAP3 POP SWAP3 SWAP1 POP JUMP JUMPDEST PUSH0 DUP2 ISZERO ISZERO SWAP1 POP SWAP2 SWAP1 POP JUMP JUMPDEST PUSH2 0xB5E DUP2 PUSH2 0xB4A JUMP JUMPDEST DUP3 MSTORE POP POP JUMP JUMPDEST PUSH0 PUSH1 0x20 DUP3 ADD SWAP1 POP PUSH2 0xB77 PUSH0 DUP4 ADD DUP5 PUSH2 0xB55 JUMP JUMPDEST SWAP3 SWAP2 POP POP JUMP JUMPDEST PUSH2 0xB86 DUP2 PUSH2 0xAD9 JUMP JUMPDEST DUP3 MSTORE POP POP JUMP JUMPDEST PUSH0 PUSH1 0x20 DUP3 ADD SWAP1 POP PUSH2 0xB9F PUSH0 DUP4 ADD DUP5 PUSH2 0xB7D JUMP JUMPDEST SWAP3 SWAP2 POP POP JUMP JUMPDEST PUSH0 PUSH0 PUSH0 PUSH1 0x60 DUP5 DUP7 SUB SLT ISZERO PUSH2 0xBBC JUMPI PUSH2 0xBBB PUSH2 0xA7B JUMP JUMPDEST JUMPDEST PUSH0 PUSH2 0xBC9 DUP7 DUP3 DUP8 ADD PUSH2 0xAC5 JUMP JUMPDEST SWAP4 POP POP PUSH1 0x20 PUSH2 0xBDA DUP7 DUP3 DUP8 ADD PUSH2 0xAC5 JUMP JUMPDEST SWAP3 POP POP PUSH1 0x40 PUSH2 0xBEB DUP7 DUP3 DUP8 ADD PUSH2 0xAF8 JUMP JUMPDEST SWAP2 POP POP SWAP3 POP SWAP3 POP SWAP3 JUMP JUMPDEST PUSH0 PUSH1 0xFF DUP3 AND SWAP1 POP SWAP2 SWAP1 POP JUMP JUMPDEST PUSH2 0xC0A DUP2 PUSH2 0xBF5 JUMP JUMPDEST DUP3 MSTORE POP POP JUMP JUMPDEST PUSH0 PUSH1 0x20 DUP3 ADD SWAP1 POP PUSH2 0xC23 PUSH0 DUP4 ADD DUP5 PUSH2 0xC01 JUMP JUMPDEST SWAP3 SWAP2 POP POP JUMP JUMPDEST PUSH0 PUSH1 0x20 DUP3 DUP5 SUB SLT ISZERO PUSH2 0xC3E JUMPI PUSH2 0xC3D PUSH2 0xA7B JUMP JUMPDEST JUMPDEST PUSH0 PUSH2 0xC4B DUP5 DUP3 DUP6 ADD PUSH2 0xAC5 JUMP JUMPDEST SWAP2 POP POP SWAP3 SWAP2 POP POP JUMP JUMPDEST PUSH0 PUSH0 PUSH1 0x40 DUP4 DUP6 SUB SLT ISZERO PUSH2 0xC6A JUMPI PUSH2 0xC69 PUSH2 0xA7B JUMP JUMPDEST JUMPDEST PUSH0 PUSH2 0xC77 DUP6 DUP3 DUP7 ADD PUSH2 0xAC5 JUMP JUMPDEST SWAP3 POP POP PUSH1 0x20 PUSH2 0xC88 DUP6 DUP3 DUP7 ADD PUSH2 0xAC5 JUMP JUMPDEST SWAP2 POP POP SWAP3 POP SWAP3 SWAP1 POP JUMP JUMPDEST PUSH32 0x4E487B7100000000000000000000000000000000000000000000000000000000 PUSH0 MSTORE PUSH1 0x22 PUSH1 0x4 MSTORE PUSH1 0x24 PUSH0 REVERT JUMPDEST PUSH0 PUSH1 0x2 DUP3 DIV SWAP1 POP PUSH1 0x1 DUP3 AND DUP1 PUSH2 0xCD6 JUMPI PUSH1 0x7F DUP3 AND SWAP2 POP JUMPDEST PUSH1 0x20 DUP3 LT DUP2 SUB PUSH2 0xCE9 JUMPI PUSH2 0xCE8 PUSH2 0xC92 JUMP JUMPDEST JUMPDEST POP SWAP2 SWAP1 POP JUMP JUMPDEST PUSH2 0xCF8 DUP2 PUSH2 0xA9E JUMP JUMPDEST DUP3 MSTORE POP POP JUMP JUMPDEST PUSH0 PUSH1 0x60 DUP3 ADD SWAP1 POP PUSH2 0xD11 PUSH0 DUP4 ADD DUP7 PUSH2 0xCEF JUMP JUMPDEST PUSH2 0xD1E PUSH1 0x20 DUP4 ADD DUP6 PUSH2 0xB7D JUMP JUMPDEST PUSH2 0xD2B PUSH1 0x40 DUP4 ADD DUP5 PUSH2 0xB7D JUMP JUMPDEST SWAP5 SWAP4 POP POP POP POP JUMP JUMPDEST PUSH0 PUSH1 0x20 DUP3 ADD SWAP1 POP PUSH2 0xD46 PUSH0 DUP4 ADD DUP5 PUSH2 0xCEF JUMP JUMPDEST SWAP3 SWAP2 POP POP JUMP JUMPDEST PUSH32 0x4E487B7100000000000000000000000000000000000000000000000000000000 PUSH0 MSTORE PUSH1 0x11 PUSH1 0x4 MSTORE PUSH1 0x24 PUSH0 REVERT JUMPDEST PUSH0 PUSH2 0xD83 DUP3 PUSH2 0xAD9 JUMP JUMPDEST SWAP2 POP PUSH2 0xD8E DUP4 PUSH2 0xAD9 JUMP JUMPDEST SWAP3 POP DUP3 DUP3 ADD SWAP1 POP DUP1 DUP3 GT ISZERO PUSH2 0xDA6 JUMPI PUSH2 0xDA5 PUSH2 0xD4C JUMP JUMPDEST JUMPDEST SWAP3 SWAP2 POP POP JUMP INVALID LOG2 PUSH5 0x6970667358 0x22 SLT KECCAK256 0x23 PUSH4 0x82F05902 SELFBALANCE MLOAD 0xC8 DIV EXP ORIGIN PUSH29 0xC85DD83E92EF3F818AB24F38821372450AC9BE64736F6C634300081E00 CALLER "
				},
				"gasEstimates": {
					"creation": {
						"codeDepositCost": "226200",
						"executionCost": "infinite",
						"totalCost": "infinite"
					},
					"external": {
						"rate()": "2402",
						"token()": "infinite"
					},
					"internal": {
						"distribute(uint256)": "infinite"
					}
				},
				"methodIdentifiers": {
					"rate()": "2c4e722e",
					"token()": "fc0c546a"
				}
			},
			"storageLayout": {
				"storage": [
					{
						"astId": 5,
						"contract": "contracts2025/CrowdSale.sol:CrowdSale",
						"label": "rate",
						"offset": 0,
						"slot": "0",
						"type": "t_uint256"
					},
					{
						"astId": 8,
						"contract": "contracts2025/CrowdSale.sol:CrowdSale",
						"label": "token",
						"offset": 0,
						"slot": "1",
						"type": "t_contract(Token)82"
					}
				],
				"types": {
					"t_contract(Token)82": {
						"encoding": "inplace",
						"label": "contract Token",
						"numberOfBytes": "20"
					},
					"t_uint256": {
						"encoding": "inplace",
						"label": "uint256",
						"numberOfBytes": "32"
					}
				}
			},
			"userdoc": {
				"kind": "user",
				"methods": {},
				"version": 1
			}
		}
	}
}