{
	"contracts/noteStudent.sol": {
		"Notes": {
			"abi": [
				{
					"inputs": [],
					"stateMutability": "nonpayable",
					"type": "constructor"
				},
				{
					"inputs": [
						{
							"internalType": "address",
							"name": "owner",
							"type": "address"
						}
					],
					"name": "OwnableInvalidOwner",
					"type": "error"
				},
				{
					"inputs": [
						{
							"internalType": "address",
							"name": "account",
							"type": "address"
						}
					],
					"name": "OwnableUnauthorizedAccount",
					"type": "error"
				},
				{
					"anonymous": false,
					"inputs": [
						{
							"indexed": true,
							"internalType": "address",
							"name": "previousOwner",
							"type": "address"
						},
						{
							"indexed": true,
							"internalType": "address",
							"name": "newOwner",
							"type": "address"
						}
					],
					"name": "OwnershipTransferred",
					"type": "event"
				},
				{
					"inputs": [
						{
							"internalType": "string",
							"name": "_name",
							"type": "string"
						}
					],
					"name": "addStudent",
					"outputs": [],
					"stateMutability": "nonpayable",
					"type": "function"
				},
				{
					"inputs": [
						{
							"internalType": "address",
							"name": "_teacherAddress",
							"type": "address"
						}
					],
					"name": "addTeacher",
					"outputs": [],
					"stateMutability": "nonpayable",
					"type": "function"
				},
				{
					"inputs": [],
					"name": "averageClass",
					"outputs": [
						{
							"internalType": "uint256",
							"name": "",
							"type": "uint256"
						}
					],
					"stateMutability": "view",
					"type": "function"
				},
				{
					"inputs": [
						{
							"internalType": "string",
							"name": "_course",
							"type": "string"
						}
					],
					"name": "averageClassForCourse",
					"outputs": [
						{
							"internalType": "uint256",
							"name": "",
							"type": "uint256"
						}
					],
					"stateMutability": "view",
					"type": "function"
				},
				{
					"inputs": [
						{
							"internalType": "string",
							"name": "_name",
							"type": "string"
						}
					],
					"name": "averageStudent",
					"outputs": [
						{
							"internalType": "uint256",
							"name": "",
							"type": "uint256"
						}
					],
					"stateMutability": "view",
					"type": "function"
				},
				{
					"inputs": [
						{
							"internalType": "string",
							"name": "_name",
							"type": "string"
						},
						{
							"internalType": "string",
							"name": "_course",
							"type": "string"
						}
					],
					"name": "getNote",
					"outputs": [
						{
							"internalType": "uint256",
							"name": "",
							"type": "uint256"
						}
					],
					"stateMutability": "view",
					"type": "function"
				},
				{
					"inputs": [
						{
							"internalType": "string",
							"name": "_name",
							"type": "string"
						}
					],
					"name": "isPassing",
					"outputs": [
						{
							"internalType": "bool",
							"name": "",
							"type": "bool"
						}
					],
					"stateMutability": "view",
					"type": "function"
				},
				{
					"inputs": [],
					"name": "owner",
					"outputs": [
						{
							"internalType": "address",
							"name": "",
							"type": "address"
						}
					],
					"stateMutability": "view",
					"type": "function"
				},
				{
					"inputs": [],
					"name": "renounceOwnership",
					"outputs": [],
					"stateMutability": "nonpayable",
					"type": "function"
				},
				{
					"inputs": [
						{
							"internalType": "string",
							"name": "_name",
							"type": "string"
						},
						{
							"internalType": "string",
							"name": "_course",
							"type": "string"
						},
						{
							"internalType": "uint256",
							"name": "_note",
							"type": "uint256"
						}
					],
					"name": "setNote",
					"outputs": [],
					"stateMutability": "nonpayable",
					"type": "function"
				},
				{
					"inputs": [
						{
							"internalType": "address",
							"name": "newOwner",
							"type": "address"
						}
					],
					"name": "transferOwnership",
					"outputs": [],
					"stateMutability": "nonpayable",
					"type": "function"
				}
			],
			"devdoc": {
				"errors": {
					"OwnableInvalidOwner(address)": [
						{
							"details": "The owner is not a valid owner account. (eg. `address(0)`)"
						}
					],
					"OwnableUnauthorizedAccount(address)": [
						{
							"details": "The caller account is not authorized to perform an operation."
						}
					]
				},
				"kind": "dev",
				"methods": {
					"owner()": {
						"details": "Returns the address of the current owner."
					},
					"renounceOwnership()": {
						"details": "Leaves the contract without owner. It will not be possible to call `onlyOwner` functions. Can only be called by the current owner. NOTE: Renouncing ownership will leave the contract without an owner, thereby disabling any functionality that is only available to the owner."
					},
					"transferOwnership(address)": {
						"details": "Transfers ownership of the contract to a new account (`newOwner`). Can only be called by the current owner."
					}
				},
				"version": 1
			},
			"evm": {
				"assembly": "    /* \"contracts/noteStudent.sol\":111:3697  contract Notes is Ownable {... */\n  mstore(0x40, 0x80)\n    /* \"contracts/noteStudent.sol\":327:364  constructor() Ownable(msg.sender) { } */\n  callvalue\n  dup1\n  iszero\n  tag_1\n  jumpi\n  0x00\n  dup1\n  revert\ntag_1:\n  pop\n    /* \"contracts/noteStudent.sol\":349:359  msg.sender */\n  caller\n    /* \"@openzeppelin/contracts/access/Ownable.sol\":1297:1298  0 */\n  0x00\n    /* \"@openzeppelin/contracts/access/Ownable.sol\":1273:1299  initialOwner == address(0) */\n  0xffffffffffffffffffffffffffffffffffffffff\n  and\n    /* \"@openzeppelin/contracts/access/Ownable.sol\":1273:1285  initialOwner */\n  dup2\n    /* \"@openzeppelin/contracts/access/Ownable.sol\":1273:1299  initialOwner == address(0) */\n  0xffffffffffffffffffffffffffffffffffffffff\n  and\n  sub\n    /* \"@openzeppelin/contracts/access/Ownable.sol\":1269:1364  if (initialOwner == address(0)) {... */\n  tag_5\n  jumpi\n    /* \"@openzeppelin/contracts/access/Ownable.sol\":1350:1351  0 */\n  0x00\n    /* \"@openzeppelin/contracts/access/Ownable.sol\":1322:1353  OwnableInvalidOwner(address(0)) */\n  mload(0x40)\n  0x1e4fbdf700000000000000000000000000000000000000000000000000000000\n  dup2\n  mstore\n  0x04\n  add\n  tag_6\n  swap2\n  swap1\n  tag_7\n  jump\t// in\ntag_6:\n  mload(0x40)\n  dup1\n  swap2\n  sub\n  swap1\n  revert\n    /* \"@openzeppelin/contracts/access/Ownable.sol\":1269:1364  if (initialOwner == address(0)) {... */\ntag_5:\n    /* \"@openzeppelin/contracts/access/Ownable.sol\":1373:1405  _transferOwnership(initialOwner) */\n  tag_8\n    /* \"@openzeppelin/contracts/access/Ownable.sol\":1392:1404  initialOwner */\n  dup2\n    /* \"@openzeppelin/contracts/access/Ownable.sol\":1373:1391  _transferOwnership */\n  shl(0x20, tag_9)\n    /* \"@openzeppelin/contracts/access/Ownable.sol\":1373:1405  _transferOwnership(initialOwner) */\n  0x20\n  shr\n  jump\t// in\ntag_8:\n    /* \"@openzeppelin/contracts/access/Ownable.sol\":1225:1412  constructor(address initialOwner) {... */\n  pop\n    /* \"contracts/noteStudent.sol\":111:3697  contract Notes is Ownable {... */\n  jump(tag_11)\n    /* \"@openzeppelin/contracts/access/Ownable.sol\":2912:3099  function _transferOwnership(address newOwner) internal virtual {... */\ntag_9:\n    /* \"@openzeppelin/contracts/access/Ownable.sol\":2985:3001  address oldOwner */\n  0x00\n    /* \"@openzeppelin/contracts/access/Ownable.sol\":3004:3010  _owner */\n  dup1\n  0x00\n  swap1\n  sload\n  swap1\n  0x0100\n  exp\n  swap1\n  div\n  0xffffffffffffffffffffffffffffffffffffffff\n  and\n    /* \"@openzeppelin/contracts/access/Ownable.sol\":2985:3010  address oldOwner = _owner */\n  swap1\n  pop\n    /* \"@openzeppelin/contracts/access/Ownable.sol\":3029:3037  newOwner */\n  dup2\n    /* \"@openzeppelin/contracts/access/Ownable.sol\":3020:3026  _owner */\n  0x00\n  dup1\n    /* \"@openzeppelin/contracts/access/Ownable.sol\":3020:3037  _owner = newOwner */\n  0x0100\n  exp\n  dup2\n  sload\n  dup2\n  0xffffffffffffffffffffffffffffffffffffffff\n  mul\n  not\n  and\n  swap1\n  dup4\n  0xffffffffffffffffffffffffffffffffffffffff\n  and\n  mul\n  or\n  swap1\n  sstore\n  pop\n    /* \"@openzeppelin/contracts/access/Ownable.sol\":3083:3091  newOwner */\n  dup2\n    /* \"@openzeppelin/contracts/access/Ownable.sol\":3052:3092  OwnershipTransferred(oldOwner, newOwner) */\n  0xffffffffffffffffffffffffffffffffffffffff\n  and\n    /* \"@openzeppelin/contracts/access/Ownable.sol\":3073:3081  oldOwner */\n  dup2\n    /* \"@openzeppelin/contracts/access/Ownable.sol\":3052:3092  OwnershipTransferred(oldOwner, newOwner) */\n  0xffffffffffffffffffffffffffffffffffffffff\n  and\n  0x8be0079c531659141344cd1fd0a4f28419497f9722a3daafe3b4186f6b6457e0\n  mload(0x40)\n  mload(0x40)\n  dup1\n  swap2\n  sub\n  swap1\n  log3\n    /* \"@openzeppelin/contracts/access/Ownable.sol\":2975:3099  {... */\n  pop\n    /* \"@openzeppelin/contracts/access/Ownable.sol\":2912:3099  function _transferOwnership(address newOwner) internal virtual {... */\n  pop\n  jump\t// out\n    /* \"#utility.yul\":7:133   */\ntag_13:\n    /* \"#utility.yul\":44:51   */\n  0x00\n    /* \"#utility.yul\":84:126   */\n  0xffffffffffffffffffffffffffffffffffffffff\n    /* \"#utility.yul\":77:82   */\n  dup3\n    /* \"#utility.yul\":73:127   */\n  and\n    /* \"#utility.yul\":62:127   */\n  swap1\n  pop\n    /* \"#utility.yul\":7:133   */\n  swap2\n  swap1\n  pop\n  jump\t// out\n    /* \"#utility.yul\":139:235   */\ntag_14:\n    /* \"#utility.yul\":176:183   */\n  0x00\n    /* \"#utility.yul\":205:229   */\n  tag_19\n    /* \"#utility.yul\":223:228   */\n  dup3\n    /* \"#utility.yul\":205:229   */\n  tag_13\n  jump\t// in\ntag_19:\n    /* \"#utility.yul\":194:229   */\n  swap1\n  pop\n    /* \"#utility.yul\":139:235   */\n  swap2\n  swap1\n  pop\n  jump\t// out\n    /* \"#utility.yul\":241:359   */\ntag_15:\n    /* \"#utility.yul\":328:352   */\n  tag_21\n    /* \"#utility.yul\":346:351   */\n  dup2\n    /* \"#utility.yul\":328:352   */\n  tag_14\n  jump\t// in\ntag_21:\n    /* \"#utility.yul\":323:326   */\n  dup3\n    /* \"#utility.yul\":316:353   */\n  mstore\n    /* \"#utility.yul\":241:359   */\n  pop\n  pop\n  jump\t// out\n    /* \"#utility.yul\":365:587   */\ntag_7:\n    /* \"#utility.yul\":458:462   */\n  0x00\n    /* \"#utility.yul\":496:498   */\n  0x20\n    /* \"#utility.yul\":485:494   */\n  dup3\n    /* \"#utility.yul\":481:499   */\n  add\n    /* \"#utility.yul\":473:499   */\n  swap1\n  pop\n    /* \"#utility.yul\":509:580   */\n  tag_23\n    /* \"#utility.yul\":577:578   */\n  0x00\n    /* \"#utility.yul\":566:575   */\n  dup4\n    /* \"#utility.yul\":562:579   */\n  add\n    /* \"#utility.yul\":553:559   */\n  dup5\n    /* \"#utility.yul\":509:580   */\n  tag_15\n  jump\t// in\ntag_23:\n    /* \"#utility.yul\":365:587   */\n  swap3\n  swap2\n  pop\n  pop\n  jump\t// out\n    /* \"contracts/noteStudent.sol\":111:3697  contract Notes is Ownable {... */\ntag_11:\n  dataSize(sub_0)\n  dup1\n  dataOffset(sub_0)\n  0x00\n  codecopy\n  0x00\n  return\nstop\n\nsub_0: assembly {\n        /* \"contracts/noteStudent.sol\":111:3697  contract Notes is Ownable {... */\n      mstore(0x40, 0x80)\n      callvalue\n      dup1\n      iszero\n      tag_1\n      jumpi\n      0x00\n      dup1\n      revert\n    tag_1:\n      pop\n      jumpi(tag_2, lt(calldatasize, 0x04))\n      shr(0xe0, calldataload(0x00))\n      dup1\n      0x3bc6e309\n      gt\n      tag_14\n      jumpi\n      dup1\n      0x3bc6e309\n      eq\n      tag_8\n      jumpi\n      dup1\n      0x453e056a\n      eq\n      tag_9\n      jumpi\n      dup1\n      0x715018a6\n      eq\n      tag_10\n      jumpi\n      dup1\n      0x8da5cb5b\n      eq\n      tag_11\n      jumpi\n      dup1\n      0xf2fde38b\n      eq\n      tag_12\n      jumpi\n      dup1\n      0xf947387c\n      eq\n      tag_13\n      jumpi\n      jump(tag_2)\n    tag_14:\n      dup1\n      0x0dc0ffb1\n      eq\n      tag_3\n      jumpi\n      dup1\n      0x15ecd016\n      eq\n      tag_4\n      jumpi\n      dup1\n      0x1b0194f8\n      eq\n      tag_5\n      jumpi\n      dup1\n      0x206aa1bc\n      eq\n      tag_6\n      jumpi\n      dup1\n      0x27b51db2\n      eq\n      tag_7\n      jumpi\n    tag_2:\n      0x00\n      dup1\n      revert\n        /* \"contracts/noteStudent.sol\":2533:2662  function isPassing(string memory _name) external view isTeacher returns(bool) {... */\n    tag_3:\n      tag_15\n      0x04\n      dup1\n      calldatasize\n      sub\n      dup2\n      add\n      swap1\n      tag_16\n      swap2\n      swap1\n      tag_17\n      jump\t// in\n    tag_16:\n      tag_18\n      jump\t// in\n    tag_15:\n      mload(0x40)\n      tag_19\n      swap2\n      swap1\n      tag_20\n      jump\t// in\n    tag_19:\n      mload(0x40)\n      dup1\n      swap2\n      sub\n      swap1\n      return\n        /* \"contracts/noteStudent.sol\":2668:3281  function averageClassForCourse(string memory _course) external view returns(uint) {... */\n    tag_4:\n      tag_21\n      0x04\n      dup1\n      calldatasize\n      sub\n      dup2\n      add\n      swap1\n      tag_22\n      swap2\n      swap1\n      tag_17\n      jump\t// in\n    tag_22:\n      tag_23\n      jump\t// in\n    tag_21:\n      mload(0x40)\n      tag_24\n      swap2\n      swap1\n      tag_25\n      jump\t// in\n    tag_24:\n      mload(0x40)\n      dup1\n      swap2\n      sub\n      swap1\n      return\n        /* \"contracts/noteStudent.sol\":3287:3695  function averageClass() external view returns(uint) {... */\n    tag_5:\n      tag_26\n      tag_27\n      jump\t// in\n    tag_26:\n      mload(0x40)\n      tag_28\n      swap2\n      swap1\n      tag_25\n      jump\t// in\n    tag_28:\n      mload(0x40)\n      dup1\n      swap2\n      sub\n      swap1\n      return\n        /* \"contracts/noteStudent.sol\":2272:2527  function averageStudent(string memory _name) public view isTeacher returns(uint) {... */\n    tag_6:\n      tag_29\n      0x04\n      dup1\n      calldatasize\n      sub\n      dup2\n      add\n      swap1\n      tag_30\n      swap2\n      swap1\n      tag_17\n      jump\t// in\n    tag_30:\n      tag_31\n      jump\t// in\n    tag_29:\n      mload(0x40)\n      tag_32\n      swap2\n      swap1\n      tag_25\n      jump\t// in\n    tag_32:\n      mload(0x40)\n      dup1\n      swap2\n      sub\n      swap1\n      return\n        /* \"contracts/noteStudent.sol\":1206:1736  function setNote(string memory _name, string memory _course, uint _note) external isTeacher {... */\n    tag_7:\n      tag_33\n      0x04\n      dup1\n      calldatasize\n      sub\n      dup2\n      add\n      swap1\n      tag_34\n      swap2\n      swap1\n      tag_35\n      jump\t// in\n    tag_34:\n      tag_36\n      jump\t// in\n    tag_33:\n      stop\n        /* \"contracts/noteStudent.sol\":471:584  function addTeacher(address _teacherAddress) external onlyOwner {... */\n    tag_8:\n      tag_37\n      0x04\n      dup1\n      calldatasize\n      sub\n      dup2\n      add\n      swap1\n      tag_38\n      swap2\n      swap1\n      tag_39\n      jump\t// in\n    tag_38:\n      tag_40\n      jump\t// in\n    tag_37:\n      stop\n        /* \"contracts/noteStudent.sol\":590:705  function addStudent(string memory _name) external isTeacher {... */\n    tag_9:\n      tag_41\n      0x04\n      dup1\n      calldatasize\n      sub\n      dup2\n      add\n      swap1\n      tag_42\n      swap2\n      swap1\n      tag_17\n      jump\t// in\n    tag_42:\n      tag_43\n      jump\t// in\n    tag_41:\n      stop\n        /* \"@openzeppelin/contracts/access/Ownable.sol\":2293:2394  function renounceOwnership() public virtual onlyOwner {... */\n    tag_10:\n      tag_44\n      tag_45\n      jump\t// in\n    tag_44:\n      stop\n        /* \"@openzeppelin/contracts/access/Ownable.sol\":1638:1723  function owner() public view virtual returns (address) {... */\n    tag_11:\n      tag_46\n      tag_47\n      jump\t// in\n    tag_46:\n      mload(0x40)\n      tag_48\n      swap2\n      swap1\n      tag_49\n      jump\t// in\n    tag_48:\n      mload(0x40)\n      dup1\n      swap2\n      sub\n      swap1\n      return\n        /* \"@openzeppelin/contracts/access/Ownable.sol\":2543:2758  function transferOwnership(address newOwner) public virtual onlyOwner {... */\n    tag_12:\n      tag_50\n      0x04\n      dup1\n      calldatasize\n      sub\n      dup2\n      add\n      swap1\n      tag_51\n      swap2\n      swap1\n      tag_39\n      jump\t// in\n    tag_51:\n      tag_52\n      jump\t// in\n    tag_50:\n      stop\n        /* \"contracts/noteStudent.sol\":1742:2266  function getNote(string memory _name, string memory _course) external view returns(uint) {... */\n    tag_13:\n      tag_53\n      0x04\n      dup1\n      calldatasize\n      sub\n      dup2\n      add\n      swap1\n      tag_54\n      swap2\n      swap1\n      tag_55\n      jump\t// in\n    tag_54:\n      tag_56\n      jump\t// in\n    tag_53:\n      mload(0x40)\n      tag_57\n      swap2\n      swap1\n      tag_25\n      jump\t// in\n    tag_57:\n      mload(0x40)\n      dup1\n      swap2\n      sub\n      swap1\n      return\n        /* \"contracts/noteStudent.sol\":2533:2662  function isPassing(string memory _name) external view isTeacher returns(bool) {... */\n    tag_18:\n        /* \"contracts/noteStudent.sol\":2605:2609  bool */\n      0x00\n        /* \"contracts/noteStudent.sol\":409:417  teachers */\n      0x01\n        /* \"contracts/noteStudent.sol\":409:429  teachers[msg.sender] */\n      0x00\n        /* \"contracts/noteStudent.sol\":418:428  msg.sender */\n      caller\n        /* \"contracts/noteStudent.sol\":409:429  teachers[msg.sender] */\n      0xffffffffffffffffffffffffffffffffffffffff\n      and\n      0xffffffffffffffffffffffffffffffffffffffff\n      and\n      dup2\n      mstore\n      0x20\n      add\n      swap1\n      dup2\n      mstore\n      0x20\n      add\n      0x00\n      keccak256\n      0x00\n      swap1\n      sload\n      swap1\n      0x0100\n      exp\n      swap1\n      div\n      0xff\n      and\n        /* \"contracts/noteStudent.sol\":401:447  require(teachers[msg.sender], \"Not a teacher\") */\n      tag_59\n      jumpi\n      mload(0x40)\n      0x08c379a000000000000000000000000000000000000000000000000000000000\n      dup2\n      mstore\n      0x04\n      add\n      tag_60\n      swap1\n      tag_61\n      jump\t// in\n    tag_60:\n      mload(0x40)\n      dup1\n      swap2\n      sub\n      swap1\n      revert\n    tag_59:\n        /* \"contracts/noteStudent.sol\":2653:2655  10 */\n      0x0a\n        /* \"contracts/noteStudent.sol\":2628:2649  averageStudent(_name) */\n      tag_63\n        /* \"contracts/noteStudent.sol\":2643:2648  _name */\n      dup4\n        /* \"contracts/noteStudent.sol\":2628:2642  averageStudent */\n      tag_31\n        /* \"contracts/noteStudent.sol\":2628:2649  averageStudent(_name) */\n      jump\t// in\n    tag_63:\n        /* \"contracts/noteStudent.sol\":2628:2655  averageStudent(_name) >= 10 */\n      lt\n      iszero\n        /* \"contracts/noteStudent.sol\":2621:2655  return averageStudent(_name) >= 10 */\n      swap1\n      pop\n        /* \"contracts/noteStudent.sol\":2533:2662  function isPassing(string memory _name) external view isTeacher returns(bool) {... */\n      swap2\n      swap1\n      pop\n      jump\t// out\n        /* \"contracts/noteStudent.sol\":2668:3281  function averageClassForCourse(string memory _course) external view returns(uint) {... */\n    tag_23:\n        /* \"contracts/noteStudent.sol\":2744:2748  uint */\n      0x00\n        /* \"contracts/noteStudent.sol\":2760:2768  uint sum */\n      dup1\n        /* \"contracts/noteStudent.sol\":2778:2788  uint count */\n      0x00\n        /* \"contracts/noteStudent.sol\":2804:2810  uint i */\n      dup1\n        /* \"contracts/noteStudent.sol\":2813:2814  0 */\n      0x00\n        /* \"contracts/noteStudent.sol\":2804:2814  uint i = 0 */\n      swap1\n      pop\n        /* \"contracts/noteStudent.sol\":2799:3195  for (uint i = 0; i < students.length; i++) {... */\n    tag_65:\n        /* \"contracts/noteStudent.sol\":2820:2828  students */\n      0x02\n        /* \"contracts/noteStudent.sol\":2820:2835  students.length */\n      dup1\n      sload\n      swap1\n      pop\n        /* \"contracts/noteStudent.sol\":2816:2817  i */\n      dup2\n        /* \"contracts/noteStudent.sol\":2816:2835  i < students.length */\n      lt\n        /* \"contracts/noteStudent.sol\":2799:3195  for (uint i = 0; i < students.length; i++) {... */\n      iszero\n      tag_66\n      jumpi\n        /* \"contracts/noteStudent.sol\":2860:2893  stringsEquals(_course, \"biology\") */\n      tag_68\n        /* \"contracts/noteStudent.sol\":2874:2881  _course */\n      dup6\n        /* \"contracts/noteStudent.sol\":2860:2893  stringsEquals(_course, \"biology\") */\n      mload(0x40)\n      dup1\n      0x40\n      add\n      0x40\n      mstore\n      dup1\n      0x07\n      dup2\n      mstore\n      0x20\n      add\n      0x62696f6c6f677900000000000000000000000000000000000000000000000000\n      dup2\n      mstore\n      pop\n        /* \"contracts/noteStudent.sol\":2860:2873  stringsEquals */\n      tag_69\n        /* \"contracts/noteStudent.sol\":2860:2893  stringsEquals(_course, \"biology\") */\n      jump\t// in\n    tag_68:\n        /* \"contracts/noteStudent.sol\":2856:3164  if (stringsEquals(_course, \"biology\")) {... */\n      iszero\n      tag_70\n      jumpi\n        /* \"contracts/noteStudent.sol\":2920:2928  students */\n      0x02\n        /* \"contracts/noteStudent.sol\":2929:2930  i */\n      dup2\n        /* \"contracts/noteStudent.sol\":2920:2931  students[i] */\n      dup2\n      sload\n      dup2\n      lt\n      tag_71\n      jumpi\n      tag_72\n      tag_73\n      jump\t// in\n    tag_72:\n    tag_71:\n      swap1\n      0x00\n      mstore\n      keccak256(0x00, 0x20)\n      swap1\n      0x04\n      mul\n      add\n        /* \"contracts/noteStudent.sol\":2920:2943  students[i].noteBiology */\n      0x01\n      add\n      sload\n        /* \"contracts/noteStudent.sol\":2913:2943  sum += students[i].noteBiology */\n      dup4\n      tag_75\n      swap2\n      swap1\n      tag_76\n      jump\t// in\n    tag_75:\n      swap3\n      pop\n        /* \"contracts/noteStudent.sol\":2856:3164  if (stringsEquals(_course, \"biology\")) {... */\n      jump(tag_77)\n    tag_70:\n        /* \"contracts/noteStudent.sol\":2968:2999  stringsEquals(_course, \"maths\") */\n      tag_78\n        /* \"contracts/noteStudent.sol\":2982:2989  _course */\n      dup6\n        /* \"contracts/noteStudent.sol\":2968:2999  stringsEquals(_course, \"maths\") */\n      mload(0x40)\n      dup1\n      0x40\n      add\n      0x40\n      mstore\n      dup1\n      0x05\n      dup2\n      mstore\n      0x20\n      add\n      0x6d61746873000000000000000000000000000000000000000000000000000000\n      dup2\n      mstore\n      pop\n        /* \"contracts/noteStudent.sol\":2968:2981  stringsEquals */\n      tag_69\n        /* \"contracts/noteStudent.sol\":2968:2999  stringsEquals(_course, \"maths\") */\n      jump\t// in\n    tag_78:\n        /* \"contracts/noteStudent.sol\":2964:3164  if (stringsEquals(_course, \"maths\")) {... */\n      iszero\n      tag_79\n      jumpi\n        /* \"contracts/noteStudent.sol\":3026:3034  students */\n      0x02\n        /* \"contracts/noteStudent.sol\":3035:3036  i */\n      dup2\n        /* \"contracts/noteStudent.sol\":3026:3037  students[i] */\n      dup2\n      sload\n      dup2\n      lt\n      tag_80\n      jumpi\n      tag_81\n      tag_73\n      jump\t// in\n    tag_81:\n    tag_80:\n      swap1\n      0x00\n      mstore\n      keccak256(0x00, 0x20)\n      swap1\n      0x04\n      mul\n      add\n        /* \"contracts/noteStudent.sol\":3026:3047  students[i].noteMaths */\n      0x02\n      add\n      sload\n        /* \"contracts/noteStudent.sol\":3019:3047  sum += students[i].noteMaths */\n      dup4\n      tag_83\n      swap2\n      swap1\n      tag_76\n      jump\t// in\n    tag_83:\n      swap3\n      pop\n        /* \"contracts/noteStudent.sol\":2964:3164  if (stringsEquals(_course, \"maths\")) {... */\n      jump(tag_84)\n    tag_79:\n        /* \"contracts/noteStudent.sol\":3072:3104  stringsEquals(_course, \"french\") */\n      tag_85\n        /* \"contracts/noteStudent.sol\":3086:3093  _course */\n      dup6\n        /* \"contracts/noteStudent.sol\":3072:3104  stringsEquals(_course, \"french\") */\n      mload(0x40)\n      dup1\n      0x40\n      add\n      0x40\n      mstore\n      dup1\n      0x06\n      dup2\n      mstore\n      0x20\n      add\n      0x6672656e63680000000000000000000000000000000000000000000000000000\n      dup2\n      mstore\n      pop\n        /* \"contracts/noteStudent.sol\":3072:3085  stringsEquals */\n      tag_69\n        /* \"contracts/noteStudent.sol\":3072:3104  stringsEquals(_course, \"french\") */\n      jump\t// in\n    tag_85:\n        /* \"contracts/noteStudent.sol\":3068:3164  if (stringsEquals(_course, \"french\")) {... */\n      iszero\n      tag_86\n      jumpi\n        /* \"contracts/noteStudent.sol\":3131:3139  students */\n      0x02\n        /* \"contracts/noteStudent.sol\":3140:3141  i */\n      dup2\n        /* \"contracts/noteStudent.sol\":3131:3142  students[i] */\n      dup2\n      sload\n      dup2\n      lt\n      tag_87\n      jumpi\n      tag_88\n      tag_73\n      jump\t// in\n    tag_88:\n    tag_87:\n      swap1\n      0x00\n      mstore\n      keccak256(0x00, 0x20)\n      swap1\n      0x04\n      mul\n      add\n        /* \"contracts/noteStudent.sol\":3131:3149  students[i].noteFr */\n      0x03\n      add\n      sload\n        /* \"contracts/noteStudent.sol\":3124:3149  sum += students[i].noteFr */\n      dup4\n      tag_90\n      swap2\n      swap1\n      tag_76\n      jump\t// in\n    tag_90:\n      swap3\n      pop\n        /* \"contracts/noteStudent.sol\":3068:3164  if (stringsEquals(_course, \"french\")) {... */\n    tag_86:\n        /* \"contracts/noteStudent.sol\":2964:3164  if (stringsEquals(_course, \"maths\")) {... */\n    tag_84:\n        /* \"contracts/noteStudent.sol\":2856:3164  if (stringsEquals(_course, \"biology\")) {... */\n    tag_77:\n        /* \"contracts/noteStudent.sol\":3177:3184  count++ */\n      dup2\n      dup1\n      tag_91\n      swap1\n      tag_92\n      jump\t// in\n    tag_91:\n      swap3\n      pop\n      pop\n        /* \"contracts/noteStudent.sol\":2837:2840  i++ */\n      dup1\n      dup1\n      0x01\n      add\n      swap2\n      pop\n      pop\n        /* \"contracts/noteStudent.sol\":2799:3195  for (uint i = 0; i < students.length; i++) {... */\n      jump(tag_65)\n    tag_66:\n      pop\n        /* \"contracts/noteStudent.sol\":3220:3221  0 */\n      0x00\n        /* \"contracts/noteStudent.sol\":3212:3217  count */\n      dup2\n        /* \"contracts/noteStudent.sol\":3212:3221  count > 0 */\n      gt\n        /* \"contracts/noteStudent.sol\":3204:3246  require(count > 0, \"No students in class\") */\n      tag_93\n      jumpi\n      mload(0x40)\n      0x08c379a000000000000000000000000000000000000000000000000000000000\n      dup2\n      mstore\n      0x04\n      add\n      tag_94\n      swap1\n      tag_95\n      jump\t// in\n    tag_94:\n      mload(0x40)\n      dup1\n      swap2\n      sub\n      swap1\n      revert\n    tag_93:\n        /* \"contracts/noteStudent.sol\":3269:3274  count */\n      dup1\n        /* \"contracts/noteStudent.sol\":3263:3266  sum */\n      dup3\n        /* \"contracts/noteStudent.sol\":3263:3274  sum / count */\n      tag_96\n      swap2\n      swap1\n      tag_97\n      jump\t// in\n    tag_96:\n        /* \"contracts/noteStudent.sol\":3256:3274  return sum / count */\n      swap3\n      pop\n      pop\n      pop\n        /* \"contracts/noteStudent.sol\":2668:3281  function averageClassForCourse(string memory _course) external view returns(uint) {... */\n      swap2\n      swap1\n      pop\n      jump\t// out\n        /* \"contracts/noteStudent.sol\":3287:3695  function averageClass() external view returns(uint) {... */\n    tag_27:\n        /* \"contracts/noteStudent.sol\":3333:3337  uint */\n      0x00\n        /* \"contracts/noteStudent.sol\":3349:3364  uint totalNotes */\n      dup1\n        /* \"contracts/noteStudent.sol\":3374:3392  uint totalStudents */\n      0x00\n        /* \"contracts/noteStudent.sol\":3408:3414  uint i */\n      dup1\n        /* \"contracts/noteStudent.sol\":3417:3418  0 */\n      0x00\n        /* \"contracts/noteStudent.sol\":3408:3418  uint i = 0 */\n      swap1\n      pop\n        /* \"contracts/noteStudent.sol\":3403:3585  for (uint i = 0; i < students.length; i++) {... */\n    tag_99:\n        /* \"contracts/noteStudent.sol\":3424:3432  students */\n      0x02\n        /* \"contracts/noteStudent.sol\":3424:3439  students.length */\n      dup1\n      sload\n      swap1\n      pop\n        /* \"contracts/noteStudent.sol\":3420:3421  i */\n      dup2\n        /* \"contracts/noteStudent.sol\":3420:3439  i < students.length */\n      lt\n        /* \"contracts/noteStudent.sol\":3403:3585  for (uint i = 0; i < students.length; i++) {... */\n      iszero\n      tag_100\n      jumpi\n        /* \"contracts/noteStudent.sol\":3524:3532  students */\n      0x02\n        /* \"contracts/noteStudent.sol\":3533:3534  i */\n      dup2\n        /* \"contracts/noteStudent.sol\":3524:3535  students[i] */\n      dup2\n      sload\n      dup2\n      lt\n      tag_102\n      jumpi\n      tag_103\n      tag_73\n      jump\t// in\n    tag_103:\n    tag_102:\n      swap1\n      0x00\n      mstore\n      keccak256(0x00, 0x20)\n      swap1\n      0x04\n      mul\n      add\n        /* \"contracts/noteStudent.sol\":3524:3542  students[i].noteFr */\n      0x03\n      add\n      sload\n        /* \"contracts/noteStudent.sol\":3500:3508  students */\n      0x02\n        /* \"contracts/noteStudent.sol\":3509:3510  i */\n      dup3\n        /* \"contracts/noteStudent.sol\":3500:3511  students[i] */\n      dup2\n      sload\n      dup2\n      lt\n      tag_105\n      jumpi\n      tag_106\n      tag_73\n      jump\t// in\n    tag_106:\n    tag_105:\n      swap1\n      0x00\n      mstore\n      keccak256(0x00, 0x20)\n      swap1\n      0x04\n      mul\n      add\n        /* \"contracts/noteStudent.sol\":3500:3521  students[i].noteMaths */\n      0x02\n      add\n      sload\n        /* \"contracts/noteStudent.sol\":3474:3482  students */\n      0x02\n        /* \"contracts/noteStudent.sol\":3483:3484  i */\n      dup4\n        /* \"contracts/noteStudent.sol\":3474:3485  students[i] */\n      dup2\n      sload\n      dup2\n      lt\n      tag_108\n      jumpi\n      tag_109\n      tag_73\n      jump\t// in\n    tag_109:\n    tag_108:\n      swap1\n      0x00\n      mstore\n      keccak256(0x00, 0x20)\n      swap1\n      0x04\n      mul\n      add\n        /* \"contracts/noteStudent.sol\":3474:3497  students[i].noteBiology */\n      0x01\n      add\n      sload\n        /* \"contracts/noteStudent.sol\":3474:3521  students[i].noteBiology + students[i].noteMaths */\n      tag_111\n      swap2\n      swap1\n      tag_76\n      jump\t// in\n    tag_111:\n        /* \"contracts/noteStudent.sol\":3474:3542  students[i].noteBiology + students[i].noteMaths + students[i].noteFr */\n      tag_112\n      swap2\n      swap1\n      tag_76\n      jump\t// in\n    tag_112:\n        /* \"contracts/noteStudent.sol\":3460:3542  totalNotes += students[i].noteBiology + students[i].noteMaths + students[i].noteFr */\n      dup4\n      tag_113\n      swap2\n      swap1\n      tag_76\n      jump\t// in\n    tag_113:\n      swap3\n      pop\n        /* \"contracts/noteStudent.sol\":3573:3574  3 */\n      0x03\n        /* \"contracts/noteStudent.sol\":3556:3574  totalStudents += 3 */\n      dup3\n      tag_114\n      swap2\n      swap1\n      tag_76\n      jump\t// in\n    tag_114:\n      swap2\n      pop\n        /* \"contracts/noteStudent.sol\":3441:3444  i++ */\n      dup1\n      dup1\n      0x01\n      add\n      swap2\n      pop\n      pop\n        /* \"contracts/noteStudent.sol\":3403:3585  for (uint i = 0; i < students.length; i++) {... */\n      jump(tag_99)\n    tag_100:\n      pop\n        /* \"contracts/noteStudent.sol\":3619:3620  0 */\n      0x00\n        /* \"contracts/noteStudent.sol\":3603:3616  totalStudents */\n      dup2\n        /* \"contracts/noteStudent.sol\":3603:3620  totalStudents > 0 */\n      gt\n        /* \"contracts/noteStudent.sol\":3595:3645  require(totalStudents > 0, \"No students in class\") */\n      tag_115\n      jumpi\n      mload(0x40)\n      0x08c379a000000000000000000000000000000000000000000000000000000000\n      dup2\n      mstore\n      0x04\n      add\n      tag_116\n      swap1\n      tag_95\n      jump\t// in\n    tag_116:\n      mload(0x40)\n      dup1\n      swap2\n      sub\n      swap1\n      revert\n    tag_115:\n        /* \"contracts/noteStudent.sol\":3675:3688  totalStudents */\n      dup1\n        /* \"contracts/noteStudent.sol\":3662:3672  totalNotes */\n      dup3\n        /* \"contracts/noteStudent.sol\":3662:3688  totalNotes / totalStudents */\n      tag_117\n      swap2\n      swap1\n      tag_97\n      jump\t// in\n    tag_117:\n        /* \"contracts/noteStudent.sol\":3655:3688  return totalNotes / totalStudents */\n      swap3\n      pop\n      pop\n      pop\n        /* \"contracts/noteStudent.sol\":3287:3695  function averageClass() external view returns(uint) {... */\n      swap1\n      jump\t// out\n        /* \"contracts/noteStudent.sol\":2272:2527  function averageStudent(string memory _name) public view isTeacher returns(uint) {... */\n    tag_31:\n        /* \"contracts/noteStudent.sol\":2347:2351  uint */\n      0x00\n        /* \"contracts/noteStudent.sol\":409:417  teachers */\n      0x01\n        /* \"contracts/noteStudent.sol\":409:429  teachers[msg.sender] */\n      0x00\n        /* \"contracts/noteStudent.sol\":418:428  msg.sender */\n      caller\n        /* \"contracts/noteStudent.sol\":409:429  teachers[msg.sender] */\n      0xffffffffffffffffffffffffffffffffffffffff\n      and\n      0xffffffffffffffffffffffffffffffffffffffff\n      and\n      dup2\n      mstore\n      0x20\n      add\n      swap1\n      dup2\n      mstore\n      0x20\n      add\n      0x00\n      keccak256\n      0x00\n      swap1\n      sload\n      swap1\n      0x0100\n      exp\n      swap1\n      div\n      0xff\n      and\n        /* \"contracts/noteStudent.sol\":401:447  require(teachers[msg.sender], \"Not a teacher\") */\n      tag_119\n      jumpi\n      mload(0x40)\n      0x08c379a000000000000000000000000000000000000000000000000000000000\n      dup2\n      mstore\n      0x04\n      add\n      tag_120\n      swap1\n      tag_61\n      jump\t// in\n    tag_120:\n      mload(0x40)\n      dup1\n      swap2\n      sub\n      swap1\n      revert\n    tag_119:\n        /* \"contracts/noteStudent.sol\":2363:2377  uint idStudent */\n      0x00\n        /* \"contracts/noteStudent.sol\":2380:2405  getStudentFromName(_name) */\n      tag_122\n        /* \"contracts/noteStudent.sol\":2399:2404  _name */\n      dup4\n        /* \"contracts/noteStudent.sol\":2380:2398  getStudentFromName */\n      tag_123\n        /* \"contracts/noteStudent.sol\":2380:2405  getStudentFromName(_name) */\n      jump\t// in\n    tag_122:\n        /* \"contracts/noteStudent.sol\":2363:2405  uint idStudent = getStudentFromName(_name) */\n      swap1\n      pop\n        /* \"contracts/noteStudent.sol\":2519:2520  3 */\n      0x03\n        /* \"contracts/noteStudent.sol\":2489:2497  students */\n      0x02\n        /* \"contracts/noteStudent.sol\":2498:2507  idStudent */\n      dup3\n        /* \"contracts/noteStudent.sol\":2489:2508  students[idStudent] */\n      dup2\n      sload\n      dup2\n      lt\n      tag_124\n      jumpi\n      tag_125\n      tag_73\n      jump\t// in\n    tag_125:\n    tag_124:\n      swap1\n      0x00\n      mstore\n      keccak256(0x00, 0x20)\n      swap1\n      0x04\n      mul\n      add\n        /* \"contracts/noteStudent.sol\":2489:2515  students[idStudent].noteFr */\n      0x03\n      add\n      sload\n        /* \"contracts/noteStudent.sol\":2457:2465  students */\n      0x02\n        /* \"contracts/noteStudent.sol\":2466:2475  idStudent */\n      dup4\n        /* \"contracts/noteStudent.sol\":2457:2476  students[idStudent] */\n      dup2\n      sload\n      dup2\n      lt\n      tag_127\n      jumpi\n      tag_128\n      tag_73\n      jump\t// in\n    tag_128:\n    tag_127:\n      swap1\n      0x00\n      mstore\n      keccak256(0x00, 0x20)\n      swap1\n      0x04\n      mul\n      add\n        /* \"contracts/noteStudent.sol\":2457:2486  students[idStudent].noteMaths */\n      0x02\n      add\n      sload\n        /* \"contracts/noteStudent.sol\":2423:2431  students */\n      0x02\n        /* \"contracts/noteStudent.sol\":2432:2441  idStudent */\n      dup5\n        /* \"contracts/noteStudent.sol\":2423:2442  students[idStudent] */\n      dup2\n      sload\n      dup2\n      lt\n      tag_130\n      jumpi\n      tag_131\n      tag_73\n      jump\t// in\n    tag_131:\n    tag_130:\n      swap1\n      0x00\n      mstore\n      keccak256(0x00, 0x20)\n      swap1\n      0x04\n      mul\n      add\n        /* \"contracts/noteStudent.sol\":2423:2454  students[idStudent].noteBiology */\n      0x01\n      add\n      sload\n        /* \"contracts/noteStudent.sol\":2423:2486  students[idStudent].noteBiology + students[idStudent].noteMaths */\n      tag_133\n      swap2\n      swap1\n      tag_76\n      jump\t// in\n    tag_133:\n        /* \"contracts/noteStudent.sol\":2423:2515  students[idStudent].noteBiology + students[idStudent].noteMaths + students[idStudent].noteFr */\n      tag_134\n      swap2\n      swap1\n      tag_76\n      jump\t// in\n    tag_134:\n        /* \"contracts/noteStudent.sol\":2422:2520  (students[idStudent].noteBiology + students[idStudent].noteMaths + students[idStudent].noteFr) / 3 */\n      tag_135\n      swap2\n      swap1\n      tag_97\n      jump\t// in\n    tag_135:\n        /* \"contracts/noteStudent.sol\":2415:2520  return (students[idStudent].noteBiology + students[idStudent].noteMaths + students[idStudent].noteFr) / 3 */\n      swap2\n      pop\n      pop\n        /* \"contracts/noteStudent.sol\":2272:2527  function averageStudent(string memory _name) public view isTeacher returns(uint) {... */\n      swap2\n      swap1\n      pop\n      jump\t// out\n        /* \"contracts/noteStudent.sol\":1206:1736  function setNote(string memory _name, string memory _course, uint _note) external isTeacher {... */\n    tag_36:\n        /* \"contracts/noteStudent.sol\":409:417  teachers */\n      0x01\n        /* \"contracts/noteStudent.sol\":409:429  teachers[msg.sender] */\n      0x00\n        /* \"contracts/noteStudent.sol\":418:428  msg.sender */\n      caller\n        /* \"contracts/noteStudent.sol\":409:429  teachers[msg.sender] */\n      0xffffffffffffffffffffffffffffffffffffffff\n      and\n      0xffffffffffffffffffffffffffffffffffffffff\n      and\n      dup2\n      mstore\n      0x20\n      add\n      swap1\n      dup2\n      mstore\n      0x20\n      add\n      0x00\n      keccak256\n      0x00\n      swap1\n      sload\n      swap1\n      0x0100\n      exp\n      swap1\n      div\n      0xff\n      and\n        /* \"contracts/noteStudent.sol\":401:447  require(teachers[msg.sender], \"Not a teacher\") */\n      tag_137\n      jumpi\n      mload(0x40)\n      0x08c379a000000000000000000000000000000000000000000000000000000000\n      dup2\n      mstore\n      0x04\n      add\n      tag_138\n      swap1\n      tag_61\n      jump\t// in\n    tag_138:\n      mload(0x40)\n      dup1\n      swap2\n      sub\n      swap1\n      revert\n    tag_137:\n        /* \"contracts/noteStudent.sol\":1308:1322  uint idStudent */\n      0x00\n        /* \"contracts/noteStudent.sol\":1325:1350  getStudentFromName(_name) */\n      tag_140\n        /* \"contracts/noteStudent.sol\":1344:1349  _name */\n      dup5\n        /* \"contracts/noteStudent.sol\":1325:1343  getStudentFromName */\n      tag_123\n        /* \"contracts/noteStudent.sol\":1325:1350  getStudentFromName(_name) */\n      jump\t// in\n    tag_140:\n        /* \"contracts/noteStudent.sol\":1308:1350  uint idStudent = getStudentFromName(_name) */\n      swap1\n      pop\n        /* \"contracts/noteStudent.sol\":1364:1397  stringsEquals(_course, \"biology\") */\n      tag_141\n        /* \"contracts/noteStudent.sol\":1378:1385  _course */\n      dup4\n        /* \"contracts/noteStudent.sol\":1364:1397  stringsEquals(_course, \"biology\") */\n      mload(0x40)\n      dup1\n      0x40\n      add\n      0x40\n      mstore\n      dup1\n      0x07\n      dup2\n      mstore\n      0x20\n      add\n      0x62696f6c6f677900000000000000000000000000000000000000000000000000\n      dup2\n      mstore\n      pop\n        /* \"contracts/noteStudent.sol\":1364:1377  stringsEquals */\n      tag_69\n        /* \"contracts/noteStudent.sol\":1364:1397  stringsEquals(_course, \"biology\") */\n      jump\t// in\n    tag_141:\n        /* \"contracts/noteStudent.sol\":1360:1730  if (stringsEquals(_course, \"biology\")) {... */\n      iszero\n      tag_142\n      jumpi\n        /* \"contracts/noteStudent.sol\":1447:1452  _note */\n      dup2\n        /* \"contracts/noteStudent.sol\":1413:1421  students */\n      0x02\n        /* \"contracts/noteStudent.sol\":1422:1431  idStudent */\n      dup3\n        /* \"contracts/noteStudent.sol\":1413:1432  students[idStudent] */\n      dup2\n      sload\n      dup2\n      lt\n      tag_143\n      jumpi\n      tag_144\n      tag_73\n      jump\t// in\n    tag_144:\n    tag_143:\n      swap1\n      0x00\n      mstore\n      keccak256(0x00, 0x20)\n      swap1\n      0x04\n      mul\n      add\n        /* \"contracts/noteStudent.sol\":1413:1444  students[idStudent].noteBiology */\n      0x01\n      add\n        /* \"contracts/noteStudent.sol\":1413:1452  students[idStudent].noteBiology = _note */\n      dup2\n      swap1\n      sstore\n      pop\n        /* \"contracts/noteStudent.sol\":1360:1730  if (stringsEquals(_course, \"biology\")) {... */\n      jump(tag_146)\n    tag_142:\n        /* \"contracts/noteStudent.sol\":1473:1504  stringsEquals(_course, \"maths\") */\n      tag_147\n        /* \"contracts/noteStudent.sol\":1487:1494  _course */\n      dup4\n        /* \"contracts/noteStudent.sol\":1473:1504  stringsEquals(_course, \"maths\") */\n      mload(0x40)\n      dup1\n      0x40\n      add\n      0x40\n      mstore\n      dup1\n      0x05\n      dup2\n      mstore\n      0x20\n      add\n      0x6d61746873000000000000000000000000000000000000000000000000000000\n      dup2\n      mstore\n      pop\n        /* \"contracts/noteStudent.sol\":1473:1486  stringsEquals */\n      tag_69\n        /* \"contracts/noteStudent.sol\":1473:1504  stringsEquals(_course, \"maths\") */\n      jump\t// in\n    tag_147:\n        /* \"contracts/noteStudent.sol\":1469:1730  if (stringsEquals(_course, \"maths\")) {... */\n      iszero\n      tag_148\n      jumpi\n        /* \"contracts/noteStudent.sol\":1552:1557  _note */\n      dup2\n        /* \"contracts/noteStudent.sol\":1520:1528  students */\n      0x02\n        /* \"contracts/noteStudent.sol\":1529:1538  idStudent */\n      dup3\n        /* \"contracts/noteStudent.sol\":1520:1539  students[idStudent] */\n      dup2\n      sload\n      dup2\n      lt\n      tag_149\n      jumpi\n      tag_150\n      tag_73\n      jump\t// in\n    tag_150:\n    tag_149:\n      swap1\n      0x00\n      mstore\n      keccak256(0x00, 0x20)\n      swap1\n      0x04\n      mul\n      add\n        /* \"contracts/noteStudent.sol\":1520:1549  students[idStudent].noteMaths */\n      0x02\n      add\n        /* \"contracts/noteStudent.sol\":1520:1557  students[idStudent].noteMaths = _note */\n      dup2\n      swap1\n      sstore\n      pop\n        /* \"contracts/noteStudent.sol\":1469:1730  if (stringsEquals(_course, \"maths\")) {... */\n      jump(tag_152)\n    tag_148:\n        /* \"contracts/noteStudent.sol\":1578:1610  stringsEquals(_course, \"french\") */\n      tag_153\n        /* \"contracts/noteStudent.sol\":1592:1599  _course */\n      dup4\n        /* \"contracts/noteStudent.sol\":1578:1610  stringsEquals(_course, \"french\") */\n      mload(0x40)\n      dup1\n      0x40\n      add\n      0x40\n      mstore\n      dup1\n      0x06\n      dup2\n      mstore\n      0x20\n      add\n      0x6672656e63680000000000000000000000000000000000000000000000000000\n      dup2\n      mstore\n      pop\n        /* \"contracts/noteStudent.sol\":1578:1591  stringsEquals */\n      tag_69\n        /* \"contracts/noteStudent.sol\":1578:1610  stringsEquals(_course, \"french\") */\n      jump\t// in\n    tag_153:\n        /* \"contracts/noteStudent.sol\":1574:1730  if (stringsEquals(_course, \"french\")) {... */\n      iszero\n      tag_154\n      jumpi\n        /* \"contracts/noteStudent.sol\":1655:1660  _note */\n      dup2\n        /* \"contracts/noteStudent.sol\":1626:1634  students */\n      0x02\n        /* \"contracts/noteStudent.sol\":1635:1644  idStudent */\n      dup3\n        /* \"contracts/noteStudent.sol\":1626:1645  students[idStudent] */\n      dup2\n      sload\n      dup2\n      lt\n      tag_155\n      jumpi\n      tag_156\n      tag_73\n      jump\t// in\n    tag_156:\n    tag_155:\n      swap1\n      0x00\n      mstore\n      keccak256(0x00, 0x20)\n      swap1\n      0x04\n      mul\n      add\n        /* \"contracts/noteStudent.sol\":1626:1652  students[idStudent].noteFr */\n      0x03\n      add\n        /* \"contracts/noteStudent.sol\":1626:1660  students[idStudent].noteFr = _note */\n      dup2\n      swap1\n      sstore\n      pop\n        /* \"contracts/noteStudent.sol\":1574:1730  if (stringsEquals(_course, \"french\")) {... */\n      jump(tag_158)\n    tag_154:\n        /* \"contracts/noteStudent.sol\":1691:1719  revert(\"Type a real course\") */\n      mload(0x40)\n      0x08c379a000000000000000000000000000000000000000000000000000000000\n      dup2\n      mstore\n      0x04\n      add\n      tag_159\n      swap1\n      tag_160\n      jump\t// in\n    tag_159:\n      mload(0x40)\n      dup1\n      swap2\n      sub\n      swap1\n      revert\n        /* \"contracts/noteStudent.sol\":1574:1730  if (stringsEquals(_course, \"french\")) {... */\n    tag_158:\n        /* \"contracts/noteStudent.sol\":1469:1730  if (stringsEquals(_course, \"maths\")) {... */\n    tag_152:\n        /* \"contracts/noteStudent.sol\":1360:1730  if (stringsEquals(_course, \"biology\")) {... */\n    tag_146:\n        /* \"contracts/noteStudent.sol\":1298:1736  {... */\n      pop\n        /* \"contracts/noteStudent.sol\":1206:1736  function setNote(string memory _name, string memory _course, uint _note) external isTeacher {... */\n      pop\n      pop\n      pop\n      jump\t// out\n        /* \"contracts/noteStudent.sol\":471:584  function addTeacher(address _teacherAddress) external onlyOwner {... */\n    tag_40:\n        /* \"@openzeppelin/contracts/access/Ownable.sol\":1531:1544  _checkOwner() */\n      tag_162\n        /* \"@openzeppelin/contracts/access/Ownable.sol\":1531:1542  _checkOwner */\n      tag_163\n        /* \"@openzeppelin/contracts/access/Ownable.sol\":1531:1544  _checkOwner() */\n      jump\t// in\n    tag_162:\n        /* \"contracts/noteStudent.sol\":573:577  true */\n      0x01\n        /* \"contracts/noteStudent.sol\":545:553  teachers */\n      dup1\n        /* \"contracts/noteStudent.sol\":545:570  teachers[_teacherAddress] */\n      0x00\n        /* \"contracts/noteStudent.sol\":554:569  _teacherAddress */\n      dup4\n        /* \"contracts/noteStudent.sol\":545:570  teachers[_teacherAddress] */\n      0xffffffffffffffffffffffffffffffffffffffff\n      and\n      0xffffffffffffffffffffffffffffffffffffffff\n      and\n      dup2\n      mstore\n      0x20\n      add\n      swap1\n      dup2\n      mstore\n      0x20\n      add\n      0x00\n      keccak256\n      0x00\n        /* \"contracts/noteStudent.sol\":545:577  teachers[_teacherAddress] = true */\n      0x0100\n      exp\n      dup2\n      sload\n      dup2\n      0xff\n      mul\n      not\n      and\n      swap1\n      dup4\n      iszero\n      iszero\n      mul\n      or\n      swap1\n      sstore\n      pop\n        /* \"contracts/noteStudent.sol\":471:584  function addTeacher(address _teacherAddress) external onlyOwner {... */\n      pop\n      jump\t// out\n        /* \"contracts/noteStudent.sol\":590:705  function addStudent(string memory _name) external isTeacher {... */\n    tag_43:\n        /* \"contracts/noteStudent.sol\":409:417  teachers */\n      0x01\n        /* \"contracts/noteStudent.sol\":409:429  teachers[msg.sender] */\n      0x00\n        /* \"contracts/noteStudent.sol\":418:428  msg.sender */\n      caller\n        /* \"contracts/noteStudent.sol\":409:429  teachers[msg.sender] */\n      0xffffffffffffffffffffffffffffffffffffffff\n      and\n      0xffffffffffffffffffffffffffffffffffffffff\n      and\n      dup2\n      mstore\n      0x20\n      add\n      swap1\n      dup2\n      mstore\n      0x20\n      add\n      0x00\n      keccak256\n      0x00\n      swap1\n      sload\n      swap1\n      0x0100\n      exp\n      swap1\n      div\n      0xff\n      and\n        /* \"contracts/noteStudent.sol\":401:447  require(teachers[msg.sender], \"Not a teacher\") */\n      tag_166\n      jumpi\n      mload(0x40)\n      0x08c379a000000000000000000000000000000000000000000000000000000000\n      dup2\n      mstore\n      0x04\n      add\n      tag_167\n      swap1\n      tag_61\n      jump\t// in\n    tag_167:\n      mload(0x40)\n      dup1\n      swap2\n      sub\n      swap1\n      revert\n    tag_166:\n        /* \"contracts/noteStudent.sol\":660:668  students */\n      0x02\n        /* \"contracts/noteStudent.sol\":674:697  Student(_name, 0, 0, 0) */\n      mload(0x40)\n      dup1\n      0x80\n      add\n      0x40\n      mstore\n      dup1\n        /* \"contracts/noteStudent.sol\":682:687  _name */\n      dup4\n        /* \"contracts/noteStudent.sol\":674:697  Student(_name, 0, 0, 0) */\n      dup2\n      mstore\n      0x20\n      add\n        /* \"contracts/noteStudent.sol\":689:690  0 */\n      0x00\n        /* \"contracts/noteStudent.sol\":674:697  Student(_name, 0, 0, 0) */\n      dup2\n      mstore\n      0x20\n      add\n        /* \"contracts/noteStudent.sol\":692:693  0 */\n      0x00\n        /* \"contracts/noteStudent.sol\":674:697  Student(_name, 0, 0, 0) */\n      dup2\n      mstore\n      0x20\n      add\n        /* \"contracts/noteStudent.sol\":695:696  0 */\n      0x00\n        /* \"contracts/noteStudent.sol\":674:697  Student(_name, 0, 0, 0) */\n      dup2\n      mstore\n      pop\n        /* \"contracts/noteStudent.sol\":660:698  students.push(Student(_name, 0, 0, 0)) */\n      swap1\n      dup1\n      0x01\n      dup2\n      sload\n      add\n      dup1\n      dup3\n      sstore\n      dup1\n      swap2\n      pop\n      pop\n      0x01\n      swap1\n      sub\n      swap1\n      0x00\n      mstore\n      keccak256(0x00, 0x20)\n      swap1\n      0x04\n      mul\n      add\n      0x00\n      swap1\n      swap2\n      swap1\n      swap2\n      swap1\n      swap2\n      pop\n      0x00\n      dup3\n      add\n      mload\n      dup2\n      0x00\n      add\n      swap1\n      dup2\n      tag_170\n      swap2\n      swap1\n      tag_171\n      jump\t// in\n    tag_170:\n      pop\n      0x20\n      dup3\n      add\n      mload\n      dup2\n      0x01\n      add\n      sstore\n      0x40\n      dup3\n      add\n      mload\n      dup2\n      0x02\n      add\n      sstore\n      0x60\n      dup3\n      add\n      mload\n      dup2\n      0x03\n      add\n      sstore\n      pop\n      pop\n        /* \"contracts/noteStudent.sol\":590:705  function addStudent(string memory _name) external isTeacher {... */\n      pop\n      jump\t// out\n        /* \"@openzeppelin/contracts/access/Ownable.sol\":2293:2394  function renounceOwnership() public virtual onlyOwner {... */\n    tag_45:\n        /* \"@openzeppelin/contracts/access/Ownable.sol\":1531:1544  _checkOwner() */\n      tag_173\n        /* \"@openzeppelin/contracts/access/Ownable.sol\":1531:1542  _checkOwner */\n      tag_163\n        /* \"@openzeppelin/contracts/access/Ownable.sol\":1531:1544  _checkOwner() */\n      jump\t// in\n    tag_173:\n        /* \"@openzeppelin/contracts/access/Ownable.sol\":2357:2387  _transferOwnership(address(0)) */\n      tag_175\n        /* \"@openzeppelin/contracts/access/Ownable.sol\":2384:2385  0 */\n      0x00\n        /* \"@openzeppelin/contracts/access/Ownable.sol\":2357:2375  _transferOwnership */\n      tag_176\n        /* \"@openzeppelin/contracts/access/Ownable.sol\":2357:2387  _transferOwnership(address(0)) */\n      jump\t// in\n    tag_175:\n        /* \"@openzeppelin/contracts/access/Ownable.sol\":2293:2394  function renounceOwnership() public virtual onlyOwner {... */\n      jump\t// out\n        /* \"@openzeppelin/contracts/access/Ownable.sol\":1638:1723  function owner() public view virtual returns (address) {... */\n    tag_47:\n        /* \"@openzeppelin/contracts/access/Ownable.sol\":1684:1691  address */\n      0x00\n        /* \"@openzeppelin/contracts/access/Ownable.sol\":1710:1716  _owner */\n      dup1\n      0x00\n      swap1\n      sload\n      swap1\n      0x0100\n      exp\n      swap1\n      div\n      0xffffffffffffffffffffffffffffffffffffffff\n      and\n        /* \"@openzeppelin/contracts/access/Ownable.sol\":1703:1716  return _owner */\n      swap1\n      pop\n        /* \"@openzeppelin/contracts/access/Ownable.sol\":1638:1723  function owner() public view virtual returns (address) {... */\n      swap1\n      jump\t// out\n        /* \"@openzeppelin/contracts/access/Ownable.sol\":2543:2758  function transferOwnership(address newOwner) public virtual onlyOwner {... */\n    tag_52:\n        /* \"@openzeppelin/contracts/access/Ownable.sol\":1531:1544  _checkOwner() */\n      tag_179\n        /* \"@openzeppelin/contracts/access/Ownable.sol\":1531:1542  _checkOwner */\n      tag_163\n        /* \"@openzeppelin/contracts/access/Ownable.sol\":1531:1544  _checkOwner() */\n      jump\t// in\n    tag_179:\n        /* \"@openzeppelin/contracts/access/Ownable.sol\":2647:2648  0 */\n      0x00\n        /* \"@openzeppelin/contracts/access/Ownable.sol\":2627:2649  newOwner == address(0) */\n      0xffffffffffffffffffffffffffffffffffffffff\n      and\n        /* \"@openzeppelin/contracts/access/Ownable.sol\":2627:2635  newOwner */\n      dup2\n        /* \"@openzeppelin/contracts/access/Ownable.sol\":2627:2649  newOwner == address(0) */\n      0xffffffffffffffffffffffffffffffffffffffff\n      and\n      sub\n        /* \"@openzeppelin/contracts/access/Ownable.sol\":2623:2714  if (newOwner == address(0)) {... */\n      tag_181\n      jumpi\n        /* \"@openzeppelin/contracts/access/Ownable.sol\":2700:2701  0 */\n      0x00\n        /* \"@openzeppelin/contracts/access/Ownable.sol\":2672:2703  OwnableInvalidOwner(address(0)) */\n      mload(0x40)\n      0x1e4fbdf700000000000000000000000000000000000000000000000000000000\n      dup2\n      mstore\n      0x04\n      add\n      tag_182\n      swap2\n      swap1\n      tag_49\n      jump\t// in\n    tag_182:\n      mload(0x40)\n      dup1\n      swap2\n      sub\n      swap1\n      revert\n        /* \"@openzeppelin/contracts/access/Ownable.sol\":2623:2714  if (newOwner == address(0)) {... */\n    tag_181:\n        /* \"@openzeppelin/contracts/access/Ownable.sol\":2723:2751  _transferOwnership(newOwner) */\n      tag_183\n        /* \"@openzeppelin/contracts/access/Ownable.sol\":2742:2750  newOwner */\n      dup2\n        /* \"@openzeppelin/contracts/access/Ownable.sol\":2723:2741  _transferOwnership */\n      tag_176\n        /* \"@openzeppelin/contracts/access/Ownable.sol\":2723:2751  _transferOwnership(newOwner) */\n      jump\t// in\n    tag_183:\n        /* \"@openzeppelin/contracts/access/Ownable.sol\":2543:2758  function transferOwnership(address newOwner) public virtual onlyOwner {... */\n      pop\n      jump\t// out\n        /* \"contracts/noteStudent.sol\":1742:2266  function getNote(string memory _name, string memory _course) external view returns(uint) {... */\n    tag_56:\n        /* \"contracts/noteStudent.sol\":1825:1829  uint */\n      0x00\n        /* \"contracts/noteStudent.sol\":1841:1855  uint idStudent */\n      dup1\n        /* \"contracts/noteStudent.sol\":1858:1883  getStudentFromName(_name) */\n      tag_185\n        /* \"contracts/noteStudent.sol\":1877:1882  _name */\n      dup5\n        /* \"contracts/noteStudent.sol\":1858:1876  getStudentFromName */\n      tag_123\n        /* \"contracts/noteStudent.sol\":1858:1883  getStudentFromName(_name) */\n      jump\t// in\n    tag_185:\n        /* \"contracts/noteStudent.sol\":1841:1883  uint idStudent = getStudentFromName(_name) */\n      swap1\n      pop\n        /* \"contracts/noteStudent.sol\":1897:1930  stringsEquals(_course, \"biology\") */\n      tag_186\n        /* \"contracts/noteStudent.sol\":1911:1918  _course */\n      dup4\n        /* \"contracts/noteStudent.sol\":1897:1930  stringsEquals(_course, \"biology\") */\n      mload(0x40)\n      dup1\n      0x40\n      add\n      0x40\n      mstore\n      dup1\n      0x07\n      dup2\n      mstore\n      0x20\n      add\n      0x62696f6c6f677900000000000000000000000000000000000000000000000000\n      dup2\n      mstore\n      pop\n        /* \"contracts/noteStudent.sol\":1897:1910  stringsEquals */\n      tag_69\n        /* \"contracts/noteStudent.sol\":1897:1930  stringsEquals(_course, \"biology\") */\n      jump\t// in\n    tag_186:\n        /* \"contracts/noteStudent.sol\":1893:2260  if (stringsEquals(_course, \"biology\")) {... */\n      iszero\n      tag_187\n      jumpi\n        /* \"contracts/noteStudent.sol\":1953:1961  students */\n      0x02\n        /* \"contracts/noteStudent.sol\":1962:1971  idStudent */\n      dup2\n        /* \"contracts/noteStudent.sol\":1953:1972  students[idStudent] */\n      dup2\n      sload\n      dup2\n      lt\n      tag_188\n      jumpi\n      tag_189\n      tag_73\n      jump\t// in\n    tag_189:\n    tag_188:\n      swap1\n      0x00\n      mstore\n      keccak256(0x00, 0x20)\n      swap1\n      0x04\n      mul\n      add\n        /* \"contracts/noteStudent.sol\":1953:1984  students[idStudent].noteBiology */\n      0x01\n      add\n      sload\n        /* \"contracts/noteStudent.sol\":1946:1984  return students[idStudent].noteBiology */\n      swap2\n      pop\n      pop\n      jump(tag_184)\n        /* \"contracts/noteStudent.sol\":1893:2260  if (stringsEquals(_course, \"biology\")) {... */\n    tag_187:\n        /* \"contracts/noteStudent.sol\":2005:2036  stringsEquals(_course, \"maths\") */\n      tag_192\n        /* \"contracts/noteStudent.sol\":2019:2026  _course */\n      dup4\n        /* \"contracts/noteStudent.sol\":2005:2036  stringsEquals(_course, \"maths\") */\n      mload(0x40)\n      dup1\n      0x40\n      add\n      0x40\n      mstore\n      dup1\n      0x05\n      dup2\n      mstore\n      0x20\n      add\n      0x6d61746873000000000000000000000000000000000000000000000000000000\n      dup2\n      mstore\n      pop\n        /* \"contracts/noteStudent.sol\":2005:2018  stringsEquals */\n      tag_69\n        /* \"contracts/noteStudent.sol\":2005:2036  stringsEquals(_course, \"maths\") */\n      jump\t// in\n    tag_192:\n        /* \"contracts/noteStudent.sol\":2001:2260  if (stringsEquals(_course, \"maths\")) {... */\n      iszero\n      tag_193\n      jumpi\n        /* \"contracts/noteStudent.sol\":2059:2067  students */\n      0x02\n        /* \"contracts/noteStudent.sol\":2068:2077  idStudent */\n      dup2\n        /* \"contracts/noteStudent.sol\":2059:2078  students[idStudent] */\n      dup2\n      sload\n      dup2\n      lt\n      tag_194\n      jumpi\n      tag_195\n      tag_73\n      jump\t// in\n    tag_195:\n    tag_194:\n      swap1\n      0x00\n      mstore\n      keccak256(0x00, 0x20)\n      swap1\n      0x04\n      mul\n      add\n        /* \"contracts/noteStudent.sol\":2059:2088  students[idStudent].noteMaths */\n      0x02\n      add\n      sload\n        /* \"contracts/noteStudent.sol\":2052:2088  return students[idStudent].noteMaths */\n      swap2\n      pop\n      pop\n      jump(tag_184)\n        /* \"contracts/noteStudent.sol\":2001:2260  if (stringsEquals(_course, \"maths\")) {... */\n    tag_193:\n        /* \"contracts/noteStudent.sol\":2109:2141  stringsEquals(_course, \"french\") */\n      tag_198\n        /* \"contracts/noteStudent.sol\":2123:2130  _course */\n      dup4\n        /* \"contracts/noteStudent.sol\":2109:2141  stringsEquals(_course, \"french\") */\n      mload(0x40)\n      dup1\n      0x40\n      add\n      0x40\n      mstore\n      dup1\n      0x06\n      dup2\n      mstore\n      0x20\n      add\n      0x6672656e63680000000000000000000000000000000000000000000000000000\n      dup2\n      mstore\n      pop\n        /* \"contracts/noteStudent.sol\":2109:2122  stringsEquals */\n      tag_69\n        /* \"contracts/noteStudent.sol\":2109:2141  stringsEquals(_course, \"french\") */\n      jump\t// in\n    tag_198:\n        /* \"contracts/noteStudent.sol\":2105:2260  if (stringsEquals(_course, \"french\")) {... */\n      iszero\n      tag_199\n      jumpi\n        /* \"contracts/noteStudent.sol\":2164:2172  students */\n      0x02\n        /* \"contracts/noteStudent.sol\":2173:2182  idStudent */\n      dup2\n        /* \"contracts/noteStudent.sol\":2164:2183  students[idStudent] */\n      dup2\n      sload\n      dup2\n      lt\n      tag_200\n      jumpi\n      tag_201\n      tag_73\n      jump\t// in\n    tag_201:\n    tag_200:\n      swap1\n      0x00\n      mstore\n      keccak256(0x00, 0x20)\n      swap1\n      0x04\n      mul\n      add\n        /* \"contracts/noteStudent.sol\":2164:2190  students[idStudent].noteFr */\n      0x03\n      add\n      sload\n        /* \"contracts/noteStudent.sol\":2157:2190  return students[idStudent].noteFr */\n      swap2\n      pop\n      pop\n      jump(tag_184)\n        /* \"contracts/noteStudent.sol\":2105:2260  if (stringsEquals(_course, \"french\")) {... */\n    tag_199:\n        /* \"contracts/noteStudent.sol\":2221:2249  revert(\"Type a real course\") */\n      mload(0x40)\n      0x08c379a000000000000000000000000000000000000000000000000000000000\n      dup2\n      mstore\n      0x04\n      add\n      tag_204\n      swap1\n      tag_160\n      jump\t// in\n    tag_204:\n      mload(0x40)\n      dup1\n      swap2\n      sub\n      swap1\n      revert\n        /* \"contracts/noteStudent.sol\":1742:2266  function getNote(string memory _name, string memory _course) external view returns(uint) {... */\n    tag_184:\n      swap3\n      swap2\n      pop\n      pop\n      jump\t// out\n        /* \"contracts/noteStudent.sol\":711:912  function stringsEquals(string memory _string1, string memory _string2) pure private returns (bool) {... */\n    tag_69:\n        /* \"contracts/noteStudent.sol\":804:808  bool */\n      0x00\n        /* \"contracts/noteStudent.sol\":895:903  _string2 */\n      dup2\n        /* \"contracts/noteStudent.sol\":878:904  abi.encodePacked(_string2) */\n      add(0x20, mload(0x40))\n      tag_206\n      swap2\n      swap1\n      tag_207\n      jump\t// in\n    tag_206:\n      mload(0x40)\n      0x20\n      dup2\n      dup4\n      sub\n      sub\n      dup2\n      mstore\n      swap1\n      0x40\n      mstore\n        /* \"contracts/noteStudent.sol\":868:905  keccak256(abi.encodePacked(_string2)) */\n      dup1\n      mload\n      swap1\n      0x20\n      add\n      keccak256\n        /* \"contracts/noteStudent.sol\":854:862  _string1 */\n      dup4\n        /* \"contracts/noteStudent.sol\":837:863  abi.encodePacked(_string1) */\n      add(0x20, mload(0x40))\n      tag_208\n      swap2\n      swap1\n      tag_207\n      jump\t// in\n    tag_208:\n      mload(0x40)\n      0x20\n      dup2\n      dup4\n      sub\n      sub\n      dup2\n      mstore\n      swap1\n      0x40\n      mstore\n        /* \"contracts/noteStudent.sol\":827:864  keccak256(abi.encodePacked(_string1)) */\n      dup1\n      mload\n      swap1\n      0x20\n      add\n      keccak256\n        /* \"contracts/noteStudent.sol\":827:905  keccak256(abi.encodePacked(_string1)) == keccak256(abi.encodePacked(_string2)) */\n      eq\n        /* \"contracts/noteStudent.sol\":820:905  return keccak256(abi.encodePacked(_string1)) == keccak256(abi.encodePacked(_string2)) */\n      swap1\n      pop\n        /* \"contracts/noteStudent.sol\":711:912  function stringsEquals(string memory _string1, string memory _string2) pure private returns (bool) {... */\n      swap3\n      swap2\n      pop\n      pop\n      jump\t// out\n        /* \"contracts/noteStudent.sol\":918:1200  function getStudentFromName(string memory _name) private view returns (uint) {... */\n    tag_123:\n        /* \"contracts/noteStudent.sol\":989:993  uint */\n      0x00\n        /* \"contracts/noteStudent.sol\":1010:1016  uint i */\n      dup1\n        /* \"contracts/noteStudent.sol\":1019:1020  0 */\n      0x00\n        /* \"contracts/noteStudent.sol\":1010:1020  uint i = 0 */\n      swap1\n      pop\n        /* \"contracts/noteStudent.sol\":1005:1157  for (uint i = 0; i < students.length; i++) {... */\n    tag_210:\n        /* \"contracts/noteStudent.sol\":1026:1034  students */\n      0x02\n        /* \"contracts/noteStudent.sol\":1026:1041  students.length */\n      dup1\n      sload\n      swap1\n      pop\n        /* \"contracts/noteStudent.sol\":1022:1023  i */\n      dup2\n        /* \"contracts/noteStudent.sol\":1022:1041  i < students.length */\n      lt\n        /* \"contracts/noteStudent.sol\":1005:1157  for (uint i = 0; i < students.length; i++) {... */\n      iszero\n      tag_211\n      jumpi\n        /* \"contracts/noteStudent.sol\":1066:1104  stringsEquals(students[i].name, _name) */\n      tag_213\n        /* \"contracts/noteStudent.sol\":1080:1088  students */\n      0x02\n        /* \"contracts/noteStudent.sol\":1089:1090  i */\n      dup3\n        /* \"contracts/noteStudent.sol\":1080:1091  students[i] */\n      dup2\n      sload\n      dup2\n      lt\n      tag_214\n      jumpi\n      tag_215\n      tag_73\n      jump\t// in\n    tag_215:\n    tag_214:\n      swap1\n      0x00\n      mstore\n      keccak256(0x00, 0x20)\n      swap1\n      0x04\n      mul\n      add\n        /* \"contracts/noteStudent.sol\":1080:1096  students[i].name */\n      0x00\n      add\n        /* \"contracts/noteStudent.sol\":1066:1104  stringsEquals(students[i].name, _name) */\n      dup1\n      sload\n      tag_217\n      swap1\n      tag_218\n      jump\t// in\n    tag_217:\n      dup1\n      0x1f\n      add\n      0x20\n      dup1\n      swap2\n      div\n      mul\n      0x20\n      add\n      mload(0x40)\n      swap1\n      dup2\n      add\n      0x40\n      mstore\n      dup1\n      swap3\n      swap2\n      swap1\n      dup2\n      dup2\n      mstore\n      0x20\n      add\n      dup3\n      dup1\n      sload\n      tag_219\n      swap1\n      tag_218\n      jump\t// in\n    tag_219:\n      dup1\n      iszero\n      tag_220\n      jumpi\n      dup1\n      0x1f\n      lt\n      tag_221\n      jumpi\n      0x0100\n      dup1\n      dup4\n      sload\n      div\n      mul\n      dup4\n      mstore\n      swap2\n      0x20\n      add\n      swap2\n      jump(tag_220)\n    tag_221:\n      dup3\n      add\n      swap2\n      swap1\n      0x00\n      mstore\n      keccak256(0x00, 0x20)\n      swap1\n    tag_222:\n      dup2\n      sload\n      dup2\n      mstore\n      swap1\n      0x01\n      add\n      swap1\n      0x20\n      add\n      dup1\n      dup4\n      gt\n      tag_222\n      jumpi\n      dup3\n      swap1\n      sub\n      0x1f\n      and\n      dup3\n      add\n      swap2\n    tag_220:\n      pop\n      pop\n      pop\n      pop\n      pop\n        /* \"contracts/noteStudent.sol\":1098:1103  _name */\n      dup5\n        /* \"contracts/noteStudent.sol\":1066:1079  stringsEquals */\n      tag_69\n        /* \"contracts/noteStudent.sol\":1066:1104  stringsEquals(students[i].name, _name) */\n      jump\t// in\n    tag_213:\n        /* \"contracts/noteStudent.sol\":1062:1147  if (stringsEquals(students[i].name, _name)) {... */\n      iszero\n      tag_223\n      jumpi\n        /* \"contracts/noteStudent.sol\":1131:1132  i */\n      dup1\n        /* \"contracts/noteStudent.sol\":1124:1132  return i */\n      swap2\n      pop\n      pop\n      jump(tag_209)\n        /* \"contracts/noteStudent.sol\":1062:1147  if (stringsEquals(students[i].name, _name)) {... */\n    tag_223:\n        /* \"contracts/noteStudent.sol\":1043:1046  i++ */\n      dup1\n      dup1\n      0x01\n      add\n      swap2\n      pop\n      pop\n        /* \"contracts/noteStudent.sol\":1005:1157  for (uint i = 0; i < students.length; i++) {... */\n      jump(tag_210)\n    tag_211:\n      pop\n        /* \"contracts/noteStudent.sol\":1166:1193  revert(\"Student not found\") */\n      mload(0x40)\n      0x08c379a000000000000000000000000000000000000000000000000000000000\n      dup2\n      mstore\n      0x04\n      add\n      tag_224\n      swap1\n      tag_225\n      jump\t// in\n    tag_224:\n      mload(0x40)\n      dup1\n      swap2\n      sub\n      swap1\n      revert\n        /* \"contracts/noteStudent.sol\":918:1200  function getStudentFromName(string memory _name) private view returns (uint) {... */\n    tag_209:\n      swap2\n      swap1\n      pop\n      jump\t// out\n        /* \"@openzeppelin/contracts/access/Ownable.sol\":1796:1958  function _checkOwner() internal view virtual {... */\n    tag_163:\n        /* \"@openzeppelin/contracts/access/Ownable.sol\":1866:1878  _msgSender() */\n      tag_227\n        /* \"@openzeppelin/contracts/access/Ownable.sol\":1866:1876  _msgSender */\n      tag_228\n        /* \"@openzeppelin/contracts/access/Ownable.sol\":1866:1878  _msgSender() */\n      jump\t// in\n    tag_227:\n        /* \"@openzeppelin/contracts/access/Ownable.sol\":1855:1878  owner() != _msgSender() */\n      0xffffffffffffffffffffffffffffffffffffffff\n      and\n        /* \"@openzeppelin/contracts/access/Ownable.sol\":1855:1862  owner() */\n      tag_229\n        /* \"@openzeppelin/contracts/access/Ownable.sol\":1855:1860  owner */\n      tag_47\n        /* \"@openzeppelin/contracts/access/Ownable.sol\":1855:1862  owner() */\n      jump\t// in\n    tag_229:\n        /* \"@openzeppelin/contracts/access/Ownable.sol\":1855:1878  owner() != _msgSender() */\n      0xffffffffffffffffffffffffffffffffffffffff\n      and\n      eq\n        /* \"@openzeppelin/contracts/access/Ownable.sol\":1851:1952  if (owner() != _msgSender()) {... */\n      tag_230\n      jumpi\n        /* \"@openzeppelin/contracts/access/Ownable.sol\":1928:1940  _msgSender() */\n      tag_231\n        /* \"@openzeppelin/contracts/access/Ownable.sol\":1928:1938  _msgSender */\n      tag_228\n        /* \"@openzeppelin/contracts/access/Ownable.sol\":1928:1940  _msgSender() */\n      jump\t// in\n    tag_231:\n        /* \"@openzeppelin/contracts/access/Ownable.sol\":1901:1941  OwnableUnauthorizedAccount(_msgSender()) */\n      mload(0x40)\n      0x118cdaa700000000000000000000000000000000000000000000000000000000\n      dup2\n      mstore\n      0x04\n      add\n      tag_232\n      swap2\n      swap1\n      tag_49\n      jump\t// in\n    tag_232:\n      mload(0x40)\n      dup1\n      swap2\n      sub\n      swap1\n      revert\n        /* \"@openzeppelin/contracts/access/Ownable.sol\":1851:1952  if (owner() != _msgSender()) {... */\n    tag_230:\n        /* \"@openzeppelin/contracts/access/Ownable.sol\":1796:1958  function _checkOwner() internal view virtual {... */\n      jump\t// out\n        /* \"@openzeppelin/contracts/access/Ownable.sol\":2912:3099  function _transferOwnership(address newOwner) internal virtual {... */\n    tag_176:\n        /* \"@openzeppelin/contracts/access/Ownable.sol\":2985:3001  address oldOwner */\n      0x00\n        /* \"@openzeppelin/contracts/access/Ownable.sol\":3004:3010  _owner */\n      dup1\n      0x00\n      swap1\n      sload\n      swap1\n      0x0100\n      exp\n      swap1\n      div\n      0xffffffffffffffffffffffffffffffffffffffff\n      and\n        /* \"@openzeppelin/contracts/access/Ownable.sol\":2985:3010  address oldOwner = _owner */\n      swap1\n      pop\n        /* \"@openzeppelin/contracts/access/Ownable.sol\":3029:3037  newOwner */\n      dup2\n        /* \"@openzeppelin/contracts/access/Ownable.sol\":3020:3026  _owner */\n      0x00\n      dup1\n        /* \"@openzeppelin/contracts/access/Ownable.sol\":3020:3037  _owner = newOwner */\n      0x0100\n      exp\n      dup2\n      sload\n      dup2\n      0xffffffffffffffffffffffffffffffffffffffff\n      mul\n      not\n      and\n      swap1\n      dup4\n      0xffffffffffffffffffffffffffffffffffffffff\n      and\n      mul\n      or\n      swap1\n      sstore\n      pop\n        /* \"@openzeppelin/contracts/access/Ownable.sol\":3083:3091  newOwner */\n      dup2\n        /* \"@openzeppelin/contracts/access/Ownable.sol\":3052:3092  OwnershipTransferred(oldOwner, newOwner) */\n      0xffffffffffffffffffffffffffffffffffffffff\n      and\n        /* \"@openzeppelin/contracts/access/Ownable.sol\":3073:3081  oldOwner */\n      dup2\n        /* \"@openzeppelin/contracts/access/Ownable.sol\":3052:3092  OwnershipTransferred(oldOwner, newOwner) */\n      0xffffffffffffffffffffffffffffffffffffffff\n      and\n      0x8be0079c531659141344cd1fd0a4f28419497f9722a3daafe3b4186f6b6457e0\n      mload(0x40)\n      mload(0x40)\n      dup1\n      swap2\n      sub\n      swap1\n      log3\n        /* \"@openzeppelin/contracts/access/Ownable.sol\":2975:3099  {... */\n      pop\n        /* \"@openzeppelin/contracts/access/Ownable.sol\":2912:3099  function _transferOwnership(address newOwner) internal virtual {... */\n      pop\n      jump\t// out\n        /* \"@openzeppelin/contracts/utils/Context.sol\":656:752  function _msgSender() internal view virtual returns (address) {... */\n    tag_228:\n        /* \"@openzeppelin/contracts/utils/Context.sol\":709:716  address */\n      0x00\n        /* \"@openzeppelin/contracts/utils/Context.sol\":735:745  msg.sender */\n      caller\n        /* \"@openzeppelin/contracts/utils/Context.sol\":728:745  return msg.sender */\n      swap1\n      pop\n        /* \"@openzeppelin/contracts/utils/Context.sol\":656:752  function _msgSender() internal view virtual returns (address) {... */\n      swap1\n      jump\t// out\n        /* \"#utility.yul\":7:82   */\n    tag_235:\n        /* \"#utility.yul\":40:46   */\n      0x00\n        /* \"#utility.yul\":73:75   */\n      0x40\n        /* \"#utility.yul\":67:76   */\n      mload\n        /* \"#utility.yul\":57:76   */\n      swap1\n      pop\n        /* \"#utility.yul\":7:82   */\n      swap1\n      jump\t// out\n        /* \"#utility.yul\":88:205   */\n    tag_236:\n        /* \"#utility.yul\":197:198   */\n      0x00\n        /* \"#utility.yul\":194:195   */\n      dup1\n        /* \"#utility.yul\":187:199   */\n      revert\n        /* \"#utility.yul\":211:328   */\n    tag_237:\n        /* \"#utility.yul\":320:321   */\n      0x00\n        /* \"#utility.yul\":317:318   */\n      dup1\n        /* \"#utility.yul\":310:322   */\n      revert\n        /* \"#utility.yul\":334:451   */\n    tag_238:\n        /* \"#utility.yul\":443:444   */\n      0x00\n        /* \"#utility.yul\":440:441   */\n      dup1\n        /* \"#utility.yul\":433:445   */\n      revert\n        /* \"#utility.yul\":457:574   */\n    tag_239:\n        /* \"#utility.yul\":566:567   */\n      0x00\n        /* \"#utility.yul\":563:564   */\n      dup1\n        /* \"#utility.yul\":556:568   */\n      revert\n        /* \"#utility.yul\":580:682   */\n    tag_240:\n        /* \"#utility.yul\":621:627   */\n      0x00\n        /* \"#utility.yul\":672:674   */\n      0x1f\n        /* \"#utility.yul\":668:675   */\n      not\n        /* \"#utility.yul\":663:665   */\n      0x1f\n        /* \"#utility.yul\":656:661   */\n      dup4\n        /* \"#utility.yul\":652:666   */\n      add\n        /* \"#utility.yul\":648:676   */\n      and\n        /* \"#utility.yul\":638:676   */\n      swap1\n      pop\n        /* \"#utility.yul\":580:682   */\n      swap2\n      swap1\n      pop\n      jump\t// out\n        /* \"#utility.yul\":688:868   */\n    tag_241:\n        /* \"#utility.yul\":736:813   */\n      0x4e487b7100000000000000000000000000000000000000000000000000000000\n        /* \"#utility.yul\":733:734   */\n      0x00\n        /* \"#utility.yul\":726:814   */\n      mstore\n        /* \"#utility.yul\":833:837   */\n      0x41\n        /* \"#utility.yul\":830:831   */\n      0x04\n        /* \"#utility.yul\":823:838   */\n      mstore\n        /* \"#utility.yul\":857:861   */\n      0x24\n        /* \"#utility.yul\":854:855   */\n      0x00\n        /* \"#utility.yul\":847:862   */\n      revert\n        /* \"#utility.yul\":874:1155   */\n    tag_242:\n        /* \"#utility.yul\":957:984   */\n      tag_299\n        /* \"#utility.yul\":979:983   */\n      dup3\n        /* \"#utility.yul\":957:984   */\n      tag_240\n      jump\t// in\n    tag_299:\n        /* \"#utility.yul\":949:955   */\n      dup2\n        /* \"#utility.yul\":945:985   */\n      add\n        /* \"#utility.yul\":1087:1093   */\n      dup2\n        /* \"#utility.yul\":1075:1085   */\n      dup2\n        /* \"#utility.yul\":1072:1094   */\n      lt\n        /* \"#utility.yul\":1051:1069   */\n      0xffffffffffffffff\n        /* \"#utility.yul\":1039:1049   */\n      dup3\n        /* \"#utility.yul\":1036:1070   */\n      gt\n        /* \"#utility.yul\":1033:1095   */\n      or\n        /* \"#utility.yul\":1030:1118   */\n      iszero\n      tag_300\n      jumpi\n        /* \"#utility.yul\":1098:1116   */\n      tag_301\n      tag_241\n      jump\t// in\n    tag_301:\n        /* \"#utility.yul\":1030:1118   */\n    tag_300:\n        /* \"#utility.yul\":1138:1148   */\n      dup1\n        /* \"#utility.yul\":1134:1136   */\n      0x40\n        /* \"#utility.yul\":1127:1149   */\n      mstore\n        /* \"#utility.yul\":917:1155   */\n      pop\n        /* \"#utility.yul\":874:1155   */\n      pop\n      pop\n      jump\t// out\n        /* \"#utility.yul\":1161:1290   */\n    tag_243:\n        /* \"#utility.yul\":1195:1201   */\n      0x00\n        /* \"#utility.yul\":1222:1242   */\n      tag_303\n      tag_235\n      jump\t// in\n    tag_303:\n        /* \"#utility.yul\":1212:1242   */\n      swap1\n      pop\n        /* \"#utility.yul\":1251:1284   */\n      tag_304\n        /* \"#utility.yul\":1279:1283   */\n      dup3\n        /* \"#utility.yul\":1271:1277   */\n      dup3\n        /* \"#utility.yul\":1251:1284   */\n      tag_242\n      jump\t// in\n    tag_304:\n        /* \"#utility.yul\":1161:1290   */\n      swap2\n      swap1\n      pop\n      jump\t// out\n        /* \"#utility.yul\":1296:1604   */\n    tag_244:\n        /* \"#utility.yul\":1358:1362   */\n      0x00\n        /* \"#utility.yul\":1448:1466   */\n      0xffffffffffffffff\n        /* \"#utility.yul\":1440:1446   */\n      dup3\n        /* \"#utility.yul\":1437:1467   */\n      gt\n        /* \"#utility.yul\":1434:1490   */\n      iszero\n      tag_306\n      jumpi\n        /* \"#utility.yul\":1470:1488   */\n      tag_307\n      tag_241\n      jump\t// in\n    tag_307:\n        /* \"#utility.yul\":1434:1490   */\n    tag_306:\n        /* \"#utility.yul\":1508:1537   */\n      tag_308\n        /* \"#utility.yul\":1530:1536   */\n      dup3\n        /* \"#utility.yul\":1508:1537   */\n      tag_240\n      jump\t// in\n    tag_308:\n        /* \"#utility.yul\":1500:1537   */\n      swap1\n      pop\n        /* \"#utility.yul\":1592:1596   */\n      0x20\n        /* \"#utility.yul\":1586:1590   */\n      dup2\n        /* \"#utility.yul\":1582:1597   */\n      add\n        /* \"#utility.yul\":1574:1597   */\n      swap1\n      pop\n        /* \"#utility.yul\":1296:1604   */\n      swap2\n      swap1\n      pop\n      jump\t// out\n        /* \"#utility.yul\":1610:1758   */\n    tag_245:\n        /* \"#utility.yul\":1708:1714   */\n      dup3\n        /* \"#utility.yul\":1703:1706   */\n      dup2\n        /* \"#utility.yul\":1698:1701   */\n      dup4\n        /* \"#utility.yul\":1685:1715   */\n      calldatacopy\n        /* \"#utility.yul\":1749:1750   */\n      0x00\n        /* \"#utility.yul\":1740:1746   */\n      dup4\n        /* \"#utility.yul\":1735:1738   */\n      dup4\n        /* \"#utility.yul\":1731:1747   */\n      add\n        /* \"#utility.yul\":1724:1751   */\n      mstore\n        /* \"#utility.yul\":1610:1758   */\n      pop\n      pop\n      pop\n      jump\t// out\n        /* \"#utility.yul\":1764:2189   */\n    tag_246:\n        /* \"#utility.yul\":1842:1847   */\n      0x00\n        /* \"#utility.yul\":1867:1933   */\n      tag_311\n        /* \"#utility.yul\":1883:1932   */\n      tag_312\n        /* \"#utility.yul\":1925:1931   */\n      dup5\n        /* \"#utility.yul\":1883:1932   */\n      tag_244\n      jump\t// in\n    tag_312:\n        /* \"#utility.yul\":1867:1933   */\n      tag_243\n      jump\t// in\n    tag_311:\n        /* \"#utility.yul\":1858:1933   */\n      swap1\n      pop\n        /* \"#utility.yul\":1956:1962   */\n      dup3\n        /* \"#utility.yul\":1949:1954   */\n      dup2\n        /* \"#utility.yul\":1942:1963   */\n      mstore\n        /* \"#utility.yul\":1994:1998   */\n      0x20\n        /* \"#utility.yul\":1987:1992   */\n      dup2\n        /* \"#utility.yul\":1983:1999   */\n      add\n        /* \"#utility.yul\":2032:2035   */\n      dup5\n        /* \"#utility.yul\":2023:2029   */\n      dup5\n        /* \"#utility.yul\":2018:2021   */\n      dup5\n        /* \"#utility.yul\":2014:2030   */\n      add\n        /* \"#utility.yul\":2011:2036   */\n      gt\n        /* \"#utility.yul\":2008:2120   */\n      iszero\n      tag_313\n      jumpi\n        /* \"#utility.yul\":2039:2118   */\n      tag_314\n      tag_239\n      jump\t// in\n    tag_314:\n        /* \"#utility.yul\":2008:2120   */\n    tag_313:\n        /* \"#utility.yul\":2129:2183   */\n      tag_315\n        /* \"#utility.yul\":2176:2182   */\n      dup5\n        /* \"#utility.yul\":2171:2174   */\n      dup3\n        /* \"#utility.yul\":2166:2169   */\n      dup6\n        /* \"#utility.yul\":2129:2183   */\n      tag_245\n      jump\t// in\n    tag_315:\n        /* \"#utility.yul\":1848:2189   */\n      pop\n        /* \"#utility.yul\":1764:2189   */\n      swap4\n      swap3\n      pop\n      pop\n      pop\n      jump\t// out\n        /* \"#utility.yul\":2209:2549   */\n    tag_247:\n        /* \"#utility.yul\":2265:2270   */\n      0x00\n        /* \"#utility.yul\":2314:2317   */\n      dup3\n        /* \"#utility.yul\":2307:2311   */\n      0x1f\n        /* \"#utility.yul\":2299:2305   */\n      dup4\n        /* \"#utility.yul\":2295:2312   */\n      add\n        /* \"#utility.yul\":2291:2318   */\n      slt\n        /* \"#utility.yul\":2281:2403   */\n      tag_317\n      jumpi\n        /* \"#utility.yul\":2322:2401   */\n      tag_318\n      tag_238\n      jump\t// in\n    tag_318:\n        /* \"#utility.yul\":2281:2403   */\n    tag_317:\n        /* \"#utility.yul\":2439:2445   */\n      dup2\n        /* \"#utility.yul\":2426:2446   */\n      calldataload\n        /* \"#utility.yul\":2464:2543   */\n      tag_319\n        /* \"#utility.yul\":2539:2542   */\n      dup5\n        /* \"#utility.yul\":2531:2537   */\n      dup3\n        /* \"#utility.yul\":2524:2528   */\n      0x20\n        /* \"#utility.yul\":2516:2522   */\n      dup7\n        /* \"#utility.yul\":2512:2529   */\n      add\n        /* \"#utility.yul\":2464:2543   */\n      tag_246\n      jump\t// in\n    tag_319:\n        /* \"#utility.yul\":2455:2543   */\n      swap2\n      pop\n        /* \"#utility.yul\":2271:2549   */\n      pop\n        /* \"#utility.yul\":2209:2549   */\n      swap3\n      swap2\n      pop\n      pop\n      jump\t// out\n        /* \"#utility.yul\":2555:3064   */\n    tag_17:\n        /* \"#utility.yul\":2624:2630   */\n      0x00\n        /* \"#utility.yul\":2673:2675   */\n      0x20\n        /* \"#utility.yul\":2661:2670   */\n      dup3\n        /* \"#utility.yul\":2652:2659   */\n      dup5\n        /* \"#utility.yul\":2648:2671   */\n      sub\n        /* \"#utility.yul\":2644:2676   */\n      slt\n        /* \"#utility.yul\":2641:2760   */\n      iszero\n      tag_321\n      jumpi\n        /* \"#utility.yul\":2679:2758   */\n      tag_322\n      tag_236\n      jump\t// in\n    tag_322:\n        /* \"#utility.yul\":2641:2760   */\n    tag_321:\n        /* \"#utility.yul\":2827:2828   */\n      0x00\n        /* \"#utility.yul\":2816:2825   */\n      dup3\n        /* \"#utility.yul\":2812:2829   */\n      add\n        /* \"#utility.yul\":2799:2830   */\n      calldataload\n        /* \"#utility.yul\":2857:2875   */\n      0xffffffffffffffff\n        /* \"#utility.yul\":2849:2855   */\n      dup2\n        /* \"#utility.yul\":2846:2876   */\n      gt\n        /* \"#utility.yul\":2843:2960   */\n      iszero\n      tag_323\n      jumpi\n        /* \"#utility.yul\":2879:2958   */\n      tag_324\n      tag_237\n      jump\t// in\n    tag_324:\n        /* \"#utility.yul\":2843:2960   */\n    tag_323:\n        /* \"#utility.yul\":2984:3047   */\n      tag_325\n        /* \"#utility.yul\":3039:3046   */\n      dup5\n        /* \"#utility.yul\":3030:3036   */\n      dup3\n        /* \"#utility.yul\":3019:3028   */\n      dup6\n        /* \"#utility.yul\":3015:3037   */\n      add\n        /* \"#utility.yul\":2984:3047   */\n      tag_247\n      jump\t// in\n    tag_325:\n        /* \"#utility.yul\":2974:3047   */\n      swap2\n      pop\n        /* \"#utility.yul\":2770:3057   */\n      pop\n        /* \"#utility.yul\":2555:3064   */\n      swap3\n      swap2\n      pop\n      pop\n      jump\t// out\n        /* \"#utility.yul\":3070:3160   */\n    tag_248:\n        /* \"#utility.yul\":3104:3111   */\n      0x00\n        /* \"#utility.yul\":3147:3152   */\n      dup2\n        /* \"#utility.yul\":3140:3153   */\n      iszero\n        /* \"#utility.yul\":3133:3154   */\n      iszero\n        /* \"#utility.yul\":3122:3154   */\n      swap1\n      pop\n        /* \"#utility.yul\":3070:3160   */\n      swap2\n      swap1\n      pop\n      jump\t// out\n        /* \"#utility.yul\":3166:3275   */\n    tag_249:\n        /* \"#utility.yul\":3247:3268   */\n      tag_328\n        /* \"#utility.yul\":3262:3267   */\n      dup2\n        /* \"#utility.yul\":3247:3268   */\n      tag_248\n      jump\t// in\n    tag_328:\n        /* \"#utility.yul\":3242:3245   */\n      dup3\n        /* \"#utility.yul\":3235:3269   */\n      mstore\n        /* \"#utility.yul\":3166:3275   */\n      pop\n      pop\n      jump\t// out\n        /* \"#utility.yul\":3281:3491   */\n    tag_20:\n        /* \"#utility.yul\":3368:3372   */\n      0x00\n        /* \"#utility.yul\":3406:3408   */\n      0x20\n        /* \"#utility.yul\":3395:3404   */\n      dup3\n        /* \"#utility.yul\":3391:3409   */\n      add\n        /* \"#utility.yul\":3383:3409   */\n      swap1\n      pop\n        /* \"#utility.yul\":3419:3484   */\n      tag_330\n        /* \"#utility.yul\":3481:3482   */\n      0x00\n        /* \"#utility.yul\":3470:3479   */\n      dup4\n        /* \"#utility.yul\":3466:3483   */\n      add\n        /* \"#utility.yul\":3457:3463   */\n      dup5\n        /* \"#utility.yul\":3419:3484   */\n      tag_249\n      jump\t// in\n    tag_330:\n        /* \"#utility.yul\":3281:3491   */\n      swap3\n      swap2\n      pop\n      pop\n      jump\t// out\n        /* \"#utility.yul\":3497:3574   */\n    tag_250:\n        /* \"#utility.yul\":3534:3541   */\n      0x00\n        /* \"#utility.yul\":3563:3568   */\n      dup2\n        /* \"#utility.yul\":3552:3568   */\n      swap1\n      pop\n        /* \"#utility.yul\":3497:3574   */\n      swap2\n      swap1\n      pop\n      jump\t// out\n        /* \"#utility.yul\":3580:3698   */\n    tag_251:\n        /* \"#utility.yul\":3667:3691   */\n      tag_333\n        /* \"#utility.yul\":3685:3690   */\n      dup2\n        /* \"#utility.yul\":3667:3691   */\n      tag_250\n      jump\t// in\n    tag_333:\n        /* \"#utility.yul\":3662:3665   */\n      dup3\n        /* \"#utility.yul\":3655:3692   */\n      mstore\n        /* \"#utility.yul\":3580:3698   */\n      pop\n      pop\n      jump\t// out\n        /* \"#utility.yul\":3704:3926   */\n    tag_25:\n        /* \"#utility.yul\":3797:3801   */\n      0x00\n        /* \"#utility.yul\":3835:3837   */\n      0x20\n        /* \"#utility.yul\":3824:3833   */\n      dup3\n        /* \"#utility.yul\":3820:3838   */\n      add\n        /* \"#utility.yul\":3812:3838   */\n      swap1\n      pop\n        /* \"#utility.yul\":3848:3919   */\n      tag_335\n        /* \"#utility.yul\":3916:3917   */\n      0x00\n        /* \"#utility.yul\":3905:3914   */\n      dup4\n        /* \"#utility.yul\":3901:3918   */\n      add\n        /* \"#utility.yul\":3892:3898   */\n      dup5\n        /* \"#utility.yul\":3848:3919   */\n      tag_251\n      jump\t// in\n    tag_335:\n        /* \"#utility.yul\":3704:3926   */\n      swap3\n      swap2\n      pop\n      pop\n      jump\t// out\n        /* \"#utility.yul\":3932:4054   */\n    tag_252:\n        /* \"#utility.yul\":4005:4029   */\n      tag_337\n        /* \"#utility.yul\":4023:4028   */\n      dup2\n        /* \"#utility.yul\":4005:4029   */\n      tag_250\n      jump\t// in\n    tag_337:\n        /* \"#utility.yul\":3998:4003   */\n      dup2\n        /* \"#utility.yul\":3995:4030   */\n      eq\n        /* \"#utility.yul\":3985:4048   */\n      tag_338\n      jumpi\n        /* \"#utility.yul\":4044:4045   */\n      0x00\n        /* \"#utility.yul\":4041:4042   */\n      dup1\n        /* \"#utility.yul\":4034:4046   */\n      revert\n        /* \"#utility.yul\":3985:4048   */\n    tag_338:\n        /* \"#utility.yul\":3932:4054   */\n      pop\n      jump\t// out\n        /* \"#utility.yul\":4060:4199   */\n    tag_253:\n        /* \"#utility.yul\":4106:4111   */\n      0x00\n        /* \"#utility.yul\":4144:4150   */\n      dup2\n        /* \"#utility.yul\":4131:4151   */\n      calldataload\n        /* \"#utility.yul\":4122:4151   */\n      swap1\n      pop\n        /* \"#utility.yul\":4160:4193   */\n      tag_340\n        /* \"#utility.yul\":4187:4192   */\n      dup2\n        /* \"#utility.yul\":4160:4193   */\n      tag_252\n      jump\t// in\n    tag_340:\n        /* \"#utility.yul\":4060:4199   */\n      swap3\n      swap2\n      pop\n      pop\n      jump\t// out\n        /* \"#utility.yul\":4205:5184   */\n    tag_35:\n        /* \"#utility.yul\":4302:4308   */\n      0x00\n        /* \"#utility.yul\":4310:4316   */\n      dup1\n        /* \"#utility.yul\":4318:4324   */\n      0x00\n        /* \"#utility.yul\":4367:4369   */\n      0x60\n        /* \"#utility.yul\":4355:4364   */\n      dup5\n        /* \"#utility.yul\":4346:4353   */\n      dup7\n        /* \"#utility.yul\":4342:4365   */\n      sub\n        /* \"#utility.yul\":4338:4370   */\n      slt\n        /* \"#utility.yul\":4335:4454   */\n      iszero\n      tag_342\n      jumpi\n        /* \"#utility.yul\":4373:4452   */\n      tag_343\n      tag_236\n      jump\t// in\n    tag_343:\n        /* \"#utility.yul\":4335:4454   */\n    tag_342:\n        /* \"#utility.yul\":4521:4522   */\n      0x00\n        /* \"#utility.yul\":4510:4519   */\n      dup5\n        /* \"#utility.yul\":4506:4523   */\n      add\n        /* \"#utility.yul\":4493:4524   */\n      calldataload\n        /* \"#utility.yul\":4551:4569   */\n      0xffffffffffffffff\n        /* \"#utility.yul\":4543:4549   */\n      dup2\n        /* \"#utility.yul\":4540:4570   */\n      gt\n        /* \"#utility.yul\":4537:4654   */\n      iszero\n      tag_344\n      jumpi\n        /* \"#utility.yul\":4573:4652   */\n      tag_345\n      tag_237\n      jump\t// in\n    tag_345:\n        /* \"#utility.yul\":4537:4654   */\n    tag_344:\n        /* \"#utility.yul\":4678:4741   */\n      tag_346\n        /* \"#utility.yul\":4733:4740   */\n      dup7\n        /* \"#utility.yul\":4724:4730   */\n      dup3\n        /* \"#utility.yul\":4713:4722   */\n      dup8\n        /* \"#utility.yul\":4709:4731   */\n      add\n        /* \"#utility.yul\":4678:4741   */\n      tag_247\n      jump\t// in\n    tag_346:\n        /* \"#utility.yul\":4668:4741   */\n      swap4\n      pop\n        /* \"#utility.yul\":4464:4751   */\n      pop\n        /* \"#utility.yul\":4818:4820   */\n      0x20\n        /* \"#utility.yul\":4807:4816   */\n      dup5\n        /* \"#utility.yul\":4803:4821   */\n      add\n        /* \"#utility.yul\":4790:4822   */\n      calldataload\n        /* \"#utility.yul\":4849:4867   */\n      0xffffffffffffffff\n        /* \"#utility.yul\":4841:4847   */\n      dup2\n        /* \"#utility.yul\":4838:4868   */\n      gt\n        /* \"#utility.yul\":4835:4952   */\n      iszero\n      tag_347\n      jumpi\n        /* \"#utility.yul\":4871:4950   */\n      tag_348\n      tag_237\n      jump\t// in\n    tag_348:\n        /* \"#utility.yul\":4835:4952   */\n    tag_347:\n        /* \"#utility.yul\":4976:5039   */\n      tag_349\n        /* \"#utility.yul\":5031:5038   */\n      dup7\n        /* \"#utility.yul\":5022:5028   */\n      dup3\n        /* \"#utility.yul\":5011:5020   */\n      dup8\n        /* \"#utility.yul\":5007:5029   */\n      add\n        /* \"#utility.yul\":4976:5039   */\n      tag_247\n      jump\t// in\n    tag_349:\n        /* \"#utility.yul\":4966:5039   */\n      swap3\n      pop\n        /* \"#utility.yul\":4761:5049   */\n      pop\n        /* \"#utility.yul\":5088:5090   */\n      0x40\n        /* \"#utility.yul\":5114:5167   */\n      tag_350\n        /* \"#utility.yul\":5159:5166   */\n      dup7\n        /* \"#utility.yul\":5150:5156   */\n      dup3\n        /* \"#utility.yul\":5139:5148   */\n      dup8\n        /* \"#utility.yul\":5135:5157   */\n      add\n        /* \"#utility.yul\":5114:5167   */\n      tag_253\n      jump\t// in\n    tag_350:\n        /* \"#utility.yul\":5104:5167   */\n      swap2\n      pop\n        /* \"#utility.yul\":5059:5177   */\n      pop\n        /* \"#utility.yul\":4205:5184   */\n      swap3\n      pop\n      swap3\n      pop\n      swap3\n      jump\t// out\n        /* \"#utility.yul\":5190:5316   */\n    tag_254:\n        /* \"#utility.yul\":5227:5234   */\n      0x00\n        /* \"#utility.yul\":5267:5309   */\n      0xffffffffffffffffffffffffffffffffffffffff\n        /* \"#utility.yul\":5260:5265   */\n      dup3\n        /* \"#utility.yul\":5256:5310   */\n      and\n        /* \"#utility.yul\":5245:5310   */\n      swap1\n      pop\n        /* \"#utility.yul\":5190:5316   */\n      swap2\n      swap1\n      pop\n      jump\t// out\n        /* \"#utility.yul\":5322:5418   */\n    tag_255:\n        /* \"#utility.yul\":5359:5366   */\n      0x00\n        /* \"#utility.yul\":5388:5412   */\n      tag_353\n        /* \"#utility.yul\":5406:5411   */\n      dup3\n        /* \"#utility.yul\":5388:5412   */\n      tag_254\n      jump\t// in\n    tag_353:\n        /* \"#utility.yul\":5377:5412   */\n      swap1\n      pop\n        /* \"#utility.yul\":5322:5418   */\n      swap2\n      swap1\n      pop\n      jump\t// out\n        /* \"#utility.yul\":5424:5546   */\n    tag_256:\n        /* \"#utility.yul\":5497:5521   */\n      tag_355\n        /* \"#utility.yul\":5515:5520   */\n      dup2\n        /* \"#utility.yul\":5497:5521   */\n      tag_255\n      jump\t// in\n    tag_355:\n        /* \"#utility.yul\":5490:5495   */\n      dup2\n        /* \"#utility.yul\":5487:5522   */\n      eq\n        /* \"#utility.yul\":5477:5540   */\n      tag_356\n      jumpi\n        /* \"#utility.yul\":5536:5537   */\n      0x00\n        /* \"#utility.yul\":5533:5534   */\n      dup1\n        /* \"#utility.yul\":5526:5538   */\n      revert\n        /* \"#utility.yul\":5477:5540   */\n    tag_356:\n        /* \"#utility.yul\":5424:5546   */\n      pop\n      jump\t// out\n        /* \"#utility.yul\":5552:5691   */\n    tag_257:\n        /* \"#utility.yul\":5598:5603   */\n      0x00\n        /* \"#utility.yul\":5636:5642   */\n      dup2\n        /* \"#utility.yul\":5623:5643   */\n      calldataload\n        /* \"#utility.yul\":5614:5643   */\n      swap1\n      pop\n        /* \"#utility.yul\":5652:5685   */\n      tag_358\n        /* \"#utility.yul\":5679:5684   */\n      dup2\n        /* \"#utility.yul\":5652:5685   */\n      tag_256\n      jump\t// in\n    tag_358:\n        /* \"#utility.yul\":5552:5691   */\n      swap3\n      swap2\n      pop\n      pop\n      jump\t// out\n        /* \"#utility.yul\":5697:6026   */\n    tag_39:\n        /* \"#utility.yul\":5756:5762   */\n      0x00\n        /* \"#utility.yul\":5805:5807   */\n      0x20\n        /* \"#utility.yul\":5793:5802   */\n      dup3\n        /* \"#utility.yul\":5784:5791   */\n      dup5\n        /* \"#utility.yul\":5780:5803   */\n      sub\n        /* \"#utility.yul\":5776:5808   */\n      slt\n        /* \"#utility.yul\":5773:5892   */\n      iszero\n      tag_360\n      jumpi\n        /* \"#utility.yul\":5811:5890   */\n      tag_361\n      tag_236\n      jump\t// in\n    tag_361:\n        /* \"#utility.yul\":5773:5892   */\n    tag_360:\n        /* \"#utility.yul\":5931:5932   */\n      0x00\n        /* \"#utility.yul\":5956:6009   */\n      tag_362\n        /* \"#utility.yul\":6001:6008   */\n      dup5\n        /* \"#utility.yul\":5992:5998   */\n      dup3\n        /* \"#utility.yul\":5981:5990   */\n      dup6\n        /* \"#utility.yul\":5977:5999   */\n      add\n        /* \"#utility.yul\":5956:6009   */\n      tag_257\n      jump\t// in\n    tag_362:\n        /* \"#utility.yul\":5946:6009   */\n      swap2\n      pop\n        /* \"#utility.yul\":5902:6019   */\n      pop\n        /* \"#utility.yul\":5697:6026   */\n      swap3\n      swap2\n      pop\n      pop\n      jump\t// out\n        /* \"#utility.yul\":6032:6150   */\n    tag_258:\n        /* \"#utility.yul\":6119:6143   */\n      tag_364\n        /* \"#utility.yul\":6137:6142   */\n      dup2\n        /* \"#utility.yul\":6119:6143   */\n      tag_255\n      jump\t// in\n    tag_364:\n        /* \"#utility.yul\":6114:6117   */\n      dup3\n        /* \"#utility.yul\":6107:6144   */\n      mstore\n        /* \"#utility.yul\":6032:6150   */\n      pop\n      pop\n      jump\t// out\n        /* \"#utility.yul\":6156:6378   */\n    tag_49:\n        /* \"#utility.yul\":6249:6253   */\n      0x00\n        /* \"#utility.yul\":6287:6289   */\n      0x20\n        /* \"#utility.yul\":6276:6285   */\n      dup3\n        /* \"#utility.yul\":6272:6290   */\n      add\n        /* \"#utility.yul\":6264:6290   */\n      swap1\n      pop\n        /* \"#utility.yul\":6300:6371   */\n      tag_366\n        /* \"#utility.yul\":6368:6369   */\n      0x00\n        /* \"#utility.yul\":6357:6366   */\n      dup4\n        /* \"#utility.yul\":6353:6370   */\n      add\n        /* \"#utility.yul\":6344:6350   */\n      dup5\n        /* \"#utility.yul\":6300:6371   */\n      tag_258\n      jump\t// in\n    tag_366:\n        /* \"#utility.yul\":6156:6378   */\n      swap3\n      swap2\n      pop\n      pop\n      jump\t// out\n        /* \"#utility.yul\":6384:7218   */\n    tag_55:\n        /* \"#utility.yul\":6472:6478   */\n      0x00\n        /* \"#utility.yul\":6480:6486   */\n      dup1\n        /* \"#utility.yul\":6529:6531   */\n      0x40\n        /* \"#utility.yul\":6517:6526   */\n      dup4\n        /* \"#utility.yul\":6508:6515   */\n      dup6\n        /* \"#utility.yul\":6504:6527   */\n      sub\n        /* \"#utility.yul\":6500:6532   */\n      slt\n        /* \"#utility.yul\":6497:6616   */\n      iszero\n      tag_368\n      jumpi\n        /* \"#utility.yul\":6535:6614   */\n      tag_369\n      tag_236\n      jump\t// in\n    tag_369:\n        /* \"#utility.yul\":6497:6616   */\n    tag_368:\n        /* \"#utility.yul\":6683:6684   */\n      0x00\n        /* \"#utility.yul\":6672:6681   */\n      dup4\n        /* \"#utility.yul\":6668:6685   */\n      add\n        /* \"#utility.yul\":6655:6686   */\n      calldataload\n        /* \"#utility.yul\":6713:6731   */\n      0xffffffffffffffff\n        /* \"#utility.yul\":6705:6711   */\n      dup2\n        /* \"#utility.yul\":6702:6732   */\n      gt\n        /* \"#utility.yul\":6699:6816   */\n      iszero\n      tag_370\n      jumpi\n        /* \"#utility.yul\":6735:6814   */\n      tag_371\n      tag_237\n      jump\t// in\n    tag_371:\n        /* \"#utility.yul\":6699:6816   */\n    tag_370:\n        /* \"#utility.yul\":6840:6903   */\n      tag_372\n        /* \"#utility.yul\":6895:6902   */\n      dup6\n        /* \"#utility.yul\":6886:6892   */\n      dup3\n        /* \"#utility.yul\":6875:6884   */\n      dup7\n        /* \"#utility.yul\":6871:6893   */\n      add\n        /* \"#utility.yul\":6840:6903   */\n      tag_247\n      jump\t// in\n    tag_372:\n        /* \"#utility.yul\":6830:6903   */\n      swap3\n      pop\n        /* \"#utility.yul\":6626:6913   */\n      pop\n        /* \"#utility.yul\":6980:6982   */\n      0x20\n        /* \"#utility.yul\":6969:6978   */\n      dup4\n        /* \"#utility.yul\":6965:6983   */\n      add\n        /* \"#utility.yul\":6952:6984   */\n      calldataload\n        /* \"#utility.yul\":7011:7029   */\n      0xffffffffffffffff\n        /* \"#utility.yul\":7003:7009   */\n      dup2\n        /* \"#utility.yul\":7000:7030   */\n      gt\n        /* \"#utility.yul\":6997:7114   */\n      iszero\n      tag_373\n      jumpi\n        /* \"#utility.yul\":7033:7112   */\n      tag_374\n      tag_237\n      jump\t// in\n    tag_374:\n        /* \"#utility.yul\":6997:7114   */\n    tag_373:\n        /* \"#utility.yul\":7138:7201   */\n      tag_375\n        /* \"#utility.yul\":7193:7200   */\n      dup6\n        /* \"#utility.yul\":7184:7190   */\n      dup3\n        /* \"#utility.yul\":7173:7182   */\n      dup7\n        /* \"#utility.yul\":7169:7191   */\n      add\n        /* \"#utility.yul\":7138:7201   */\n      tag_247\n      jump\t// in\n    tag_375:\n        /* \"#utility.yul\":7128:7201   */\n      swap2\n      pop\n        /* \"#utility.yul\":6923:7211   */\n      pop\n        /* \"#utility.yul\":6384:7218   */\n      swap3\n      pop\n      swap3\n      swap1\n      pop\n      jump\t// out\n        /* \"#utility.yul\":7224:7393   */\n    tag_259:\n        /* \"#utility.yul\":7308:7319   */\n      0x00\n        /* \"#utility.yul\":7342:7348   */\n      dup3\n        /* \"#utility.yul\":7337:7340   */\n      dup3\n        /* \"#utility.yul\":7330:7349   */\n      mstore\n        /* \"#utility.yul\":7382:7386   */\n      0x20\n        /* \"#utility.yul\":7377:7380   */\n      dup3\n        /* \"#utility.yul\":7373:7387   */\n      add\n        /* \"#utility.yul\":7358:7387   */\n      swap1\n      pop\n        /* \"#utility.yul\":7224:7393   */\n      swap3\n      swap2\n      pop\n      pop\n      jump\t// out\n        /* \"#utility.yul\":7399:7562   */\n    tag_260:\n        /* \"#utility.yul\":7539:7554   */\n      0x4e6f742061207465616368657200000000000000000000000000000000000000\n        /* \"#utility.yul\":7535:7536   */\n      0x00\n        /* \"#utility.yul\":7527:7533   */\n      dup3\n        /* \"#utility.yul\":7523:7537   */\n      add\n        /* \"#utility.yul\":7516:7555   */\n      mstore\n        /* \"#utility.yul\":7399:7562   */\n      pop\n      jump\t// out\n        /* \"#utility.yul\":7568:7934   */\n    tag_261:\n        /* \"#utility.yul\":7710:7713   */\n      0x00\n        /* \"#utility.yul\":7731:7798   */\n      tag_379\n        /* \"#utility.yul\":7795:7797   */\n      0x0d\n        /* \"#utility.yul\":7790:7793   */\n      dup4\n        /* \"#utility.yul\":7731:7798   */\n      tag_259\n      jump\t// in\n    tag_379:\n        /* \"#utility.yul\":7724:7798   */\n      swap2\n      pop\n        /* \"#utility.yul\":7807:7900   */\n      tag_380\n        /* \"#utility.yul\":7896:7899   */\n      dup3\n        /* \"#utility.yul\":7807:7900   */\n      tag_260\n      jump\t// in\n    tag_380:\n        /* \"#utility.yul\":7925:7927   */\n      0x20\n        /* \"#utility.yul\":7920:7923   */\n      dup3\n        /* \"#utility.yul\":7916:7928   */\n      add\n        /* \"#utility.yul\":7909:7928   */\n      swap1\n      pop\n        /* \"#utility.yul\":7568:7934   */\n      swap2\n      swap1\n      pop\n      jump\t// out\n        /* \"#utility.yul\":7940:8359   */\n    tag_61:\n        /* \"#utility.yul\":8106:8110   */\n      0x00\n        /* \"#utility.yul\":8144:8146   */\n      0x20\n        /* \"#utility.yul\":8133:8142   */\n      dup3\n        /* \"#utility.yul\":8129:8147   */\n      add\n        /* \"#utility.yul\":8121:8147   */\n      swap1\n      pop\n        /* \"#utility.yul\":8193:8202   */\n      dup2\n        /* \"#utility.yul\":8187:8191   */\n      dup2\n        /* \"#utility.yul\":8183:8203   */\n      sub\n        /* \"#utility.yul\":8179:8180   */\n      0x00\n        /* \"#utility.yul\":8168:8177   */\n      dup4\n        /* \"#utility.yul\":8164:8181   */\n      add\n        /* \"#utility.yul\":8157:8204   */\n      mstore\n        /* \"#utility.yul\":8221:8352   */\n      tag_382\n        /* \"#utility.yul\":8347:8351   */\n      dup2\n        /* \"#utility.yul\":8221:8352   */\n      tag_261\n      jump\t// in\n    tag_382:\n        /* \"#utility.yul\":8213:8352   */\n      swap1\n      pop\n        /* \"#utility.yul\":7940:8359   */\n      swap2\n      swap1\n      pop\n      jump\t// out\n        /* \"#utility.yul\":8365:8545   */\n    tag_73:\n        /* \"#utility.yul\":8413:8490   */\n      0x4e487b7100000000000000000000000000000000000000000000000000000000\n        /* \"#utility.yul\":8410:8411   */\n      0x00\n        /* \"#utility.yul\":8403:8491   */\n      mstore\n        /* \"#utility.yul\":8510:8514   */\n      0x32\n        /* \"#utility.yul\":8507:8508   */\n      0x04\n        /* \"#utility.yul\":8500:8515   */\n      mstore\n        /* \"#utility.yul\":8534:8538   */\n      0x24\n        /* \"#utility.yul\":8531:8532   */\n      0x00\n        /* \"#utility.yul\":8524:8539   */\n      revert\n        /* \"#utility.yul\":8551:8731   */\n    tag_262:\n        /* \"#utility.yul\":8599:8676   */\n      0x4e487b7100000000000000000000000000000000000000000000000000000000\n        /* \"#utility.yul\":8596:8597   */\n      0x00\n        /* \"#utility.yul\":8589:8677   */\n      mstore\n        /* \"#utility.yul\":8696:8700   */\n      0x11\n        /* \"#utility.yul\":8693:8694   */\n      0x04\n        /* \"#utility.yul\":8686:8701   */\n      mstore\n        /* \"#utility.yul\":8720:8724   */\n      0x24\n        /* \"#utility.yul\":8717:8718   */\n      0x00\n        /* \"#utility.yul\":8710:8725   */\n      revert\n        /* \"#utility.yul\":8737:8928   */\n    tag_76:\n        /* \"#utility.yul\":8777:8780   */\n      0x00\n        /* \"#utility.yul\":8796:8816   */\n      tag_386\n        /* \"#utility.yul\":8814:8815   */\n      dup3\n        /* \"#utility.yul\":8796:8816   */\n      tag_250\n      jump\t// in\n    tag_386:\n        /* \"#utility.yul\":8791:8816   */\n      swap2\n      pop\n        /* \"#utility.yul\":8830:8850   */\n      tag_387\n        /* \"#utility.yul\":8848:8849   */\n      dup4\n        /* \"#utility.yul\":8830:8850   */\n      tag_250\n      jump\t// in\n    tag_387:\n        /* \"#utility.yul\":8825:8850   */\n      swap3\n      pop\n        /* \"#utility.yul\":8873:8874   */\n      dup3\n        /* \"#utility.yul\":8870:8871   */\n      dup3\n        /* \"#utility.yul\":8866:8875   */\n      add\n        /* \"#utility.yul\":8859:8875   */\n      swap1\n      pop\n        /* \"#utility.yul\":8894:8897   */\n      dup1\n        /* \"#utility.yul\":8891:8892   */\n      dup3\n        /* \"#utility.yul\":8888:8898   */\n      gt\n        /* \"#utility.yul\":8885:8921   */\n      iszero\n      tag_388\n      jumpi\n        /* \"#utility.yul\":8901:8919   */\n      tag_389\n      tag_262\n      jump\t// in\n    tag_389:\n        /* \"#utility.yul\":8885:8921   */\n    tag_388:\n        /* \"#utility.yul\":8737:8928   */\n      swap3\n      swap2\n      pop\n      pop\n      jump\t// out\n        /* \"#utility.yul\":8934:9167   */\n    tag_92:\n        /* \"#utility.yul\":8973:8976   */\n      0x00\n        /* \"#utility.yul\":8996:9020   */\n      tag_391\n        /* \"#utility.yul\":9014:9019   */\n      dup3\n        /* \"#utility.yul\":8996:9020   */\n      tag_250\n      jump\t// in\n    tag_391:\n        /* \"#utility.yul\":8987:9020   */\n      swap2\n      pop\n        /* \"#utility.yul\":9042:9108   */\n      0xffffffffffffffffffffffffffffffffffffffffffffffffffffffffffffffff\n        /* \"#utility.yul\":9035:9040   */\n      dup3\n        /* \"#utility.yul\":9032:9109   */\n      sub\n        /* \"#utility.yul\":9029:9132   */\n      tag_392\n      jumpi\n        /* \"#utility.yul\":9112:9130   */\n      tag_393\n      tag_262\n      jump\t// in\n    tag_393:\n        /* \"#utility.yul\":9029:9132   */\n    tag_392:\n        /* \"#utility.yul\":9159:9160   */\n      0x01\n        /* \"#utility.yul\":9152:9157   */\n      dup3\n        /* \"#utility.yul\":9148:9161   */\n      add\n        /* \"#utility.yul\":9141:9161   */\n      swap1\n      pop\n        /* \"#utility.yul\":8934:9167   */\n      swap2\n      swap1\n      pop\n      jump\t// out\n        /* \"#utility.yul\":9173:9343   */\n    tag_263:\n        /* \"#utility.yul\":9313:9335   */\n      0x4e6f2073747564656e747320696e20636c617373000000000000000000000000\n        /* \"#utility.yul\":9309:9310   */\n      0x00\n        /* \"#utility.yul\":9301:9307   */\n      dup3\n        /* \"#utility.yul\":9297:9311   */\n      add\n        /* \"#utility.yul\":9290:9336   */\n      mstore\n        /* \"#utility.yul\":9173:9343   */\n      pop\n      jump\t// out\n        /* \"#utility.yul\":9349:9715   */\n    tag_264:\n        /* \"#utility.yul\":9491:9494   */\n      0x00\n        /* \"#utility.yul\":9512:9579   */\n      tag_396\n        /* \"#utility.yul\":9576:9578   */\n      0x14\n        /* \"#utility.yul\":9571:9574   */\n      dup4\n        /* \"#utility.yul\":9512:9579   */\n      tag_259\n      jump\t// in\n    tag_396:\n        /* \"#utility.yul\":9505:9579   */\n      swap2\n      pop\n        /* \"#utility.yul\":9588:9681   */\n      tag_397\n        /* \"#utility.yul\":9677:9680   */\n      dup3\n        /* \"#utility.yul\":9588:9681   */\n      tag_263\n      jump\t// in\n    tag_397:\n        /* \"#utility.yul\":9706:9708   */\n      0x20\n        /* \"#utility.yul\":9701:9704   */\n      dup3\n        /* \"#utility.yul\":9697:9709   */\n      add\n        /* \"#utility.yul\":9690:9709   */\n      swap1\n      pop\n        /* \"#utility.yul\":9349:9715   */\n      swap2\n      swap1\n      pop\n      jump\t// out\n        /* \"#utility.yul\":9721:10140   */\n    tag_95:\n        /* \"#utility.yul\":9887:9891   */\n      0x00\n        /* \"#utility.yul\":9925:9927   */\n      0x20\n        /* \"#utility.yul\":9914:9923   */\n      dup3\n        /* \"#utility.yul\":9910:9928   */\n      add\n        /* \"#utility.yul\":9902:9928   */\n      swap1\n      pop\n        /* \"#utility.yul\":9974:9983   */\n      dup2\n        /* \"#utility.yul\":9968:9972   */\n      dup2\n        /* \"#utility.yul\":9964:9984   */\n      sub\n        /* \"#utility.yul\":9960:9961   */\n      0x00\n        /* \"#utility.yul\":9949:9958   */\n      dup4\n        /* \"#utility.yul\":9945:9962   */\n      add\n        /* \"#utility.yul\":9938:9985   */\n      mstore\n        /* \"#utility.yul\":10002:10133   */\n      tag_399\n        /* \"#utility.yul\":10128:10132   */\n      dup2\n        /* \"#utility.yul\":10002:10133   */\n      tag_264\n      jump\t// in\n    tag_399:\n        /* \"#utility.yul\":9994:10133   */\n      swap1\n      pop\n        /* \"#utility.yul\":9721:10140   */\n      swap2\n      swap1\n      pop\n      jump\t// out\n        /* \"#utility.yul\":10146:10326   */\n    tag_265:\n        /* \"#utility.yul\":10194:10271   */\n      0x4e487b7100000000000000000000000000000000000000000000000000000000\n        /* \"#utility.yul\":10191:10192   */\n      0x00\n        /* \"#utility.yul\":10184:10272   */\n      mstore\n        /* \"#utility.yul\":10291:10295   */\n      0x12\n        /* \"#utility.yul\":10288:10289   */\n      0x04\n        /* \"#utility.yul\":10281:10296   */\n      mstore\n        /* \"#utility.yul\":10315:10319   */\n      0x24\n        /* \"#utility.yul\":10312:10313   */\n      0x00\n        /* \"#utility.yul\":10305:10320   */\n      revert\n        /* \"#utility.yul\":10332:10517   */\n    tag_97:\n        /* \"#utility.yul\":10372:10373   */\n      0x00\n        /* \"#utility.yul\":10389:10409   */\n      tag_402\n        /* \"#utility.yul\":10407:10408   */\n      dup3\n        /* \"#utility.yul\":10389:10409   */\n      tag_250\n      jump\t// in\n    tag_402:\n        /* \"#utility.yul\":10384:10409   */\n      swap2\n      pop\n        /* \"#utility.yul\":10423:10443   */\n      tag_403\n        /* \"#utility.yul\":10441:10442   */\n      dup4\n        /* \"#utility.yul\":10423:10443   */\n      tag_250\n      jump\t// in\n    tag_403:\n        /* \"#utility.yul\":10418:10443   */\n      swap3\n      pop\n        /* \"#utility.yul\":10462:10463   */\n      dup3\n        /* \"#utility.yul\":10452:10487   */\n      tag_404\n      jumpi\n        /* \"#utility.yul\":10467:10485   */\n      tag_405\n      tag_265\n      jump\t// in\n    tag_405:\n        /* \"#utility.yul\":10452:10487   */\n    tag_404:\n        /* \"#utility.yul\":10509:10510   */\n      dup3\n        /* \"#utility.yul\":10506:10507   */\n      dup3\n        /* \"#utility.yul\":10502:10511   */\n      div\n        /* \"#utility.yul\":10497:10511   */\n      swap1\n      pop\n        /* \"#utility.yul\":10332:10517   */\n      swap3\n      swap2\n      pop\n      pop\n      jump\t// out\n        /* \"#utility.yul\":10523:10691   */\n    tag_266:\n        /* \"#utility.yul\":10663:10683   */\n      0x547970652061207265616c20636f757273650000000000000000000000000000\n        /* \"#utility.yul\":10659:10660   */\n      0x00\n        /* \"#utility.yul\":10651:10657   */\n      dup3\n        /* \"#utility.yul\":10647:10661   */\n      add\n        /* \"#utility.yul\":10640:10684   */\n      mstore\n        /* \"#utility.yul\":10523:10691   */\n      pop\n      jump\t// out\n        /* \"#utility.yul\":10697:11063   */\n    tag_267:\n        /* \"#utility.yul\":10839:10842   */\n      0x00\n        /* \"#utility.yul\":10860:10927   */\n      tag_408\n        /* \"#utility.yul\":10924:10926   */\n      0x12\n        /* \"#utility.yul\":10919:10922   */\n      dup4\n        /* \"#utility.yul\":10860:10927   */\n      tag_259\n      jump\t// in\n    tag_408:\n        /* \"#utility.yul\":10853:10927   */\n      swap2\n      pop\n        /* \"#utility.yul\":10936:11029   */\n      tag_409\n        /* \"#utility.yul\":11025:11028   */\n      dup3\n        /* \"#utility.yul\":10936:11029   */\n      tag_266\n      jump\t// in\n    tag_409:\n        /* \"#utility.yul\":11054:11056   */\n      0x20\n        /* \"#utility.yul\":11049:11052   */\n      dup3\n        /* \"#utility.yul\":11045:11057   */\n      add\n        /* \"#utility.yul\":11038:11057   */\n      swap1\n      pop\n        /* \"#utility.yul\":10697:11063   */\n      swap2\n      swap1\n      pop\n      jump\t// out\n        /* \"#utility.yul\":11069:11488   */\n    tag_160:\n        /* \"#utility.yul\":11235:11239   */\n      0x00\n        /* \"#utility.yul\":11273:11275   */\n      0x20\n        /* \"#utility.yul\":11262:11271   */\n      dup3\n        /* \"#utility.yul\":11258:11276   */\n      add\n        /* \"#utility.yul\":11250:11276   */\n      swap1\n      pop\n        /* \"#utility.yul\":11322:11331   */\n      dup2\n        /* \"#utility.yul\":11316:11320   */\n      dup2\n        /* \"#utility.yul\":11312:11332   */\n      sub\n        /* \"#utility.yul\":11308:11309   */\n      0x00\n        /* \"#utility.yul\":11297:11306   */\n      dup4\n        /* \"#utility.yul\":11293:11310   */\n      add\n        /* \"#utility.yul\":11286:11333   */\n      mstore\n        /* \"#utility.yul\":11350:11481   */\n      tag_411\n        /* \"#utility.yul\":11476:11480   */\n      dup2\n        /* \"#utility.yul\":11350:11481   */\n      tag_267\n      jump\t// in\n    tag_411:\n        /* \"#utility.yul\":11342:11481   */\n      swap1\n      pop\n        /* \"#utility.yul\":11069:11488   */\n      swap2\n      swap1\n      pop\n      jump\t// out\n        /* \"#utility.yul\":11494:11593   */\n    tag_268:\n        /* \"#utility.yul\":11546:11552   */\n      0x00\n        /* \"#utility.yul\":11580:11585   */\n      dup2\n        /* \"#utility.yul\":11574:11586   */\n      mload\n        /* \"#utility.yul\":11564:11586   */\n      swap1\n      pop\n        /* \"#utility.yul\":11494:11593   */\n      swap2\n      swap1\n      pop\n      jump\t// out\n        /* \"#utility.yul\":11599:11779   */\n    tag_269:\n        /* \"#utility.yul\":11647:11724   */\n      0x4e487b7100000000000000000000000000000000000000000000000000000000\n        /* \"#utility.yul\":11644:11645   */\n      0x00\n        /* \"#utility.yul\":11637:11725   */\n      mstore\n        /* \"#utility.yul\":11744:11748   */\n      0x22\n        /* \"#utility.yul\":11741:11742   */\n      0x04\n        /* \"#utility.yul\":11734:11749   */\n      mstore\n        /* \"#utility.yul\":11768:11772   */\n      0x24\n        /* \"#utility.yul\":11765:11766   */\n      0x00\n        /* \"#utility.yul\":11758:11773   */\n      revert\n        /* \"#utility.yul\":11785:12105   */\n    tag_218:\n        /* \"#utility.yul\":11829:11835   */\n      0x00\n        /* \"#utility.yul\":11866:11867   */\n      0x02\n        /* \"#utility.yul\":11860:11864   */\n      dup3\n        /* \"#utility.yul\":11856:11868   */\n      div\n        /* \"#utility.yul\":11846:11868   */\n      swap1\n      pop\n        /* \"#utility.yul\":11913:11914   */\n      0x01\n        /* \"#utility.yul\":11907:11911   */\n      dup3\n        /* \"#utility.yul\":11903:11915   */\n      and\n        /* \"#utility.yul\":11934:11952   */\n      dup1\n        /* \"#utility.yul\":11924:12005   */\n      tag_415\n      jumpi\n        /* \"#utility.yul\":11990:11994   */\n      0x7f\n        /* \"#utility.yul\":11982:11988   */\n      dup3\n        /* \"#utility.yul\":11978:11995   */\n      and\n        /* \"#utility.yul\":11968:11995   */\n      swap2\n      pop\n        /* \"#utility.yul\":11924:12005   */\n    tag_415:\n        /* \"#utility.yul\":12052:12054   */\n      0x20\n        /* \"#utility.yul\":12044:12050   */\n      dup3\n        /* \"#utility.yul\":12041:12055   */\n      lt\n        /* \"#utility.yul\":12021:12039   */\n      dup2\n        /* \"#utility.yul\":12018:12056   */\n      sub\n        /* \"#utility.yul\":12015:12099   */\n      tag_416\n      jumpi\n        /* \"#utility.yul\":12071:12089   */\n      tag_417\n      tag_269\n      jump\t// in\n    tag_417:\n        /* \"#utility.yul\":12015:12099   */\n    tag_416:\n        /* \"#utility.yul\":11836:12105   */\n      pop\n        /* \"#utility.yul\":11785:12105   */\n      swap2\n      swap1\n      pop\n      jump\t// out\n        /* \"#utility.yul\":12111:12252   */\n    tag_270:\n        /* \"#utility.yul\":12160:12164   */\n      0x00\n        /* \"#utility.yul\":12183:12186   */\n      dup2\n        /* \"#utility.yul\":12175:12186   */\n      swap1\n      pop\n        /* \"#utility.yul\":12206:12209   */\n      dup2\n        /* \"#utility.yul\":12203:12204   */\n      0x00\n        /* \"#utility.yul\":12196:12210   */\n      mstore\n        /* \"#utility.yul\":12240:12244   */\n      0x20\n        /* \"#utility.yul\":12237:12238   */\n      0x00\n        /* \"#utility.yul\":12227:12245   */\n      keccak256\n        /* \"#utility.yul\":12219:12245   */\n      swap1\n      pop\n        /* \"#utility.yul\":12111:12252   */\n      swap2\n      swap1\n      pop\n      jump\t// out\n        /* \"#utility.yul\":12258:12351   */\n    tag_271:\n        /* \"#utility.yul\":12295:12301   */\n      0x00\n        /* \"#utility.yul\":12342:12344   */\n      0x20\n        /* \"#utility.yul\":12337:12339   */\n      0x1f\n        /* \"#utility.yul\":12330:12335   */\n      dup4\n        /* \"#utility.yul\":12326:12340   */\n      add\n        /* \"#utility.yul\":12322:12345   */\n      div\n        /* \"#utility.yul\":12312:12345   */\n      swap1\n      pop\n        /* \"#utility.yul\":12258:12351   */\n      swap2\n      swap1\n      pop\n      jump\t// out\n        /* \"#utility.yul\":12357:12464   */\n    tag_272:\n        /* \"#utility.yul\":12401:12409   */\n      0x00\n        /* \"#utility.yul\":12451:12456   */\n      dup3\n        /* \"#utility.yul\":12445:12449   */\n      dup3\n        /* \"#utility.yul\":12441:12457   */\n      shl\n        /* \"#utility.yul\":12420:12457   */\n      swap1\n      pop\n        /* \"#utility.yul\":12357:12464   */\n      swap3\n      swap2\n      pop\n      pop\n      jump\t// out\n        /* \"#utility.yul\":12470:12863   */\n    tag_273:\n        /* \"#utility.yul\":12539:12545   */\n      0x00\n        /* \"#utility.yul\":12589:12590   */\n      0x08\n        /* \"#utility.yul\":12577:12587   */\n      dup4\n        /* \"#utility.yul\":12573:12591   */\n      mul\n        /* \"#utility.yul\":12612:12709   */\n      tag_422\n        /* \"#utility.yul\":12642:12708   */\n      0xffffffffffffffffffffffffffffffffffffffffffffffffffffffffffffffff\n        /* \"#utility.yul\":12631:12640   */\n      dup3\n        /* \"#utility.yul\":12612:12709   */\n      tag_272\n      jump\t// in\n    tag_422:\n        /* \"#utility.yul\":12730:12769   */\n      tag_423\n        /* \"#utility.yul\":12760:12768   */\n      dup7\n        /* \"#utility.yul\":12749:12758   */\n      dup4\n        /* \"#utility.yul\":12730:12769   */\n      tag_272\n      jump\t// in\n    tag_423:\n        /* \"#utility.yul\":12718:12769   */\n      swap6\n      pop\n        /* \"#utility.yul\":12802:12806   */\n      dup1\n        /* \"#utility.yul\":12798:12807   */\n      not\n        /* \"#utility.yul\":12791:12796   */\n      dup5\n        /* \"#utility.yul\":12787:12808   */\n      and\n        /* \"#utility.yul\":12778:12808   */\n      swap4\n      pop\n        /* \"#utility.yul\":12851:12855   */\n      dup1\n        /* \"#utility.yul\":12841:12849   */\n      dup7\n        /* \"#utility.yul\":12837:12856   */\n      and\n        /* \"#utility.yul\":12830:12835   */\n      dup5\n        /* \"#utility.yul\":12827:12857   */\n      or\n        /* \"#utility.yul\":12817:12857   */\n      swap3\n      pop\n        /* \"#utility.yul\":12546:12863   */\n      pop\n      pop\n        /* \"#utility.yul\":12470:12863   */\n      swap4\n      swap3\n      pop\n      pop\n      pop\n      jump\t// out\n        /* \"#utility.yul\":12869:12929   */\n    tag_274:\n        /* \"#utility.yul\":12897:12900   */\n      0x00\n        /* \"#utility.yul\":12918:12923   */\n      dup2\n        /* \"#utility.yul\":12911:12923   */\n      swap1\n      pop\n        /* \"#utility.yul\":12869:12929   */\n      swap2\n      swap1\n      pop\n      jump\t// out\n        /* \"#utility.yul\":12935:13077   */\n    tag_275:\n        /* \"#utility.yul\":12985:12994   */\n      0x00\n        /* \"#utility.yul\":13018:13071   */\n      tag_426\n        /* \"#utility.yul\":13036:13070   */\n      tag_427\n        /* \"#utility.yul\":13045:13069   */\n      tag_428\n        /* \"#utility.yul\":13063:13068   */\n      dup5\n        /* \"#utility.yul\":13045:13069   */\n      tag_250\n      jump\t// in\n    tag_428:\n        /* \"#utility.yul\":13036:13070   */\n      tag_274\n      jump\t// in\n    tag_427:\n        /* \"#utility.yul\":13018:13071   */\n      tag_250\n      jump\t// in\n    tag_426:\n        /* \"#utility.yul\":13005:13071   */\n      swap1\n      pop\n        /* \"#utility.yul\":12935:13077   */\n      swap2\n      swap1\n      pop\n      jump\t// out\n        /* \"#utility.yul\":13083:13158   */\n    tag_276:\n        /* \"#utility.yul\":13126:13129   */\n      0x00\n        /* \"#utility.yul\":13147:13152   */\n      dup2\n        /* \"#utility.yul\":13140:13152   */\n      swap1\n      pop\n        /* \"#utility.yul\":13083:13158   */\n      swap2\n      swap1\n      pop\n      jump\t// out\n        /* \"#utility.yul\":13164:13433   */\n    tag_277:\n        /* \"#utility.yul\":13274:13313   */\n      tag_431\n        /* \"#utility.yul\":13305:13312   */\n      dup4\n        /* \"#utility.yul\":13274:13313   */\n      tag_275\n      jump\t// in\n    tag_431:\n        /* \"#utility.yul\":13335:13426   */\n      tag_432\n        /* \"#utility.yul\":13384:13425   */\n      tag_433\n        /* \"#utility.yul\":13408:13424   */\n      dup3\n        /* \"#utility.yul\":13384:13425   */\n      tag_276\n      jump\t// in\n    tag_433:\n        /* \"#utility.yul\":13376:13382   */\n      dup5\n        /* \"#utility.yul\":13369:13373   */\n      dup5\n        /* \"#utility.yul\":13363:13374   */\n      sload\n        /* \"#utility.yul\":13335:13426   */\n      tag_273\n      jump\t// in\n    tag_432:\n        /* \"#utility.yul\":13329:13333   */\n      dup3\n        /* \"#utility.yul\":13322:13427   */\n      sstore\n        /* \"#utility.yul\":13240:13433   */\n      pop\n        /* \"#utility.yul\":13164:13433   */\n      pop\n      pop\n      pop\n      jump\t// out\n        /* \"#utility.yul\":13439:13512   */\n    tag_278:\n        /* \"#utility.yul\":13484:13487   */\n      0x00\n        /* \"#utility.yul\":13439:13512   */\n      swap1\n      jump\t// out\n        /* \"#utility.yul\":13518:13707   */\n    tag_279:\n        /* \"#utility.yul\":13595:13627   */\n      tag_436\n      tag_278\n      jump\t// in\n    tag_436:\n        /* \"#utility.yul\":13636:13701   */\n      tag_437\n        /* \"#utility.yul\":13694:13700   */\n      dup2\n        /* \"#utility.yul\":13686:13692   */\n      dup5\n        /* \"#utility.yul\":13680:13684   */\n      dup5\n        /* \"#utility.yul\":13636:13701   */\n      tag_277\n      jump\t// in\n    tag_437:\n        /* \"#utility.yul\":13571:13707   */\n      pop\n        /* \"#utility.yul\":13518:13707   */\n      pop\n      pop\n      jump\t// out\n        /* \"#utility.yul\":13713:13899   */\n    tag_280:\n        /* \"#utility.yul\":13773:13893   */\n    tag_439:\n        /* \"#utility.yul\":13790:13793   */\n      dup2\n        /* \"#utility.yul\":13783:13788   */\n      dup2\n        /* \"#utility.yul\":13780:13794   */\n      lt\n        /* \"#utility.yul\":13773:13893   */\n      iszero\n      tag_441\n      jumpi\n        /* \"#utility.yul\":13844:13883   */\n      tag_442\n        /* \"#utility.yul\":13881:13882   */\n      0x00\n        /* \"#utility.yul\":13874:13879   */\n      dup3\n        /* \"#utility.yul\":13844:13883   */\n      tag_279\n      jump\t// in\n    tag_442:\n        /* \"#utility.yul\":13817:13818   */\n      0x01\n        /* \"#utility.yul\":13810:13815   */\n      dup2\n        /* \"#utility.yul\":13806:13819   */\n      add\n        /* \"#utility.yul\":13797:13819   */\n      swap1\n      pop\n        /* \"#utility.yul\":13773:13893   */\n      jump(tag_439)\n    tag_441:\n        /* \"#utility.yul\":13713:13899   */\n      pop\n      pop\n      jump\t// out\n        /* \"#utility.yul\":13905:14448   */\n    tag_281:\n        /* \"#utility.yul\":14006:14008   */\n      0x1f\n        /* \"#utility.yul\":14001:14004   */\n      dup3\n        /* \"#utility.yul\":13998:14009   */\n      gt\n        /* \"#utility.yul\":13995:14441   */\n      iszero\n      tag_444\n      jumpi\n        /* \"#utility.yul\":14040:14078   */\n      tag_445\n        /* \"#utility.yul\":14072:14077   */\n      dup2\n        /* \"#utility.yul\":14040:14078   */\n      tag_270\n      jump\t// in\n    tag_445:\n        /* \"#utility.yul\":14124:14153   */\n      tag_446\n        /* \"#utility.yul\":14142:14152   */\n      dup5\n        /* \"#utility.yul\":14124:14153   */\n      tag_271\n      jump\t// in\n    tag_446:\n        /* \"#utility.yul\":14114:14122   */\n      dup2\n        /* \"#utility.yul\":14110:14154   */\n      add\n        /* \"#utility.yul\":14307:14309   */\n      0x20\n        /* \"#utility.yul\":14295:14305   */\n      dup6\n        /* \"#utility.yul\":14292:14310   */\n      lt\n        /* \"#utility.yul\":14289:14338   */\n      iszero\n      tag_447\n      jumpi\n        /* \"#utility.yul\":14328:14336   */\n      dup2\n        /* \"#utility.yul\":14313:14336   */\n      swap1\n      pop\n        /* \"#utility.yul\":14289:14338   */\n    tag_447:\n        /* \"#utility.yul\":14351:14431   */\n      tag_448\n        /* \"#utility.yul\":14407:14429   */\n      tag_449\n        /* \"#utility.yul\":14425:14428   */\n      dup6\n        /* \"#utility.yul\":14407:14429   */\n      tag_271\n      jump\t// in\n    tag_449:\n        /* \"#utility.yul\":14397:14405   */\n      dup4\n        /* \"#utility.yul\":14393:14430   */\n      add\n        /* \"#utility.yul\":14380:14391   */\n      dup3\n        /* \"#utility.yul\":14351:14431   */\n      tag_280\n      jump\t// in\n    tag_448:\n        /* \"#utility.yul\":14010:14441   */\n      pop\n      pop\n        /* \"#utility.yul\":13995:14441   */\n    tag_444:\n        /* \"#utility.yul\":13905:14448   */\n      pop\n      pop\n      pop\n      jump\t// out\n        /* \"#utility.yul\":14454:14571   */\n    tag_282:\n        /* \"#utility.yul\":14508:14516   */\n      0x00\n        /* \"#utility.yul\":14558:14563   */\n      dup3\n        /* \"#utility.yul\":14552:14556   */\n      dup3\n        /* \"#utility.yul\":14548:14564   */\n      shr\n        /* \"#utility.yul\":14527:14564   */\n      swap1\n      pop\n        /* \"#utility.yul\":14454:14571   */\n      swap3\n      swap2\n      pop\n      pop\n      jump\t// out\n        /* \"#utility.yul\":14577:14746   */\n    tag_283:\n        /* \"#utility.yul\":14621:14627   */\n      0x00\n        /* \"#utility.yul\":14654:14705   */\n      tag_452\n        /* \"#utility.yul\":14702:14703   */\n      0x00\n        /* \"#utility.yul\":14698:14704   */\n      not\n        /* \"#utility.yul\":14690:14695   */\n      dup5\n        /* \"#utility.yul\":14687:14688   */\n      0x08\n        /* \"#utility.yul\":14683:14696   */\n      mul\n        /* \"#utility.yul\":14654:14705   */\n      tag_282\n      jump\t// in\n    tag_452:\n        /* \"#utility.yul\":14650:14706   */\n      not\n        /* \"#utility.yul\":14735:14739   */\n      dup1\n        /* \"#utility.yul\":14729:14733   */\n      dup4\n        /* \"#utility.yul\":14725:14740   */\n      and\n        /* \"#utility.yul\":14715:14740   */\n      swap2\n      pop\n        /* \"#utility.yul\":14628:14746   */\n      pop\n        /* \"#utility.yul\":14577:14746   */\n      swap3\n      swap2\n      pop\n      pop\n      jump\t// out\n        /* \"#utility.yul\":14751:15046   */\n    tag_284:\n        /* \"#utility.yul\":14827:14831   */\n      0x00\n        /* \"#utility.yul\":14973:15002   */\n      tag_454\n        /* \"#utility.yul\":14998:15001   */\n      dup4\n        /* \"#utility.yul\":14992:14996   */\n      dup4\n        /* \"#utility.yul\":14973:15002   */\n      tag_283\n      jump\t// in\n    tag_454:\n        /* \"#utility.yul\":14965:15002   */\n      swap2\n      pop\n        /* \"#utility.yul\":15035:15038   */\n      dup3\n        /* \"#utility.yul\":15032:15033   */\n      0x02\n        /* \"#utility.yul\":15028:15039   */\n      mul\n        /* \"#utility.yul\":15022:15026   */\n      dup3\n        /* \"#utility.yul\":15019:15040   */\n      or\n        /* \"#utility.yul\":15011:15040   */\n      swap1\n      pop\n        /* \"#utility.yul\":14751:15046   */\n      swap3\n      swap2\n      pop\n      pop\n      jump\t// out\n        /* \"#utility.yul\":15051:16446   */\n    tag_171:\n        /* \"#utility.yul\":15168:15205   */\n      tag_456\n        /* \"#utility.yul\":15201:15204   */\n      dup3\n        /* \"#utility.yul\":15168:15205   */\n      tag_268\n      jump\t// in\n    tag_456:\n        /* \"#utility.yul\":15270:15288   */\n      0xffffffffffffffff\n        /* \"#utility.yul\":15262:15268   */\n      dup2\n        /* \"#utility.yul\":15259:15289   */\n      gt\n        /* \"#utility.yul\":15256:15312   */\n      iszero\n      tag_457\n      jumpi\n        /* \"#utility.yul\":15292:15310   */\n      tag_458\n      tag_241\n      jump\t// in\n    tag_458:\n        /* \"#utility.yul\":15256:15312   */\n    tag_457:\n        /* \"#utility.yul\":15336:15374   */\n      tag_459\n        /* \"#utility.yul\":15368:15372   */\n      dup3\n        /* \"#utility.yul\":15362:15373   */\n      sload\n        /* \"#utility.yul\":15336:15374   */\n      tag_218\n      jump\t// in\n    tag_459:\n        /* \"#utility.yul\":15421:15488   */\n      tag_460\n        /* \"#utility.yul\":15481:15487   */\n      dup3\n        /* \"#utility.yul\":15473:15479   */\n      dup3\n        /* \"#utility.yul\":15467:15471   */\n      dup6\n        /* \"#utility.yul\":15421:15488   */\n      tag_281\n      jump\t// in\n    tag_460:\n        /* \"#utility.yul\":15515:15516   */\n      0x00\n        /* \"#utility.yul\":15539:15543   */\n      0x20\n        /* \"#utility.yul\":15526:15543   */\n      swap1\n      pop\n        /* \"#utility.yul\":15571:15573   */\n      0x1f\n        /* \"#utility.yul\":15563:15569   */\n      dup4\n        /* \"#utility.yul\":15560:15574   */\n      gt\n        /* \"#utility.yul\":15588:15589   */\n      0x01\n        /* \"#utility.yul\":15583:16201   */\n      dup2\n      eq\n      tag_462\n      jumpi\n        /* \"#utility.yul\":16245:16246   */\n      0x00\n        /* \"#utility.yul\":16262:16268   */\n      dup5\n        /* \"#utility.yul\":16259:16336   */\n      iszero\n      tag_463\n      jumpi\n        /* \"#utility.yul\":16311:16320   */\n      dup3\n        /* \"#utility.yul\":16306:16309   */\n      dup8\n        /* \"#utility.yul\":16302:16321   */\n      add\n        /* \"#utility.yul\":16296:16322   */\n      mload\n        /* \"#utility.yul\":16287:16322   */\n      swap1\n      pop\n        /* \"#utility.yul\":16259:16336   */\n    tag_463:\n        /* \"#utility.yul\":16362:16429   */\n      tag_464\n        /* \"#utility.yul\":16422:16428   */\n      dup6\n        /* \"#utility.yul\":16415:16420   */\n      dup3\n        /* \"#utility.yul\":16362:16429   */\n      tag_284\n      jump\t// in\n    tag_464:\n        /* \"#utility.yul\":16356:16360   */\n      dup7\n        /* \"#utility.yul\":16349:16430   */\n      sstore\n        /* \"#utility.yul\":16218:16440   */\n      pop\n        /* \"#utility.yul\":15553:16440   */\n      jump(tag_461)\n        /* \"#utility.yul\":15583:16201   */\n    tag_462:\n        /* \"#utility.yul\":15635:15639   */\n      0x1f\n        /* \"#utility.yul\":15631:15640   */\n      not\n        /* \"#utility.yul\":15623:15629   */\n      dup5\n        /* \"#utility.yul\":15619:15641   */\n      and\n        /* \"#utility.yul\":15669:15706   */\n      tag_465\n        /* \"#utility.yul\":15701:15705   */\n      dup7\n        /* \"#utility.yul\":15669:15706   */\n      tag_270\n      jump\t// in\n    tag_465:\n        /* \"#utility.yul\":15728:15729   */\n      0x00\n        /* \"#utility.yul\":15742:15950   */\n    tag_466:\n        /* \"#utility.yul\":15756:15763   */\n      dup3\n        /* \"#utility.yul\":15753:15754   */\n      dup2\n        /* \"#utility.yul\":15750:15764   */\n      lt\n        /* \"#utility.yul\":15742:15950   */\n      iszero\n      tag_468\n      jumpi\n        /* \"#utility.yul\":15835:15844   */\n      dup5\n        /* \"#utility.yul\":15830:15833   */\n      dup10\n        /* \"#utility.yul\":15826:15845   */\n      add\n        /* \"#utility.yul\":15820:15846   */\n      mload\n        /* \"#utility.yul\":15812:15818   */\n      dup3\n        /* \"#utility.yul\":15805:15847   */\n      sstore\n        /* \"#utility.yul\":15886:15887   */\n      0x01\n        /* \"#utility.yul\":15878:15884   */\n      dup3\n        /* \"#utility.yul\":15874:15888   */\n      add\n        /* \"#utility.yul\":15864:15888   */\n      swap2\n      pop\n        /* \"#utility.yul\":15933:15935   */\n      0x20\n        /* \"#utility.yul\":15922:15931   */\n      dup6\n        /* \"#utility.yul\":15918:15936   */\n      add\n        /* \"#utility.yul\":15905:15936   */\n      swap5\n      pop\n        /* \"#utility.yul\":15779:15783   */\n      0x20\n        /* \"#utility.yul\":15776:15777   */\n      dup2\n        /* \"#utility.yul\":15772:15784   */\n      add\n        /* \"#utility.yul\":15767:15784   */\n      swap1\n      pop\n        /* \"#utility.yul\":15742:15950   */\n      jump(tag_466)\n    tag_468:\n        /* \"#utility.yul\":15978:15984   */\n      dup7\n        /* \"#utility.yul\":15969:15976   */\n      dup4\n        /* \"#utility.yul\":15966:15985   */\n      lt\n        /* \"#utility.yul\":15963:16142   */\n      iszero\n      tag_469\n      jumpi\n        /* \"#utility.yul\":16036:16045   */\n      dup5\n        /* \"#utility.yul\":16031:16034   */\n      dup10\n        /* \"#utility.yul\":16027:16046   */\n      add\n        /* \"#utility.yul\":16021:16047   */\n      mload\n        /* \"#utility.yul\":16079:16127   */\n      tag_470\n        /* \"#utility.yul\":16121:16125   */\n      0x1f\n        /* \"#utility.yul\":16113:16119   */\n      dup10\n        /* \"#utility.yul\":16109:16126   */\n      and\n        /* \"#utility.yul\":16098:16107   */\n      dup3\n        /* \"#utility.yul\":16079:16127   */\n      tag_283\n      jump\t// in\n    tag_470:\n        /* \"#utility.yul\":16071:16077   */\n      dup4\n        /* \"#utility.yul\":16064:16128   */\n      sstore\n        /* \"#utility.yul\":15986:16142   */\n      pop\n        /* \"#utility.yul\":15963:16142   */\n    tag_469:\n        /* \"#utility.yul\":16188:16189   */\n      0x01\n        /* \"#utility.yul\":16184:16185   */\n      0x02\n        /* \"#utility.yul\":16176:16182   */\n      dup9\n        /* \"#utility.yul\":16172:16186   */\n      mul\n        /* \"#utility.yul\":16168:16190   */\n      add\n        /* \"#utility.yul\":16162:16166   */\n      dup9\n        /* \"#utility.yul\":16155:16191   */\n      sstore\n        /* \"#utility.yul\":15590:16201   */\n      pop\n      pop\n      pop\n        /* \"#utility.yul\":15553:16440   */\n    tag_461:\n      pop\n        /* \"#utility.yul\":15143:16446   */\n      pop\n      pop\n      pop\n        /* \"#utility.yul\":15051:16446   */\n      pop\n      pop\n      jump\t// out\n        /* \"#utility.yul\":16452:16600   */\n    tag_285:\n        /* \"#utility.yul\":16554:16565   */\n      0x00\n        /* \"#utility.yul\":16591:16594   */\n      dup2\n        /* \"#utility.yul\":16576:16594   */\n      swap1\n      pop\n        /* \"#utility.yul\":16452:16600   */\n      swap3\n      swap2\n      pop\n      pop\n      jump\t// out\n        /* \"#utility.yul\":16606:16745   */\n    tag_286:\n        /* \"#utility.yul\":16695:16701   */\n      dup3\n        /* \"#utility.yul\":16690:16693   */\n      dup2\n        /* \"#utility.yul\":16685:16688   */\n      dup4\n        /* \"#utility.yul\":16679:16702   */\n      mcopy\n        /* \"#utility.yul\":16736:16737   */\n      0x00\n        /* \"#utility.yul\":16727:16733   */\n      dup4\n        /* \"#utility.yul\":16722:16725   */\n      dup4\n        /* \"#utility.yul\":16718:16734   */\n      add\n        /* \"#utility.yul\":16711:16738   */\n      mstore\n        /* \"#utility.yul\":16606:16745   */\n      pop\n      pop\n      pop\n      jump\t// out\n        /* \"#utility.yul\":16751:17141   */\n    tag_287:\n        /* \"#utility.yul\":16857:16860   */\n      0x00\n        /* \"#utility.yul\":16885:16924   */\n      tag_474\n        /* \"#utility.yul\":16918:16923   */\n      dup3\n        /* \"#utility.yul\":16885:16924   */\n      tag_268\n      jump\t// in\n    tag_474:\n        /* \"#utility.yul\":16940:17029   */\n      tag_475\n        /* \"#utility.yul\":17022:17028   */\n      dup2\n        /* \"#utility.yul\":17017:17020   */\n      dup6\n        /* \"#utility.yul\":16940:17029   */\n      tag_285\n      jump\t// in\n    tag_475:\n        /* \"#utility.yul\":16933:17029   */\n      swap4\n      pop\n        /* \"#utility.yul\":17038:17103   */\n      tag_476\n        /* \"#utility.yul\":17096:17102   */\n      dup2\n        /* \"#utility.yul\":17091:17094   */\n      dup6\n        /* \"#utility.yul\":17084:17088   */\n      0x20\n        /* \"#utility.yul\":17077:17082   */\n      dup7\n        /* \"#utility.yul\":17073:17089   */\n      add\n        /* \"#utility.yul\":17038:17103   */\n      tag_286\n      jump\t// in\n    tag_476:\n        /* \"#utility.yul\":17128:17134   */\n      dup1\n        /* \"#utility.yul\":17123:17126   */\n      dup5\n        /* \"#utility.yul\":17119:17135   */\n      add\n        /* \"#utility.yul\":17112:17135   */\n      swap2\n      pop\n        /* \"#utility.yul\":16861:17141   */\n      pop\n        /* \"#utility.yul\":16751:17141   */\n      swap3\n      swap2\n      pop\n      pop\n      jump\t// out\n        /* \"#utility.yul\":17147:17422   */\n    tag_207:\n        /* \"#utility.yul\":17279:17282   */\n      0x00\n        /* \"#utility.yul\":17301:17396   */\n      tag_478\n        /* \"#utility.yul\":17392:17395   */\n      dup3\n        /* \"#utility.yul\":17383:17389   */\n      dup5\n        /* \"#utility.yul\":17301:17396   */\n      tag_287\n      jump\t// in\n    tag_478:\n        /* \"#utility.yul\":17294:17396   */\n      swap2\n      pop\n        /* \"#utility.yul\":17413:17416   */\n      dup2\n        /* \"#utility.yul\":17406:17416   */\n      swap1\n      pop\n        /* \"#utility.yul\":17147:17422   */\n      swap3\n      swap2\n      pop\n      pop\n      jump\t// out\n        /* \"#utility.yul\":17428:17595   */\n    tag_288:\n        /* \"#utility.yul\":17568:17587   */\n      0x53747564656e74206e6f7420666f756e64000000000000000000000000000000\n        /* \"#utility.yul\":17564:17565   */\n      0x00\n        /* \"#utility.yul\":17556:17562   */\n      dup3\n        /* \"#utility.yul\":17552:17566   */\n      add\n        /* \"#utility.yul\":17545:17588   */\n      mstore\n        /* \"#utility.yul\":17428:17595   */\n      pop\n      jump\t// out\n        /* \"#utility.yul\":17601:17967   */\n    tag_289:\n        /* \"#utility.yul\":17743:17746   */\n      0x00\n        /* \"#utility.yul\":17764:17831   */\n      tag_481\n        /* \"#utility.yul\":17828:17830   */\n      0x11\n        /* \"#utility.yul\":17823:17826   */\n      dup4\n        /* \"#utility.yul\":17764:17831   */\n      tag_259\n      jump\t// in\n    tag_481:\n        /* \"#utility.yul\":17757:17831   */\n      swap2\n      pop\n        /* \"#utility.yul\":17840:17933   */\n      tag_482\n        /* \"#utility.yul\":17929:17932   */\n      dup3\n        /* \"#utility.yul\":17840:17933   */\n      tag_288\n      jump\t// in\n    tag_482:\n        /* \"#utility.yul\":17958:17960   */\n      0x20\n        /* \"#utility.yul\":17953:17956   */\n      dup3\n        /* \"#utility.yul\":17949:17961   */\n      add\n        /* \"#utility.yul\":17942:17961   */\n      swap1\n      pop\n        /* \"#utility.yul\":17601:17967   */\n      swap2\n      swap1\n      pop\n      jump\t// out\n        /* \"#utility.yul\":17973:18392   */\n    tag_225:\n        /* \"#utility.yul\":18139:18143   */\n      0x00\n        /* \"#utility.yul\":18177:18179   */\n      0x20\n        /* \"#utility.yul\":18166:18175   */\n      dup3\n        /* \"#utility.yul\":18162:18180   */\n      add\n        /* \"#utility.yul\":18154:18180   */\n      swap1\n      pop\n        /* \"#utility.yul\":18226:18235   */\n      dup2\n        /* \"#utility.yul\":18220:18224   */\n      dup2\n        /* \"#utility.yul\":18216:18236   */\n      sub\n        /* \"#utility.yul\":18212:18213   */\n      0x00\n        /* \"#utility.yul\":18201:18210   */\n      dup4\n        /* \"#utility.yul\":18197:18214   */\n      add\n        /* \"#utility.yul\":18190:18237   */\n      mstore\n        /* \"#utility.yul\":18254:18385   */\n      tag_484\n        /* \"#utility.yul\":18380:18384   */\n      dup2\n        /* \"#utility.yul\":18254:18385   */\n      tag_289\n      jump\t// in\n    tag_484:\n        /* \"#utility.yul\":18246:18385   */\n      swap1\n      pop\n        /* \"#utility.yul\":17973:18392   */\n      swap2\n      swap1\n      pop\n      jump\t// out\n\n    auxdata: 0xa2646970667358221220daa38b11871efa0fd2d66f3a668fcb975507f8d8c1e045a61b12989455243c5164736f6c634300081a0033\n}\n",
				"bytecode": {
					"linkReferences": {},
					"object": "608060405234801561000f575f80fd5b50335f73ffffffffffffffffffffffffffffffffffffffff168173ffffffffffffffffffffffffffffffffffffffff1603610081575f6040517f1e4fbdf70000000000000000000000000000000000000000000000000000000081526004016100789190610196565b60405180910390fd5b6100908161009660201b60201c565b506101af565b5f805f9054906101000a900473ffffffffffffffffffffffffffffffffffffffff169050815f806101000a81548173ffffffffffffffffffffffffffffffffffffffff021916908373ffffffffffffffffffffffffffffffffffffffff1602179055508173ffffffffffffffffffffffffffffffffffffffff168173ffffffffffffffffffffffffffffffffffffffff167f8be0079c531659141344cd1fd0a4f28419497f9722a3daafe3b4186f6b6457e060405160405180910390a35050565b5f73ffffffffffffffffffffffffffffffffffffffff82169050919050565b5f61018082610157565b9050919050565b61019081610176565b82525050565b5f6020820190506101a95f830184610187565b92915050565b6119bd806101bc5f395ff3fe608060405234801561000f575f80fd5b50600436106100a7575f3560e01c80633bc6e3091161006f5780633bc6e30914610175578063453e056a14610191578063715018a6146101ad5780638da5cb5b146101b7578063f2fde38b146101d5578063f947387c146101f1576100a7565b80630dc0ffb1146100ab57806315ecd016146100db5780631b0194f81461010b578063206aa1bc1461012957806327b51db214610159575b5f80fd5b6100c560048036038101906100c091906110f5565b610221565b6040516100d29190611156565b60405180910390f35b6100f560048036038101906100f091906110f5565b6102bf565b6040516101029190611187565b60405180910390f35b6101136104b3565b6040516101209190611187565b60405180910390f35b610143600480360381019061013e91906110f5565b6105c7565b6040516101509190611187565b60405180910390f35b610173600480360381019061016e91906111ca565b6106f1565b005b61018f600480360381019061018a91906112ac565b61091c565b005b6101ab60048036038101906101a691906110f5565b61097b565b005b6101b5610a84565b005b6101bf610a97565b6040516101cc91906112e6565b60405180910390f35b6101ef60048036038101906101ea91906112ac565b610abe565b005b61020b600480360381019061020691906112ff565b610b42565b6040516102189190611187565b60405180910390f35b5f60015f3373ffffffffffffffffffffffffffffffffffffffff1673ffffffffffffffffffffffffffffffffffffffff1681526020019081526020015f205f9054906101000a900460ff166102ab576040517f08c379a00000000000000000000000000000000000000000000000000000000081526004016102a2906113cf565b60405180910390fd5b600a6102b6836105c7565b10159050919050565b5f805f805f90505b60028054905081101561045b57610313856040518060400160405280600781526020017f62696f6c6f677900000000000000000000000000000000000000000000000000815250610ce0565b1561034e576002818154811061032c5761032b6113ed565b5b905f5260205f20906004020160010154836103479190611447565b9250610440565b61038d856040518060400160405280600581526020017f6d61746873000000000000000000000000000000000000000000000000000000815250610ce0565b156103c857600281815481106103a6576103a56113ed565b5b905f5260205f20906004020160020154836103c19190611447565b925061043f565b610407856040518060400160405280600681526020017f6672656e63680000000000000000000000000000000000000000000000000000815250610ce0565b1561043e57600281815481106104205761041f6113ed565b5b905f5260205f209060040201600301548361043b9190611447565b92505b5b5b818061044b9061147a565b92505080806001019150506102c7565b505f811161049e576040517f08c379a00000000000000000000000000000000000000000000000000000000081526004016104959061150b565b60405180910390fd5b80826104aa9190611556565b92505050919050565b5f805f805f90505b60028054905081101561057157600281815481106104dc576104db6113ed565b5b905f5260205f2090600402016003015460028281548110610500576104ff6113ed565b5b905f5260205f2090600402016002015460028381548110610524576105236113ed565b5b905f5260205f2090600402016001015461053e9190611447565b6105489190611447565b836105539190611447565b92506003826105629190611447565b915080806001019150506104bb565b505f81116105b4576040517f08c379a00000000000000000000000000000000000000000000000000000000081526004016105ab9061150b565b60405180910390fd5b80826105c09190611556565b9250505090565b5f60015f3373ffffffffffffffffffffffffffffffffffffffff1673ffffffffffffffffffffffffffffffffffffffff1681526020019081526020015f205f9054906101000a900460ff16610651576040517f08c379a0000000000000000000000000000000000000000000000000000000008152600401610648906113cf565b60405180910390fd5b5f61065b83610d38565b9050600360028281548110610673576106726113ed565b5b905f5260205f2090600402016003015460028381548110610697576106966113ed565b5b905f5260205f20906004020160020154600284815481106106bb576106ba6113ed565b5b905f5260205f209060040201600101546106d59190611447565b6106df9190611447565b6106e99190611556565b915050919050565b60015f3373ffffffffffffffffffffffffffffffffffffffff1673ffffffffffffffffffffffffffffffffffffffff1681526020019081526020015f205f9054906101000a900460ff1661077a576040517f08c379a0000000000000000000000000000000000000000000000000000000008152600401610771906113cf565b60405180910390fd5b5f61078484610d38565b90506107c5836040518060400160405280600781526020017f62696f6c6f677900000000000000000000000000000000000000000000000000815250610ce0565b156107f75781600282815481106107df576107de6113ed565b5b905f5260205f20906004020160010181905550610916565b610836836040518060400160405280600581526020017f6d61746873000000000000000000000000000000000000000000000000000000815250610ce0565b156108685781600282815481106108505761084f6113ed565b5b905f5260205f20906004020160020181905550610915565b6108a7836040518060400160405280600681526020017f6672656e63680000000000000000000000000000000000000000000000000000815250610ce0565b156108d95781600282815481106108c1576108c06113ed565b5b905f5260205f20906004020160030181905550610914565b6040517f08c379a000000000000000000000000000000000000000000000000000000000815260040161090b906115d0565b60405180910390fd5b5b5b50505050565b610924610e59565b6001805f8373ffffffffffffffffffffffffffffffffffffffff1673ffffffffffffffffffffffffffffffffffffffff1681526020019081526020015f205f6101000a81548160ff02191690831515021790555050565b60015f3373ffffffffffffffffffffffffffffffffffffffff1673ffffffffffffffffffffffffffffffffffffffff1681526020019081526020015f205f9054906101000a900460ff16610a04576040517f08c379a00000000000000000000000000000000000000000000000000000000081526004016109fb906113cf565b60405180910390fd5b600260405180608001604052808381526020015f81526020015f81526020015f815250908060018154018082558091505060019003905f5260205f2090600402015f909190919091505f820151815f019081610a6091906117f2565b50602082015181600101556040820151816002015560608201518160030155505050565b610a8c610e59565b610a955f610ee0565b565b5f805f9054906101000a900473ffffffffffffffffffffffffffffffffffffffff16905090565b610ac6610e59565b5f73ffffffffffffffffffffffffffffffffffffffff168173ffffffffffffffffffffffffffffffffffffffff1603610b36575f6040517f1e4fbdf7000000000000000000000000000000000000000000000000000000008152600401610b2d91906112e6565b60405180910390fd5b610b3f81610ee0565b50565b5f80610b4d84610d38565b9050610b8e836040518060400160405280600781526020017f62696f6c6f677900000000000000000000000000000000000000000000000000815250610ce0565b15610bbf5760028181548110610ba757610ba66113ed565b5b905f5260205f20906004020160010154915050610cda565b610bfe836040518060400160405280600581526020017f6d61746873000000000000000000000000000000000000000000000000000000815250610ce0565b15610c2f5760028181548110610c1757610c166113ed565b5b905f5260205f20906004020160020154915050610cda565b610c6e836040518060400160405280600681526020017f6672656e63680000000000000000000000000000000000000000000000000000815250610ce0565b15610c9f5760028181548110610c8757610c866113ed565b5b905f5260205f20906004020160030154915050610cda565b6040517f08c379a0000000000000000000000000000000000000000000000000000000008152600401610cd1906115d0565b60405180910390fd5b92915050565b5f81604051602001610cf29190611909565b6040516020818303038152906040528051906020012083604051602001610d199190611909565b6040516020818303038152906040528051906020012014905092915050565b5f805f90505b600280549050811015610e1857610dfd60028281548110610d6257610d616113ed565b5b905f5260205f2090600402015f018054610d7b90611625565b80601f0160208091040260200160405190810160405280929190818152602001828054610da790611625565b8015610df25780601f10610dc957610100808354040283529160200191610df2565b820191905f5260205f20905b815481529060010190602001808311610dd557829003601f168201915b505050505084610ce0565b15610e0b5780915050610e54565b8080600101915050610d3e565b506040517f08c379a0000000000000000000000000000000000000000000000000000000008152600401610e4b90611969565b60405180910390fd5b919050565b610e61610fa1565b73ffffffffffffffffffffffffffffffffffffffff16610e7f610a97565b73ffffffffffffffffffffffffffffffffffffffff1614610ede57610ea2610fa1565b6040517f118cdaa7000000000000000000000000000000000000000000000000000000008152600401610ed591906112e6565b60405180910390fd5b565b5f805f9054906101000a900473ffffffffffffffffffffffffffffffffffffffff169050815f806101000a81548173ffffffffffffffffffffffffffffffffffffffff021916908373ffffffffffffffffffffffffffffffffffffffff1602179055508173ffffffffffffffffffffffffffffffffffffffff168173ffffffffffffffffffffffffffffffffffffffff167f8be0079c531659141344cd1fd0a4f28419497f9722a3daafe3b4186f6b6457e060405160405180910390a35050565b5f33905090565b5f604051905090565b5f80fd5b5f80fd5b5f80fd5b5f80fd5b5f601f19601f8301169050919050565b7f4e487b71000000000000000000000000000000000000000000000000000000005f52604160045260245ffd5b61100782610fc1565b810181811067ffffffffffffffff8211171561102657611025610fd1565b5b80604052505050565b5f611038610fa8565b90506110448282610ffe565b919050565b5f67ffffffffffffffff82111561106357611062610fd1565b5b61106c82610fc1565b9050602081019050919050565b828183375f83830152505050565b5f61109961109484611049565b61102f565b9050828152602081018484840111156110b5576110b4610fbd565b5b6110c0848285611079565b509392505050565b5f82601f8301126110dc576110db610fb9565b5b81356110ec848260208601611087565b91505092915050565b5f6020828403121561110a57611109610fb1565b5b5f82013567ffffffffffffffff81111561112757611126610fb5565b5b611133848285016110c8565b91505092915050565b5f8115159050919050565b6111508161113c565b82525050565b5f6020820190506111695f830184611147565b92915050565b5f819050919050565b6111818161116f565b82525050565b5f60208201905061119a5f830184611178565b92915050565b6111a98161116f565b81146111b3575f80fd5b50565b5f813590506111c4816111a0565b92915050565b5f805f606084860312156111e1576111e0610fb1565b5b5f84013567ffffffffffffffff8111156111fe576111fd610fb5565b5b61120a868287016110c8565b935050602084013567ffffffffffffffff81111561122b5761122a610fb5565b5b611237868287016110c8565b9250506040611248868287016111b6565b9150509250925092565b5f73ffffffffffffffffffffffffffffffffffffffff82169050919050565b5f61127b82611252565b9050919050565b61128b81611271565b8114611295575f80fd5b50565b5f813590506112a681611282565b92915050565b5f602082840312156112c1576112c0610fb1565b5b5f6112ce84828501611298565b91505092915050565b6112e081611271565b82525050565b5f6020820190506112f95f8301846112d7565b92915050565b5f806040838503121561131557611314610fb1565b5b5f83013567ffffffffffffffff81111561133257611331610fb5565b5b61133e858286016110c8565b925050602083013567ffffffffffffffff81111561135f5761135e610fb5565b5b61136b858286016110c8565b9150509250929050565b5f82825260208201905092915050565b7f4e6f7420612074656163686572000000000000000000000000000000000000005f82015250565b5f6113b9600d83611375565b91506113c482611385565b602082019050919050565b5f6020820190508181035f8301526113e6816113ad565b9050919050565b7f4e487b71000000000000000000000000000000000000000000000000000000005f52603260045260245ffd5b7f4e487b71000000000000000000000000000000000000000000000000000000005f52601160045260245ffd5b5f6114518261116f565b915061145c8361116f565b92508282019050808211156114745761147361141a565b5b92915050565b5f6114848261116f565b91507fffffffffffffffffffffffffffffffffffffffffffffffffffffffffffffffff82036114b6576114b561141a565b5b600182019050919050565b7f4e6f2073747564656e747320696e20636c6173730000000000000000000000005f82015250565b5f6114f5601483611375565b9150611500826114c1565b602082019050919050565b5f6020820190508181035f830152611522816114e9565b9050919050565b7f4e487b71000000000000000000000000000000000000000000000000000000005f52601260045260245ffd5b5f6115608261116f565b915061156b8361116f565b92508261157b5761157a611529565b5b828204905092915050565b7f547970652061207265616c20636f7572736500000000000000000000000000005f82015250565b5f6115ba601283611375565b91506115c582611586565b602082019050919050565b5f6020820190508181035f8301526115e7816115ae565b9050919050565b5f81519050919050565b7f4e487b71000000000000000000000000000000000000000000000000000000005f52602260045260245ffd5b5f600282049050600182168061163c57607f821691505b60208210810361164f5761164e6115f8565b5b50919050565b5f819050815f5260205f209050919050565b5f6020601f8301049050919050565b5f82821b905092915050565b5f600883026116b17fffffffffffffffffffffffffffffffffffffffffffffffffffffffffffffffff82611676565b6116bb8683611676565b95508019841693508086168417925050509392505050565b5f819050919050565b5f6116f66116f16116ec8461116f565b6116d3565b61116f565b9050919050565b5f819050919050565b61170f836116dc565b61172361171b826116fd565b848454611682565b825550505050565b5f90565b61173761172b565b611742818484611706565b505050565b5b818110156117655761175a5f8261172f565b600181019050611748565b5050565b601f8211156117aa5761177b81611655565b61178484611667565b81016020851015611793578190505b6117a761179f85611667565b830182611747565b50505b505050565b5f82821c905092915050565b5f6117ca5f19846008026117af565b1980831691505092915050565b5f6117e283836117bb565b9150826002028217905092915050565b6117fb826115ee565b67ffffffffffffffff81111561181457611813610fd1565b5b61181e8254611625565b611829828285611769565b5f60209050601f83116001811461185a575f8415611848578287015190505b61185285826117d7565b8655506118b9565b601f19841661186886611655565b5f5b8281101561188f5784890151825560018201915060208501945060208101905061186a565b868310156118ac57848901516118a8601f8916826117bb565b8355505b6001600288020188555050505b505050505050565b5f81905092915050565b8281835e5f83830152505050565b5f6118e3826115ee565b6118ed81856118c1565b93506118fd8185602086016118cb565b80840191505092915050565b5f61191482846118d9565b915081905092915050565b7f53747564656e74206e6f7420666f756e640000000000000000000000000000005f82015250565b5f611953601183611375565b915061195e8261191f565b602082019050919050565b5f6020820190508181035f83015261198081611947565b905091905056fea2646970667358221220daa38b11871efa0fd2d66f3a668fcb975507f8d8c1e045a61b12989455243c5164736f6c634300081a0033",
					"opcodes": "PUSH1 0x80 PUSH1 0x40 MSTORE CALLVALUE DUP1 ISZERO PUSH2 0xF JUMPI PUSH0 DUP1 REVERT JUMPDEST POP CALLER PUSH0 PUSH20 0xFFFFFFFFFFFFFFFFFFFFFFFFFFFFFFFFFFFFFFFF AND DUP2 PUSH20 0xFFFFFFFFFFFFFFFFFFFFFFFFFFFFFFFFFFFFFFFF AND SUB PUSH2 0x81 JUMPI PUSH0 PUSH1 0x40 MLOAD PUSH32 0x1E4FBDF700000000000000000000000000000000000000000000000000000000 DUP2 MSTORE PUSH1 0x4 ADD PUSH2 0x78 SWAP2 SWAP1 PUSH2 0x196 JUMP JUMPDEST PUSH1 0x40 MLOAD DUP1 SWAP2 SUB SWAP1 REVERT JUMPDEST PUSH2 0x90 DUP2 PUSH2 0x96 PUSH1 0x20 SHL PUSH1 0x20 SHR JUMP JUMPDEST POP PUSH2 0x1AF JUMP JUMPDEST PUSH0 DUP1 PUSH0 SWAP1 SLOAD SWAP1 PUSH2 0x100 EXP SWAP1 DIV PUSH20 0xFFFFFFFFFFFFFFFFFFFFFFFFFFFFFFFFFFFFFFFF AND SWAP1 POP DUP2 PUSH0 DUP1 PUSH2 0x100 EXP DUP2 SLOAD DUP2 PUSH20 0xFFFFFFFFFFFFFFFFFFFFFFFFFFFFFFFFFFFFFFFF MUL NOT AND SWAP1 DUP4 PUSH20 0xFFFFFFFFFFFFFFFFFFFFFFFFFFFFFFFFFFFFFFFF AND MUL OR SWAP1 SSTORE POP DUP2 PUSH20 0xFFFFFFFFFFFFFFFFFFFFFFFFFFFFFFFFFFFFFFFF AND DUP2 PUSH20 0xFFFFFFFFFFFFFFFFFFFFFFFFFFFFFFFFFFFFFFFF AND PUSH32 0x8BE0079C531659141344CD1FD0A4F28419497F9722A3DAAFE3B4186F6B6457E0 PUSH1 0x40 MLOAD PUSH1 0x40 MLOAD DUP1 SWAP2 SUB SWAP1 LOG3 POP POP JUMP JUMPDEST PUSH0 PUSH20 0xFFFFFFFFFFFFFFFFFFFFFFFFFFFFFFFFFFFFFFFF DUP3 AND SWAP1 POP SWAP2 SWAP1 POP JUMP JUMPDEST PUSH0 PUSH2 0x180 DUP3 PUSH2 0x157 JUMP JUMPDEST SWAP1 POP SWAP2 SWAP1 POP JUMP JUMPDEST PUSH2 0x190 DUP2 PUSH2 0x176 JUMP JUMPDEST DUP3 MSTORE POP POP JUMP JUMPDEST PUSH0 PUSH1 0x20 DUP3 ADD SWAP1 POP PUSH2 0x1A9 PUSH0 DUP4 ADD DUP5 PUSH2 0x187 JUMP JUMPDEST SWAP3 SWAP2 POP POP JUMP JUMPDEST PUSH2 0x19BD DUP1 PUSH2 0x1BC PUSH0 CODECOPY PUSH0 RETURN INVALID PUSH1 0x80 PUSH1 0x40 MSTORE CALLVALUE DUP1 ISZERO PUSH2 0xF JUMPI PUSH0 DUP1 REVERT JUMPDEST POP PUSH1 0x4 CALLDATASIZE LT PUSH2 0xA7 JUMPI PUSH0 CALLDATALOAD PUSH1 0xE0 SHR DUP1 PUSH4 0x3BC6E309 GT PUSH2 0x6F JUMPI DUP1 PUSH4 0x3BC6E309 EQ PUSH2 0x175 JUMPI DUP1 PUSH4 0x453E056A EQ PUSH2 0x191 JUMPI DUP1 PUSH4 0x715018A6 EQ PUSH2 0x1AD JUMPI DUP1 PUSH4 0x8DA5CB5B EQ PUSH2 0x1B7 JUMPI DUP1 PUSH4 0xF2FDE38B EQ PUSH2 0x1D5 JUMPI DUP1 PUSH4 0xF947387C EQ PUSH2 0x1F1 JUMPI PUSH2 0xA7 JUMP JUMPDEST DUP1 PUSH4 0xDC0FFB1 EQ PUSH2 0xAB JUMPI DUP1 PUSH4 0x15ECD016 EQ PUSH2 0xDB JUMPI DUP1 PUSH4 0x1B0194F8 EQ PUSH2 0x10B JUMPI DUP1 PUSH4 0x206AA1BC EQ PUSH2 0x129 JUMPI DUP1 PUSH4 0x27B51DB2 EQ PUSH2 0x159 JUMPI JUMPDEST PUSH0 DUP1 REVERT JUMPDEST PUSH2 0xC5 PUSH1 0x4 DUP1 CALLDATASIZE SUB DUP2 ADD SWAP1 PUSH2 0xC0 SWAP2 SWAP1 PUSH2 0x10F5 JUMP JUMPDEST PUSH2 0x221 JUMP JUMPDEST PUSH1 0x40 MLOAD PUSH2 0xD2 SWAP2 SWAP1 PUSH2 0x1156 JUMP JUMPDEST PUSH1 0x40 MLOAD DUP1 SWAP2 SUB SWAP1 RETURN JUMPDEST PUSH2 0xF5 PUSH1 0x4 DUP1 CALLDATASIZE SUB DUP2 ADD SWAP1 PUSH2 0xF0 SWAP2 SWAP1 PUSH2 0x10F5 JUMP JUMPDEST PUSH2 0x2BF JUMP JUMPDEST PUSH1 0x40 MLOAD PUSH2 0x102 SWAP2 SWAP1 PUSH2 0x1187 JUMP JUMPDEST PUSH1 0x40 MLOAD DUP1 SWAP2 SUB SWAP1 RETURN JUMPDEST PUSH2 0x113 PUSH2 0x4B3 JUMP JUMPDEST PUSH1 0x40 MLOAD PUSH2 0x120 SWAP2 SWAP1 PUSH2 0x1187 JUMP JUMPDEST PUSH1 0x40 MLOAD DUP1 SWAP2 SUB SWAP1 RETURN JUMPDEST PUSH2 0x143 PUSH1 0x4 DUP1 CALLDATASIZE SUB DUP2 ADD SWAP1 PUSH2 0x13E SWAP2 SWAP1 PUSH2 0x10F5 JUMP JUMPDEST PUSH2 0x5C7 JUMP JUMPDEST PUSH1 0x40 MLOAD PUSH2 0x150 SWAP2 SWAP1 PUSH2 0x1187 JUMP JUMPDEST PUSH1 0x40 MLOAD DUP1 SWAP2 SUB SWAP1 RETURN JUMPDEST PUSH2 0x173 PUSH1 0x4 DUP1 CALLDATASIZE SUB DUP2 ADD SWAP1 PUSH2 0x16E SWAP2 SWAP1 PUSH2 0x11CA JUMP JUMPDEST PUSH2 0x6F1 JUMP JUMPDEST STOP JUMPDEST PUSH2 0x18F PUSH1 0x4 DUP1 CALLDATASIZE SUB DUP2 ADD SWAP1 PUSH2 0x18A SWAP2 SWAP1 PUSH2 0x12AC JUMP JUMPDEST PUSH2 0x91C JUMP JUMPDEST STOP JUMPDEST PUSH2 0x1AB PUSH1 0x4 DUP1 CALLDATASIZE SUB DUP2 ADD SWAP1 PUSH2 0x1A6 SWAP2 SWAP1 PUSH2 0x10F5 JUMP JUMPDEST PUSH2 0x97B JUMP JUMPDEST STOP JUMPDEST PUSH2 0x1B5 PUSH2 0xA84 JUMP JUMPDEST STOP JUMPDEST PUSH2 0x1BF PUSH2 0xA97 JUMP JUMPDEST PUSH1 0x40 MLOAD PUSH2 0x1CC SWAP2 SWAP1 PUSH2 0x12E6 JUMP JUMPDEST PUSH1 0x40 MLOAD DUP1 SWAP2 SUB SWAP1 RETURN JUMPDEST PUSH2 0x1EF PUSH1 0x4 DUP1 CALLDATASIZE SUB DUP2 ADD SWAP1 PUSH2 0x1EA SWAP2 SWAP1 PUSH2 0x12AC JUMP JUMPDEST PUSH2 0xABE JUMP JUMPDEST STOP JUMPDEST PUSH2 0x20B PUSH1 0x4 DUP1 CALLDATASIZE SUB DUP2 ADD SWAP1 PUSH2 0x206 SWAP2 SWAP1 PUSH2 0x12FF JUMP JUMPDEST PUSH2 0xB42 JUMP JUMPDEST PUSH1 0x40 MLOAD PUSH2 0x218 SWAP2 SWAP1 PUSH2 0x1187 JUMP JUMPDEST PUSH1 0x40 MLOAD DUP1 SWAP2 SUB SWAP1 RETURN JUMPDEST PUSH0 PUSH1 0x1 PUSH0 CALLER PUSH20 0xFFFFFFFFFFFFFFFFFFFFFFFFFFFFFFFFFFFFFFFF AND PUSH20 0xFFFFFFFFFFFFFFFFFFFFFFFFFFFFFFFFFFFFFFFF AND DUP2 MSTORE PUSH1 0x20 ADD SWAP1 DUP2 MSTORE PUSH1 0x20 ADD PUSH0 KECCAK256 PUSH0 SWAP1 SLOAD SWAP1 PUSH2 0x100 EXP SWAP1 DIV PUSH1 0xFF AND PUSH2 0x2AB JUMPI PUSH1 0x40 MLOAD PUSH32 0x8C379A000000000000000000000000000000000000000000000000000000000 DUP2 MSTORE PUSH1 0x4 ADD PUSH2 0x2A2 SWAP1 PUSH2 0x13CF JUMP JUMPDEST PUSH1 0x40 MLOAD DUP1 SWAP2 SUB SWAP1 REVERT JUMPDEST PUSH1 0xA PUSH2 0x2B6 DUP4 PUSH2 0x5C7 JUMP JUMPDEST LT ISZERO SWAP1 POP SWAP2 SWAP1 POP JUMP JUMPDEST PUSH0 DUP1 PUSH0 DUP1 PUSH0 SWAP1 POP JUMPDEST PUSH1 0x2 DUP1 SLOAD SWAP1 POP DUP2 LT ISZERO PUSH2 0x45B JUMPI PUSH2 0x313 DUP6 PUSH1 0x40 MLOAD DUP1 PUSH1 0x40 ADD PUSH1 0x40 MSTORE DUP1 PUSH1 0x7 DUP2 MSTORE PUSH1 0x20 ADD PUSH32 0x62696F6C6F677900000000000000000000000000000000000000000000000000 DUP2 MSTORE POP PUSH2 0xCE0 JUMP JUMPDEST ISZERO PUSH2 0x34E JUMPI PUSH1 0x2 DUP2 DUP2 SLOAD DUP2 LT PUSH2 0x32C JUMPI PUSH2 0x32B PUSH2 0x13ED JUMP JUMPDEST JUMPDEST SWAP1 PUSH0 MSTORE PUSH1 0x20 PUSH0 KECCAK256 SWAP1 PUSH1 0x4 MUL ADD PUSH1 0x1 ADD SLOAD DUP4 PUSH2 0x347 SWAP2 SWAP1 PUSH2 0x1447 JUMP JUMPDEST SWAP3 POP PUSH2 0x440 JUMP JUMPDEST PUSH2 0x38D DUP6 PUSH1 0x40 MLOAD DUP1 PUSH1 0x40 ADD PUSH1 0x40 MSTORE DUP1 PUSH1 0x5 DUP2 MSTORE PUSH1 0x20 ADD PUSH32 0x6D61746873000000000000000000000000000000000000000000000000000000 DUP2 MSTORE POP PUSH2 0xCE0 JUMP JUMPDEST ISZERO PUSH2 0x3C8 JUMPI PUSH1 0x2 DUP2 DUP2 SLOAD DUP2 LT PUSH2 0x3A6 JUMPI PUSH2 0x3A5 PUSH2 0x13ED JUMP JUMPDEST JUMPDEST SWAP1 PUSH0 MSTORE PUSH1 0x20 PUSH0 KECCAK256 SWAP1 PUSH1 0x4 MUL ADD PUSH1 0x2 ADD SLOAD DUP4 PUSH2 0x3C1 SWAP2 SWAP1 PUSH2 0x1447 JUMP JUMPDEST SWAP3 POP PUSH2 0x43F JUMP JUMPDEST PUSH2 0x407 DUP6 PUSH1 0x40 MLOAD DUP1 PUSH1 0x40 ADD PUSH1 0x40 MSTORE DUP1 PUSH1 0x6 DUP2 MSTORE PUSH1 0x20 ADD PUSH32 0x6672656E63680000000000000000000000000000000000000000000000000000 DUP2 MSTORE POP PUSH2 0xCE0 JUMP JUMPDEST ISZERO PUSH2 0x43E JUMPI PUSH1 0x2 DUP2 DUP2 SLOAD DUP2 LT PUSH2 0x420 JUMPI PUSH2 0x41F PUSH2 0x13ED JUMP JUMPDEST JUMPDEST SWAP1 PUSH0 MSTORE PUSH1 0x20 PUSH0 KECCAK256 SWAP1 PUSH1 0x4 MUL ADD PUSH1 0x3 ADD SLOAD DUP4 PUSH2 0x43B SWAP2 SWAP1 PUSH2 0x1447 JUMP JUMPDEST SWAP3 POP JUMPDEST JUMPDEST JUMPDEST DUP2 DUP1 PUSH2 0x44B SWAP1 PUSH2 0x147A JUMP JUMPDEST SWAP3 POP POP DUP1 DUP1 PUSH1 0x1 ADD SWAP2 POP POP PUSH2 0x2C7 JUMP JUMPDEST POP PUSH0 DUP2 GT PUSH2 0x49E JUMPI PUSH1 0x40 MLOAD PUSH32 0x8C379A000000000000000000000000000000000000000000000000000000000 DUP2 MSTORE PUSH1 0x4 ADD PUSH2 0x495 SWAP1 PUSH2 0x150B JUMP JUMPDEST PUSH1 0x40 MLOAD DUP1 SWAP2 SUB SWAP1 REVERT JUMPDEST DUP1 DUP3 PUSH2 0x4AA SWAP2 SWAP1 PUSH2 0x1556 JUMP JUMPDEST SWAP3 POP POP POP SWAP2 SWAP1 POP JUMP JUMPDEST PUSH0 DUP1 PUSH0 DUP1 PUSH0 SWAP1 POP JUMPDEST PUSH1 0x2 DUP1 SLOAD SWAP1 POP DUP2 LT ISZERO PUSH2 0x571 JUMPI PUSH1 0x2 DUP2 DUP2 SLOAD DUP2 LT PUSH2 0x4DC JUMPI PUSH2 0x4DB PUSH2 0x13ED JUMP JUMPDEST JUMPDEST SWAP1 PUSH0 MSTORE PUSH1 0x20 PUSH0 KECCAK256 SWAP1 PUSH1 0x4 MUL ADD PUSH1 0x3 ADD SLOAD PUSH1 0x2 DUP3 DUP2 SLOAD DUP2 LT PUSH2 0x500 JUMPI PUSH2 0x4FF PUSH2 0x13ED JUMP JUMPDEST JUMPDEST SWAP1 PUSH0 MSTORE PUSH1 0x20 PUSH0 KECCAK256 SWAP1 PUSH1 0x4 MUL ADD PUSH1 0x2 ADD SLOAD PUSH1 0x2 DUP4 DUP2 SLOAD DUP2 LT PUSH2 0x524 JUMPI PUSH2 0x523 PUSH2 0x13ED JUMP JUMPDEST JUMPDEST SWAP1 PUSH0 MSTORE PUSH1 0x20 PUSH0 KECCAK256 SWAP1 PUSH1 0x4 MUL ADD PUSH1 0x1 ADD SLOAD PUSH2 0x53E SWAP2 SWAP1 PUSH2 0x1447 JUMP JUMPDEST PUSH2 0x548 SWAP2 SWAP1 PUSH2 0x1447 JUMP JUMPDEST DUP4 PUSH2 0x553 SWAP2 SWAP1 PUSH2 0x1447 JUMP JUMPDEST SWAP3 POP PUSH1 0x3 DUP3 PUSH2 0x562 SWAP2 SWAP1 PUSH2 0x1447 JUMP JUMPDEST SWAP2 POP DUP1 DUP1 PUSH1 0x1 ADD SWAP2 POP POP PUSH2 0x4BB JUMP JUMPDEST POP PUSH0 DUP2 GT PUSH2 0x5B4 JUMPI PUSH1 0x40 MLOAD PUSH32 0x8C379A000000000000000000000000000000000000000000000000000000000 DUP2 MSTORE PUSH1 0x4 ADD PUSH2 0x5AB SWAP1 PUSH2 0x150B JUMP JUMPDEST PUSH1 0x40 MLOAD DUP1 SWAP2 SUB SWAP1 REVERT JUMPDEST DUP1 DUP3 PUSH2 0x5C0 SWAP2 SWAP1 PUSH2 0x1556 JUMP JUMPDEST SWAP3 POP POP POP SWAP1 JUMP JUMPDEST PUSH0 PUSH1 0x1 PUSH0 CALLER PUSH20 0xFFFFFFFFFFFFFFFFFFFFFFFFFFFFFFFFFFFFFFFF AND PUSH20 0xFFFFFFFFFFFFFFFFFFFFFFFFFFFFFFFFFFFFFFFF AND DUP2 MSTORE PUSH1 0x20 ADD SWAP1 DUP2 MSTORE PUSH1 0x20 ADD PUSH0 KECCAK256 PUSH0 SWAP1 SLOAD SWAP1 PUSH2 0x100 EXP SWAP1 DIV PUSH1 0xFF AND PUSH2 0x651 JUMPI PUSH1 0x40 MLOAD PUSH32 0x8C379A000000000000000000000000000000000000000000000000000000000 DUP2 MSTORE PUSH1 0x4 ADD PUSH2 0x648 SWAP1 PUSH2 0x13CF JUMP JUMPDEST PUSH1 0x40 MLOAD DUP1 SWAP2 SUB SWAP1 REVERT JUMPDEST PUSH0 PUSH2 0x65B DUP4 PUSH2 0xD38 JUMP JUMPDEST SWAP1 POP PUSH1 0x3 PUSH1 0x2 DUP3 DUP2 SLOAD DUP2 LT PUSH2 0x673 JUMPI PUSH2 0x672 PUSH2 0x13ED JUMP JUMPDEST JUMPDEST SWAP1 PUSH0 MSTORE PUSH1 0x20 PUSH0 KECCAK256 SWAP1 PUSH1 0x4 MUL ADD PUSH1 0x3 ADD SLOAD PUSH1 0x2 DUP4 DUP2 SLOAD DUP2 LT PUSH2 0x697 JUMPI PUSH2 0x696 PUSH2 0x13ED JUMP JUMPDEST JUMPDEST SWAP1 PUSH0 MSTORE PUSH1 0x20 PUSH0 KECCAK256 SWAP1 PUSH1 0x4 MUL ADD PUSH1 0x2 ADD SLOAD PUSH1 0x2 DUP5 DUP2 SLOAD DUP2 LT PUSH2 0x6BB JUMPI PUSH2 0x6BA PUSH2 0x13ED JUMP JUMPDEST JUMPDEST SWAP1 PUSH0 MSTORE PUSH1 0x20 PUSH0 KECCAK256 SWAP1 PUSH1 0x4 MUL ADD PUSH1 0x1 ADD SLOAD PUSH2 0x6D5 SWAP2 SWAP1 PUSH2 0x1447 JUMP JUMPDEST PUSH2 0x6DF SWAP2 SWAP1 PUSH2 0x1447 JUMP JUMPDEST PUSH2 0x6E9 SWAP2 SWAP1 PUSH2 0x1556 JUMP JUMPDEST SWAP2 POP POP SWAP2 SWAP1 POP JUMP JUMPDEST PUSH1 0x1 PUSH0 CALLER PUSH20 0xFFFFFFFFFFFFFFFFFFFFFFFFFFFFFFFFFFFFFFFF AND PUSH20 0xFFFFFFFFFFFFFFFFFFFFFFFFFFFFFFFFFFFFFFFF AND DUP2 MSTORE PUSH1 0x20 ADD SWAP1 DUP2 MSTORE PUSH1 0x20 ADD PUSH0 KECCAK256 PUSH0 SWAP1 SLOAD SWAP1 PUSH2 0x100 EXP SWAP1 DIV PUSH1 0xFF AND PUSH2 0x77A JUMPI PUSH1 0x40 MLOAD PUSH32 0x8C379A000000000000000000000000000000000000000000000000000000000 DUP2 MSTORE PUSH1 0x4 ADD PUSH2 0x771 SWAP1 PUSH2 0x13CF JUMP JUMPDEST PUSH1 0x40 MLOAD DUP1 SWAP2 SUB SWAP1 REVERT JUMPDEST PUSH0 PUSH2 0x784 DUP5 PUSH2 0xD38 JUMP JUMPDEST SWAP1 POP PUSH2 0x7C5 DUP4 PUSH1 0x40 MLOAD DUP1 PUSH1 0x40 ADD PUSH1 0x40 MSTORE DUP1 PUSH1 0x7 DUP2 MSTORE PUSH1 0x20 ADD PUSH32 0x62696F6C6F677900000000000000000000000000000000000000000000000000 DUP2 MSTORE POP PUSH2 0xCE0 JUMP JUMPDEST ISZERO PUSH2 0x7F7 JUMPI DUP2 PUSH1 0x2 DUP3 DUP2 SLOAD DUP2 LT PUSH2 0x7DF JUMPI PUSH2 0x7DE PUSH2 0x13ED JUMP JUMPDEST JUMPDEST SWAP1 PUSH0 MSTORE PUSH1 0x20 PUSH0 KECCAK256 SWAP1 PUSH1 0x4 MUL ADD PUSH1 0x1 ADD DUP2 SWAP1 SSTORE POP PUSH2 0x916 JUMP JUMPDEST PUSH2 0x836 DUP4 PUSH1 0x40 MLOAD DUP1 PUSH1 0x40 ADD PUSH1 0x40 MSTORE DUP1 PUSH1 0x5 DUP2 MSTORE PUSH1 0x20 ADD PUSH32 0x6D61746873000000000000000000000000000000000000000000000000000000 DUP2 MSTORE POP PUSH2 0xCE0 JUMP JUMPDEST ISZERO PUSH2 0x868 JUMPI DUP2 PUSH1 0x2 DUP3 DUP2 SLOAD DUP2 LT PUSH2 0x850 JUMPI PUSH2 0x84F PUSH2 0x13ED JUMP JUMPDEST JUMPDEST SWAP1 PUSH0 MSTORE PUSH1 0x20 PUSH0 KECCAK256 SWAP1 PUSH1 0x4 MUL ADD PUSH1 0x2 ADD DUP2 SWAP1 SSTORE POP PUSH2 0x915 JUMP JUMPDEST PUSH2 0x8A7 DUP4 PUSH1 0x40 MLOAD DUP1 PUSH1 0x40 ADD PUSH1 0x40 MSTORE DUP1 PUSH1 0x6 DUP2 MSTORE PUSH1 0x20 ADD PUSH32 0x6672656E63680000000000000000000000000000000000000000000000000000 DUP2 MSTORE POP PUSH2 0xCE0 JUMP JUMPDEST ISZERO PUSH2 0x8D9 JUMPI DUP2 PUSH1 0x2 DUP3 DUP2 SLOAD DUP2 LT PUSH2 0x8C1 JUMPI PUSH2 0x8C0 PUSH2 0x13ED JUMP JUMPDEST JUMPDEST SWAP1 PUSH0 MSTORE PUSH1 0x20 PUSH0 KECCAK256 SWAP1 PUSH1 0x4 MUL ADD PUSH1 0x3 ADD DUP2 SWAP1 SSTORE POP PUSH2 0x914 JUMP JUMPDEST PUSH1 0x40 MLOAD PUSH32 0x8C379A000000000000000000000000000000000000000000000000000000000 DUP2 MSTORE PUSH1 0x4 ADD PUSH2 0x90B SWAP1 PUSH2 0x15D0 JUMP JUMPDEST PUSH1 0x40 MLOAD DUP1 SWAP2 SUB SWAP1 REVERT JUMPDEST JUMPDEST JUMPDEST POP POP POP POP JUMP JUMPDEST PUSH2 0x924 PUSH2 0xE59 JUMP JUMPDEST PUSH1 0x1 DUP1 PUSH0 DUP4 PUSH20 0xFFFFFFFFFFFFFFFFFFFFFFFFFFFFFFFFFFFFFFFF AND PUSH20 0xFFFFFFFFFFFFFFFFFFFFFFFFFFFFFFFFFFFFFFFF AND DUP2 MSTORE PUSH1 0x20 ADD SWAP1 DUP2 MSTORE PUSH1 0x20 ADD PUSH0 KECCAK256 PUSH0 PUSH2 0x100 EXP DUP2 SLOAD DUP2 PUSH1 0xFF MUL NOT AND SWAP1 DUP4 ISZERO ISZERO MUL OR SWAP1 SSTORE POP POP JUMP JUMPDEST PUSH1 0x1 PUSH0 CALLER PUSH20 0xFFFFFFFFFFFFFFFFFFFFFFFFFFFFFFFFFFFFFFFF AND PUSH20 0xFFFFFFFFFFFFFFFFFFFFFFFFFFFFFFFFFFFFFFFF AND DUP2 MSTORE PUSH1 0x20 ADD SWAP1 DUP2 MSTORE PUSH1 0x20 ADD PUSH0 KECCAK256 PUSH0 SWAP1 SLOAD SWAP1 PUSH2 0x100 EXP SWAP1 DIV PUSH1 0xFF AND PUSH2 0xA04 JUMPI PUSH1 0x40 MLOAD PUSH32 0x8C379A000000000000000000000000000000000000000000000000000000000 DUP2 MSTORE PUSH1 0x4 ADD PUSH2 0x9FB SWAP1 PUSH2 0x13CF JUMP JUMPDEST PUSH1 0x40 MLOAD DUP1 SWAP2 SUB SWAP1 REVERT JUMPDEST PUSH1 0x2 PUSH1 0x40 MLOAD DUP1 PUSH1 0x80 ADD PUSH1 0x40 MSTORE DUP1 DUP4 DUP2 MSTORE PUSH1 0x20 ADD PUSH0 DUP2 MSTORE PUSH1 0x20 ADD PUSH0 DUP2 MSTORE PUSH1 0x20 ADD PUSH0 DUP2 MSTORE POP SWAP1 DUP1 PUSH1 0x1 DUP2 SLOAD ADD DUP1 DUP3 SSTORE DUP1 SWAP2 POP POP PUSH1 0x1 SWAP1 SUB SWAP1 PUSH0 MSTORE PUSH1 0x20 PUSH0 KECCAK256 SWAP1 PUSH1 0x4 MUL ADD PUSH0 SWAP1 SWAP2 SWAP1 SWAP2 SWAP1 SWAP2 POP PUSH0 DUP3 ADD MLOAD DUP2 PUSH0 ADD SWAP1 DUP2 PUSH2 0xA60 SWAP2 SWAP1 PUSH2 0x17F2 JUMP JUMPDEST POP PUSH1 0x20 DUP3 ADD MLOAD DUP2 PUSH1 0x1 ADD SSTORE PUSH1 0x40 DUP3 ADD MLOAD DUP2 PUSH1 0x2 ADD SSTORE PUSH1 0x60 DUP3 ADD MLOAD DUP2 PUSH1 0x3 ADD SSTORE POP POP POP JUMP JUMPDEST PUSH2 0xA8C PUSH2 0xE59 JUMP JUMPDEST PUSH2 0xA95 PUSH0 PUSH2 0xEE0 JUMP JUMPDEST JUMP JUMPDEST PUSH0 DUP1 PUSH0 SWAP1 SLOAD SWAP1 PUSH2 0x100 EXP SWAP1 DIV PUSH20 0xFFFFFFFFFFFFFFFFFFFFFFFFFFFFFFFFFFFFFFFF AND SWAP1 POP SWAP1 JUMP JUMPDEST PUSH2 0xAC6 PUSH2 0xE59 JUMP JUMPDEST PUSH0 PUSH20 0xFFFFFFFFFFFFFFFFFFFFFFFFFFFFFFFFFFFFFFFF AND DUP2 PUSH20 0xFFFFFFFFFFFFFFFFFFFFFFFFFFFFFFFFFFFFFFFF AND SUB PUSH2 0xB36 JUMPI PUSH0 PUSH1 0x40 MLOAD PUSH32 0x1E4FBDF700000000000000000000000000000000000000000000000000000000 DUP2 MSTORE PUSH1 0x4 ADD PUSH2 0xB2D SWAP2 SWAP1 PUSH2 0x12E6 JUMP JUMPDEST PUSH1 0x40 MLOAD DUP1 SWAP2 SUB SWAP1 REVERT JUMPDEST PUSH2 0xB3F DUP2 PUSH2 0xEE0 JUMP JUMPDEST POP JUMP JUMPDEST PUSH0 DUP1 PUSH2 0xB4D DUP5 PUSH2 0xD38 JUMP JUMPDEST SWAP1 POP PUSH2 0xB8E DUP4 PUSH1 0x40 MLOAD DUP1 PUSH1 0x40 ADD PUSH1 0x40 MSTORE DUP1 PUSH1 0x7 DUP2 MSTORE PUSH1 0x20 ADD PUSH32 0x62696F6C6F677900000000000000000000000000000000000000000000000000 DUP2 MSTORE POP PUSH2 0xCE0 JUMP JUMPDEST ISZERO PUSH2 0xBBF JUMPI PUSH1 0x2 DUP2 DUP2 SLOAD DUP2 LT PUSH2 0xBA7 JUMPI PUSH2 0xBA6 PUSH2 0x13ED JUMP JUMPDEST JUMPDEST SWAP1 PUSH0 MSTORE PUSH1 0x20 PUSH0 KECCAK256 SWAP1 PUSH1 0x4 MUL ADD PUSH1 0x1 ADD SLOAD SWAP2 POP POP PUSH2 0xCDA JUMP JUMPDEST PUSH2 0xBFE DUP4 PUSH1 0x40 MLOAD DUP1 PUSH1 0x40 ADD PUSH1 0x40 MSTORE DUP1 PUSH1 0x5 DUP2 MSTORE PUSH1 0x20 ADD PUSH32 0x6D61746873000000000000000000000000000000000000000000000000000000 DUP2 MSTORE POP PUSH2 0xCE0 JUMP JUMPDEST ISZERO PUSH2 0xC2F JUMPI PUSH1 0x2 DUP2 DUP2 SLOAD DUP2 LT PUSH2 0xC17 JUMPI PUSH2 0xC16 PUSH2 0x13ED JUMP JUMPDEST JUMPDEST SWAP1 PUSH0 MSTORE PUSH1 0x20 PUSH0 KECCAK256 SWAP1 PUSH1 0x4 MUL ADD PUSH1 0x2 ADD SLOAD SWAP2 POP POP PUSH2 0xCDA JUMP JUMPDEST PUSH2 0xC6E DUP4 PUSH1 0x40 MLOAD DUP1 PUSH1 0x40 ADD PUSH1 0x40 MSTORE DUP1 PUSH1 0x6 DUP2 MSTORE PUSH1 0x20 ADD PUSH32 0x6672656E63680000000000000000000000000000000000000000000000000000 DUP2 MSTORE POP PUSH2 0xCE0 JUMP JUMPDEST ISZERO PUSH2 0xC9F JUMPI PUSH1 0x2 DUP2 DUP2 SLOAD DUP2 LT PUSH2 0xC87 JUMPI PUSH2 0xC86 PUSH2 0x13ED JUMP JUMPDEST JUMPDEST SWAP1 PUSH0 MSTORE PUSH1 0x20 PUSH0 KECCAK256 SWAP1 PUSH1 0x4 MUL ADD PUSH1 0x3 ADD SLOAD SWAP2 POP POP PUSH2 0xCDA JUMP JUMPDEST PUSH1 0x40 MLOAD PUSH32 0x8C379A000000000000000000000000000000000000000000000000000000000 DUP2 MSTORE PUSH1 0x4 ADD PUSH2 0xCD1 SWAP1 PUSH2 0x15D0 JUMP JUMPDEST PUSH1 0x40 MLOAD DUP1 SWAP2 SUB SWAP1 REVERT JUMPDEST SWAP3 SWAP2 POP POP JUMP JUMPDEST PUSH0 DUP2 PUSH1 0x40 MLOAD PUSH1 0x20 ADD PUSH2 0xCF2 SWAP2 SWAP1 PUSH2 0x1909 JUMP JUMPDEST PUSH1 0x40 MLOAD PUSH1 0x20 DUP2 DUP4 SUB SUB DUP2 MSTORE SWAP1 PUSH1 0x40 MSTORE DUP1 MLOAD SWAP1 PUSH1 0x20 ADD KECCAK256 DUP4 PUSH1 0x40 MLOAD PUSH1 0x20 ADD PUSH2 0xD19 SWAP2 SWAP1 PUSH2 0x1909 JUMP JUMPDEST PUSH1 0x40 MLOAD PUSH1 0x20 DUP2 DUP4 SUB SUB DUP2 MSTORE SWAP1 PUSH1 0x40 MSTORE DUP1 MLOAD SWAP1 PUSH1 0x20 ADD KECCAK256 EQ SWAP1 POP SWAP3 SWAP2 POP POP JUMP JUMPDEST PUSH0 DUP1 PUSH0 SWAP1 POP JUMPDEST PUSH1 0x2 DUP1 SLOAD SWAP1 POP DUP2 LT ISZERO PUSH2 0xE18 JUMPI PUSH2 0xDFD PUSH1 0x2 DUP3 DUP2 SLOAD DUP2 LT PUSH2 0xD62 JUMPI PUSH2 0xD61 PUSH2 0x13ED JUMP JUMPDEST JUMPDEST SWAP1 PUSH0 MSTORE PUSH1 0x20 PUSH0 KECCAK256 SWAP1 PUSH1 0x4 MUL ADD PUSH0 ADD DUP1 SLOAD PUSH2 0xD7B SWAP1 PUSH2 0x1625 JUMP JUMPDEST DUP1 PUSH1 0x1F ADD PUSH1 0x20 DUP1 SWAP2 DIV MUL PUSH1 0x20 ADD PUSH1 0x40 MLOAD SWAP1 DUP2 ADD PUSH1 0x40 MSTORE DUP1 SWAP3 SWAP2 SWAP1 DUP2 DUP2 MSTORE PUSH1 0x20 ADD DUP3 DUP1 SLOAD PUSH2 0xDA7 SWAP1 PUSH2 0x1625 JUMP JUMPDEST DUP1 ISZERO PUSH2 0xDF2 JUMPI DUP1 PUSH1 0x1F LT PUSH2 0xDC9 JUMPI PUSH2 0x100 DUP1 DUP4 SLOAD DIV MUL DUP4 MSTORE SWAP2 PUSH1 0x20 ADD SWAP2 PUSH2 0xDF2 JUMP JUMPDEST DUP3 ADD SWAP2 SWAP1 PUSH0 MSTORE PUSH1 0x20 PUSH0 KECCAK256 SWAP1 JUMPDEST DUP2 SLOAD DUP2 MSTORE SWAP1 PUSH1 0x1 ADD SWAP1 PUSH1 0x20 ADD DUP1 DUP4 GT PUSH2 0xDD5 JUMPI DUP3 SWAP1 SUB PUSH1 0x1F AND DUP3 ADD SWAP2 JUMPDEST POP POP POP POP POP DUP5 PUSH2 0xCE0 JUMP JUMPDEST ISZERO PUSH2 0xE0B JUMPI DUP1 SWAP2 POP POP PUSH2 0xE54 JUMP JUMPDEST DUP1 DUP1 PUSH1 0x1 ADD SWAP2 POP POP PUSH2 0xD3E JUMP JUMPDEST POP PUSH1 0x40 MLOAD PUSH32 0x8C379A000000000000000000000000000000000000000000000000000000000 DUP2 MSTORE PUSH1 0x4 ADD PUSH2 0xE4B SWAP1 PUSH2 0x1969 JUMP JUMPDEST PUSH1 0x40 MLOAD DUP1 SWAP2 SUB SWAP1 REVERT JUMPDEST SWAP2 SWAP1 POP JUMP JUMPDEST PUSH2 0xE61 PUSH2 0xFA1 JUMP JUMPDEST PUSH20 0xFFFFFFFFFFFFFFFFFFFFFFFFFFFFFFFFFFFFFFFF AND PUSH2 0xE7F PUSH2 0xA97 JUMP JUMPDEST PUSH20 0xFFFFFFFFFFFFFFFFFFFFFFFFFFFFFFFFFFFFFFFF AND EQ PUSH2 0xEDE JUMPI PUSH2 0xEA2 PUSH2 0xFA1 JUMP JUMPDEST PUSH1 0x40 MLOAD PUSH32 0x118CDAA700000000000000000000000000000000000000000000000000000000 DUP2 MSTORE PUSH1 0x4 ADD PUSH2 0xED5 SWAP2 SWAP1 PUSH2 0x12E6 JUMP JUMPDEST PUSH1 0x40 MLOAD DUP1 SWAP2 SUB SWAP1 REVERT JUMPDEST JUMP JUMPDEST PUSH0 DUP1 PUSH0 SWAP1 SLOAD SWAP1 PUSH2 0x100 EXP SWAP1 DIV PUSH20 0xFFFFFFFFFFFFFFFFFFFFFFFFFFFFFFFFFFFFFFFF AND SWAP1 POP DUP2 PUSH0 DUP1 PUSH2 0x100 EXP DUP2 SLOAD DUP2 PUSH20 0xFFFFFFFFFFFFFFFFFFFFFFFFFFFFFFFFFFFFFFFF MUL NOT AND SWAP1 DUP4 PUSH20 0xFFFFFFFFFFFFFFFFFFFFFFFFFFFFFFFFFFFFFFFF AND MUL OR SWAP1 SSTORE POP DUP2 PUSH20 0xFFFFFFFFFFFFFFFFFFFFFFFFFFFFFFFFFFFFFFFF AND DUP2 PUSH20 0xFFFFFFFFFFFFFFFFFFFFFFFFFFFFFFFFFFFFFFFF AND PUSH32 0x8BE0079C531659141344CD1FD0A4F28419497F9722A3DAAFE3B4186F6B6457E0 PUSH1 0x40 MLOAD PUSH1 0x40 MLOAD DUP1 SWAP2 SUB SWAP1 LOG3 POP POP JUMP JUMPDEST PUSH0 CALLER SWAP1 POP SWAP1 JUMP JUMPDEST PUSH0 PUSH1 0x40 MLOAD SWAP1 POP SWAP1 JUMP JUMPDEST PUSH0 DUP1 REVERT JUMPDEST PUSH0 DUP1 REVERT JUMPDEST PUSH0 DUP1 REVERT JUMPDEST PUSH0 DUP1 REVERT JUMPDEST PUSH0 PUSH1 0x1F NOT PUSH1 0x1F DUP4 ADD AND SWAP1 POP SWAP2 SWAP1 POP JUMP JUMPDEST PUSH32 0x4E487B7100000000000000000000000000000000000000000000000000000000 PUSH0 MSTORE PUSH1 0x41 PUSH1 0x4 MSTORE PUSH1 0x24 PUSH0 REVERT JUMPDEST PUSH2 0x1007 DUP3 PUSH2 0xFC1 JUMP JUMPDEST DUP2 ADD DUP2 DUP2 LT PUSH8 0xFFFFFFFFFFFFFFFF DUP3 GT OR ISZERO PUSH2 0x1026 JUMPI PUSH2 0x1025 PUSH2 0xFD1 JUMP JUMPDEST JUMPDEST DUP1 PUSH1 0x40 MSTORE POP POP POP JUMP JUMPDEST PUSH0 PUSH2 0x1038 PUSH2 0xFA8 JUMP JUMPDEST SWAP1 POP PUSH2 0x1044 DUP3 DUP3 PUSH2 0xFFE JUMP JUMPDEST SWAP2 SWAP1 POP JUMP JUMPDEST PUSH0 PUSH8 0xFFFFFFFFFFFFFFFF DUP3 GT ISZERO PUSH2 0x1063 JUMPI PUSH2 0x1062 PUSH2 0xFD1 JUMP JUMPDEST JUMPDEST PUSH2 0x106C DUP3 PUSH2 0xFC1 JUMP JUMPDEST SWAP1 POP PUSH1 0x20 DUP2 ADD SWAP1 POP SWAP2 SWAP1 POP JUMP JUMPDEST DUP3 DUP2 DUP4 CALLDATACOPY PUSH0 DUP4 DUP4 ADD MSTORE POP POP POP JUMP JUMPDEST PUSH0 PUSH2 0x1099 PUSH2 0x1094 DUP5 PUSH2 0x1049 JUMP JUMPDEST PUSH2 0x102F JUMP JUMPDEST SWAP1 POP DUP3 DUP2 MSTORE PUSH1 0x20 DUP2 ADD DUP5 DUP5 DUP5 ADD GT ISZERO PUSH2 0x10B5 JUMPI PUSH2 0x10B4 PUSH2 0xFBD JUMP JUMPDEST JUMPDEST PUSH2 0x10C0 DUP5 DUP3 DUP6 PUSH2 0x1079 JUMP JUMPDEST POP SWAP4 SWAP3 POP POP POP JUMP JUMPDEST PUSH0 DUP3 PUSH1 0x1F DUP4 ADD SLT PUSH2 0x10DC JUMPI PUSH2 0x10DB PUSH2 0xFB9 JUMP JUMPDEST JUMPDEST DUP2 CALLDATALOAD PUSH2 0x10EC DUP5 DUP3 PUSH1 0x20 DUP7 ADD PUSH2 0x1087 JUMP JUMPDEST SWAP2 POP POP SWAP3 SWAP2 POP POP JUMP JUMPDEST PUSH0 PUSH1 0x20 DUP3 DUP5 SUB SLT ISZERO PUSH2 0x110A JUMPI PUSH2 0x1109 PUSH2 0xFB1 JUMP JUMPDEST JUMPDEST PUSH0 DUP3 ADD CALLDATALOAD PUSH8 0xFFFFFFFFFFFFFFFF DUP2 GT ISZERO PUSH2 0x1127 JUMPI PUSH2 0x1126 PUSH2 0xFB5 JUMP JUMPDEST JUMPDEST PUSH2 0x1133 DUP5 DUP3 DUP6 ADD PUSH2 0x10C8 JUMP JUMPDEST SWAP2 POP POP SWAP3 SWAP2 POP POP JUMP JUMPDEST PUSH0 DUP2 ISZERO ISZERO SWAP1 POP SWAP2 SWAP1 POP JUMP JUMPDEST PUSH2 0x1150 DUP2 PUSH2 0x113C JUMP JUMPDEST DUP3 MSTORE POP POP JUMP JUMPDEST PUSH0 PUSH1 0x20 DUP3 ADD SWAP1 POP PUSH2 0x1169 PUSH0 DUP4 ADD DUP5 PUSH2 0x1147 JUMP JUMPDEST SWAP3 SWAP2 POP POP JUMP JUMPDEST PUSH0 DUP2 SWAP1 POP SWAP2 SWAP1 POP JUMP JUMPDEST PUSH2 0x1181 DUP2 PUSH2 0x116F JUMP JUMPDEST DUP3 MSTORE POP POP JUMP JUMPDEST PUSH0 PUSH1 0x20 DUP3 ADD SWAP1 POP PUSH2 0x119A PUSH0 DUP4 ADD DUP5 PUSH2 0x1178 JUMP JUMPDEST SWAP3 SWAP2 POP POP JUMP JUMPDEST PUSH2 0x11A9 DUP2 PUSH2 0x116F JUMP JUMPDEST DUP2 EQ PUSH2 0x11B3 JUMPI PUSH0 DUP1 REVERT JUMPDEST POP JUMP JUMPDEST PUSH0 DUP2 CALLDATALOAD SWAP1 POP PUSH2 0x11C4 DUP2 PUSH2 0x11A0 JUMP JUMPDEST SWAP3 SWAP2 POP POP JUMP JUMPDEST PUSH0 DUP1 PUSH0 PUSH1 0x60 DUP5 DUP7 SUB SLT ISZERO PUSH2 0x11E1 JUMPI PUSH2 0x11E0 PUSH2 0xFB1 JUMP JUMPDEST JUMPDEST PUSH0 DUP5 ADD CALLDATALOAD PUSH8 0xFFFFFFFFFFFFFFFF DUP2 GT ISZERO PUSH2 0x11FE JUMPI PUSH2 0x11FD PUSH2 0xFB5 JUMP JUMPDEST JUMPDEST PUSH2 0x120A DUP7 DUP3 DUP8 ADD PUSH2 0x10C8 JUMP JUMPDEST SWAP4 POP POP PUSH1 0x20 DUP5 ADD CALLDATALOAD PUSH8 0xFFFFFFFFFFFFFFFF DUP2 GT ISZERO PUSH2 0x122B JUMPI PUSH2 0x122A PUSH2 0xFB5 JUMP JUMPDEST JUMPDEST PUSH2 0x1237 DUP7 DUP3 DUP8 ADD PUSH2 0x10C8 JUMP JUMPDEST SWAP3 POP POP PUSH1 0x40 PUSH2 0x1248 DUP7 DUP3 DUP8 ADD PUSH2 0x11B6 JUMP JUMPDEST SWAP2 POP POP SWAP3 POP SWAP3 POP SWAP3 JUMP JUMPDEST PUSH0 PUSH20 0xFFFFFFFFFFFFFFFFFFFFFFFFFFFFFFFFFFFFFFFF DUP3 AND SWAP1 POP SWAP2 SWAP1 POP JUMP JUMPDEST PUSH0 PUSH2 0x127B DUP3 PUSH2 0x1252 JUMP JUMPDEST SWAP1 POP SWAP2 SWAP1 POP JUMP JUMPDEST PUSH2 0x128B DUP2 PUSH2 0x1271 JUMP JUMPDEST DUP2 EQ PUSH2 0x1295 JUMPI PUSH0 DUP1 REVERT JUMPDEST POP JUMP JUMPDEST PUSH0 DUP2 CALLDATALOAD SWAP1 POP PUSH2 0x12A6 DUP2 PUSH2 0x1282 JUMP JUMPDEST SWAP3 SWAP2 POP POP JUMP JUMPDEST PUSH0 PUSH1 0x20 DUP3 DUP5 SUB SLT ISZERO PUSH2 0x12C1 JUMPI PUSH2 0x12C0 PUSH2 0xFB1 JUMP JUMPDEST JUMPDEST PUSH0 PUSH2 0x12CE DUP5 DUP3 DUP6 ADD PUSH2 0x1298 JUMP JUMPDEST SWAP2 POP POP SWAP3 SWAP2 POP POP JUMP JUMPDEST PUSH2 0x12E0 DUP2 PUSH2 0x1271 JUMP JUMPDEST DUP3 MSTORE POP POP JUMP JUMPDEST PUSH0 PUSH1 0x20 DUP3 ADD SWAP1 POP PUSH2 0x12F9 PUSH0 DUP4 ADD DUP5 PUSH2 0x12D7 JUMP JUMPDEST SWAP3 SWAP2 POP POP JUMP JUMPDEST PUSH0 DUP1 PUSH1 0x40 DUP4 DUP6 SUB SLT ISZERO PUSH2 0x1315 JUMPI PUSH2 0x1314 PUSH2 0xFB1 JUMP JUMPDEST JUMPDEST PUSH0 DUP4 ADD CALLDATALOAD PUSH8 0xFFFFFFFFFFFFFFFF DUP2 GT ISZERO PUSH2 0x1332 JUMPI PUSH2 0x1331 PUSH2 0xFB5 JUMP JUMPDEST JUMPDEST PUSH2 0x133E DUP6 DUP3 DUP7 ADD PUSH2 0x10C8 JUMP JUMPDEST SWAP3 POP POP PUSH1 0x20 DUP4 ADD CALLDATALOAD PUSH8 0xFFFFFFFFFFFFFFFF DUP2 GT ISZERO PUSH2 0x135F JUMPI PUSH2 0x135E PUSH2 0xFB5 JUMP JUMPDEST JUMPDEST PUSH2 0x136B DUP6 DUP3 DUP7 ADD PUSH2 0x10C8 JUMP JUMPDEST SWAP2 POP POP SWAP3 POP SWAP3 SWAP1 POP JUMP JUMPDEST PUSH0 DUP3 DUP3 MSTORE PUSH1 0x20 DUP3 ADD SWAP1 POP SWAP3 SWAP2 POP POP JUMP JUMPDEST PUSH32 0x4E6F742061207465616368657200000000000000000000000000000000000000 PUSH0 DUP3 ADD MSTORE POP JUMP JUMPDEST PUSH0 PUSH2 0x13B9 PUSH1 0xD DUP4 PUSH2 0x1375 JUMP JUMPDEST SWAP2 POP PUSH2 0x13C4 DUP3 PUSH2 0x1385 JUMP JUMPDEST PUSH1 0x20 DUP3 ADD SWAP1 POP SWAP2 SWAP1 POP JUMP JUMPDEST PUSH0 PUSH1 0x20 DUP3 ADD SWAP1 POP DUP2 DUP2 SUB PUSH0 DUP4 ADD MSTORE PUSH2 0x13E6 DUP2 PUSH2 0x13AD JUMP JUMPDEST SWAP1 POP SWAP2 SWAP1 POP JUMP JUMPDEST PUSH32 0x4E487B7100000000000000000000000000000000000000000000000000000000 PUSH0 MSTORE PUSH1 0x32 PUSH1 0x4 MSTORE PUSH1 0x24 PUSH0 REVERT JUMPDEST PUSH32 0x4E487B7100000000000000000000000000000000000000000000000000000000 PUSH0 MSTORE PUSH1 0x11 PUSH1 0x4 MSTORE PUSH1 0x24 PUSH0 REVERT JUMPDEST PUSH0 PUSH2 0x1451 DUP3 PUSH2 0x116F JUMP JUMPDEST SWAP2 POP PUSH2 0x145C DUP4 PUSH2 0x116F JUMP JUMPDEST SWAP3 POP DUP3 DUP3 ADD SWAP1 POP DUP1 DUP3 GT ISZERO PUSH2 0x1474 JUMPI PUSH2 0x1473 PUSH2 0x141A JUMP JUMPDEST JUMPDEST SWAP3 SWAP2 POP POP JUMP JUMPDEST PUSH0 PUSH2 0x1484 DUP3 PUSH2 0x116F JUMP JUMPDEST SWAP2 POP PUSH32 0xFFFFFFFFFFFFFFFFFFFFFFFFFFFFFFFFFFFFFFFFFFFFFFFFFFFFFFFFFFFFFFFF DUP3 SUB PUSH2 0x14B6 JUMPI PUSH2 0x14B5 PUSH2 0x141A JUMP JUMPDEST JUMPDEST PUSH1 0x1 DUP3 ADD SWAP1 POP SWAP2 SWAP1 POP JUMP JUMPDEST PUSH32 0x4E6F2073747564656E747320696E20636C617373000000000000000000000000 PUSH0 DUP3 ADD MSTORE POP JUMP JUMPDEST PUSH0 PUSH2 0x14F5 PUSH1 0x14 DUP4 PUSH2 0x1375 JUMP JUMPDEST SWAP2 POP PUSH2 0x1500 DUP3 PUSH2 0x14C1 JUMP JUMPDEST PUSH1 0x20 DUP3 ADD SWAP1 POP SWAP2 SWAP1 POP JUMP JUMPDEST PUSH0 PUSH1 0x20 DUP3 ADD SWAP1 POP DUP2 DUP2 SUB PUSH0 DUP4 ADD MSTORE PUSH2 0x1522 DUP2 PUSH2 0x14E9 JUMP JUMPDEST SWAP1 POP SWAP2 SWAP1 POP JUMP JUMPDEST PUSH32 0x4E487B7100000000000000000000000000000000000000000000000000000000 PUSH0 MSTORE PUSH1 0x12 PUSH1 0x4 MSTORE PUSH1 0x24 PUSH0 REVERT JUMPDEST PUSH0 PUSH2 0x1560 DUP3 PUSH2 0x116F JUMP JUMPDEST SWAP2 POP PUSH2 0x156B DUP4 PUSH2 0x116F JUMP JUMPDEST SWAP3 POP DUP3 PUSH2 0x157B JUMPI PUSH2 0x157A PUSH2 0x1529 JUMP JUMPDEST JUMPDEST DUP3 DUP3 DIV SWAP1 POP SWAP3 SWAP2 POP POP JUMP JUMPDEST PUSH32 0x547970652061207265616C20636F757273650000000000000000000000000000 PUSH0 DUP3 ADD MSTORE POP JUMP JUMPDEST PUSH0 PUSH2 0x15BA PUSH1 0x12 DUP4 PUSH2 0x1375 JUMP JUMPDEST SWAP2 POP PUSH2 0x15C5 DUP3 PUSH2 0x1586 JUMP JUMPDEST PUSH1 0x20 DUP3 ADD SWAP1 POP SWAP2 SWAP1 POP JUMP JUMPDEST PUSH0 PUSH1 0x20 DUP3 ADD SWAP1 POP DUP2 DUP2 SUB PUSH0 DUP4 ADD MSTORE PUSH2 0x15E7 DUP2 PUSH2 0x15AE JUMP JUMPDEST SWAP1 POP SWAP2 SWAP1 POP JUMP JUMPDEST PUSH0 DUP2 MLOAD SWAP1 POP SWAP2 SWAP1 POP JUMP JUMPDEST PUSH32 0x4E487B7100000000000000000000000000000000000000000000000000000000 PUSH0 MSTORE PUSH1 0x22 PUSH1 0x4 MSTORE PUSH1 0x24 PUSH0 REVERT JUMPDEST PUSH0 PUSH1 0x2 DUP3 DIV SWAP1 POP PUSH1 0x1 DUP3 AND DUP1 PUSH2 0x163C JUMPI PUSH1 0x7F DUP3 AND SWAP2 POP JUMPDEST PUSH1 0x20 DUP3 LT DUP2 SUB PUSH2 0x164F JUMPI PUSH2 0x164E PUSH2 0x15F8 JUMP JUMPDEST JUMPDEST POP SWAP2 SWAP1 POP JUMP JUMPDEST PUSH0 DUP2 SWAP1 POP DUP2 PUSH0 MSTORE PUSH1 0x20 PUSH0 KECCAK256 SWAP1 POP SWAP2 SWAP1 POP JUMP JUMPDEST PUSH0 PUSH1 0x20 PUSH1 0x1F DUP4 ADD DIV SWAP1 POP SWAP2 SWAP1 POP JUMP JUMPDEST PUSH0 DUP3 DUP3 SHL SWAP1 POP SWAP3 SWAP2 POP POP JUMP JUMPDEST PUSH0 PUSH1 0x8 DUP4 MUL PUSH2 0x16B1 PUSH32 0xFFFFFFFFFFFFFFFFFFFFFFFFFFFFFFFFFFFFFFFFFFFFFFFFFFFFFFFFFFFFFFFF DUP3 PUSH2 0x1676 JUMP JUMPDEST PUSH2 0x16BB DUP7 DUP4 PUSH2 0x1676 JUMP JUMPDEST SWAP6 POP DUP1 NOT DUP5 AND SWAP4 POP DUP1 DUP7 AND DUP5 OR SWAP3 POP POP POP SWAP4 SWAP3 POP POP POP JUMP JUMPDEST PUSH0 DUP2 SWAP1 POP SWAP2 SWAP1 POP JUMP JUMPDEST PUSH0 PUSH2 0x16F6 PUSH2 0x16F1 PUSH2 0x16EC DUP5 PUSH2 0x116F JUMP JUMPDEST PUSH2 0x16D3 JUMP JUMPDEST PUSH2 0x116F JUMP JUMPDEST SWAP1 POP SWAP2 SWAP1 POP JUMP JUMPDEST PUSH0 DUP2 SWAP1 POP SWAP2 SWAP1 POP JUMP JUMPDEST PUSH2 0x170F DUP4 PUSH2 0x16DC JUMP JUMPDEST PUSH2 0x1723 PUSH2 0x171B DUP3 PUSH2 0x16FD JUMP JUMPDEST DUP5 DUP5 SLOAD PUSH2 0x1682 JUMP JUMPDEST DUP3 SSTORE POP POP POP POP JUMP JUMPDEST PUSH0 SWAP1 JUMP JUMPDEST PUSH2 0x1737 PUSH2 0x172B JUMP JUMPDEST PUSH2 0x1742 DUP2 DUP5 DUP5 PUSH2 0x1706 JUMP JUMPDEST POP POP POP JUMP JUMPDEST JUMPDEST DUP2 DUP2 LT ISZERO PUSH2 0x1765 JUMPI PUSH2 0x175A PUSH0 DUP3 PUSH2 0x172F JUMP JUMPDEST PUSH1 0x1 DUP2 ADD SWAP1 POP PUSH2 0x1748 JUMP JUMPDEST POP POP JUMP JUMPDEST PUSH1 0x1F DUP3 GT ISZERO PUSH2 0x17AA JUMPI PUSH2 0x177B DUP2 PUSH2 0x1655 JUMP JUMPDEST PUSH2 0x1784 DUP5 PUSH2 0x1667 JUMP JUMPDEST DUP2 ADD PUSH1 0x20 DUP6 LT ISZERO PUSH2 0x1793 JUMPI DUP2 SWAP1 POP JUMPDEST PUSH2 0x17A7 PUSH2 0x179F DUP6 PUSH2 0x1667 JUMP JUMPDEST DUP4 ADD DUP3 PUSH2 0x1747 JUMP JUMPDEST POP POP JUMPDEST POP POP POP JUMP JUMPDEST PUSH0 DUP3 DUP3 SHR SWAP1 POP SWAP3 SWAP2 POP POP JUMP JUMPDEST PUSH0 PUSH2 0x17CA PUSH0 NOT DUP5 PUSH1 0x8 MUL PUSH2 0x17AF JUMP JUMPDEST NOT DUP1 DUP4 AND SWAP2 POP POP SWAP3 SWAP2 POP POP JUMP JUMPDEST PUSH0 PUSH2 0x17E2 DUP4 DUP4 PUSH2 0x17BB JUMP JUMPDEST SWAP2 POP DUP3 PUSH1 0x2 MUL DUP3 OR SWAP1 POP SWAP3 SWAP2 POP POP JUMP JUMPDEST PUSH2 0x17FB DUP3 PUSH2 0x15EE JUMP JUMPDEST PUSH8 0xFFFFFFFFFFFFFFFF DUP2 GT ISZERO PUSH2 0x1814 JUMPI PUSH2 0x1813 PUSH2 0xFD1 JUMP JUMPDEST JUMPDEST PUSH2 0x181E DUP3 SLOAD PUSH2 0x1625 JUMP JUMPDEST PUSH2 0x1829 DUP3 DUP3 DUP6 PUSH2 0x1769 JUMP JUMPDEST PUSH0 PUSH1 0x20 SWAP1 POP PUSH1 0x1F DUP4 GT PUSH1 0x1 DUP2 EQ PUSH2 0x185A JUMPI PUSH0 DUP5 ISZERO PUSH2 0x1848 JUMPI DUP3 DUP8 ADD MLOAD SWAP1 POP JUMPDEST PUSH2 0x1852 DUP6 DUP3 PUSH2 0x17D7 JUMP JUMPDEST DUP7 SSTORE POP PUSH2 0x18B9 JUMP JUMPDEST PUSH1 0x1F NOT DUP5 AND PUSH2 0x1868 DUP7 PUSH2 0x1655 JUMP JUMPDEST PUSH0 JUMPDEST DUP3 DUP2 LT ISZERO PUSH2 0x188F JUMPI DUP5 DUP10 ADD MLOAD DUP3 SSTORE PUSH1 0x1 DUP3 ADD SWAP2 POP PUSH1 0x20 DUP6 ADD SWAP5 POP PUSH1 0x20 DUP2 ADD SWAP1 POP PUSH2 0x186A JUMP JUMPDEST DUP7 DUP4 LT ISZERO PUSH2 0x18AC JUMPI DUP5 DUP10 ADD MLOAD PUSH2 0x18A8 PUSH1 0x1F DUP10 AND DUP3 PUSH2 0x17BB JUMP JUMPDEST DUP4 SSTORE POP JUMPDEST PUSH1 0x1 PUSH1 0x2 DUP9 MUL ADD DUP9 SSTORE POP POP POP JUMPDEST POP POP POP POP POP POP JUMP JUMPDEST PUSH0 DUP2 SWAP1 POP SWAP3 SWAP2 POP POP JUMP JUMPDEST DUP3 DUP2 DUP4 MCOPY PUSH0 DUP4 DUP4 ADD MSTORE POP POP POP JUMP JUMPDEST PUSH0 PUSH2 0x18E3 DUP3 PUSH2 0x15EE JUMP JUMPDEST PUSH2 0x18ED DUP2 DUP6 PUSH2 0x18C1 JUMP JUMPDEST SWAP4 POP PUSH2 0x18FD DUP2 DUP6 PUSH1 0x20 DUP7 ADD PUSH2 0x18CB JUMP JUMPDEST DUP1 DUP5 ADD SWAP2 POP POP SWAP3 SWAP2 POP POP JUMP JUMPDEST PUSH0 PUSH2 0x1914 DUP3 DUP5 PUSH2 0x18D9 JUMP JUMPDEST SWAP2 POP DUP2 SWAP1 POP SWAP3 SWAP2 POP POP JUMP JUMPDEST PUSH32 0x53747564656E74206E6F7420666F756E64000000000000000000000000000000 PUSH0 DUP3 ADD MSTORE POP JUMP JUMPDEST PUSH0 PUSH2 0x1953 PUSH1 0x11 DUP4 PUSH2 0x1375 JUMP JUMPDEST SWAP2 POP PUSH2 0x195E DUP3 PUSH2 0x191F JUMP JUMPDEST PUSH1 0x20 DUP3 ADD SWAP1 POP SWAP2 SWAP1 POP JUMP JUMPDEST PUSH0 PUSH1 0x20 DUP3 ADD SWAP1 POP DUP2 DUP2 SUB PUSH0 DUP4 ADD MSTORE PUSH2 0x1980 DUP2 PUSH2 0x1947 JUMP JUMPDEST SWAP1 POP SWAP2 SWAP1 POP JUMP INVALID LOG2 PUSH5 0x6970667358 0x22 SLT KECCAK256 0xDA LOG3 DUP12 GT DUP8 0x1E STATICCALL 0xF 0xD2 0xD6 PUSH16 0x3A668FCB975507F8D8C1E045A61B1298 SWAP5 SSTORE 0x24 EXTCODECOPY MLOAD PUSH5 0x736F6C6343 STOP ADDMOD BYTE STOP CALLER "
				},
				"gasEstimates": {
					"creation": {
						"codeDepositCost": "1317800",
						"executionCost": "infinite",
						"totalCost": "infinite"
					},
					"external": {
						"addStudent(string)": "infinite",
						"addTeacher(address)": "infinite",
						"averageClass()": "infinite",
						"averageClassForCourse(string)": "infinite",
						"averageStudent(string)": "infinite",
						"getNote(string,string)": "infinite",
						"isPassing(string)": "infinite",
						"owner()": "2581",
						"renounceOwnership()": "infinite",
						"setNote(string,string,uint256)": "infinite",
						"transferOwnership(address)": "infinite"
					},
					"internal": {
						"getStudentFromName(string memory)": "infinite",
						"stringsEquals(string memory,string memory)": "infinite"
					}
				},
				"methodIdentifiers": {
					"addStudent(string)": "453e056a",
					"addTeacher(address)": "3bc6e309",
					"averageClass()": "1b0194f8",
					"averageClassForCourse(string)": "15ecd016",
					"averageStudent(string)": "206aa1bc",
					"getNote(string,string)": "f947387c",
					"isPassing(string)": "0dc0ffb1",
					"owner()": "8da5cb5b",
					"renounceOwnership()": "715018a6",
					"setNote(string,string,uint256)": "27b51db2",
					"transferOwnership(address)": "f2fde38b"
				}
			},
			"storageLayout": {
				"storage": [
					{
						"astId": 8,
						"contract": "contracts/noteStudent.sol:Notes",
						"label": "_owner",
						"offset": 0,
						"slot": "0",
						"type": "t_address"
					},
					{
						"astId": 195,
						"contract": "contracts/noteStudent.sol:Notes",
						"label": "teachers",
						"offset": 0,
						"slot": "1",
						"type": "t_mapping(t_address,t_bool)"
					},
					{
						"astId": 199,
						"contract": "contracts/noteStudent.sol:Notes",
						"label": "students",
						"offset": 0,
						"slot": "2",
						"type": "t_array(t_struct(Student)191_storage)dyn_storage"
					}
				],
				"types": {
					"t_address": {
						"encoding": "inplace",
						"label": "address",
						"numberOfBytes": "20"
					},
					"t_array(t_struct(Student)191_storage)dyn_storage": {
						"base": "t_struct(Student)191_storage",
						"encoding": "dynamic_array",
						"label": "struct Notes.Student[]",
						"numberOfBytes": "32"
					},
					"t_bool": {
						"encoding": "inplace",
						"label": "bool",
						"numberOfBytes": "1"
					},
					"t_mapping(t_address,t_bool)": {
						"encoding": "mapping",
						"key": "t_address",
						"label": "mapping(address => bool)",
						"numberOfBytes": "32",
						"value": "t_bool"
					},
					"t_string_storage": {
						"encoding": "bytes",
						"label": "string",
						"numberOfBytes": "32"
					},
					"t_struct(Student)191_storage": {
						"encoding": "inplace",
						"label": "struct Notes.Student",
						"members": [
							{
								"astId": 184,
								"contract": "contracts/noteStudent.sol:Notes",
								"label": "name",
								"offset": 0,
								"slot": "0",
								"type": "t_string_storage"
							},
							{
								"astId": 186,
								"contract": "contracts/noteStudent.sol:Notes",
								"label": "noteBiology",
								"offset": 0,
								"slot": "1",
								"type": "t_uint256"
							},
							{
								"astId": 188,
								"contract": "contracts/noteStudent.sol:Notes",
								"label": "noteMaths",
								"offset": 0,
								"slot": "2",
								"type": "t_uint256"
							},
							{
								"astId": 190,
								"contract": "contracts/noteStudent.sol:Notes",
								"label": "noteFr",
								"offset": 0,
								"slot": "3",
								"type": "t_uint256"
							}
						],
						"numberOfBytes": "128"
					},
					"t_uint256": {
						"encoding": "inplace",
						"label": "uint256",
						"numberOfBytes": "32"
					}
				}
			},
			"userdoc": {
				"kind": "user",
				"methods": {},
				"version": 1
			}
		}
	}
}