{
	"contracts/devine.sol": {
		"GuessAndWin": {
			"abi": [
				{
					"inputs": [],
					"stateMutability": "nonpayable",
					"type": "constructor"
				},
				{
					"inputs": [],
					"name": "GameFinished",
					"type": "error"
				},
				{
					"inputs": [
						{
							"internalType": "address",
							"name": "owner",
							"type": "address"
						}
					],
					"name": "OwnableInvalidOwner",
					"type": "error"
				},
				{
					"inputs": [
						{
							"internalType": "address",
							"name": "account",
							"type": "address"
						}
					],
					"name": "OwnableUnauthorizedAccount",
					"type": "error"
				},
				{
					"inputs": [
						{
							"internalType": "address",
							"name": "user",
							"type": "address"
						}
					],
					"name": "UserHasAlreadyPlayed",
					"type": "error"
				},
				{
					"anonymous": false,
					"inputs": [
						{
							"indexed": true,
							"internalType": "address",
							"name": "_winner",
							"type": "address"
						}
					],
					"name": "GameWon",
					"type": "event"
				},
				{
					"anonymous": false,
					"inputs": [
						{
							"indexed": true,
							"internalType": "address",
							"name": "previousOwner",
							"type": "address"
						},
						{
							"indexed": true,
							"internalType": "address",
							"name": "newOwner",
							"type": "address"
						}
					],
					"name": "OwnershipTransferred",
					"type": "event"
				},
				{
					"inputs": [],
					"name": "getIndication",
					"outputs": [
						{
							"internalType": "string",
							"name": "",
							"type": "string"
						}
					],
					"stateMutability": "view",
					"type": "function"
				},
				{
					"inputs": [],
					"name": "getWinner",
					"outputs": [
						{
							"internalType": "address",
							"name": "",
							"type": "address"
						}
					],
					"stateMutability": "view",
					"type": "function"
				},
				{
					"inputs": [
						{
							"internalType": "string",
							"name": "_word",
							"type": "string"
						}
					],
					"name": "guess",
					"outputs": [
						{
							"internalType": "bool",
							"name": "",
							"type": "bool"
						}
					],
					"stateMutability": "nonpayable",
					"type": "function"
				},
				{
					"inputs": [],
					"name": "owner",
					"outputs": [
						{
							"internalType": "address",
							"name": "",
							"type": "address"
						}
					],
					"stateMutability": "view",
					"type": "function"
				},
				{
					"inputs": [],
					"name": "renounceOwnership",
					"outputs": [],
					"stateMutability": "nonpayable",
					"type": "function"
				},
				{
					"inputs": [
						{
							"internalType": "string",
							"name": "_word",
							"type": "string"
						},
						{
							"internalType": "string",
							"name": "_indication",
							"type": "string"
						}
					],
					"name": "setWordAndIndication",
					"outputs": [],
					"stateMutability": "nonpayable",
					"type": "function"
				},
				{
					"inputs": [
						{
							"internalType": "address",
							"name": "newOwner",
							"type": "address"
						}
					],
					"name": "transferOwnership",
					"outputs": [],
					"stateMutability": "nonpayable",
					"type": "function"
				}
			],
			"devdoc": {
				"errors": {
					"OwnableInvalidOwner(address)": [
						{
							"details": "The owner is not a valid owner account. (eg. `address(0)`)"
						}
					],
					"OwnableUnauthorizedAccount(address)": [
						{
							"details": "The caller account is not authorized to perform an operation."
						}
					]
				},
				"kind": "dev",
				"methods": {
					"owner()": {
						"details": "Returns the address of the current owner."
					},
					"renounceOwnership()": {
						"details": "Leaves the contract without owner. It will not be possible to call `onlyOwner` functions. Can only be called by the current owner. NOTE: Renouncing ownership will leave the contract without an owner, thereby disabling any functionality that is only available to the owner."
					},
					"transferOwnership(address)": {
						"details": "Transfers ownership of the contract to a new account (`newOwner`). Can only be called by the current owner."
					}
				},
				"version": 1
			},
			"evm": {
				"assembly": "    /* \"contracts/devine.sol\":175:1492  contract GuessAndWin is Ownable {... */\n  mstore(0x40, 0x80)\n    /* \"contracts/devine.sol\":375:411  constructor() Ownable(msg.sender) {} */\n  callvalue\n  dup1\n  iszero\n  tag_1\n  jumpi\n  revert(0x00, 0x00)\ntag_1:\n  pop\n    /* \"contracts/devine.sol\":397:407  msg.sender */\n  caller\n    /* \"@openzeppelin/contracts/access/Ownable.sol\":1297:1298  0 */\n  0x00\n    /* \"@openzeppelin/contracts/access/Ownable.sol\":1273:1299  initialOwner == address(0) */\n  0xffffffffffffffffffffffffffffffffffffffff\n  and\n    /* \"@openzeppelin/contracts/access/Ownable.sol\":1273:1285  initialOwner */\n  dup2\n    /* \"@openzeppelin/contracts/access/Ownable.sol\":1273:1299  initialOwner == address(0) */\n  0xffffffffffffffffffffffffffffffffffffffff\n  and\n  sub\n    /* \"@openzeppelin/contracts/access/Ownable.sol\":1269:1364  if (initialOwner == address(0)) {... */\n  tag_5\n  jumpi\n    /* \"@openzeppelin/contracts/access/Ownable.sol\":1350:1351  0 */\n  0x00\n    /* \"@openzeppelin/contracts/access/Ownable.sol\":1322:1353  OwnableInvalidOwner(address(0)) */\n  mload(0x40)\n  0x1e4fbdf700000000000000000000000000000000000000000000000000000000\n  dup2\n  mstore\n  0x04\n  add\n  tag_6\n  swap2\n  swap1\n  tag_7\n  jump\t// in\ntag_6:\n  mload(0x40)\n  dup1\n  swap2\n  sub\n  swap1\n  revert\n    /* \"@openzeppelin/contracts/access/Ownable.sol\":1269:1364  if (initialOwner == address(0)) {... */\ntag_5:\n    /* \"@openzeppelin/contracts/access/Ownable.sol\":1373:1405  _transferOwnership(initialOwner) */\n  tag_8\n    /* \"@openzeppelin/contracts/access/Ownable.sol\":1392:1404  initialOwner */\n  dup2\n    /* \"@openzeppelin/contracts/access/Ownable.sol\":1373:1391  _transferOwnership */\n  shl(0x20, tag_9)\n    /* \"@openzeppelin/contracts/access/Ownable.sol\":1373:1405  _transferOwnership(initialOwner) */\n  0x20\n  shr\n  jump\t// in\ntag_8:\n    /* \"@openzeppelin/contracts/access/Ownable.sol\":1225:1412  constructor(address initialOwner) {... */\n  pop\n    /* \"contracts/devine.sol\":175:1492  contract GuessAndWin is Ownable {... */\n  jump(tag_11)\n    /* \"@openzeppelin/contracts/access/Ownable.sol\":2912:3099  function _transferOwnership(address newOwner) internal virtual {... */\ntag_9:\n    /* \"@openzeppelin/contracts/access/Ownable.sol\":2985:3001  address oldOwner */\n  0x00\n    /* \"@openzeppelin/contracts/access/Ownable.sol\":3004:3010  _owner */\n  0x00\n  0x00\n  swap1\n  sload\n  swap1\n  0x0100\n  exp\n  swap1\n  div\n  0xffffffffffffffffffffffffffffffffffffffff\n  and\n    /* \"@openzeppelin/contracts/access/Ownable.sol\":2985:3010  address oldOwner = _owner */\n  swap1\n  pop\n    /* \"@openzeppelin/contracts/access/Ownable.sol\":3029:3037  newOwner */\n  dup2\n    /* \"@openzeppelin/contracts/access/Ownable.sol\":3020:3026  _owner */\n  0x00\n  0x00\n    /* \"@openzeppelin/contracts/access/Ownable.sol\":3020:3037  _owner = newOwner */\n  0x0100\n  exp\n  dup2\n  sload\n  dup2\n  0xffffffffffffffffffffffffffffffffffffffff\n  mul\n  not\n  and\n  swap1\n  dup4\n  0xffffffffffffffffffffffffffffffffffffffff\n  and\n  mul\n  or\n  swap1\n  sstore\n  pop\n    /* \"@openzeppelin/contracts/access/Ownable.sol\":3083:3091  newOwner */\n  dup2\n    /* \"@openzeppelin/contracts/access/Ownable.sol\":3052:3092  OwnershipTransferred(oldOwner, newOwner) */\n  0xffffffffffffffffffffffffffffffffffffffff\n  and\n    /* \"@openzeppelin/contracts/access/Ownable.sol\":3073:3081  oldOwner */\n  dup2\n    /* \"@openzeppelin/contracts/access/Ownable.sol\":3052:3092  OwnershipTransferred(oldOwner, newOwner) */\n  0xffffffffffffffffffffffffffffffffffffffff\n  and\n  0x8be0079c531659141344cd1fd0a4f28419497f9722a3daafe3b4186f6b6457e0\n  mload(0x40)\n  mload(0x40)\n  dup1\n  swap2\n  sub\n  swap1\n  log3\n    /* \"@openzeppelin/contracts/access/Ownable.sol\":2975:3099  {... */\n  pop\n    /* \"@openzeppelin/contracts/access/Ownable.sol\":2912:3099  function _transferOwnership(address newOwner) internal virtual {... */\n  pop\n  jump\t// out\n    /* \"#utility.yul\":7:133   */\ntag_13:\n    /* \"#utility.yul\":44:51   */\n  0x00\n    /* \"#utility.yul\":84:126   */\n  0xffffffffffffffffffffffffffffffffffffffff\n    /* \"#utility.yul\":77:82   */\n  dup3\n    /* \"#utility.yul\":73:127   */\n  and\n    /* \"#utility.yul\":62:127   */\n  swap1\n  pop\n    /* \"#utility.yul\":7:133   */\n  swap2\n  swap1\n  pop\n  jump\t// out\n    /* \"#utility.yul\":139:235   */\ntag_14:\n    /* \"#utility.yul\":176:183   */\n  0x00\n    /* \"#utility.yul\":205:229   */\n  tag_19\n    /* \"#utility.yul\":223:228   */\n  dup3\n    /* \"#utility.yul\":205:229   */\n  tag_13\n  jump\t// in\ntag_19:\n    /* \"#utility.yul\":194:229   */\n  swap1\n  pop\n    /* \"#utility.yul\":139:235   */\n  swap2\n  swap1\n  pop\n  jump\t// out\n    /* \"#utility.yul\":241:359   */\ntag_15:\n    /* \"#utility.yul\":328:352   */\n  tag_21\n    /* \"#utility.yul\":346:351   */\n  dup2\n    /* \"#utility.yul\":328:352   */\n  tag_14\n  jump\t// in\ntag_21:\n    /* \"#utility.yul\":323:326   */\n  dup3\n    /* \"#utility.yul\":316:353   */\n  mstore\n    /* \"#utility.yul\":241:359   */\n  pop\n  pop\n  jump\t// out\n    /* \"#utility.yul\":365:587   */\ntag_7:\n    /* \"#utility.yul\":458:462   */\n  0x00\n    /* \"#utility.yul\":496:498   */\n  0x20\n    /* \"#utility.yul\":485:494   */\n  dup3\n    /* \"#utility.yul\":481:499   */\n  add\n    /* \"#utility.yul\":473:499   */\n  swap1\n  pop\n    /* \"#utility.yul\":509:580   */\n  tag_23\n    /* \"#utility.yul\":577:578   */\n  0x00\n    /* \"#utility.yul\":566:575   */\n  dup4\n    /* \"#utility.yul\":562:579   */\n  add\n    /* \"#utility.yul\":553:559   */\n  dup5\n    /* \"#utility.yul\":509:580   */\n  tag_15\n  jump\t// in\ntag_23:\n    /* \"#utility.yul\":365:587   */\n  swap3\n  swap2\n  pop\n  pop\n  jump\t// out\n    /* \"contracts/devine.sol\":175:1492  contract GuessAndWin is Ownable {... */\ntag_11:\n  dataSize(sub_0)\n  dup1\n  dataOffset(sub_0)\n  0x00\n  codecopy\n  0x00\n  return\nstop\n\nsub_0: assembly {\n        /* \"contracts/devine.sol\":175:1492  contract GuessAndWin is Ownable {... */\n      mstore(0x40, 0x80)\n      callvalue\n      dup1\n      iszero\n      tag_1\n      jumpi\n      revert(0x00, 0x00)\n    tag_1:\n      pop\n      jumpi(tag_2, lt(calldatasize, 0x04))\n      shr(0xe0, calldataload(0x00))\n      dup1\n      0x8da5cb5b\n      gt\n      tag_10\n      jumpi\n      dup1\n      0x8da5cb5b\n      eq\n      tag_6\n      jumpi\n      dup1\n      0x8e7ea5b2\n      eq\n      tag_7\n      jumpi\n      dup1\n      0x94649090\n      eq\n      tag_8\n      jumpi\n      dup1\n      0xf2fde38b\n      eq\n      tag_9\n      jumpi\n      jump(tag_2)\n    tag_10:\n      dup1\n      0x1e5a13ed\n      eq\n      tag_3\n      jumpi\n      dup1\n      0x4eee59b3\n      eq\n      tag_4\n      jumpi\n      dup1\n      0x715018a6\n      eq\n      tag_5\n      jumpi\n    tag_2:\n      revert(0x00, 0x00)\n        /* \"contracts/devine.sol\":917:1085  function setWordAndIndication(string memory _word, string memory _indication)... */\n    tag_3:\n      tag_11\n      0x04\n      dup1\n      calldatasize\n      sub\n      dup2\n      add\n      swap1\n      tag_12\n      swap2\n      swap1\n      tag_13\n      jump\t// in\n    tag_12:\n      tag_14\n      jump\t// in\n    tag_11:\n      stop\n        /* \"contracts/devine.sol\":417:911  function guess(string memory _word) external returns(bool) {... */\n    tag_4:\n      tag_15\n      0x04\n      dup1\n      calldatasize\n      sub\n      dup2\n      add\n      swap1\n      tag_16\n      swap2\n      swap1\n      tag_17\n      jump\t// in\n    tag_16:\n      tag_18\n      jump\t// in\n    tag_15:\n      mload(0x40)\n      tag_19\n      swap2\n      swap1\n      tag_20\n      jump\t// in\n    tag_19:\n      mload(0x40)\n      dup1\n      swap2\n      sub\n      swap1\n      return\n        /* \"@openzeppelin/contracts/access/Ownable.sol\":2293:2394  function renounceOwnership() public virtual onlyOwner {... */\n    tag_5:\n      tag_21\n      tag_22\n      jump\t// in\n    tag_21:\n      stop\n        /* \"@openzeppelin/contracts/access/Ownable.sol\":1638:1723  function owner() public view virtual returns (address) {... */\n    tag_6:\n      tag_23\n      tag_24\n      jump\t// in\n    tag_23:\n      mload(0x40)\n      tag_25\n      swap2\n      swap1\n      tag_26\n      jump\t// in\n    tag_25:\n      mload(0x40)\n      dup1\n      swap2\n      sub\n      swap1\n      return\n        /* \"contracts/devine.sol\":1408:1490  function getWinner() external view returns(address) {... */\n    tag_7:\n      tag_27\n      tag_28\n      jump\t// in\n    tag_27:\n      mload(0x40)\n      tag_29\n      swap2\n      swap1\n      tag_26\n      jump\t// in\n    tag_29:\n      mload(0x40)\n      dup1\n      swap2\n      sub\n      swap1\n      return\n        /* \"contracts/devine.sol\":1306:1402  function getIndication() external view returns(string memory) {... */\n    tag_8:\n      tag_30\n      tag_31\n      jump\t// in\n    tag_30:\n      mload(0x40)\n      tag_32\n      swap2\n      swap1\n      tag_33\n      jump\t// in\n    tag_32:\n      mload(0x40)\n      dup1\n      swap2\n      sub\n      swap1\n      return\n        /* \"@openzeppelin/contracts/access/Ownable.sol\":2543:2758  function transferOwnership(address newOwner) public virtual onlyOwner {... */\n    tag_9:\n      tag_34\n      0x04\n      dup1\n      calldatasize\n      sub\n      dup2\n      add\n      swap1\n      tag_35\n      swap2\n      swap1\n      tag_36\n      jump\t// in\n    tag_35:\n      tag_37\n      jump\t// in\n    tag_34:\n      stop\n        /* \"contracts/devine.sol\":917:1085  function setWordAndIndication(string memory _word, string memory _indication)... */\n    tag_14:\n        /* \"@openzeppelin/contracts/access/Ownable.sol\":1531:1544  _checkOwner() */\n      tag_39\n        /* \"@openzeppelin/contracts/access/Ownable.sol\":1531:1542  _checkOwner */\n      tag_40\n        /* \"@openzeppelin/contracts/access/Ownable.sol\":1531:1544  _checkOwner() */\n      jump\t// in\n    tag_39:\n        /* \"contracts/devine.sol\":1039:1044  _word */\n      dup2\n        /* \"contracts/devine.sol\":1032:1036  word */\n      0x01\n        /* \"contracts/devine.sol\":1032:1044  word = _word */\n      swap1\n      dup2\n      tag_42\n      swap2\n      swap1\n      tag_43\n      jump\t// in\n    tag_42:\n      pop\n        /* \"contracts/devine.sol\":1067:1078  _indication */\n      dup1\n        /* \"contracts/devine.sol\":1054:1064  indication */\n      0x02\n        /* \"contracts/devine.sol\":1054:1078  indication = _indication */\n      swap1\n      dup2\n      tag_44\n      swap2\n      swap1\n      tag_43\n      jump\t// in\n    tag_44:\n      pop\n        /* \"contracts/devine.sol\":917:1085  function setWordAndIndication(string memory _word, string memory _indication)... */\n      pop\n      pop\n      jump\t// out\n        /* \"contracts/devine.sol\":417:911  function guess(string memory _word) external returns(bool) {... */\n    tag_18:\n        /* \"contracts/devine.sol\":470:474  bool */\n      0x00\n        /* \"contracts/devine.sol\":489:498  hasPlayed */\n      0x04\n        /* \"contracts/devine.sol\":489:510  hasPlayed[msg.sender] */\n      0x00\n        /* \"contracts/devine.sol\":499:509  msg.sender */\n      caller\n        /* \"contracts/devine.sol\":489:510  hasPlayed[msg.sender] */\n      0xffffffffffffffffffffffffffffffffffffffff\n      and\n      0xffffffffffffffffffffffffffffffffffffffff\n      and\n      dup2\n      mstore\n      0x20\n      add\n      swap1\n      dup2\n      mstore\n      0x20\n      add\n      0x00\n      keccak256\n      0x00\n      swap1\n      sload\n      swap1\n      0x0100\n      exp\n      swap1\n      div\n      0xff\n      and\n        /* \"contracts/devine.sol\":486:576  if(hasPlayed[msg.sender]) {... */\n      iszero\n      tag_46\n      jumpi\n        /* \"contracts/devine.sol\":554:564  msg.sender */\n      caller\n        /* \"contracts/devine.sol\":533:565  UserHasAlreadyPlayed(msg.sender) */\n      mload(0x40)\n      0xc4297ffb00000000000000000000000000000000000000000000000000000000\n      dup2\n      mstore\n      0x04\n      add\n      tag_47\n      swap2\n      swap1\n      tag_26\n      jump\t// in\n    tag_47:\n      mload(0x40)\n      dup1\n      swap2\n      sub\n      swap1\n      revert\n        /* \"contracts/devine.sol\":486:576  if(hasPlayed[msg.sender]) {... */\n    tag_46:\n        /* \"contracts/devine.sol\":606:607  0 */\n      0x00\n        /* \"contracts/devine.sol\":588:608  winner != address(0) */\n      0xffffffffffffffffffffffffffffffffffffffff\n      and\n        /* \"contracts/devine.sol\":588:594  winner */\n      0x03\n      0x00\n      swap1\n      sload\n      swap1\n      0x0100\n      exp\n      swap1\n      div\n      0xffffffffffffffffffffffffffffffffffffffff\n      and\n        /* \"contracts/devine.sol\":588:608  winner != address(0) */\n      0xffffffffffffffffffffffffffffffffffffffff\n      and\n      eq\n        /* \"contracts/devine.sol\":585:656  if(winner != address(0)) {... */\n      tag_48\n      jumpi\n        /* \"contracts/devine.sol\":631:645  GameFinished() */\n      mload(0x40)\n      0xb537cbca00000000000000000000000000000000000000000000000000000000\n      dup2\n      mstore\n      0x04\n      add\n      mload(0x40)\n      dup1\n      swap2\n      sub\n      swap1\n      revert\n        /* \"contracts/devine.sol\":585:656  if(winner != address(0)) {... */\n    tag_48:\n        /* \"contracts/devine.sol\":668:694  compareString(word, _word) */\n      tag_49\n        /* \"contracts/devine.sol\":682:686  word */\n      0x01\n        /* \"contracts/devine.sol\":668:694  compareString(word, _word) */\n      dup1\n      sload\n      tag_50\n      swap1\n      tag_51\n      jump\t// in\n    tag_50:\n      dup1\n      0x1f\n      add\n      0x20\n      dup1\n      swap2\n      div\n      mul\n      0x20\n      add\n      mload(0x40)\n      swap1\n      dup2\n      add\n      0x40\n      mstore\n      dup1\n      swap3\n      swap2\n      swap1\n      dup2\n      dup2\n      mstore\n      0x20\n      add\n      dup3\n      dup1\n      sload\n      tag_52\n      swap1\n      tag_51\n      jump\t// in\n    tag_52:\n      dup1\n      iszero\n      tag_53\n      jumpi\n      dup1\n      0x1f\n      lt\n      tag_54\n      jumpi\n      0x0100\n      dup1\n      dup4\n      sload\n      div\n      mul\n      dup4\n      mstore\n      swap2\n      0x20\n      add\n      swap2\n      jump(tag_53)\n    tag_54:\n      dup3\n      add\n      swap2\n      swap1\n      0x00\n      mstore\n      keccak256(0x00, 0x20)\n      swap1\n    tag_55:\n      dup2\n      sload\n      dup2\n      mstore\n      swap1\n      0x01\n      add\n      swap1\n      0x20\n      add\n      dup1\n      dup4\n      gt\n      tag_55\n      jumpi\n      dup3\n      swap1\n      sub\n      0x1f\n      and\n      dup3\n      add\n      swap2\n    tag_53:\n      pop\n      pop\n      pop\n      pop\n      pop\n        /* \"contracts/devine.sol\":688:693  _word */\n      dup4\n        /* \"contracts/devine.sol\":668:681  compareString */\n      tag_56\n        /* \"contracts/devine.sol\":668:694  compareString(word, _word) */\n      jump\t// in\n    tag_49:\n        /* \"contracts/devine.sol\":665:845  if(compareString(word, _word)) {... */\n      iszero\n      tag_57\n      jumpi\n        /* \"contracts/devine.sol\":719:729  msg.sender */\n      caller\n        /* \"contracts/devine.sol\":710:716  winner */\n      0x03\n      0x00\n        /* \"contracts/devine.sol\":710:729  winner = msg.sender */\n      0x0100\n      exp\n      dup2\n      sload\n      dup2\n      0xffffffffffffffffffffffffffffffffffffffff\n      mul\n      not\n      and\n      swap1\n      dup4\n      0xffffffffffffffffffffffffffffffffffffffff\n      and\n      mul\n      or\n      swap1\n      sstore\n      pop\n        /* \"contracts/devine.sol\":767:771  true */\n      0x01\n        /* \"contracts/devine.sol\":743:752  hasPlayed */\n      0x04\n        /* \"contracts/devine.sol\":743:764  hasPlayed[msg.sender] */\n      0x00\n        /* \"contracts/devine.sol\":753:763  msg.sender */\n      caller\n        /* \"contracts/devine.sol\":743:764  hasPlayed[msg.sender] */\n      0xffffffffffffffffffffffffffffffffffffffff\n      and\n      0xffffffffffffffffffffffffffffffffffffffff\n      and\n      dup2\n      mstore\n      0x20\n      add\n      swap1\n      dup2\n      mstore\n      0x20\n      add\n      0x00\n      keccak256\n      0x00\n        /* \"contracts/devine.sol\":743:771  hasPlayed[msg.sender] = true */\n      0x0100\n      exp\n      dup2\n      sload\n      dup2\n      0xff\n      mul\n      not\n      and\n      swap1\n      dup4\n      iszero\n      iszero\n      mul\n      or\n      swap1\n      sstore\n      pop\n        /* \"contracts/devine.sol\":798:808  msg.sender */\n      caller\n        /* \"contracts/devine.sol\":790:809  GameWon(msg.sender) */\n      0xffffffffffffffffffffffffffffffffffffffff\n      and\n      0x78b3193cf31372e77b1f3045481681f86e18e346de12ae7f1ecc322ff0adf1a4\n      mload(0x40)\n      mload(0x40)\n      dup1\n      swap2\n      sub\n      swap1\n      log2\n        /* \"contracts/devine.sol\":830:834  true */\n      0x01\n        /* \"contracts/devine.sol\":823:834  return true */\n      swap1\n      pop\n      jump(tag_45)\n        /* \"contracts/devine.sol\":665:845  if(compareString(word, _word)) {... */\n    tag_57:\n        /* \"contracts/devine.sol\":878:882  true */\n      0x01\n        /* \"contracts/devine.sol\":854:863  hasPlayed */\n      0x04\n        /* \"contracts/devine.sol\":854:875  hasPlayed[msg.sender] */\n      0x00\n        /* \"contracts/devine.sol\":864:874  msg.sender */\n      caller\n        /* \"contracts/devine.sol\":854:875  hasPlayed[msg.sender] */\n      0xffffffffffffffffffffffffffffffffffffffff\n      and\n      0xffffffffffffffffffffffffffffffffffffffff\n      and\n      dup2\n      mstore\n      0x20\n      add\n      swap1\n      dup2\n      mstore\n      0x20\n      add\n      0x00\n      keccak256\n      0x00\n        /* \"contracts/devine.sol\":854:882  hasPlayed[msg.sender] = true */\n      0x0100\n      exp\n      dup2\n      sload\n      dup2\n      0xff\n      mul\n      not\n      and\n      swap1\n      dup4\n      iszero\n      iszero\n      mul\n      or\n      swap1\n      sstore\n      pop\n        /* \"contracts/devine.sol\":899:904  false */\n      0x00\n        /* \"contracts/devine.sol\":892:904  return false */\n      swap1\n      pop\n        /* \"contracts/devine.sol\":417:911  function guess(string memory _word) external returns(bool) {... */\n    tag_45:\n      swap2\n      swap1\n      pop\n      jump\t// out\n        /* \"@openzeppelin/contracts/access/Ownable.sol\":2293:2394  function renounceOwnership() public virtual onlyOwner {... */\n    tag_22:\n        /* \"@openzeppelin/contracts/access/Ownable.sol\":1531:1544  _checkOwner() */\n      tag_59\n        /* \"@openzeppelin/contracts/access/Ownable.sol\":1531:1542  _checkOwner */\n      tag_40\n        /* \"@openzeppelin/contracts/access/Ownable.sol\":1531:1544  _checkOwner() */\n      jump\t// in\n    tag_59:\n        /* \"@openzeppelin/contracts/access/Ownable.sol\":2357:2387  _transferOwnership(address(0)) */\n      tag_61\n        /* \"@openzeppelin/contracts/access/Ownable.sol\":2384:2385  0 */\n      0x00\n        /* \"@openzeppelin/contracts/access/Ownable.sol\":2357:2375  _transferOwnership */\n      tag_62\n        /* \"@openzeppelin/contracts/access/Ownable.sol\":2357:2387  _transferOwnership(address(0)) */\n      jump\t// in\n    tag_61:\n        /* \"@openzeppelin/contracts/access/Ownable.sol\":2293:2394  function renounceOwnership() public virtual onlyOwner {... */\n      jump\t// out\n        /* \"@openzeppelin/contracts/access/Ownable.sol\":1638:1723  function owner() public view virtual returns (address) {... */\n    tag_24:\n        /* \"@openzeppelin/contracts/access/Ownable.sol\":1684:1691  address */\n      0x00\n        /* \"@openzeppelin/contracts/access/Ownable.sol\":1710:1716  _owner */\n      0x00\n      0x00\n      swap1\n      sload\n      swap1\n      0x0100\n      exp\n      swap1\n      div\n      0xffffffffffffffffffffffffffffffffffffffff\n      and\n        /* \"@openzeppelin/contracts/access/Ownable.sol\":1703:1716  return _owner */\n      swap1\n      pop\n        /* \"@openzeppelin/contracts/access/Ownable.sol\":1638:1723  function owner() public view virtual returns (address) {... */\n      swap1\n      jump\t// out\n        /* \"contracts/devine.sol\":1408:1490  function getWinner() external view returns(address) {... */\n    tag_28:\n        /* \"contracts/devine.sol\":1451:1458  address */\n      0x00\n        /* \"contracts/devine.sol\":1477:1483  winner */\n      0x03\n      0x00\n      swap1\n      sload\n      swap1\n      0x0100\n      exp\n      swap1\n      div\n      0xffffffffffffffffffffffffffffffffffffffff\n      and\n        /* \"contracts/devine.sol\":1470:1483  return winner */\n      swap1\n      pop\n        /* \"contracts/devine.sol\":1408:1490  function getWinner() external view returns(address) {... */\n      swap1\n      jump\t// out\n        /* \"contracts/devine.sol\":1306:1402  function getIndication() external view returns(string memory) {... */\n    tag_31:\n        /* \"contracts/devine.sol\":1353:1366  string memory */\n      0x60\n        /* \"contracts/devine.sol\":1385:1395  indication */\n      0x02\n        /* \"contracts/devine.sol\":1378:1395  return indication */\n      dup1\n      sload\n      tag_66\n      swap1\n      tag_51\n      jump\t// in\n    tag_66:\n      dup1\n      0x1f\n      add\n      0x20\n      dup1\n      swap2\n      div\n      mul\n      0x20\n      add\n      mload(0x40)\n      swap1\n      dup2\n      add\n      0x40\n      mstore\n      dup1\n      swap3\n      swap2\n      swap1\n      dup2\n      dup2\n      mstore\n      0x20\n      add\n      dup3\n      dup1\n      sload\n      tag_67\n      swap1\n      tag_51\n      jump\t// in\n    tag_67:\n      dup1\n      iszero\n      tag_68\n      jumpi\n      dup1\n      0x1f\n      lt\n      tag_69\n      jumpi\n      0x0100\n      dup1\n      dup4\n      sload\n      div\n      mul\n      dup4\n      mstore\n      swap2\n      0x20\n      add\n      swap2\n      jump(tag_68)\n    tag_69:\n      dup3\n      add\n      swap2\n      swap1\n      0x00\n      mstore\n      keccak256(0x00, 0x20)\n      swap1\n    tag_70:\n      dup2\n      sload\n      dup2\n      mstore\n      swap1\n      0x01\n      add\n      swap1\n      0x20\n      add\n      dup1\n      dup4\n      gt\n      tag_70\n      jumpi\n      dup3\n      swap1\n      sub\n      0x1f\n      and\n      dup3\n      add\n      swap2\n    tag_68:\n      pop\n      pop\n      pop\n      pop\n      pop\n      swap1\n      pop\n        /* \"contracts/devine.sol\":1306:1402  function getIndication() external view returns(string memory) {... */\n      swap1\n      jump\t// out\n        /* \"@openzeppelin/contracts/access/Ownable.sol\":2543:2758  function transferOwnership(address newOwner) public virtual onlyOwner {... */\n    tag_37:\n        /* \"@openzeppelin/contracts/access/Ownable.sol\":1531:1544  _checkOwner() */\n      tag_72\n        /* \"@openzeppelin/contracts/access/Ownable.sol\":1531:1542  _checkOwner */\n      tag_40\n        /* \"@openzeppelin/contracts/access/Ownable.sol\":1531:1544  _checkOwner() */\n      jump\t// in\n    tag_72:\n        /* \"@openzeppelin/contracts/access/Ownable.sol\":2647:2648  0 */\n      0x00\n        /* \"@openzeppelin/contracts/access/Ownable.sol\":2627:2649  newOwner == address(0) */\n      0xffffffffffffffffffffffffffffffffffffffff\n      and\n        /* \"@openzeppelin/contracts/access/Ownable.sol\":2627:2635  newOwner */\n      dup2\n        /* \"@openzeppelin/contracts/access/Ownable.sol\":2627:2649  newOwner == address(0) */\n      0xffffffffffffffffffffffffffffffffffffffff\n      and\n      sub\n        /* \"@openzeppelin/contracts/access/Ownable.sol\":2623:2714  if (newOwner == address(0)) {... */\n      tag_74\n      jumpi\n        /* \"@openzeppelin/contracts/access/Ownable.sol\":2700:2701  0 */\n      0x00\n        /* \"@openzeppelin/contracts/access/Ownable.sol\":2672:2703  OwnableInvalidOwner(address(0)) */\n      mload(0x40)\n      0x1e4fbdf700000000000000000000000000000000000000000000000000000000\n      dup2\n      mstore\n      0x04\n      add\n      tag_75\n      swap2\n      swap1\n      tag_26\n      jump\t// in\n    tag_75:\n      mload(0x40)\n      dup1\n      swap2\n      sub\n      swap1\n      revert\n        /* \"@openzeppelin/contracts/access/Ownable.sol\":2623:2714  if (newOwner == address(0)) {... */\n    tag_74:\n        /* \"@openzeppelin/contracts/access/Ownable.sol\":2723:2751  _transferOwnership(newOwner) */\n      tag_76\n        /* \"@openzeppelin/contracts/access/Ownable.sol\":2742:2750  newOwner */\n      dup2\n        /* \"@openzeppelin/contracts/access/Ownable.sol\":2723:2741  _transferOwnership */\n      tag_62\n        /* \"@openzeppelin/contracts/access/Ownable.sol\":2723:2751  _transferOwnership(newOwner) */\n      jump\t// in\n    tag_76:\n        /* \"@openzeppelin/contracts/access/Ownable.sol\":2543:2758  function transferOwnership(address newOwner) public virtual onlyOwner {... */\n      pop\n      jump\t// out\n        /* \"@openzeppelin/contracts/access/Ownable.sol\":1796:1958  function _checkOwner() internal view virtual {... */\n    tag_40:\n        /* \"@openzeppelin/contracts/access/Ownable.sol\":1866:1878  _msgSender() */\n      tag_78\n        /* \"@openzeppelin/contracts/access/Ownable.sol\":1866:1876  _msgSender */\n      tag_79\n        /* \"@openzeppelin/contracts/access/Ownable.sol\":1866:1878  _msgSender() */\n      jump\t// in\n    tag_78:\n        /* \"@openzeppelin/contracts/access/Ownable.sol\":1855:1878  owner() != _msgSender() */\n      0xffffffffffffffffffffffffffffffffffffffff\n      and\n        /* \"@openzeppelin/contracts/access/Ownable.sol\":1855:1862  owner() */\n      tag_80\n        /* \"@openzeppelin/contracts/access/Ownable.sol\":1855:1860  owner */\n      tag_24\n        /* \"@openzeppelin/contracts/access/Ownable.sol\":1855:1862  owner() */\n      jump\t// in\n    tag_80:\n        /* \"@openzeppelin/contracts/access/Ownable.sol\":1855:1878  owner() != _msgSender() */\n      0xffffffffffffffffffffffffffffffffffffffff\n      and\n      eq\n        /* \"@openzeppelin/contracts/access/Ownable.sol\":1851:1952  if (owner() != _msgSender()) {... */\n      tag_81\n      jumpi\n        /* \"@openzeppelin/contracts/access/Ownable.sol\":1928:1940  _msgSender() */\n      tag_82\n        /* \"@openzeppelin/contracts/access/Ownable.sol\":1928:1938  _msgSender */\n      tag_79\n        /* \"@openzeppelin/contracts/access/Ownable.sol\":1928:1940  _msgSender() */\n      jump\t// in\n    tag_82:\n        /* \"@openzeppelin/contracts/access/Ownable.sol\":1901:1941  OwnableUnauthorizedAccount(_msgSender()) */\n      mload(0x40)\n      0x118cdaa700000000000000000000000000000000000000000000000000000000\n      dup2\n      mstore\n      0x04\n      add\n      tag_83\n      swap2\n      swap1\n      tag_26\n      jump\t// in\n    tag_83:\n      mload(0x40)\n      dup1\n      swap2\n      sub\n      swap1\n      revert\n        /* \"@openzeppelin/contracts/access/Ownable.sol\":1851:1952  if (owner() != _msgSender()) {... */\n    tag_81:\n        /* \"@openzeppelin/contracts/access/Ownable.sol\":1796:1958  function _checkOwner() internal view virtual {... */\n      jump\t// out\n        /* \"contracts/devine.sol\":1091:1300  function compareString(string memory _string1, string memory _string2)... */\n    tag_56:\n        /* \"contracts/devine.sol\":1192:1196  bool */\n      0x00\n        /* \"contracts/devine.sol\":1283:1291  _string2 */\n      dup2\n        /* \"contracts/devine.sol\":1266:1292  abi.encodePacked(_string2) */\n      add(0x20, mload(0x40))\n      tag_85\n      swap2\n      swap1\n      tag_86\n      jump\t// in\n    tag_85:\n      mload(0x40)\n      0x20\n      dup2\n      dup4\n      sub\n      sub\n      dup2\n      mstore\n      swap1\n      0x40\n      mstore\n        /* \"contracts/devine.sol\":1256:1293  keccak256(abi.encodePacked(_string2)) */\n      dup1\n      mload\n      swap1\n      0x20\n      add\n      keccak256\n        /* \"contracts/devine.sol\":1242:1250  _string1 */\n      dup4\n        /* \"contracts/devine.sol\":1225:1251  abi.encodePacked(_string1) */\n      add(0x20, mload(0x40))\n      tag_87\n      swap2\n      swap1\n      tag_86\n      jump\t// in\n    tag_87:\n      mload(0x40)\n      0x20\n      dup2\n      dup4\n      sub\n      sub\n      dup2\n      mstore\n      swap1\n      0x40\n      mstore\n        /* \"contracts/devine.sol\":1215:1252  keccak256(abi.encodePacked(_string1)) */\n      dup1\n      mload\n      swap1\n      0x20\n      add\n      keccak256\n        /* \"contracts/devine.sol\":1215:1293  keccak256(abi.encodePacked(_string1)) == keccak256(abi.encodePacked(_string2)) */\n      eq\n        /* \"contracts/devine.sol\":1208:1293  return keccak256(abi.encodePacked(_string1)) == keccak256(abi.encodePacked(_string2)) */\n      swap1\n      pop\n        /* \"contracts/devine.sol\":1091:1300  function compareString(string memory _string1, string memory _string2)... */\n      swap3\n      swap2\n      pop\n      pop\n      jump\t// out\n        /* \"@openzeppelin/contracts/access/Ownable.sol\":2912:3099  function _transferOwnership(address newOwner) internal virtual {... */\n    tag_62:\n        /* \"@openzeppelin/contracts/access/Ownable.sol\":2985:3001  address oldOwner */\n      0x00\n        /* \"@openzeppelin/contracts/access/Ownable.sol\":3004:3010  _owner */\n      0x00\n      0x00\n      swap1\n      sload\n      swap1\n      0x0100\n      exp\n      swap1\n      div\n      0xffffffffffffffffffffffffffffffffffffffff\n      and\n        /* \"@openzeppelin/contracts/access/Ownable.sol\":2985:3010  address oldOwner = _owner */\n      swap1\n      pop\n        /* \"@openzeppelin/contracts/access/Ownable.sol\":3029:3037  newOwner */\n      dup2\n        /* \"@openzeppelin/contracts/access/Ownable.sol\":3020:3026  _owner */\n      0x00\n      0x00\n        /* \"@openzeppelin/contracts/access/Ownable.sol\":3020:3037  _owner = newOwner */\n      0x0100\n      exp\n      dup2\n      sload\n      dup2\n      0xffffffffffffffffffffffffffffffffffffffff\n      mul\n      not\n      and\n      swap1\n      dup4\n      0xffffffffffffffffffffffffffffffffffffffff\n      and\n      mul\n      or\n      swap1\n      sstore\n      pop\n        /* \"@openzeppelin/contracts/access/Ownable.sol\":3083:3091  newOwner */\n      dup2\n        /* \"@openzeppelin/contracts/access/Ownable.sol\":3052:3092  OwnershipTransferred(oldOwner, newOwner) */\n      0xffffffffffffffffffffffffffffffffffffffff\n      and\n        /* \"@openzeppelin/contracts/access/Ownable.sol\":3073:3081  oldOwner */\n      dup2\n        /* \"@openzeppelin/contracts/access/Ownable.sol\":3052:3092  OwnershipTransferred(oldOwner, newOwner) */\n      0xffffffffffffffffffffffffffffffffffffffff\n      and\n      0x8be0079c531659141344cd1fd0a4f28419497f9722a3daafe3b4186f6b6457e0\n      mload(0x40)\n      mload(0x40)\n      dup1\n      swap2\n      sub\n      swap1\n      log3\n        /* \"@openzeppelin/contracts/access/Ownable.sol\":2975:3099  {... */\n      pop\n        /* \"@openzeppelin/contracts/access/Ownable.sol\":2912:3099  function _transferOwnership(address newOwner) internal virtual {... */\n      pop\n      jump\t// out\n        /* \"@openzeppelin/contracts/utils/Context.sol\":656:752  function _msgSender() internal view virtual returns (address) {... */\n    tag_79:\n        /* \"@openzeppelin/contracts/utils/Context.sol\":709:716  address */\n      0x00\n        /* \"@openzeppelin/contracts/utils/Context.sol\":735:745  msg.sender */\n      caller\n        /* \"@openzeppelin/contracts/utils/Context.sol\":728:745  return msg.sender */\n      swap1\n      pop\n        /* \"@openzeppelin/contracts/utils/Context.sol\":656:752  function _msgSender() internal view virtual returns (address) {... */\n      swap1\n      jump\t// out\n        /* \"#utility.yul\":7:82   */\n    tag_90:\n        /* \"#utility.yul\":40:46   */\n      0x00\n        /* \"#utility.yul\":73:75   */\n      0x40\n        /* \"#utility.yul\":67:76   */\n      mload\n        /* \"#utility.yul\":57:76   */\n      swap1\n      pop\n        /* \"#utility.yul\":7:82   */\n      swap1\n      jump\t// out\n        /* \"#utility.yul\":88:205   */\n    tag_91:\n        /* \"#utility.yul\":197:198   */\n      0x00\n        /* \"#utility.yul\":194:195   */\n      0x00\n        /* \"#utility.yul\":187:199   */\n      revert\n        /* \"#utility.yul\":211:328   */\n    tag_92:\n        /* \"#utility.yul\":320:321   */\n      0x00\n        /* \"#utility.yul\":317:318   */\n      0x00\n        /* \"#utility.yul\":310:322   */\n      revert\n        /* \"#utility.yul\":334:451   */\n    tag_93:\n        /* \"#utility.yul\":443:444   */\n      0x00\n        /* \"#utility.yul\":440:441   */\n      0x00\n        /* \"#utility.yul\":433:445   */\n      revert\n        /* \"#utility.yul\":457:574   */\n    tag_94:\n        /* \"#utility.yul\":566:567   */\n      0x00\n        /* \"#utility.yul\":563:564   */\n      0x00\n        /* \"#utility.yul\":556:568   */\n      revert\n        /* \"#utility.yul\":580:682   */\n    tag_95:\n        /* \"#utility.yul\":621:627   */\n      0x00\n        /* \"#utility.yul\":672:674   */\n      0x1f\n        /* \"#utility.yul\":668:675   */\n      not\n        /* \"#utility.yul\":663:665   */\n      0x1f\n        /* \"#utility.yul\":656:661   */\n      dup4\n        /* \"#utility.yul\":652:666   */\n      add\n        /* \"#utility.yul\":648:676   */\n      and\n        /* \"#utility.yul\":638:676   */\n      swap1\n      pop\n        /* \"#utility.yul\":580:682   */\n      swap2\n      swap1\n      pop\n      jump\t// out\n        /* \"#utility.yul\":688:868   */\n    tag_96:\n        /* \"#utility.yul\":736:813   */\n      0x4e487b7100000000000000000000000000000000000000000000000000000000\n        /* \"#utility.yul\":733:734   */\n      0x00\n        /* \"#utility.yul\":726:814   */\n      mstore\n        /* \"#utility.yul\":833:837   */\n      0x41\n        /* \"#utility.yul\":830:831   */\n      0x04\n        /* \"#utility.yul\":823:838   */\n      mstore\n        /* \"#utility.yul\":857:861   */\n      0x24\n        /* \"#utility.yul\":854:855   */\n      0x00\n        /* \"#utility.yul\":847:862   */\n      revert\n        /* \"#utility.yul\":874:1155   */\n    tag_97:\n        /* \"#utility.yul\":957:984   */\n      tag_142\n        /* \"#utility.yul\":979:983   */\n      dup3\n        /* \"#utility.yul\":957:984   */\n      tag_95\n      jump\t// in\n    tag_142:\n        /* \"#utility.yul\":949:955   */\n      dup2\n        /* \"#utility.yul\":945:985   */\n      add\n        /* \"#utility.yul\":1087:1093   */\n      dup2\n        /* \"#utility.yul\":1075:1085   */\n      dup2\n        /* \"#utility.yul\":1072:1094   */\n      lt\n        /* \"#utility.yul\":1051:1069   */\n      0xffffffffffffffff\n        /* \"#utility.yul\":1039:1049   */\n      dup3\n        /* \"#utility.yul\":1036:1070   */\n      gt\n        /* \"#utility.yul\":1033:1095   */\n      or\n        /* \"#utility.yul\":1030:1118   */\n      iszero\n      tag_143\n      jumpi\n        /* \"#utility.yul\":1098:1116   */\n      tag_144\n      tag_96\n      jump\t// in\n    tag_144:\n        /* \"#utility.yul\":1030:1118   */\n    tag_143:\n        /* \"#utility.yul\":1138:1148   */\n      dup1\n        /* \"#utility.yul\":1134:1136   */\n      0x40\n        /* \"#utility.yul\":1127:1149   */\n      mstore\n        /* \"#utility.yul\":917:1155   */\n      pop\n        /* \"#utility.yul\":874:1155   */\n      pop\n      pop\n      jump\t// out\n        /* \"#utility.yul\":1161:1290   */\n    tag_98:\n        /* \"#utility.yul\":1195:1201   */\n      0x00\n        /* \"#utility.yul\":1222:1242   */\n      tag_146\n      tag_90\n      jump\t// in\n    tag_146:\n        /* \"#utility.yul\":1212:1242   */\n      swap1\n      pop\n        /* \"#utility.yul\":1251:1284   */\n      tag_147\n        /* \"#utility.yul\":1279:1283   */\n      dup3\n        /* \"#utility.yul\":1271:1277   */\n      dup3\n        /* \"#utility.yul\":1251:1284   */\n      tag_97\n      jump\t// in\n    tag_147:\n        /* \"#utility.yul\":1161:1290   */\n      swap2\n      swap1\n      pop\n      jump\t// out\n        /* \"#utility.yul\":1296:1604   */\n    tag_99:\n        /* \"#utility.yul\":1358:1362   */\n      0x00\n        /* \"#utility.yul\":1448:1466   */\n      0xffffffffffffffff\n        /* \"#utility.yul\":1440:1446   */\n      dup3\n        /* \"#utility.yul\":1437:1467   */\n      gt\n        /* \"#utility.yul\":1434:1490   */\n      iszero\n      tag_149\n      jumpi\n        /* \"#utility.yul\":1470:1488   */\n      tag_150\n      tag_96\n      jump\t// in\n    tag_150:\n        /* \"#utility.yul\":1434:1490   */\n    tag_149:\n        /* \"#utility.yul\":1508:1537   */\n      tag_151\n        /* \"#utility.yul\":1530:1536   */\n      dup3\n        /* \"#utility.yul\":1508:1537   */\n      tag_95\n      jump\t// in\n    tag_151:\n        /* \"#utility.yul\":1500:1537   */\n      swap1\n      pop\n        /* \"#utility.yul\":1592:1596   */\n      0x20\n        /* \"#utility.yul\":1586:1590   */\n      dup2\n        /* \"#utility.yul\":1582:1597   */\n      add\n        /* \"#utility.yul\":1574:1597   */\n      swap1\n      pop\n        /* \"#utility.yul\":1296:1604   */\n      swap2\n      swap1\n      pop\n      jump\t// out\n        /* \"#utility.yul\":1610:1758   */\n    tag_100:\n        /* \"#utility.yul\":1708:1714   */\n      dup3\n        /* \"#utility.yul\":1703:1706   */\n      dup2\n        /* \"#utility.yul\":1698:1701   */\n      dup4\n        /* \"#utility.yul\":1685:1715   */\n      calldatacopy\n        /* \"#utility.yul\":1749:1750   */\n      0x00\n        /* \"#utility.yul\":1740:1746   */\n      dup4\n        /* \"#utility.yul\":1735:1738   */\n      dup4\n        /* \"#utility.yul\":1731:1747   */\n      add\n        /* \"#utility.yul\":1724:1751   */\n      mstore\n        /* \"#utility.yul\":1610:1758   */\n      pop\n      pop\n      pop\n      jump\t// out\n        /* \"#utility.yul\":1764:2189   */\n    tag_101:\n        /* \"#utility.yul\":1842:1847   */\n      0x00\n        /* \"#utility.yul\":1867:1933   */\n      tag_154\n        /* \"#utility.yul\":1883:1932   */\n      tag_155\n        /* \"#utility.yul\":1925:1931   */\n      dup5\n        /* \"#utility.yul\":1883:1932   */\n      tag_99\n      jump\t// in\n    tag_155:\n        /* \"#utility.yul\":1867:1933   */\n      tag_98\n      jump\t// in\n    tag_154:\n        /* \"#utility.yul\":1858:1933   */\n      swap1\n      pop\n        /* \"#utility.yul\":1956:1962   */\n      dup3\n        /* \"#utility.yul\":1949:1954   */\n      dup2\n        /* \"#utility.yul\":1942:1963   */\n      mstore\n        /* \"#utility.yul\":1994:1998   */\n      0x20\n        /* \"#utility.yul\":1987:1992   */\n      dup2\n        /* \"#utility.yul\":1983:1999   */\n      add\n        /* \"#utility.yul\":2032:2035   */\n      dup5\n        /* \"#utility.yul\":2023:2029   */\n      dup5\n        /* \"#utility.yul\":2018:2021   */\n      dup5\n        /* \"#utility.yul\":2014:2030   */\n      add\n        /* \"#utility.yul\":2011:2036   */\n      gt\n        /* \"#utility.yul\":2008:2120   */\n      iszero\n      tag_156\n      jumpi\n        /* \"#utility.yul\":2039:2118   */\n      tag_157\n      tag_94\n      jump\t// in\n    tag_157:\n        /* \"#utility.yul\":2008:2120   */\n    tag_156:\n        /* \"#utility.yul\":2129:2183   */\n      tag_158\n        /* \"#utility.yul\":2176:2182   */\n      dup5\n        /* \"#utility.yul\":2171:2174   */\n      dup3\n        /* \"#utility.yul\":2166:2169   */\n      dup6\n        /* \"#utility.yul\":2129:2183   */\n      tag_100\n      jump\t// in\n    tag_158:\n        /* \"#utility.yul\":1848:2189   */\n      pop\n        /* \"#utility.yul\":1764:2189   */\n      swap4\n      swap3\n      pop\n      pop\n      pop\n      jump\t// out\n        /* \"#utility.yul\":2209:2549   */\n    tag_102:\n        /* \"#utility.yul\":2265:2270   */\n      0x00\n        /* \"#utility.yul\":2314:2317   */\n      dup3\n        /* \"#utility.yul\":2307:2311   */\n      0x1f\n        /* \"#utility.yul\":2299:2305   */\n      dup4\n        /* \"#utility.yul\":2295:2312   */\n      add\n        /* \"#utility.yul\":2291:2318   */\n      slt\n        /* \"#utility.yul\":2281:2403   */\n      tag_160\n      jumpi\n        /* \"#utility.yul\":2322:2401   */\n      tag_161\n      tag_93\n      jump\t// in\n    tag_161:\n        /* \"#utility.yul\":2281:2403   */\n    tag_160:\n        /* \"#utility.yul\":2439:2445   */\n      dup2\n        /* \"#utility.yul\":2426:2446   */\n      calldataload\n        /* \"#utility.yul\":2464:2543   */\n      tag_162\n        /* \"#utility.yul\":2539:2542   */\n      dup5\n        /* \"#utility.yul\":2531:2537   */\n      dup3\n        /* \"#utility.yul\":2524:2528   */\n      0x20\n        /* \"#utility.yul\":2516:2522   */\n      dup7\n        /* \"#utility.yul\":2512:2529   */\n      add\n        /* \"#utility.yul\":2464:2543   */\n      tag_101\n      jump\t// in\n    tag_162:\n        /* \"#utility.yul\":2455:2543   */\n      swap2\n      pop\n        /* \"#utility.yul\":2271:2549   */\n      pop\n        /* \"#utility.yul\":2209:2549   */\n      swap3\n      swap2\n      pop\n      pop\n      jump\t// out\n        /* \"#utility.yul\":2555:3389   */\n    tag_13:\n        /* \"#utility.yul\":2643:2649   */\n      0x00\n        /* \"#utility.yul\":2651:2657   */\n      0x00\n        /* \"#utility.yul\":2700:2702   */\n      0x40\n        /* \"#utility.yul\":2688:2697   */\n      dup4\n        /* \"#utility.yul\":2679:2686   */\n      dup6\n        /* \"#utility.yul\":2675:2698   */\n      sub\n        /* \"#utility.yul\":2671:2703   */\n      slt\n        /* \"#utility.yul\":2668:2787   */\n      iszero\n      tag_164\n      jumpi\n        /* \"#utility.yul\":2706:2785   */\n      tag_165\n      tag_91\n      jump\t// in\n    tag_165:\n        /* \"#utility.yul\":2668:2787   */\n    tag_164:\n        /* \"#utility.yul\":2854:2855   */\n      0x00\n        /* \"#utility.yul\":2843:2852   */\n      dup4\n        /* \"#utility.yul\":2839:2856   */\n      add\n        /* \"#utility.yul\":2826:2857   */\n      calldataload\n        /* \"#utility.yul\":2884:2902   */\n      0xffffffffffffffff\n        /* \"#utility.yul\":2876:2882   */\n      dup2\n        /* \"#utility.yul\":2873:2903   */\n      gt\n        /* \"#utility.yul\":2870:2987   */\n      iszero\n      tag_166\n      jumpi\n        /* \"#utility.yul\":2906:2985   */\n      tag_167\n      tag_92\n      jump\t// in\n    tag_167:\n        /* \"#utility.yul\":2870:2987   */\n    tag_166:\n        /* \"#utility.yul\":3011:3074   */\n      tag_168\n        /* \"#utility.yul\":3066:3073   */\n      dup6\n        /* \"#utility.yul\":3057:3063   */\n      dup3\n        /* \"#utility.yul\":3046:3055   */\n      dup7\n        /* \"#utility.yul\":3042:3064   */\n      add\n        /* \"#utility.yul\":3011:3074   */\n      tag_102\n      jump\t// in\n    tag_168:\n        /* \"#utility.yul\":3001:3074   */\n      swap3\n      pop\n        /* \"#utility.yul\":2797:3084   */\n      pop\n        /* \"#utility.yul\":3151:3153   */\n      0x20\n        /* \"#utility.yul\":3140:3149   */\n      dup4\n        /* \"#utility.yul\":3136:3154   */\n      add\n        /* \"#utility.yul\":3123:3155   */\n      calldataload\n        /* \"#utility.yul\":3182:3200   */\n      0xffffffffffffffff\n        /* \"#utility.yul\":3174:3180   */\n      dup2\n        /* \"#utility.yul\":3171:3201   */\n      gt\n        /* \"#utility.yul\":3168:3285   */\n      iszero\n      tag_169\n      jumpi\n        /* \"#utility.yul\":3204:3283   */\n      tag_170\n      tag_92\n      jump\t// in\n    tag_170:\n        /* \"#utility.yul\":3168:3285   */\n    tag_169:\n        /* \"#utility.yul\":3309:3372   */\n      tag_171\n        /* \"#utility.yul\":3364:3371   */\n      dup6\n        /* \"#utility.yul\":3355:3361   */\n      dup3\n        /* \"#utility.yul\":3344:3353   */\n      dup7\n        /* \"#utility.yul\":3340:3362   */\n      add\n        /* \"#utility.yul\":3309:3372   */\n      tag_102\n      jump\t// in\n    tag_171:\n        /* \"#utility.yul\":3299:3372   */\n      swap2\n      pop\n        /* \"#utility.yul\":3094:3382   */\n      pop\n        /* \"#utility.yul\":2555:3389   */\n      swap3\n      pop\n      swap3\n      swap1\n      pop\n      jump\t// out\n        /* \"#utility.yul\":3395:3904   */\n    tag_17:\n        /* \"#utility.yul\":3464:3470   */\n      0x00\n        /* \"#utility.yul\":3513:3515   */\n      0x20\n        /* \"#utility.yul\":3501:3510   */\n      dup3\n        /* \"#utility.yul\":3492:3499   */\n      dup5\n        /* \"#utility.yul\":3488:3511   */\n      sub\n        /* \"#utility.yul\":3484:3516   */\n      slt\n        /* \"#utility.yul\":3481:3600   */\n      iszero\n      tag_173\n      jumpi\n        /* \"#utility.yul\":3519:3598   */\n      tag_174\n      tag_91\n      jump\t// in\n    tag_174:\n        /* \"#utility.yul\":3481:3600   */\n    tag_173:\n        /* \"#utility.yul\":3667:3668   */\n      0x00\n        /* \"#utility.yul\":3656:3665   */\n      dup3\n        /* \"#utility.yul\":3652:3669   */\n      add\n        /* \"#utility.yul\":3639:3670   */\n      calldataload\n        /* \"#utility.yul\":3697:3715   */\n      0xffffffffffffffff\n        /* \"#utility.yul\":3689:3695   */\n      dup2\n        /* \"#utility.yul\":3686:3716   */\n      gt\n        /* \"#utility.yul\":3683:3800   */\n      iszero\n      tag_175\n      jumpi\n        /* \"#utility.yul\":3719:3798   */\n      tag_176\n      tag_92\n      jump\t// in\n    tag_176:\n        /* \"#utility.yul\":3683:3800   */\n    tag_175:\n        /* \"#utility.yul\":3824:3887   */\n      tag_177\n        /* \"#utility.yul\":3879:3886   */\n      dup5\n        /* \"#utility.yul\":3870:3876   */\n      dup3\n        /* \"#utility.yul\":3859:3868   */\n      dup6\n        /* \"#utility.yul\":3855:3877   */\n      add\n        /* \"#utility.yul\":3824:3887   */\n      tag_102\n      jump\t// in\n    tag_177:\n        /* \"#utility.yul\":3814:3887   */\n      swap2\n      pop\n        /* \"#utility.yul\":3610:3897   */\n      pop\n        /* \"#utility.yul\":3395:3904   */\n      swap3\n      swap2\n      pop\n      pop\n      jump\t// out\n        /* \"#utility.yul\":3910:4000   */\n    tag_103:\n        /* \"#utility.yul\":3944:3951   */\n      0x00\n        /* \"#utility.yul\":3987:3992   */\n      dup2\n        /* \"#utility.yul\":3980:3993   */\n      iszero\n        /* \"#utility.yul\":3973:3994   */\n      iszero\n        /* \"#utility.yul\":3962:3994   */\n      swap1\n      pop\n        /* \"#utility.yul\":3910:4000   */\n      swap2\n      swap1\n      pop\n      jump\t// out\n        /* \"#utility.yul\":4006:4115   */\n    tag_104:\n        /* \"#utility.yul\":4087:4108   */\n      tag_180\n        /* \"#utility.yul\":4102:4107   */\n      dup2\n        /* \"#utility.yul\":4087:4108   */\n      tag_103\n      jump\t// in\n    tag_180:\n        /* \"#utility.yul\":4082:4085   */\n      dup3\n        /* \"#utility.yul\":4075:4109   */\n      mstore\n        /* \"#utility.yul\":4006:4115   */\n      pop\n      pop\n      jump\t// out\n        /* \"#utility.yul\":4121:4331   */\n    tag_20:\n        /* \"#utility.yul\":4208:4212   */\n      0x00\n        /* \"#utility.yul\":4246:4248   */\n      0x20\n        /* \"#utility.yul\":4235:4244   */\n      dup3\n        /* \"#utility.yul\":4231:4249   */\n      add\n        /* \"#utility.yul\":4223:4249   */\n      swap1\n      pop\n        /* \"#utility.yul\":4259:4324   */\n      tag_182\n        /* \"#utility.yul\":4321:4322   */\n      0x00\n        /* \"#utility.yul\":4310:4319   */\n      dup4\n        /* \"#utility.yul\":4306:4323   */\n      add\n        /* \"#utility.yul\":4297:4303   */\n      dup5\n        /* \"#utility.yul\":4259:4324   */\n      tag_104\n      jump\t// in\n    tag_182:\n        /* \"#utility.yul\":4121:4331   */\n      swap3\n      swap2\n      pop\n      pop\n      jump\t// out\n        /* \"#utility.yul\":4337:4463   */\n    tag_105:\n        /* \"#utility.yul\":4374:4381   */\n      0x00\n        /* \"#utility.yul\":4414:4456   */\n      0xffffffffffffffffffffffffffffffffffffffff\n        /* \"#utility.yul\":4407:4412   */\n      dup3\n        /* \"#utility.yul\":4403:4457   */\n      and\n        /* \"#utility.yul\":4392:4457   */\n      swap1\n      pop\n        /* \"#utility.yul\":4337:4463   */\n      swap2\n      swap1\n      pop\n      jump\t// out\n        /* \"#utility.yul\":4469:4565   */\n    tag_106:\n        /* \"#utility.yul\":4506:4513   */\n      0x00\n        /* \"#utility.yul\":4535:4559   */\n      tag_185\n        /* \"#utility.yul\":4553:4558   */\n      dup3\n        /* \"#utility.yul\":4535:4559   */\n      tag_105\n      jump\t// in\n    tag_185:\n        /* \"#utility.yul\":4524:4559   */\n      swap1\n      pop\n        /* \"#utility.yul\":4469:4565   */\n      swap2\n      swap1\n      pop\n      jump\t// out\n        /* \"#utility.yul\":4571:4689   */\n    tag_107:\n        /* \"#utility.yul\":4658:4682   */\n      tag_187\n        /* \"#utility.yul\":4676:4681   */\n      dup2\n        /* \"#utility.yul\":4658:4682   */\n      tag_106\n      jump\t// in\n    tag_187:\n        /* \"#utility.yul\":4653:4656   */\n      dup3\n        /* \"#utility.yul\":4646:4683   */\n      mstore\n        /* \"#utility.yul\":4571:4689   */\n      pop\n      pop\n      jump\t// out\n        /* \"#utility.yul\":4695:4917   */\n    tag_26:\n        /* \"#utility.yul\":4788:4792   */\n      0x00\n        /* \"#utility.yul\":4826:4828   */\n      0x20\n        /* \"#utility.yul\":4815:4824   */\n      dup3\n        /* \"#utility.yul\":4811:4829   */\n      add\n        /* \"#utility.yul\":4803:4829   */\n      swap1\n      pop\n        /* \"#utility.yul\":4839:4910   */\n      tag_189\n        /* \"#utility.yul\":4907:4908   */\n      0x00\n        /* \"#utility.yul\":4896:4905   */\n      dup4\n        /* \"#utility.yul\":4892:4909   */\n      add\n        /* \"#utility.yul\":4883:4889   */\n      dup5\n        /* \"#utility.yul\":4839:4910   */\n      tag_107\n      jump\t// in\n    tag_189:\n        /* \"#utility.yul\":4695:4917   */\n      swap3\n      swap2\n      pop\n      pop\n      jump\t// out\n        /* \"#utility.yul\":4923:5022   */\n    tag_108:\n        /* \"#utility.yul\":4975:4981   */\n      0x00\n        /* \"#utility.yul\":5009:5014   */\n      dup2\n        /* \"#utility.yul\":5003:5015   */\n      mload\n        /* \"#utility.yul\":4993:5015   */\n      swap1\n      pop\n        /* \"#utility.yul\":4923:5022   */\n      swap2\n      swap1\n      pop\n      jump\t// out\n        /* \"#utility.yul\":5028:5197   */\n    tag_109:\n        /* \"#utility.yul\":5112:5123   */\n      0x00\n        /* \"#utility.yul\":5146:5152   */\n      dup3\n        /* \"#utility.yul\":5141:5144   */\n      dup3\n        /* \"#utility.yul\":5134:5153   */\n      mstore\n        /* \"#utility.yul\":5186:5190   */\n      0x20\n        /* \"#utility.yul\":5181:5184   */\n      dup3\n        /* \"#utility.yul\":5177:5191   */\n      add\n        /* \"#utility.yul\":5162:5191   */\n      swap1\n      pop\n        /* \"#utility.yul\":5028:5197   */\n      swap3\n      swap2\n      pop\n      pop\n      jump\t// out\n        /* \"#utility.yul\":5203:5342   */\n    tag_110:\n        /* \"#utility.yul\":5292:5298   */\n      dup3\n        /* \"#utility.yul\":5287:5290   */\n      dup2\n        /* \"#utility.yul\":5282:5285   */\n      dup4\n        /* \"#utility.yul\":5276:5299   */\n      mcopy\n        /* \"#utility.yul\":5333:5334   */\n      0x00\n        /* \"#utility.yul\":5324:5330   */\n      dup4\n        /* \"#utility.yul\":5319:5322   */\n      dup4\n        /* \"#utility.yul\":5315:5331   */\n      add\n        /* \"#utility.yul\":5308:5335   */\n      mstore\n        /* \"#utility.yul\":5203:5342   */\n      pop\n      pop\n      pop\n      jump\t// out\n        /* \"#utility.yul\":5348:5725   */\n    tag_111:\n        /* \"#utility.yul\":5436:5439   */\n      0x00\n        /* \"#utility.yul\":5464:5503   */\n      tag_194\n        /* \"#utility.yul\":5497:5502   */\n      dup3\n        /* \"#utility.yul\":5464:5503   */\n      tag_108\n      jump\t// in\n    tag_194:\n        /* \"#utility.yul\":5519:5590   */\n      tag_195\n        /* \"#utility.yul\":5583:5589   */\n      dup2\n        /* \"#utility.yul\":5578:5581   */\n      dup6\n        /* \"#utility.yul\":5519:5590   */\n      tag_109\n      jump\t// in\n    tag_195:\n        /* \"#utility.yul\":5512:5590   */\n      swap4\n      pop\n        /* \"#utility.yul\":5599:5664   */\n      tag_196\n        /* \"#utility.yul\":5657:5663   */\n      dup2\n        /* \"#utility.yul\":5652:5655   */\n      dup6\n        /* \"#utility.yul\":5645:5649   */\n      0x20\n        /* \"#utility.yul\":5638:5643   */\n      dup7\n        /* \"#utility.yul\":5634:5650   */\n      add\n        /* \"#utility.yul\":5599:5664   */\n      tag_110\n      jump\t// in\n    tag_196:\n        /* \"#utility.yul\":5689:5718   */\n      tag_197\n        /* \"#utility.yul\":5711:5717   */\n      dup2\n        /* \"#utility.yul\":5689:5718   */\n      tag_95\n      jump\t// in\n    tag_197:\n        /* \"#utility.yul\":5684:5687   */\n      dup5\n        /* \"#utility.yul\":5680:5719   */\n      add\n        /* \"#utility.yul\":5673:5719   */\n      swap2\n      pop\n        /* \"#utility.yul\":5440:5725   */\n      pop\n        /* \"#utility.yul\":5348:5725   */\n      swap3\n      swap2\n      pop\n      pop\n      jump\t// out\n        /* \"#utility.yul\":5731:6044   */\n    tag_33:\n        /* \"#utility.yul\":5844:5848   */\n      0x00\n        /* \"#utility.yul\":5882:5884   */\n      0x20\n        /* \"#utility.yul\":5871:5880   */\n      dup3\n        /* \"#utility.yul\":5867:5885   */\n      add\n        /* \"#utility.yul\":5859:5885   */\n      swap1\n      pop\n        /* \"#utility.yul\":5931:5940   */\n      dup2\n        /* \"#utility.yul\":5925:5929   */\n      dup2\n        /* \"#utility.yul\":5921:5941   */\n      sub\n        /* \"#utility.yul\":5917:5918   */\n      0x00\n        /* \"#utility.yul\":5906:5915   */\n      dup4\n        /* \"#utility.yul\":5902:5919   */\n      add\n        /* \"#utility.yul\":5895:5942   */\n      mstore\n        /* \"#utility.yul\":5959:6037   */\n      tag_199\n        /* \"#utility.yul\":6032:6036   */\n      dup2\n        /* \"#utility.yul\":6023:6029   */\n      dup5\n        /* \"#utility.yul\":5959:6037   */\n      tag_111\n      jump\t// in\n    tag_199:\n        /* \"#utility.yul\":5951:6037   */\n      swap1\n      pop\n        /* \"#utility.yul\":5731:6044   */\n      swap3\n      swap2\n      pop\n      pop\n      jump\t// out\n        /* \"#utility.yul\":6050:6172   */\n    tag_112:\n        /* \"#utility.yul\":6123:6147   */\n      tag_201\n        /* \"#utility.yul\":6141:6146   */\n      dup2\n        /* \"#utility.yul\":6123:6147   */\n      tag_106\n      jump\t// in\n    tag_201:\n        /* \"#utility.yul\":6116:6121   */\n      dup2\n        /* \"#utility.yul\":6113:6148   */\n      eq\n        /* \"#utility.yul\":6103:6166   */\n      tag_202\n      jumpi\n        /* \"#utility.yul\":6162:6163   */\n      0x00\n        /* \"#utility.yul\":6159:6160   */\n      0x00\n        /* \"#utility.yul\":6152:6164   */\n      revert\n        /* \"#utility.yul\":6103:6166   */\n    tag_202:\n        /* \"#utility.yul\":6050:6172   */\n      pop\n      jump\t// out\n        /* \"#utility.yul\":6178:6317   */\n    tag_113:\n        /* \"#utility.yul\":6224:6229   */\n      0x00\n        /* \"#utility.yul\":6262:6268   */\n      dup2\n        /* \"#utility.yul\":6249:6269   */\n      calldataload\n        /* \"#utility.yul\":6240:6269   */\n      swap1\n      pop\n        /* \"#utility.yul\":6278:6311   */\n      tag_204\n        /* \"#utility.yul\":6305:6310   */\n      dup2\n        /* \"#utility.yul\":6278:6311   */\n      tag_112\n      jump\t// in\n    tag_204:\n        /* \"#utility.yul\":6178:6317   */\n      swap3\n      swap2\n      pop\n      pop\n      jump\t// out\n        /* \"#utility.yul\":6323:6652   */\n    tag_36:\n        /* \"#utility.yul\":6382:6388   */\n      0x00\n        /* \"#utility.yul\":6431:6433   */\n      0x20\n        /* \"#utility.yul\":6419:6428   */\n      dup3\n        /* \"#utility.yul\":6410:6417   */\n      dup5\n        /* \"#utility.yul\":6406:6429   */\n      sub\n        /* \"#utility.yul\":6402:6434   */\n      slt\n        /* \"#utility.yul\":6399:6518   */\n      iszero\n      tag_206\n      jumpi\n        /* \"#utility.yul\":6437:6516   */\n      tag_207\n      tag_91\n      jump\t// in\n    tag_207:\n        /* \"#utility.yul\":6399:6518   */\n    tag_206:\n        /* \"#utility.yul\":6557:6558   */\n      0x00\n        /* \"#utility.yul\":6582:6635   */\n      tag_208\n        /* \"#utility.yul\":6627:6634   */\n      dup5\n        /* \"#utility.yul\":6618:6624   */\n      dup3\n        /* \"#utility.yul\":6607:6616   */\n      dup6\n        /* \"#utility.yul\":6603:6625   */\n      add\n        /* \"#utility.yul\":6582:6635   */\n      tag_113\n      jump\t// in\n    tag_208:\n        /* \"#utility.yul\":6572:6635   */\n      swap2\n      pop\n        /* \"#utility.yul\":6528:6645   */\n      pop\n        /* \"#utility.yul\":6323:6652   */\n      swap3\n      swap2\n      pop\n      pop\n      jump\t// out\n        /* \"#utility.yul\":6658:6838   */\n    tag_114:\n        /* \"#utility.yul\":6706:6783   */\n      0x4e487b7100000000000000000000000000000000000000000000000000000000\n        /* \"#utility.yul\":6703:6704   */\n      0x00\n        /* \"#utility.yul\":6696:6784   */\n      mstore\n        /* \"#utility.yul\":6803:6807   */\n      0x22\n        /* \"#utility.yul\":6800:6801   */\n      0x04\n        /* \"#utility.yul\":6793:6808   */\n      mstore\n        /* \"#utility.yul\":6827:6831   */\n      0x24\n        /* \"#utility.yul\":6824:6825   */\n      0x00\n        /* \"#utility.yul\":6817:6832   */\n      revert\n        /* \"#utility.yul\":6844:7164   */\n    tag_51:\n        /* \"#utility.yul\":6888:6894   */\n      0x00\n        /* \"#utility.yul\":6925:6926   */\n      0x02\n        /* \"#utility.yul\":6919:6923   */\n      dup3\n        /* \"#utility.yul\":6915:6927   */\n      div\n        /* \"#utility.yul\":6905:6927   */\n      swap1\n      pop\n        /* \"#utility.yul\":6972:6973   */\n      0x01\n        /* \"#utility.yul\":6966:6970   */\n      dup3\n        /* \"#utility.yul\":6962:6974   */\n      and\n        /* \"#utility.yul\":6993:7011   */\n      dup1\n        /* \"#utility.yul\":6983:7064   */\n      tag_211\n      jumpi\n        /* \"#utility.yul\":7049:7053   */\n      0x7f\n        /* \"#utility.yul\":7041:7047   */\n      dup3\n        /* \"#utility.yul\":7037:7054   */\n      and\n        /* \"#utility.yul\":7027:7054   */\n      swap2\n      pop\n        /* \"#utility.yul\":6983:7064   */\n    tag_211:\n        /* \"#utility.yul\":7111:7113   */\n      0x20\n        /* \"#utility.yul\":7103:7109   */\n      dup3\n        /* \"#utility.yul\":7100:7114   */\n      lt\n        /* \"#utility.yul\":7080:7098   */\n      dup2\n        /* \"#utility.yul\":7077:7115   */\n      sub\n        /* \"#utility.yul\":7074:7158   */\n      tag_212\n      jumpi\n        /* \"#utility.yul\":7130:7148   */\n      tag_213\n      tag_114\n      jump\t// in\n    tag_213:\n        /* \"#utility.yul\":7074:7158   */\n    tag_212:\n        /* \"#utility.yul\":6895:7164   */\n      pop\n        /* \"#utility.yul\":6844:7164   */\n      swap2\n      swap1\n      pop\n      jump\t// out\n        /* \"#utility.yul\":7170:7311   */\n    tag_115:\n        /* \"#utility.yul\":7219:7223   */\n      0x00\n        /* \"#utility.yul\":7242:7245   */\n      dup2\n        /* \"#utility.yul\":7234:7245   */\n      swap1\n      pop\n        /* \"#utility.yul\":7265:7268   */\n      dup2\n        /* \"#utility.yul\":7262:7263   */\n      0x00\n        /* \"#utility.yul\":7255:7269   */\n      mstore\n        /* \"#utility.yul\":7299:7303   */\n      0x20\n        /* \"#utility.yul\":7296:7297   */\n      0x00\n        /* \"#utility.yul\":7286:7304   */\n      keccak256\n        /* \"#utility.yul\":7278:7304   */\n      swap1\n      pop\n        /* \"#utility.yul\":7170:7311   */\n      swap2\n      swap1\n      pop\n      jump\t// out\n        /* \"#utility.yul\":7317:7410   */\n    tag_116:\n        /* \"#utility.yul\":7354:7360   */\n      0x00\n        /* \"#utility.yul\":7401:7403   */\n      0x20\n        /* \"#utility.yul\":7396:7398   */\n      0x1f\n        /* \"#utility.yul\":7389:7394   */\n      dup4\n        /* \"#utility.yul\":7385:7399   */\n      add\n        /* \"#utility.yul\":7381:7404   */\n      div\n        /* \"#utility.yul\":7371:7404   */\n      swap1\n      pop\n        /* \"#utility.yul\":7317:7410   */\n      swap2\n      swap1\n      pop\n      jump\t// out\n        /* \"#utility.yul\":7416:7523   */\n    tag_117:\n        /* \"#utility.yul\":7460:7468   */\n      0x00\n        /* \"#utility.yul\":7510:7515   */\n      dup3\n        /* \"#utility.yul\":7504:7508   */\n      dup3\n        /* \"#utility.yul\":7500:7516   */\n      shl\n        /* \"#utility.yul\":7479:7516   */\n      swap1\n      pop\n        /* \"#utility.yul\":7416:7523   */\n      swap3\n      swap2\n      pop\n      pop\n      jump\t// out\n        /* \"#utility.yul\":7529:7922   */\n    tag_118:\n        /* \"#utility.yul\":7598:7604   */\n      0x00\n        /* \"#utility.yul\":7648:7649   */\n      0x08\n        /* \"#utility.yul\":7636:7646   */\n      dup4\n        /* \"#utility.yul\":7632:7650   */\n      mul\n        /* \"#utility.yul\":7671:7768   */\n      tag_218\n        /* \"#utility.yul\":7701:7767   */\n      0xffffffffffffffffffffffffffffffffffffffffffffffffffffffffffffffff\n        /* \"#utility.yul\":7690:7699   */\n      dup3\n        /* \"#utility.yul\":7671:7768   */\n      tag_117\n      jump\t// in\n    tag_218:\n        /* \"#utility.yul\":7789:7828   */\n      tag_219\n        /* \"#utility.yul\":7819:7827   */\n      dup7\n        /* \"#utility.yul\":7808:7817   */\n      dup4\n        /* \"#utility.yul\":7789:7828   */\n      tag_117\n      jump\t// in\n    tag_219:\n        /* \"#utility.yul\":7777:7828   */\n      swap6\n      pop\n        /* \"#utility.yul\":7861:7865   */\n      dup1\n        /* \"#utility.yul\":7857:7866   */\n      not\n        /* \"#utility.yul\":7850:7855   */\n      dup5\n        /* \"#utility.yul\":7846:7867   */\n      and\n        /* \"#utility.yul\":7837:7867   */\n      swap4\n      pop\n        /* \"#utility.yul\":7910:7914   */\n      dup1\n        /* \"#utility.yul\":7900:7908   */\n      dup7\n        /* \"#utility.yul\":7896:7915   */\n      and\n        /* \"#utility.yul\":7889:7894   */\n      dup5\n        /* \"#utility.yul\":7886:7916   */\n      or\n        /* \"#utility.yul\":7876:7916   */\n      swap3\n      pop\n        /* \"#utility.yul\":7605:7922   */\n      pop\n      pop\n        /* \"#utility.yul\":7529:7922   */\n      swap4\n      swap3\n      pop\n      pop\n      pop\n      jump\t// out\n        /* \"#utility.yul\":7928:8005   */\n    tag_119:\n        /* \"#utility.yul\":7965:7972   */\n      0x00\n        /* \"#utility.yul\":7994:7999   */\n      dup2\n        /* \"#utility.yul\":7983:7999   */\n      swap1\n      pop\n        /* \"#utility.yul\":7928:8005   */\n      swap2\n      swap1\n      pop\n      jump\t// out\n        /* \"#utility.yul\":8011:8071   */\n    tag_120:\n        /* \"#utility.yul\":8039:8042   */\n      0x00\n        /* \"#utility.yul\":8060:8065   */\n      dup2\n        /* \"#utility.yul\":8053:8065   */\n      swap1\n      pop\n        /* \"#utility.yul\":8011:8071   */\n      swap2\n      swap1\n      pop\n      jump\t// out\n        /* \"#utility.yul\":8077:8219   */\n    tag_121:\n        /* \"#utility.yul\":8127:8136   */\n      0x00\n        /* \"#utility.yul\":8160:8213   */\n      tag_223\n        /* \"#utility.yul\":8178:8212   */\n      tag_224\n        /* \"#utility.yul\":8187:8211   */\n      tag_225\n        /* \"#utility.yul\":8205:8210   */\n      dup5\n        /* \"#utility.yul\":8187:8211   */\n      tag_119\n      jump\t// in\n    tag_225:\n        /* \"#utility.yul\":8178:8212   */\n      tag_120\n      jump\t// in\n    tag_224:\n        /* \"#utility.yul\":8160:8213   */\n      tag_119\n      jump\t// in\n    tag_223:\n        /* \"#utility.yul\":8147:8213   */\n      swap1\n      pop\n        /* \"#utility.yul\":8077:8219   */\n      swap2\n      swap1\n      pop\n      jump\t// out\n        /* \"#utility.yul\":8225:8300   */\n    tag_122:\n        /* \"#utility.yul\":8268:8271   */\n      0x00\n        /* \"#utility.yul\":8289:8294   */\n      dup2\n        /* \"#utility.yul\":8282:8294   */\n      swap1\n      pop\n        /* \"#utility.yul\":8225:8300   */\n      swap2\n      swap1\n      pop\n      jump\t// out\n        /* \"#utility.yul\":8306:8575   */\n    tag_123:\n        /* \"#utility.yul\":8416:8455   */\n      tag_228\n        /* \"#utility.yul\":8447:8454   */\n      dup4\n        /* \"#utility.yul\":8416:8455   */\n      tag_121\n      jump\t// in\n    tag_228:\n        /* \"#utility.yul\":8477:8568   */\n      tag_229\n        /* \"#utility.yul\":8526:8567   */\n      tag_230\n        /* \"#utility.yul\":8550:8566   */\n      dup3\n        /* \"#utility.yul\":8526:8567   */\n      tag_122\n      jump\t// in\n    tag_230:\n        /* \"#utility.yul\":8518:8524   */\n      dup5\n        /* \"#utility.yul\":8511:8515   */\n      dup5\n        /* \"#utility.yul\":8505:8516   */\n      sload\n        /* \"#utility.yul\":8477:8568   */\n      tag_118\n      jump\t// in\n    tag_229:\n        /* \"#utility.yul\":8471:8475   */\n      dup3\n        /* \"#utility.yul\":8464:8569   */\n      sstore\n        /* \"#utility.yul\":8382:8575   */\n      pop\n        /* \"#utility.yul\":8306:8575   */\n      pop\n      pop\n      pop\n      jump\t// out\n        /* \"#utility.yul\":8581:8654   */\n    tag_124:\n        /* \"#utility.yul\":8626:8629   */\n      0x00\n        /* \"#utility.yul\":8647:8648   */\n      0x00\n        /* \"#utility.yul\":8640:8648   */\n      swap1\n      pop\n        /* \"#utility.yul\":8581:8654   */\n      swap1\n      jump\t// out\n        /* \"#utility.yul\":8660:8849   */\n    tag_125:\n        /* \"#utility.yul\":8737:8769   */\n      tag_233\n      tag_124\n      jump\t// in\n    tag_233:\n        /* \"#utility.yul\":8778:8843   */\n      tag_234\n        /* \"#utility.yul\":8836:8842   */\n      dup2\n        /* \"#utility.yul\":8828:8834   */\n      dup5\n        /* \"#utility.yul\":8822:8826   */\n      dup5\n        /* \"#utility.yul\":8778:8843   */\n      tag_123\n      jump\t// in\n    tag_234:\n        /* \"#utility.yul\":8713:8849   */\n      pop\n        /* \"#utility.yul\":8660:8849   */\n      pop\n      pop\n      jump\t// out\n        /* \"#utility.yul\":8855:9041   */\n    tag_126:\n        /* \"#utility.yul\":8915:9035   */\n    tag_236:\n        /* \"#utility.yul\":8932:8935   */\n      dup2\n        /* \"#utility.yul\":8925:8930   */\n      dup2\n        /* \"#utility.yul\":8922:8936   */\n      lt\n        /* \"#utility.yul\":8915:9035   */\n      iszero\n      tag_238\n      jumpi\n        /* \"#utility.yul\":8986:9025   */\n      tag_239\n        /* \"#utility.yul\":9023:9024   */\n      0x00\n        /* \"#utility.yul\":9016:9021   */\n      dup3\n        /* \"#utility.yul\":8986:9025   */\n      tag_125\n      jump\t// in\n    tag_239:\n        /* \"#utility.yul\":8959:8960   */\n      0x01\n        /* \"#utility.yul\":8952:8957   */\n      dup2\n        /* \"#utility.yul\":8948:8961   */\n      add\n        /* \"#utility.yul\":8939:8961   */\n      swap1\n      pop\n        /* \"#utility.yul\":8915:9035   */\n      jump(tag_236)\n    tag_238:\n        /* \"#utility.yul\":8855:9041   */\n      pop\n      pop\n      jump\t// out\n        /* \"#utility.yul\":9047:9590   */\n    tag_127:\n        /* \"#utility.yul\":9148:9150   */\n      0x1f\n        /* \"#utility.yul\":9143:9146   */\n      dup3\n        /* \"#utility.yul\":9140:9151   */\n      gt\n        /* \"#utility.yul\":9137:9583   */\n      iszero\n      tag_241\n      jumpi\n        /* \"#utility.yul\":9182:9220   */\n      tag_242\n        /* \"#utility.yul\":9214:9219   */\n      dup2\n        /* \"#utility.yul\":9182:9220   */\n      tag_115\n      jump\t// in\n    tag_242:\n        /* \"#utility.yul\":9266:9295   */\n      tag_243\n        /* \"#utility.yul\":9284:9294   */\n      dup5\n        /* \"#utility.yul\":9266:9295   */\n      tag_116\n      jump\t// in\n    tag_243:\n        /* \"#utility.yul\":9256:9264   */\n      dup2\n        /* \"#utility.yul\":9252:9296   */\n      add\n        /* \"#utility.yul\":9449:9451   */\n      0x20\n        /* \"#utility.yul\":9437:9447   */\n      dup6\n        /* \"#utility.yul\":9434:9452   */\n      lt\n        /* \"#utility.yul\":9431:9480   */\n      iszero\n      tag_244\n      jumpi\n        /* \"#utility.yul\":9470:9478   */\n      dup2\n        /* \"#utility.yul\":9455:9478   */\n      swap1\n      pop\n        /* \"#utility.yul\":9431:9480   */\n    tag_244:\n        /* \"#utility.yul\":9493:9573   */\n      tag_245\n        /* \"#utility.yul\":9549:9571   */\n      tag_246\n        /* \"#utility.yul\":9567:9570   */\n      dup6\n        /* \"#utility.yul\":9549:9571   */\n      tag_116\n      jump\t// in\n    tag_246:\n        /* \"#utility.yul\":9539:9547   */\n      dup4\n        /* \"#utility.yul\":9535:9572   */\n      add\n        /* \"#utility.yul\":9522:9533   */\n      dup3\n        /* \"#utility.yul\":9493:9573   */\n      tag_126\n      jump\t// in\n    tag_245:\n        /* \"#utility.yul\":9152:9583   */\n      pop\n      pop\n        /* \"#utility.yul\":9137:9583   */\n    tag_241:\n        /* \"#utility.yul\":9047:9590   */\n      pop\n      pop\n      pop\n      jump\t// out\n        /* \"#utility.yul\":9596:9713   */\n    tag_128:\n        /* \"#utility.yul\":9650:9658   */\n      0x00\n        /* \"#utility.yul\":9700:9705   */\n      dup3\n        /* \"#utility.yul\":9694:9698   */\n      dup3\n        /* \"#utility.yul\":9690:9706   */\n      shr\n        /* \"#utility.yul\":9669:9706   */\n      swap1\n      pop\n        /* \"#utility.yul\":9596:9713   */\n      swap3\n      swap2\n      pop\n      pop\n      jump\t// out\n        /* \"#utility.yul\":9719:9888   */\n    tag_129:\n        /* \"#utility.yul\":9763:9769   */\n      0x00\n        /* \"#utility.yul\":9796:9847   */\n      tag_249\n        /* \"#utility.yul\":9844:9845   */\n      0x00\n        /* \"#utility.yul\":9840:9846   */\n      not\n        /* \"#utility.yul\":9832:9837   */\n      dup5\n        /* \"#utility.yul\":9829:9830   */\n      0x08\n        /* \"#utility.yul\":9825:9838   */\n      mul\n        /* \"#utility.yul\":9796:9847   */\n      tag_128\n      jump\t// in\n    tag_249:\n        /* \"#utility.yul\":9792:9848   */\n      not\n        /* \"#utility.yul\":9877:9881   */\n      dup1\n        /* \"#utility.yul\":9871:9875   */\n      dup4\n        /* \"#utility.yul\":9867:9882   */\n      and\n        /* \"#utility.yul\":9857:9882   */\n      swap2\n      pop\n        /* \"#utility.yul\":9770:9888   */\n      pop\n        /* \"#utility.yul\":9719:9888   */\n      swap3\n      swap2\n      pop\n      pop\n      jump\t// out\n        /* \"#utility.yul\":9893:10188   */\n    tag_130:\n        /* \"#utility.yul\":9969:9973   */\n      0x00\n        /* \"#utility.yul\":10115:10144   */\n      tag_251\n        /* \"#utility.yul\":10140:10143   */\n      dup4\n        /* \"#utility.yul\":10134:10138   */\n      dup4\n        /* \"#utility.yul\":10115:10144   */\n      tag_129\n      jump\t// in\n    tag_251:\n        /* \"#utility.yul\":10107:10144   */\n      swap2\n      pop\n        /* \"#utility.yul\":10177:10180   */\n      dup3\n        /* \"#utility.yul\":10174:10175   */\n      0x02\n        /* \"#utility.yul\":10170:10181   */\n      mul\n        /* \"#utility.yul\":10164:10168   */\n      dup3\n        /* \"#utility.yul\":10161:10182   */\n      or\n        /* \"#utility.yul\":10153:10182   */\n      swap1\n      pop\n        /* \"#utility.yul\":9893:10188   */\n      swap3\n      swap2\n      pop\n      pop\n      jump\t// out\n        /* \"#utility.yul\":10193:11588   */\n    tag_43:\n        /* \"#utility.yul\":10310:10347   */\n      tag_253\n        /* \"#utility.yul\":10343:10346   */\n      dup3\n        /* \"#utility.yul\":10310:10347   */\n      tag_108\n      jump\t// in\n    tag_253:\n        /* \"#utility.yul\":10412:10430   */\n      0xffffffffffffffff\n        /* \"#utility.yul\":10404:10410   */\n      dup2\n        /* \"#utility.yul\":10401:10431   */\n      gt\n        /* \"#utility.yul\":10398:10454   */\n      iszero\n      tag_254\n      jumpi\n        /* \"#utility.yul\":10434:10452   */\n      tag_255\n      tag_96\n      jump\t// in\n    tag_255:\n        /* \"#utility.yul\":10398:10454   */\n    tag_254:\n        /* \"#utility.yul\":10478:10516   */\n      tag_256\n        /* \"#utility.yul\":10510:10514   */\n      dup3\n        /* \"#utility.yul\":10504:10515   */\n      sload\n        /* \"#utility.yul\":10478:10516   */\n      tag_51\n      jump\t// in\n    tag_256:\n        /* \"#utility.yul\":10563:10630   */\n      tag_257\n        /* \"#utility.yul\":10623:10629   */\n      dup3\n        /* \"#utility.yul\":10615:10621   */\n      dup3\n        /* \"#utility.yul\":10609:10613   */\n      dup6\n        /* \"#utility.yul\":10563:10630   */\n      tag_127\n      jump\t// in\n    tag_257:\n        /* \"#utility.yul\":10657:10658   */\n      0x00\n        /* \"#utility.yul\":10681:10685   */\n      0x20\n        /* \"#utility.yul\":10668:10685   */\n      swap1\n      pop\n        /* \"#utility.yul\":10713:10715   */\n      0x1f\n        /* \"#utility.yul\":10705:10711   */\n      dup4\n        /* \"#utility.yul\":10702:10716   */\n      gt\n        /* \"#utility.yul\":10730:10731   */\n      0x01\n        /* \"#utility.yul\":10725:11343   */\n      dup2\n      eq\n      tag_259\n      jumpi\n        /* \"#utility.yul\":11387:11388   */\n      0x00\n        /* \"#utility.yul\":11404:11410   */\n      dup5\n        /* \"#utility.yul\":11401:11478   */\n      iszero\n      tag_260\n      jumpi\n        /* \"#utility.yul\":11453:11462   */\n      dup3\n        /* \"#utility.yul\":11448:11451   */\n      dup8\n        /* \"#utility.yul\":11444:11463   */\n      add\n        /* \"#utility.yul\":11438:11464   */\n      mload\n        /* \"#utility.yul\":11429:11464   */\n      swap1\n      pop\n        /* \"#utility.yul\":11401:11478   */\n    tag_260:\n        /* \"#utility.yul\":11504:11571   */\n      tag_261\n        /* \"#utility.yul\":11564:11570   */\n      dup6\n        /* \"#utility.yul\":11557:11562   */\n      dup3\n        /* \"#utility.yul\":11504:11571   */\n      tag_130\n      jump\t// in\n    tag_261:\n        /* \"#utility.yul\":11498:11502   */\n      dup7\n        /* \"#utility.yul\":11491:11572   */\n      sstore\n        /* \"#utility.yul\":11360:11582   */\n      pop\n        /* \"#utility.yul\":10695:11582   */\n      jump(tag_258)\n        /* \"#utility.yul\":10725:11343   */\n    tag_259:\n        /* \"#utility.yul\":10777:10781   */\n      0x1f\n        /* \"#utility.yul\":10773:10782   */\n      not\n        /* \"#utility.yul\":10765:10771   */\n      dup5\n        /* \"#utility.yul\":10761:10783   */\n      and\n        /* \"#utility.yul\":10811:10848   */\n      tag_262\n        /* \"#utility.yul\":10843:10847   */\n      dup7\n        /* \"#utility.yul\":10811:10848   */\n      tag_115\n      jump\t// in\n    tag_262:\n        /* \"#utility.yul\":10870:10871   */\n      0x00\n        /* \"#utility.yul\":10884:11092   */\n    tag_263:\n        /* \"#utility.yul\":10898:10905   */\n      dup3\n        /* \"#utility.yul\":10895:10896   */\n      dup2\n        /* \"#utility.yul\":10892:10906   */\n      lt\n        /* \"#utility.yul\":10884:11092   */\n      iszero\n      tag_265\n      jumpi\n        /* \"#utility.yul\":10977:10986   */\n      dup5\n        /* \"#utility.yul\":10972:10975   */\n      dup10\n        /* \"#utility.yul\":10968:10987   */\n      add\n        /* \"#utility.yul\":10962:10988   */\n      mload\n        /* \"#utility.yul\":10954:10960   */\n      dup3\n        /* \"#utility.yul\":10947:10989   */\n      sstore\n        /* \"#utility.yul\":11028:11029   */\n      0x01\n        /* \"#utility.yul\":11020:11026   */\n      dup3\n        /* \"#utility.yul\":11016:11030   */\n      add\n        /* \"#utility.yul\":11006:11030   */\n      swap2\n      pop\n        /* \"#utility.yul\":11075:11077   */\n      0x20\n        /* \"#utility.yul\":11064:11073   */\n      dup6\n        /* \"#utility.yul\":11060:11078   */\n      add\n        /* \"#utility.yul\":11047:11078   */\n      swap5\n      pop\n        /* \"#utility.yul\":10921:10925   */\n      0x20\n        /* \"#utility.yul\":10918:10919   */\n      dup2\n        /* \"#utility.yul\":10914:10926   */\n      add\n        /* \"#utility.yul\":10909:10926   */\n      swap1\n      pop\n        /* \"#utility.yul\":10884:11092   */\n      jump(tag_263)\n    tag_265:\n        /* \"#utility.yul\":11120:11126   */\n      dup7\n        /* \"#utility.yul\":11111:11118   */\n      dup4\n        /* \"#utility.yul\":11108:11127   */\n      lt\n        /* \"#utility.yul\":11105:11284   */\n      iszero\n      tag_266\n      jumpi\n        /* \"#utility.yul\":11178:11187   */\n      dup5\n        /* \"#utility.yul\":11173:11176   */\n      dup10\n        /* \"#utility.yul\":11169:11188   */\n      add\n        /* \"#utility.yul\":11163:11189   */\n      mload\n        /* \"#utility.yul\":11221:11269   */\n      tag_267\n        /* \"#utility.yul\":11263:11267   */\n      0x1f\n        /* \"#utility.yul\":11255:11261   */\n      dup10\n        /* \"#utility.yul\":11251:11268   */\n      and\n        /* \"#utility.yul\":11240:11249   */\n      dup3\n        /* \"#utility.yul\":11221:11269   */\n      tag_129\n      jump\t// in\n    tag_267:\n        /* \"#utility.yul\":11213:11219   */\n      dup4\n        /* \"#utility.yul\":11206:11270   */\n      sstore\n        /* \"#utility.yul\":11128:11284   */\n      pop\n        /* \"#utility.yul\":11105:11284   */\n    tag_266:\n        /* \"#utility.yul\":11330:11331   */\n      0x01\n        /* \"#utility.yul\":11326:11327   */\n      0x02\n        /* \"#utility.yul\":11318:11324   */\n      dup9\n        /* \"#utility.yul\":11314:11328   */\n      mul\n        /* \"#utility.yul\":11310:11332   */\n      add\n        /* \"#utility.yul\":11304:11308   */\n      dup9\n        /* \"#utility.yul\":11297:11333   */\n      sstore\n        /* \"#utility.yul\":10732:11343   */\n      pop\n      pop\n      pop\n        /* \"#utility.yul\":10695:11582   */\n    tag_258:\n      pop\n        /* \"#utility.yul\":10285:11588   */\n      pop\n      pop\n      pop\n        /* \"#utility.yul\":10193:11588   */\n      pop\n      pop\n      jump\t// out\n        /* \"#utility.yul\":11594:11742   */\n    tag_131:\n        /* \"#utility.yul\":11696:11707   */\n      0x00\n        /* \"#utility.yul\":11733:11736   */\n      dup2\n        /* \"#utility.yul\":11718:11736   */\n      swap1\n      pop\n        /* \"#utility.yul\":11594:11742   */\n      swap3\n      swap2\n      pop\n      pop\n      jump\t// out\n        /* \"#utility.yul\":11748:12138   */\n    tag_132:\n        /* \"#utility.yul\":11854:11857   */\n      0x00\n        /* \"#utility.yul\":11882:11921   */\n      tag_270\n        /* \"#utility.yul\":11915:11920   */\n      dup3\n        /* \"#utility.yul\":11882:11921   */\n      tag_108\n      jump\t// in\n    tag_270:\n        /* \"#utility.yul\":11937:12026   */\n      tag_271\n        /* \"#utility.yul\":12019:12025   */\n      dup2\n        /* \"#utility.yul\":12014:12017   */\n      dup6\n        /* \"#utility.yul\":11937:12026   */\n      tag_131\n      jump\t// in\n    tag_271:\n        /* \"#utility.yul\":11930:12026   */\n      swap4\n      pop\n        /* \"#utility.yul\":12035:12100   */\n      tag_272\n        /* \"#utility.yul\":12093:12099   */\n      dup2\n        /* \"#utility.yul\":12088:12091   */\n      dup6\n        /* \"#utility.yul\":12081:12085   */\n      0x20\n        /* \"#utility.yul\":12074:12079   */\n      dup7\n        /* \"#utility.yul\":12070:12086   */\n      add\n        /* \"#utility.yul\":12035:12100   */\n      tag_110\n      jump\t// in\n    tag_272:\n        /* \"#utility.yul\":12125:12131   */\n      dup1\n        /* \"#utility.yul\":12120:12123   */\n      dup5\n        /* \"#utility.yul\":12116:12132   */\n      add\n        /* \"#utility.yul\":12109:12132   */\n      swap2\n      pop\n        /* \"#utility.yul\":11858:12138   */\n      pop\n        /* \"#utility.yul\":11748:12138   */\n      swap3\n      swap2\n      pop\n      pop\n      jump\t// out\n        /* \"#utility.yul\":12144:12419   */\n    tag_86:\n        /* \"#utility.yul\":12276:12279   */\n      0x00\n        /* \"#utility.yul\":12298:12393   */\n      tag_274\n        /* \"#utility.yul\":12389:12392   */\n      dup3\n        /* \"#utility.yul\":12380:12386   */\n      dup5\n        /* \"#utility.yul\":12298:12393   */\n      tag_132\n      jump\t// in\n    tag_274:\n        /* \"#utility.yul\":12291:12393   */\n      swap2\n      pop\n        /* \"#utility.yul\":12410:12413   */\n      dup2\n        /* \"#utility.yul\":12403:12413   */\n      swap1\n      pop\n        /* \"#utility.yul\":12144:12419   */\n      swap3\n      swap2\n      pop\n      pop\n      jump\t// out\n\n    auxdata: 0xa2646970667358221220a621d627195ad8ef003bbb4e8669f63c3a08742b748fec93e610177b25d7136064736f6c634300081c0033\n}\n",
				"bytecode": {
					"linkReferences": {},
					"object": "608060405234801561000f575f5ffd5b50335f73ffffffffffffffffffffffffffffffffffffffff168173ffffffffffffffffffffffffffffffffffffffff1603610081575f6040517f1e4fbdf70000000000000000000000000000000000000000000000000000000081526004016100789190610196565b60405180910390fd5b6100908161009660201b60201c565b506101af565b5f5f5f9054906101000a900473ffffffffffffffffffffffffffffffffffffffff169050815f5f6101000a81548173ffffffffffffffffffffffffffffffffffffffff021916908373ffffffffffffffffffffffffffffffffffffffff1602179055508173ffffffffffffffffffffffffffffffffffffffff168173ffffffffffffffffffffffffffffffffffffffff167f8be0079c531659141344cd1fd0a4f28419497f9722a3daafe3b4186f6b6457e060405160405180910390a35050565b5f73ffffffffffffffffffffffffffffffffffffffff82169050919050565b5f61018082610157565b9050919050565b61019081610176565b82525050565b5f6020820190506101a95f830184610187565b92915050565b610e42806101bc5f395ff3fe608060405234801561000f575f5ffd5b506004361061007b575f3560e01c80638da5cb5b116100595780638da5cb5b146100d55780638e7ea5b2146100f35780639464909014610111578063f2fde38b1461012f5761007b565b80631e5a13ed1461007f5780634eee59b31461009b578063715018a6146100cb575b5f5ffd5b610099600480360381019061009491906108ca565b61014b565b005b6100b560048036038101906100b09190610940565b610177565b6040516100c291906109a1565b60405180910390f35b6100d3610460565b005b6100dd610473565b6040516100ea91906109f9565b60405180910390f35b6100fb61049a565b60405161010891906109f9565b60405180910390f35b6101196104c2565b6040516101269190610a72565b60405180910390f35b61014960048036038101906101449190610abc565b610552565b005b6101536105d6565b81600190816101629190610ced565b5080600290816101729190610ced565b505050565b5f60045f3373ffffffffffffffffffffffffffffffffffffffff1673ffffffffffffffffffffffffffffffffffffffff1681526020019081526020015f205f9054906101000a900460ff161561020457336040517fc4297ffb0000000000000000000000000000000000000000000000000000000081526004016101fb91906109f9565b60405180910390fd5b5f73ffffffffffffffffffffffffffffffffffffffff1660035f9054906101000a900473ffffffffffffffffffffffffffffffffffffffff1673ffffffffffffffffffffffffffffffffffffffff161461028a576040517fb537cbca00000000000000000000000000000000000000000000000000000000815260040160405180910390fd5b61031c6001805461029a90610b14565b80601f01602080910402602001604051908101604052809291908181526020018280546102c690610b14565b80156103115780601f106102e857610100808354040283529160200191610311565b820191905f5260205f20905b8154815290600101906020018083116102f457829003601f168201915b50505050508361065d565b15610402573360035f6101000a81548173ffffffffffffffffffffffffffffffffffffffff021916908373ffffffffffffffffffffffffffffffffffffffff160217905550600160045f3373ffffffffffffffffffffffffffffffffffffffff1673ffffffffffffffffffffffffffffffffffffffff1681526020019081526020015f205f6101000a81548160ff0219169083151502179055503373ffffffffffffffffffffffffffffffffffffffff167f78b3193cf31372e77b1f3045481681f86e18e346de12ae7f1ecc322ff0adf1a460405160405180910390a26001905061045b565b600160045f3373ffffffffffffffffffffffffffffffffffffffff1673ffffffffffffffffffffffffffffffffffffffff1681526020019081526020015f205f6101000a81548160ff0219169083151502179055505f90505b919050565b6104686105d6565b6104715f6106b5565b565b5f5f5f9054906101000a900473ffffffffffffffffffffffffffffffffffffffff16905090565b5f60035f9054906101000a900473ffffffffffffffffffffffffffffffffffffffff16905090565b6060600280546104d190610b14565b80601f01602080910402602001604051908101604052809291908181526020018280546104fd90610b14565b80156105485780601f1061051f57610100808354040283529160200191610548565b820191905f5260205f20905b81548152906001019060200180831161052b57829003601f168201915b5050505050905090565b61055a6105d6565b5f73ffffffffffffffffffffffffffffffffffffffff168173ffffffffffffffffffffffffffffffffffffffff16036105ca575f6040517f1e4fbdf70000000000000000000000000000000000000000000000000000000081526004016105c191906109f9565b60405180910390fd5b6105d3816106b5565b50565b6105de610776565b73ffffffffffffffffffffffffffffffffffffffff166105fc610473565b73ffffffffffffffffffffffffffffffffffffffff161461065b5761061f610776565b6040517f118cdaa700000000000000000000000000000000000000000000000000000000815260040161065291906109f9565b60405180910390fd5b565b5f8160405160200161066f9190610df6565b60405160208183030381529060405280519060200120836040516020016106969190610df6565b6040516020818303038152906040528051906020012014905092915050565b5f5f5f9054906101000a900473ffffffffffffffffffffffffffffffffffffffff169050815f5f6101000a81548173ffffffffffffffffffffffffffffffffffffffff021916908373ffffffffffffffffffffffffffffffffffffffff1602179055508173ffffffffffffffffffffffffffffffffffffffff168173ffffffffffffffffffffffffffffffffffffffff167f8be0079c531659141344cd1fd0a4f28419497f9722a3daafe3b4186f6b6457e060405160405180910390a35050565b5f33905090565b5f604051905090565b5f5ffd5b5f5ffd5b5f5ffd5b5f5ffd5b5f601f19601f8301169050919050565b7f4e487b71000000000000000000000000000000000000000000000000000000005f52604160045260245ffd5b6107dc82610796565b810181811067ffffffffffffffff821117156107fb576107fa6107a6565b5b80604052505050565b5f61080d61077d565b905061081982826107d3565b919050565b5f67ffffffffffffffff821115610838576108376107a6565b5b61084182610796565b9050602081019050919050565b828183375f83830152505050565b5f61086e6108698461081e565b610804565b90508281526020810184848401111561088a57610889610792565b5b61089584828561084e565b509392505050565b5f82601f8301126108b1576108b061078e565b5b81356108c184826020860161085c565b91505092915050565b5f5f604083850312156108e0576108df610786565b5b5f83013567ffffffffffffffff8111156108fd576108fc61078a565b5b6109098582860161089d565b925050602083013567ffffffffffffffff81111561092a5761092961078a565b5b6109368582860161089d565b9150509250929050565b5f6020828403121561095557610954610786565b5b5f82013567ffffffffffffffff8111156109725761097161078a565b5b61097e8482850161089d565b91505092915050565b5f8115159050919050565b61099b81610987565b82525050565b5f6020820190506109b45f830184610992565b92915050565b5f73ffffffffffffffffffffffffffffffffffffffff82169050919050565b5f6109e3826109ba565b9050919050565b6109f3816109d9565b82525050565b5f602082019050610a0c5f8301846109ea565b92915050565b5f81519050919050565b5f82825260208201905092915050565b8281835e5f83830152505050565b5f610a4482610a12565b610a4e8185610a1c565b9350610a5e818560208601610a2c565b610a6781610796565b840191505092915050565b5f6020820190508181035f830152610a8a8184610a3a565b905092915050565b610a9b816109d9565b8114610aa5575f5ffd5b50565b5f81359050610ab681610a92565b92915050565b5f60208284031215610ad157610ad0610786565b5b5f610ade84828501610aa8565b91505092915050565b7f4e487b71000000000000000000000000000000000000000000000000000000005f52602260045260245ffd5b5f6002820490506001821680610b2b57607f821691505b602082108103610b3e57610b3d610ae7565b5b50919050565b5f819050815f5260205f209050919050565b5f6020601f8301049050919050565b5f82821b905092915050565b5f60088302610ba07fffffffffffffffffffffffffffffffffffffffffffffffffffffffffffffffff82610b65565b610baa8683610b65565b95508019841693508086168417925050509392505050565b5f819050919050565b5f819050919050565b5f610bee610be9610be484610bc2565b610bcb565b610bc2565b9050919050565b5f819050919050565b610c0783610bd4565b610c1b610c1382610bf5565b848454610b71565b825550505050565b5f5f905090565b610c32610c23565b610c3d818484610bfe565b505050565b5b81811015610c6057610c555f82610c2a565b600181019050610c43565b5050565b601f821115610ca557610c7681610b44565b610c7f84610b56565b81016020851015610c8e578190505b610ca2610c9a85610b56565b830182610c42565b50505b505050565b5f82821c905092915050565b5f610cc55f1984600802610caa565b1980831691505092915050565b5f610cdd8383610cb6565b9150826002028217905092915050565b610cf682610a12565b67ffffffffffffffff811115610d0f57610d0e6107a6565b5b610d198254610b14565b610d24828285610c64565b5f60209050601f831160018114610d55575f8415610d43578287015190505b610d4d8582610cd2565b865550610db4565b601f198416610d6386610b44565b5f5b82811015610d8a57848901518255600182019150602085019450602081019050610d65565b86831015610da75784890151610da3601f891682610cb6565b8355505b6001600288020188555050505b505050505050565b5f81905092915050565b5f610dd082610a12565b610dda8185610dbc565b9350610dea818560208601610a2c565b80840191505092915050565b5f610e018284610dc6565b91508190509291505056fea2646970667358221220a621d627195ad8ef003bbb4e8669f63c3a08742b748fec93e610177b25d7136064736f6c634300081c0033",
					"opcodes": "PUSH1 0x80 PUSH1 0x40 MSTORE CALLVALUE DUP1 ISZERO PUSH2 0xF JUMPI PUSH0 PUSH0 REVERT JUMPDEST POP CALLER PUSH0 PUSH20 0xFFFFFFFFFFFFFFFFFFFFFFFFFFFFFFFFFFFFFFFF AND DUP2 PUSH20 0xFFFFFFFFFFFFFFFFFFFFFFFFFFFFFFFFFFFFFFFF AND SUB PUSH2 0x81 JUMPI PUSH0 PUSH1 0x40 MLOAD PUSH32 0x1E4FBDF700000000000000000000000000000000000000000000000000000000 DUP2 MSTORE PUSH1 0x4 ADD PUSH2 0x78 SWAP2 SWAP1 PUSH2 0x196 JUMP JUMPDEST PUSH1 0x40 MLOAD DUP1 SWAP2 SUB SWAP1 REVERT JUMPDEST PUSH2 0x90 DUP2 PUSH2 0x96 PUSH1 0x20 SHL PUSH1 0x20 SHR JUMP JUMPDEST POP PUSH2 0x1AF JUMP JUMPDEST PUSH0 PUSH0 PUSH0 SWAP1 SLOAD SWAP1 PUSH2 0x100 EXP SWAP1 DIV PUSH20 0xFFFFFFFFFFFFFFFFFFFFFFFFFFFFFFFFFFFFFFFF AND SWAP1 POP DUP2 PUSH0 PUSH0 PUSH2 0x100 EXP DUP2 SLOAD DUP2 PUSH20 0xFFFFFFFFFFFFFFFFFFFFFFFFFFFFFFFFFFFFFFFF MUL NOT AND SWAP1 DUP4 PUSH20 0xFFFFFFFFFFFFFFFFFFFFFFFFFFFFFFFFFFFFFFFF AND MUL OR SWAP1 SSTORE POP DUP2 PUSH20 0xFFFFFFFFFFFFFFFFFFFFFFFFFFFFFFFFFFFFFFFF AND DUP2 PUSH20 0xFFFFFFFFFFFFFFFFFFFFFFFFFFFFFFFFFFFFFFFF AND PUSH32 0x8BE0079C531659141344CD1FD0A4F28419497F9722A3DAAFE3B4186F6B6457E0 PUSH1 0x40 MLOAD PUSH1 0x40 MLOAD DUP1 SWAP2 SUB SWAP1 LOG3 POP POP JUMP JUMPDEST PUSH0 PUSH20 0xFFFFFFFFFFFFFFFFFFFFFFFFFFFFFFFFFFFFFFFF DUP3 AND SWAP1 POP SWAP2 SWAP1 POP JUMP JUMPDEST PUSH0 PUSH2 0x180 DUP3 PUSH2 0x157 JUMP JUMPDEST SWAP1 POP SWAP2 SWAP1 POP JUMP JUMPDEST PUSH2 0x190 DUP2 PUSH2 0x176 JUMP JUMPDEST DUP3 MSTORE POP POP JUMP JUMPDEST PUSH0 PUSH1 0x20 DUP3 ADD SWAP1 POP PUSH2 0x1A9 PUSH0 DUP4 ADD DUP5 PUSH2 0x187 JUMP JUMPDEST SWAP3 SWAP2 POP POP JUMP JUMPDEST PUSH2 0xE42 DUP1 PUSH2 0x1BC PUSH0 CODECOPY PUSH0 RETURN INVALID PUSH1 0x80 PUSH1 0x40 MSTORE CALLVALUE DUP1 ISZERO PUSH2 0xF JUMPI PUSH0 PUSH0 REVERT JUMPDEST POP PUSH1 0x4 CALLDATASIZE LT PUSH2 0x7B JUMPI PUSH0 CALLDATALOAD PUSH1 0xE0 SHR DUP1 PUSH4 0x8DA5CB5B GT PUSH2 0x59 JUMPI DUP1 PUSH4 0x8DA5CB5B EQ PUSH2 0xD5 JUMPI DUP1 PUSH4 0x8E7EA5B2 EQ PUSH2 0xF3 JUMPI DUP1 PUSH4 0x94649090 EQ PUSH2 0x111 JUMPI DUP1 PUSH4 0xF2FDE38B EQ PUSH2 0x12F JUMPI PUSH2 0x7B JUMP JUMPDEST DUP1 PUSH4 0x1E5A13ED EQ PUSH2 0x7F JUMPI DUP1 PUSH4 0x4EEE59B3 EQ PUSH2 0x9B JUMPI DUP1 PUSH4 0x715018A6 EQ PUSH2 0xCB JUMPI JUMPDEST PUSH0 PUSH0 REVERT JUMPDEST PUSH2 0x99 PUSH1 0x4 DUP1 CALLDATASIZE SUB DUP2 ADD SWAP1 PUSH2 0x94 SWAP2 SWAP1 PUSH2 0x8CA JUMP JUMPDEST PUSH2 0x14B JUMP JUMPDEST STOP JUMPDEST PUSH2 0xB5 PUSH1 0x4 DUP1 CALLDATASIZE SUB DUP2 ADD SWAP1 PUSH2 0xB0 SWAP2 SWAP1 PUSH2 0x940 JUMP JUMPDEST PUSH2 0x177 JUMP JUMPDEST PUSH1 0x40 MLOAD PUSH2 0xC2 SWAP2 SWAP1 PUSH2 0x9A1 JUMP JUMPDEST PUSH1 0x40 MLOAD DUP1 SWAP2 SUB SWAP1 RETURN JUMPDEST PUSH2 0xD3 PUSH2 0x460 JUMP JUMPDEST STOP JUMPDEST PUSH2 0xDD PUSH2 0x473 JUMP JUMPDEST PUSH1 0x40 MLOAD PUSH2 0xEA SWAP2 SWAP1 PUSH2 0x9F9 JUMP JUMPDEST PUSH1 0x40 MLOAD DUP1 SWAP2 SUB SWAP1 RETURN JUMPDEST PUSH2 0xFB PUSH2 0x49A JUMP JUMPDEST PUSH1 0x40 MLOAD PUSH2 0x108 SWAP2 SWAP1 PUSH2 0x9F9 JUMP JUMPDEST PUSH1 0x40 MLOAD DUP1 SWAP2 SUB SWAP1 RETURN JUMPDEST PUSH2 0x119 PUSH2 0x4C2 JUMP JUMPDEST PUSH1 0x40 MLOAD PUSH2 0x126 SWAP2 SWAP1 PUSH2 0xA72 JUMP JUMPDEST PUSH1 0x40 MLOAD DUP1 SWAP2 SUB SWAP1 RETURN JUMPDEST PUSH2 0x149 PUSH1 0x4 DUP1 CALLDATASIZE SUB DUP2 ADD SWAP1 PUSH2 0x144 SWAP2 SWAP1 PUSH2 0xABC JUMP JUMPDEST PUSH2 0x552 JUMP JUMPDEST STOP JUMPDEST PUSH2 0x153 PUSH2 0x5D6 JUMP JUMPDEST DUP2 PUSH1 0x1 SWAP1 DUP2 PUSH2 0x162 SWAP2 SWAP1 PUSH2 0xCED JUMP JUMPDEST POP DUP1 PUSH1 0x2 SWAP1 DUP2 PUSH2 0x172 SWAP2 SWAP1 PUSH2 0xCED JUMP JUMPDEST POP POP POP JUMP JUMPDEST PUSH0 PUSH1 0x4 PUSH0 CALLER PUSH20 0xFFFFFFFFFFFFFFFFFFFFFFFFFFFFFFFFFFFFFFFF AND PUSH20 0xFFFFFFFFFFFFFFFFFFFFFFFFFFFFFFFFFFFFFFFF AND DUP2 MSTORE PUSH1 0x20 ADD SWAP1 DUP2 MSTORE PUSH1 0x20 ADD PUSH0 KECCAK256 PUSH0 SWAP1 SLOAD SWAP1 PUSH2 0x100 EXP SWAP1 DIV PUSH1 0xFF AND ISZERO PUSH2 0x204 JUMPI CALLER PUSH1 0x40 MLOAD PUSH32 0xC4297FFB00000000000000000000000000000000000000000000000000000000 DUP2 MSTORE PUSH1 0x4 ADD PUSH2 0x1FB SWAP2 SWAP1 PUSH2 0x9F9 JUMP JUMPDEST PUSH1 0x40 MLOAD DUP1 SWAP2 SUB SWAP1 REVERT JUMPDEST PUSH0 PUSH20 0xFFFFFFFFFFFFFFFFFFFFFFFFFFFFFFFFFFFFFFFF AND PUSH1 0x3 PUSH0 SWAP1 SLOAD SWAP1 PUSH2 0x100 EXP SWAP1 DIV PUSH20 0xFFFFFFFFFFFFFFFFFFFFFFFFFFFFFFFFFFFFFFFF AND PUSH20 0xFFFFFFFFFFFFFFFFFFFFFFFFFFFFFFFFFFFFFFFF AND EQ PUSH2 0x28A JUMPI PUSH1 0x40 MLOAD PUSH32 0xB537CBCA00000000000000000000000000000000000000000000000000000000 DUP2 MSTORE PUSH1 0x4 ADD PUSH1 0x40 MLOAD DUP1 SWAP2 SUB SWAP1 REVERT JUMPDEST PUSH2 0x31C PUSH1 0x1 DUP1 SLOAD PUSH2 0x29A SWAP1 PUSH2 0xB14 JUMP JUMPDEST DUP1 PUSH1 0x1F ADD PUSH1 0x20 DUP1 SWAP2 DIV MUL PUSH1 0x20 ADD PUSH1 0x40 MLOAD SWAP1 DUP2 ADD PUSH1 0x40 MSTORE DUP1 SWAP3 SWAP2 SWAP1 DUP2 DUP2 MSTORE PUSH1 0x20 ADD DUP3 DUP1 SLOAD PUSH2 0x2C6 SWAP1 PUSH2 0xB14 JUMP JUMPDEST DUP1 ISZERO PUSH2 0x311 JUMPI DUP1 PUSH1 0x1F LT PUSH2 0x2E8 JUMPI PUSH2 0x100 DUP1 DUP4 SLOAD DIV MUL DUP4 MSTORE SWAP2 PUSH1 0x20 ADD SWAP2 PUSH2 0x311 JUMP JUMPDEST DUP3 ADD SWAP2 SWAP1 PUSH0 MSTORE PUSH1 0x20 PUSH0 KECCAK256 SWAP1 JUMPDEST DUP2 SLOAD DUP2 MSTORE SWAP1 PUSH1 0x1 ADD SWAP1 PUSH1 0x20 ADD DUP1 DUP4 GT PUSH2 0x2F4 JUMPI DUP3 SWAP1 SUB PUSH1 0x1F AND DUP3 ADD SWAP2 JUMPDEST POP POP POP POP POP DUP4 PUSH2 0x65D JUMP JUMPDEST ISZERO PUSH2 0x402 JUMPI CALLER PUSH1 0x3 PUSH0 PUSH2 0x100 EXP DUP2 SLOAD DUP2 PUSH20 0xFFFFFFFFFFFFFFFFFFFFFFFFFFFFFFFFFFFFFFFF MUL NOT AND SWAP1 DUP4 PUSH20 0xFFFFFFFFFFFFFFFFFFFFFFFFFFFFFFFFFFFFFFFF AND MUL OR SWAP1 SSTORE POP PUSH1 0x1 PUSH1 0x4 PUSH0 CALLER PUSH20 0xFFFFFFFFFFFFFFFFFFFFFFFFFFFFFFFFFFFFFFFF AND PUSH20 0xFFFFFFFFFFFFFFFFFFFFFFFFFFFFFFFFFFFFFFFF AND DUP2 MSTORE PUSH1 0x20 ADD SWAP1 DUP2 MSTORE PUSH1 0x20 ADD PUSH0 KECCAK256 PUSH0 PUSH2 0x100 EXP DUP2 SLOAD DUP2 PUSH1 0xFF MUL NOT AND SWAP1 DUP4 ISZERO ISZERO MUL OR SWAP1 SSTORE POP CALLER PUSH20 0xFFFFFFFFFFFFFFFFFFFFFFFFFFFFFFFFFFFFFFFF AND PUSH32 0x78B3193CF31372E77B1F3045481681F86E18E346DE12AE7F1ECC322FF0ADF1A4 PUSH1 0x40 MLOAD PUSH1 0x40 MLOAD DUP1 SWAP2 SUB SWAP1 LOG2 PUSH1 0x1 SWAP1 POP PUSH2 0x45B JUMP JUMPDEST PUSH1 0x1 PUSH1 0x4 PUSH0 CALLER PUSH20 0xFFFFFFFFFFFFFFFFFFFFFFFFFFFFFFFFFFFFFFFF AND PUSH20 0xFFFFFFFFFFFFFFFFFFFFFFFFFFFFFFFFFFFFFFFF AND DUP2 MSTORE PUSH1 0x20 ADD SWAP1 DUP2 MSTORE PUSH1 0x20 ADD PUSH0 KECCAK256 PUSH0 PUSH2 0x100 EXP DUP2 SLOAD DUP2 PUSH1 0xFF MUL NOT AND SWAP1 DUP4 ISZERO ISZERO MUL OR SWAP1 SSTORE POP PUSH0 SWAP1 POP JUMPDEST SWAP2 SWAP1 POP JUMP JUMPDEST PUSH2 0x468 PUSH2 0x5D6 JUMP JUMPDEST PUSH2 0x471 PUSH0 PUSH2 0x6B5 JUMP JUMPDEST JUMP JUMPDEST PUSH0 PUSH0 PUSH0 SWAP1 SLOAD SWAP1 PUSH2 0x100 EXP SWAP1 DIV PUSH20 0xFFFFFFFFFFFFFFFFFFFFFFFFFFFFFFFFFFFFFFFF AND SWAP1 POP SWAP1 JUMP JUMPDEST PUSH0 PUSH1 0x3 PUSH0 SWAP1 SLOAD SWAP1 PUSH2 0x100 EXP SWAP1 DIV PUSH20 0xFFFFFFFFFFFFFFFFFFFFFFFFFFFFFFFFFFFFFFFF AND SWAP1 POP SWAP1 JUMP JUMPDEST PUSH1 0x60 PUSH1 0x2 DUP1 SLOAD PUSH2 0x4D1 SWAP1 PUSH2 0xB14 JUMP JUMPDEST DUP1 PUSH1 0x1F ADD PUSH1 0x20 DUP1 SWAP2 DIV MUL PUSH1 0x20 ADD PUSH1 0x40 MLOAD SWAP1 DUP2 ADD PUSH1 0x40 MSTORE DUP1 SWAP3 SWAP2 SWAP1 DUP2 DUP2 MSTORE PUSH1 0x20 ADD DUP3 DUP1 SLOAD PUSH2 0x4FD SWAP1 PUSH2 0xB14 JUMP JUMPDEST DUP1 ISZERO PUSH2 0x548 JUMPI DUP1 PUSH1 0x1F LT PUSH2 0x51F JUMPI PUSH2 0x100 DUP1 DUP4 SLOAD DIV MUL DUP4 MSTORE SWAP2 PUSH1 0x20 ADD SWAP2 PUSH2 0x548 JUMP JUMPDEST DUP3 ADD SWAP2 SWAP1 PUSH0 MSTORE PUSH1 0x20 PUSH0 KECCAK256 SWAP1 JUMPDEST DUP2 SLOAD DUP2 MSTORE SWAP1 PUSH1 0x1 ADD SWAP1 PUSH1 0x20 ADD DUP1 DUP4 GT PUSH2 0x52B JUMPI DUP3 SWAP1 SUB PUSH1 0x1F AND DUP3 ADD SWAP2 JUMPDEST POP POP POP POP POP SWAP1 POP SWAP1 JUMP JUMPDEST PUSH2 0x55A PUSH2 0x5D6 JUMP JUMPDEST PUSH0 PUSH20 0xFFFFFFFFFFFFFFFFFFFFFFFFFFFFFFFFFFFFFFFF AND DUP2 PUSH20 0xFFFFFFFFFFFFFFFFFFFFFFFFFFFFFFFFFFFFFFFF AND SUB PUSH2 0x5CA JUMPI PUSH0 PUSH1 0x40 MLOAD PUSH32 0x1E4FBDF700000000000000000000000000000000000000000000000000000000 DUP2 MSTORE PUSH1 0x4 ADD PUSH2 0x5C1 SWAP2 SWAP1 PUSH2 0x9F9 JUMP JUMPDEST PUSH1 0x40 MLOAD DUP1 SWAP2 SUB SWAP1 REVERT JUMPDEST PUSH2 0x5D3 DUP2 PUSH2 0x6B5 JUMP JUMPDEST POP JUMP JUMPDEST PUSH2 0x5DE PUSH2 0x776 JUMP JUMPDEST PUSH20 0xFFFFFFFFFFFFFFFFFFFFFFFFFFFFFFFFFFFFFFFF AND PUSH2 0x5FC PUSH2 0x473 JUMP JUMPDEST PUSH20 0xFFFFFFFFFFFFFFFFFFFFFFFFFFFFFFFFFFFFFFFF AND EQ PUSH2 0x65B JUMPI PUSH2 0x61F PUSH2 0x776 JUMP JUMPDEST PUSH1 0x40 MLOAD PUSH32 0x118CDAA700000000000000000000000000000000000000000000000000000000 DUP2 MSTORE PUSH1 0x4 ADD PUSH2 0x652 SWAP2 SWAP1 PUSH2 0x9F9 JUMP JUMPDEST PUSH1 0x40 MLOAD DUP1 SWAP2 SUB SWAP1 REVERT JUMPDEST JUMP JUMPDEST PUSH0 DUP2 PUSH1 0x40 MLOAD PUSH1 0x20 ADD PUSH2 0x66F SWAP2 SWAP1 PUSH2 0xDF6 JUMP JUMPDEST PUSH1 0x40 MLOAD PUSH1 0x20 DUP2 DUP4 SUB SUB DUP2 MSTORE SWAP1 PUSH1 0x40 MSTORE DUP1 MLOAD SWAP1 PUSH1 0x20 ADD KECCAK256 DUP4 PUSH1 0x40 MLOAD PUSH1 0x20 ADD PUSH2 0x696 SWAP2 SWAP1 PUSH2 0xDF6 JUMP JUMPDEST PUSH1 0x40 MLOAD PUSH1 0x20 DUP2 DUP4 SUB SUB DUP2 MSTORE SWAP1 PUSH1 0x40 MSTORE DUP1 MLOAD SWAP1 PUSH1 0x20 ADD KECCAK256 EQ SWAP1 POP SWAP3 SWAP2 POP POP JUMP JUMPDEST PUSH0 PUSH0 PUSH0 SWAP1 SLOAD SWAP1 PUSH2 0x100 EXP SWAP1 DIV PUSH20 0xFFFFFFFFFFFFFFFFFFFFFFFFFFFFFFFFFFFFFFFF AND SWAP1 POP DUP2 PUSH0 PUSH0 PUSH2 0x100 EXP DUP2 SLOAD DUP2 PUSH20 0xFFFFFFFFFFFFFFFFFFFFFFFFFFFFFFFFFFFFFFFF MUL NOT AND SWAP1 DUP4 PUSH20 0xFFFFFFFFFFFFFFFFFFFFFFFFFFFFFFFFFFFFFFFF AND MUL OR SWAP1 SSTORE POP DUP2 PUSH20 0xFFFFFFFFFFFFFFFFFFFFFFFFFFFFFFFFFFFFFFFF AND DUP2 PUSH20 0xFFFFFFFFFFFFFFFFFFFFFFFFFFFFFFFFFFFFFFFF AND PUSH32 0x8BE0079C531659141344CD1FD0A4F28419497F9722A3DAAFE3B4186F6B6457E0 PUSH1 0x40 MLOAD PUSH1 0x40 MLOAD DUP1 SWAP2 SUB SWAP1 LOG3 POP POP JUMP JUMPDEST PUSH0 CALLER SWAP1 POP SWAP1 JUMP JUMPDEST PUSH0 PUSH1 0x40 MLOAD SWAP1 POP SWAP1 JUMP JUMPDEST PUSH0 PUSH0 REVERT JUMPDEST PUSH0 PUSH0 REVERT JUMPDEST PUSH0 PUSH0 REVERT JUMPDEST PUSH0 PUSH0 REVERT JUMPDEST PUSH0 PUSH1 0x1F NOT PUSH1 0x1F DUP4 ADD AND SWAP1 POP SWAP2 SWAP1 POP JUMP JUMPDEST PUSH32 0x4E487B7100000000000000000000000000000000000000000000000000000000 PUSH0 MSTORE PUSH1 0x41 PUSH1 0x4 MSTORE PUSH1 0x24 PUSH0 REVERT JUMPDEST PUSH2 0x7DC DUP3 PUSH2 0x796 JUMP JUMPDEST DUP2 ADD DUP2 DUP2 LT PUSH8 0xFFFFFFFFFFFFFFFF DUP3 GT OR ISZERO PUSH2 0x7FB JUMPI PUSH2 0x7FA PUSH2 0x7A6 JUMP JUMPDEST JUMPDEST DUP1 PUSH1 0x40 MSTORE POP POP POP JUMP JUMPDEST PUSH0 PUSH2 0x80D PUSH2 0x77D JUMP JUMPDEST SWAP1 POP PUSH2 0x819 DUP3 DUP3 PUSH2 0x7D3 JUMP JUMPDEST SWAP2 SWAP1 POP JUMP JUMPDEST PUSH0 PUSH8 0xFFFFFFFFFFFFFFFF DUP3 GT ISZERO PUSH2 0x838 JUMPI PUSH2 0x837 PUSH2 0x7A6 JUMP JUMPDEST JUMPDEST PUSH2 0x841 DUP3 PUSH2 0x796 JUMP JUMPDEST SWAP1 POP PUSH1 0x20 DUP2 ADD SWAP1 POP SWAP2 SWAP1 POP JUMP JUMPDEST DUP3 DUP2 DUP4 CALLDATACOPY PUSH0 DUP4 DUP4 ADD MSTORE POP POP POP JUMP JUMPDEST PUSH0 PUSH2 0x86E PUSH2 0x869 DUP5 PUSH2 0x81E JUMP JUMPDEST PUSH2 0x804 JUMP JUMPDEST SWAP1 POP DUP3 DUP2 MSTORE PUSH1 0x20 DUP2 ADD DUP5 DUP5 DUP5 ADD GT ISZERO PUSH2 0x88A JUMPI PUSH2 0x889 PUSH2 0x792 JUMP JUMPDEST JUMPDEST PUSH2 0x895 DUP5 DUP3 DUP6 PUSH2 0x84E JUMP JUMPDEST POP SWAP4 SWAP3 POP POP POP JUMP JUMPDEST PUSH0 DUP3 PUSH1 0x1F DUP4 ADD SLT PUSH2 0x8B1 JUMPI PUSH2 0x8B0 PUSH2 0x78E JUMP JUMPDEST JUMPDEST DUP2 CALLDATALOAD PUSH2 0x8C1 DUP5 DUP3 PUSH1 0x20 DUP7 ADD PUSH2 0x85C JUMP JUMPDEST SWAP2 POP POP SWAP3 SWAP2 POP POP JUMP JUMPDEST PUSH0 PUSH0 PUSH1 0x40 DUP4 DUP6 SUB SLT ISZERO PUSH2 0x8E0 JUMPI PUSH2 0x8DF PUSH2 0x786 JUMP JUMPDEST JUMPDEST PUSH0 DUP4 ADD CALLDATALOAD PUSH8 0xFFFFFFFFFFFFFFFF DUP2 GT ISZERO PUSH2 0x8FD JUMPI PUSH2 0x8FC PUSH2 0x78A JUMP JUMPDEST JUMPDEST PUSH2 0x909 DUP6 DUP3 DUP7 ADD PUSH2 0x89D JUMP JUMPDEST SWAP3 POP POP PUSH1 0x20 DUP4 ADD CALLDATALOAD PUSH8 0xFFFFFFFFFFFFFFFF DUP2 GT ISZERO PUSH2 0x92A JUMPI PUSH2 0x929 PUSH2 0x78A JUMP JUMPDEST JUMPDEST PUSH2 0x936 DUP6 DUP3 DUP7 ADD PUSH2 0x89D JUMP JUMPDEST SWAP2 POP POP SWAP3 POP SWAP3 SWAP1 POP JUMP JUMPDEST PUSH0 PUSH1 0x20 DUP3 DUP5 SUB SLT ISZERO PUSH2 0x955 JUMPI PUSH2 0x954 PUSH2 0x786 JUMP JUMPDEST JUMPDEST PUSH0 DUP3 ADD CALLDATALOAD PUSH8 0xFFFFFFFFFFFFFFFF DUP2 GT ISZERO PUSH2 0x972 JUMPI PUSH2 0x971 PUSH2 0x78A JUMP JUMPDEST JUMPDEST PUSH2 0x97E DUP5 DUP3 DUP6 ADD PUSH2 0x89D JUMP JUMPDEST SWAP2 POP POP SWAP3 SWAP2 POP POP JUMP JUMPDEST PUSH0 DUP2 ISZERO ISZERO SWAP1 POP SWAP2 SWAP1 POP JUMP JUMPDEST PUSH2 0x99B DUP2 PUSH2 0x987 JUMP JUMPDEST DUP3 MSTORE POP POP JUMP JUMPDEST PUSH0 PUSH1 0x20 DUP3 ADD SWAP1 POP PUSH2 0x9B4 PUSH0 DUP4 ADD DUP5 PUSH2 0x992 JUMP JUMPDEST SWAP3 SWAP2 POP POP JUMP JUMPDEST PUSH0 PUSH20 0xFFFFFFFFFFFFFFFFFFFFFFFFFFFFFFFFFFFFFFFF DUP3 AND SWAP1 POP SWAP2 SWAP1 POP JUMP JUMPDEST PUSH0 PUSH2 0x9E3 DUP3 PUSH2 0x9BA JUMP JUMPDEST SWAP1 POP SWAP2 SWAP1 POP JUMP JUMPDEST PUSH2 0x9F3 DUP2 PUSH2 0x9D9 JUMP JUMPDEST DUP3 MSTORE POP POP JUMP JUMPDEST PUSH0 PUSH1 0x20 DUP3 ADD SWAP1 POP PUSH2 0xA0C PUSH0 DUP4 ADD DUP5 PUSH2 0x9EA JUMP JUMPDEST SWAP3 SWAP2 POP POP JUMP JUMPDEST PUSH0 DUP2 MLOAD SWAP1 POP SWAP2 SWAP1 POP JUMP JUMPDEST PUSH0 DUP3 DUP3 MSTORE PUSH1 0x20 DUP3 ADD SWAP1 POP SWAP3 SWAP2 POP POP JUMP JUMPDEST DUP3 DUP2 DUP4 MCOPY PUSH0 DUP4 DUP4 ADD MSTORE POP POP POP JUMP JUMPDEST PUSH0 PUSH2 0xA44 DUP3 PUSH2 0xA12 JUMP JUMPDEST PUSH2 0xA4E DUP2 DUP6 PUSH2 0xA1C JUMP JUMPDEST SWAP4 POP PUSH2 0xA5E DUP2 DUP6 PUSH1 0x20 DUP7 ADD PUSH2 0xA2C JUMP JUMPDEST PUSH2 0xA67 DUP2 PUSH2 0x796 JUMP JUMPDEST DUP5 ADD SWAP2 POP POP SWAP3 SWAP2 POP POP JUMP JUMPDEST PUSH0 PUSH1 0x20 DUP3 ADD SWAP1 POP DUP2 DUP2 SUB PUSH0 DUP4 ADD MSTORE PUSH2 0xA8A DUP2 DUP5 PUSH2 0xA3A JUMP JUMPDEST SWAP1 POP SWAP3 SWAP2 POP POP JUMP JUMPDEST PUSH2 0xA9B DUP2 PUSH2 0x9D9 JUMP JUMPDEST DUP2 EQ PUSH2 0xAA5 JUMPI PUSH0 PUSH0 REVERT JUMPDEST POP JUMP JUMPDEST PUSH0 DUP2 CALLDATALOAD SWAP1 POP PUSH2 0xAB6 DUP2 PUSH2 0xA92 JUMP JUMPDEST SWAP3 SWAP2 POP POP JUMP JUMPDEST PUSH0 PUSH1 0x20 DUP3 DUP5 SUB SLT ISZERO PUSH2 0xAD1 JUMPI PUSH2 0xAD0 PUSH2 0x786 JUMP JUMPDEST JUMPDEST PUSH0 PUSH2 0xADE DUP5 DUP3 DUP6 ADD PUSH2 0xAA8 JUMP JUMPDEST SWAP2 POP POP SWAP3 SWAP2 POP POP JUMP JUMPDEST PUSH32 0x4E487B7100000000000000000000000000000000000000000000000000000000 PUSH0 MSTORE PUSH1 0x22 PUSH1 0x4 MSTORE PUSH1 0x24 PUSH0 REVERT JUMPDEST PUSH0 PUSH1 0x2 DUP3 DIV SWAP1 POP PUSH1 0x1 DUP3 AND DUP1 PUSH2 0xB2B JUMPI PUSH1 0x7F DUP3 AND SWAP2 POP JUMPDEST PUSH1 0x20 DUP3 LT DUP2 SUB PUSH2 0xB3E JUMPI PUSH2 0xB3D PUSH2 0xAE7 JUMP JUMPDEST JUMPDEST POP SWAP2 SWAP1 POP JUMP JUMPDEST PUSH0 DUP2 SWAP1 POP DUP2 PUSH0 MSTORE PUSH1 0x20 PUSH0 KECCAK256 SWAP1 POP SWAP2 SWAP1 POP JUMP JUMPDEST PUSH0 PUSH1 0x20 PUSH1 0x1F DUP4 ADD DIV SWAP1 POP SWAP2 SWAP1 POP JUMP JUMPDEST PUSH0 DUP3 DUP3 SHL SWAP1 POP SWAP3 SWAP2 POP POP JUMP JUMPDEST PUSH0 PUSH1 0x8 DUP4 MUL PUSH2 0xBA0 PUSH32 0xFFFFFFFFFFFFFFFFFFFFFFFFFFFFFFFFFFFFFFFFFFFFFFFFFFFFFFFFFFFFFFFF DUP3 PUSH2 0xB65 JUMP JUMPDEST PUSH2 0xBAA DUP7 DUP4 PUSH2 0xB65 JUMP JUMPDEST SWAP6 POP DUP1 NOT DUP5 AND SWAP4 POP DUP1 DUP7 AND DUP5 OR SWAP3 POP POP POP SWAP4 SWAP3 POP POP POP JUMP JUMPDEST PUSH0 DUP2 SWAP1 POP SWAP2 SWAP1 POP JUMP JUMPDEST PUSH0 DUP2 SWAP1 POP SWAP2 SWAP1 POP JUMP JUMPDEST PUSH0 PUSH2 0xBEE PUSH2 0xBE9 PUSH2 0xBE4 DUP5 PUSH2 0xBC2 JUMP JUMPDEST PUSH2 0xBCB JUMP JUMPDEST PUSH2 0xBC2 JUMP JUMPDEST SWAP1 POP SWAP2 SWAP1 POP JUMP JUMPDEST PUSH0 DUP2 SWAP1 POP SWAP2 SWAP1 POP JUMP JUMPDEST PUSH2 0xC07 DUP4 PUSH2 0xBD4 JUMP JUMPDEST PUSH2 0xC1B PUSH2 0xC13 DUP3 PUSH2 0xBF5 JUMP JUMPDEST DUP5 DUP5 SLOAD PUSH2 0xB71 JUMP JUMPDEST DUP3 SSTORE POP POP POP POP JUMP JUMPDEST PUSH0 PUSH0 SWAP1 POP SWAP1 JUMP JUMPDEST PUSH2 0xC32 PUSH2 0xC23 JUMP JUMPDEST PUSH2 0xC3D DUP2 DUP5 DUP5 PUSH2 0xBFE JUMP JUMPDEST POP POP POP JUMP JUMPDEST JUMPDEST DUP2 DUP2 LT ISZERO PUSH2 0xC60 JUMPI PUSH2 0xC55 PUSH0 DUP3 PUSH2 0xC2A JUMP JUMPDEST PUSH1 0x1 DUP2 ADD SWAP1 POP PUSH2 0xC43 JUMP JUMPDEST POP POP JUMP JUMPDEST PUSH1 0x1F DUP3 GT ISZERO PUSH2 0xCA5 JUMPI PUSH2 0xC76 DUP2 PUSH2 0xB44 JUMP JUMPDEST PUSH2 0xC7F DUP5 PUSH2 0xB56 JUMP JUMPDEST DUP2 ADD PUSH1 0x20 DUP6 LT ISZERO PUSH2 0xC8E JUMPI DUP2 SWAP1 POP JUMPDEST PUSH2 0xCA2 PUSH2 0xC9A DUP6 PUSH2 0xB56 JUMP JUMPDEST DUP4 ADD DUP3 PUSH2 0xC42 JUMP JUMPDEST POP POP JUMPDEST POP POP POP JUMP JUMPDEST PUSH0 DUP3 DUP3 SHR SWAP1 POP SWAP3 SWAP2 POP POP JUMP JUMPDEST PUSH0 PUSH2 0xCC5 PUSH0 NOT DUP5 PUSH1 0x8 MUL PUSH2 0xCAA JUMP JUMPDEST NOT DUP1 DUP4 AND SWAP2 POP POP SWAP3 SWAP2 POP POP JUMP JUMPDEST PUSH0 PUSH2 0xCDD DUP4 DUP4 PUSH2 0xCB6 JUMP JUMPDEST SWAP2 POP DUP3 PUSH1 0x2 MUL DUP3 OR SWAP1 POP SWAP3 SWAP2 POP POP JUMP JUMPDEST PUSH2 0xCF6 DUP3 PUSH2 0xA12 JUMP JUMPDEST PUSH8 0xFFFFFFFFFFFFFFFF DUP2 GT ISZERO PUSH2 0xD0F JUMPI PUSH2 0xD0E PUSH2 0x7A6 JUMP JUMPDEST JUMPDEST PUSH2 0xD19 DUP3 SLOAD PUSH2 0xB14 JUMP JUMPDEST PUSH2 0xD24 DUP3 DUP3 DUP6 PUSH2 0xC64 JUMP JUMPDEST PUSH0 PUSH1 0x20 SWAP1 POP PUSH1 0x1F DUP4 GT PUSH1 0x1 DUP2 EQ PUSH2 0xD55 JUMPI PUSH0 DUP5 ISZERO PUSH2 0xD43 JUMPI DUP3 DUP8 ADD MLOAD SWAP1 POP JUMPDEST PUSH2 0xD4D DUP6 DUP3 PUSH2 0xCD2 JUMP JUMPDEST DUP7 SSTORE POP PUSH2 0xDB4 JUMP JUMPDEST PUSH1 0x1F NOT DUP5 AND PUSH2 0xD63 DUP7 PUSH2 0xB44 JUMP JUMPDEST PUSH0 JUMPDEST DUP3 DUP2 LT ISZERO PUSH2 0xD8A JUMPI DUP5 DUP10 ADD MLOAD DUP3 SSTORE PUSH1 0x1 DUP3 ADD SWAP2 POP PUSH1 0x20 DUP6 ADD SWAP5 POP PUSH1 0x20 DUP2 ADD SWAP1 POP PUSH2 0xD65 JUMP JUMPDEST DUP7 DUP4 LT ISZERO PUSH2 0xDA7 JUMPI DUP5 DUP10 ADD MLOAD PUSH2 0xDA3 PUSH1 0x1F DUP10 AND DUP3 PUSH2 0xCB6 JUMP JUMPDEST DUP4 SSTORE POP JUMPDEST PUSH1 0x1 PUSH1 0x2 DUP9 MUL ADD DUP9 SSTORE POP POP POP JUMPDEST POP POP POP POP POP POP JUMP JUMPDEST PUSH0 DUP2 SWAP1 POP SWAP3 SWAP2 POP POP JUMP JUMPDEST PUSH0 PUSH2 0xDD0 DUP3 PUSH2 0xA12 JUMP JUMPDEST PUSH2 0xDDA DUP2 DUP6 PUSH2 0xDBC JUMP JUMPDEST SWAP4 POP PUSH2 0xDEA DUP2 DUP6 PUSH1 0x20 DUP7 ADD PUSH2 0xA2C JUMP JUMPDEST DUP1 DUP5 ADD SWAP2 POP POP SWAP3 SWAP2 POP POP JUMP JUMPDEST PUSH0 PUSH2 0xE01 DUP3 DUP5 PUSH2 0xDC6 JUMP JUMPDEST SWAP2 POP DUP2 SWAP1 POP SWAP3 SWAP2 POP POP JUMP INVALID LOG2 PUSH5 0x6970667358 0x22 SLT KECCAK256 0xA6 0x21 0xD6 0x27 NOT GAS 0xD8 0xEF STOP EXTCODESIZE 0xBB 0x4E DUP7 PUSH10 0xF63C3A08742B748FEC93 0xE6 LT OR PUSH28 0x25D7136064736F6C634300081C003300000000000000000000000000 "
				},
				"gasEstimates": {
					"creation": {
						"codeDepositCost": "730000",
						"executionCost": "infinite",
						"totalCost": "infinite"
					},
					"external": {
						"getIndication()": "infinite",
						"getWinner()": "2537",
						"guess(string)": "infinite",
						"owner()": "2514",
						"renounceOwnership()": "infinite",
						"setWordAndIndication(string,string)": "infinite",
						"transferOwnership(address)": "infinite"
					},
					"internal": {
						"compareString(string memory,string memory)": "infinite"
					}
				},
				"methodIdentifiers": {
					"getIndication()": "94649090",
					"getWinner()": "8e7ea5b2",
					"guess(string)": "4eee59b3",
					"owner()": "8da5cb5b",
					"renounceOwnership()": "715018a6",
					"setWordAndIndication(string,string)": "1e5a13ed",
					"transferOwnership(address)": "f2fde38b"
				}
			},
			"storageLayout": {
				"storage": [
					{
						"astId": 8,
						"contract": "contracts/devine.sol:GuessAndWin",
						"label": "_owner",
						"offset": 0,
						"slot": "0",
						"type": "t_address"
					},
					{
						"astId": 190,
						"contract": "contracts/devine.sol:GuessAndWin",
						"label": "word",
						"offset": 0,
						"slot": "1",
						"type": "t_string_storage"
					},
					{
						"astId": 192,
						"contract": "contracts/devine.sol:GuessAndWin",
						"label": "indication",
						"offset": 0,
						"slot": "2",
						"type": "t_string_storage"
					},
					{
						"astId": 194,
						"contract": "contracts/devine.sol:GuessAndWin",
						"label": "winner",
						"offset": 0,
						"slot": "3",
						"type": "t_address"
					},
					{
						"astId": 198,
						"contract": "contracts/devine.sol:GuessAndWin",
						"label": "hasPlayed",
						"offset": 0,
						"slot": "4",
						"type": "t_mapping(t_address,t_bool)"
					}
				],
				"types": {
					"t_address": {
						"encoding": "inplace",
						"label": "address",
						"numberOfBytes": "20"
					},
					"t_bool": {
						"encoding": "inplace",
						"label": "bool",
						"numberOfBytes": "1"
					},
					"t_mapping(t_address,t_bool)": {
						"encoding": "mapping",
						"key": "t_address",
						"label": "mapping(address => bool)",
						"numberOfBytes": "32",
						"value": "t_bool"
					},
					"t_string_storage": {
						"encoding": "bytes",
						"label": "string",
						"numberOfBytes": "32"
					}
				}
			},
			"userdoc": {
				"kind": "user",
				"methods": {},
				"version": 1
			}
		}
	}
}