{
	"contracts/struct.sol": {
		"Test": {
			"abi": [
				{
					"inputs": [
						{
							"internalType": "string",
							"name": "_name",
							"type": "string"
						},
						{
							"internalType": "uint256",
							"name": "_note",
							"type": "uint256"
						}
					],
					"name": "addApprenant",
					"outputs": [],
					"stateMutability": "nonpayable",
					"type": "function"
				}
			],
			"devdoc": {
				"kind": "dev",
				"methods": {},
				"version": 1
			},
			"evm": {
				"assembly": "    /* \"contracts/struct.sol\":57:428  contract Test {... */\n  mstore(0x40, 0x80)\n  callvalue\n  dup1\n  iszero\n  tag_1\n  jumpi\n  revert(0x00, 0x00)\ntag_1:\n  pop\n  dataSize(sub_0)\n  dup1\n  dataOffset(sub_0)\n  0x00\n  codecopy\n  0x00\n  return\nstop\n\nsub_0: assembly {\n        /* \"contracts/struct.sol\":57:428  contract Test {... */\n      mstore(0x40, 0x80)\n      callvalue\n      dup1\n      iszero\n      tag_1\n      jumpi\n      revert(0x00, 0x00)\n    tag_1:\n      pop\n      jumpi(tag_2, lt(calldatasize, 0x04))\n      shr(0xe0, calldataload(0x00))\n      dup1\n      0x8e73de12\n      eq\n      tag_3\n      jumpi\n    tag_2:\n      revert(0x00, 0x00)\n        /* \"contracts/struct.sol\":178:424  function addApprenant(string memory _name, uint256 _note) external {... */\n    tag_3:\n      tag_4\n      0x04\n      dup1\n      calldatasize\n      sub\n      dup2\n      add\n      swap1\n      tag_5\n      swap2\n      swap1\n      tag_6\n      jump\t// in\n    tag_5:\n      tag_7\n      jump\t// in\n    tag_4:\n      stop\n    tag_7:\n        /* \"contracts/struct.sol\":282:311  Apprenant memory newApprenant */\n      0x00\n        /* \"contracts/struct.sol\":314:337  Apprenant(_name, _note) */\n      mload(0x40)\n      dup1\n      0x40\n      add\n      0x40\n      mstore\n      dup1\n        /* \"contracts/struct.sol\":324:329  _name */\n      dup5\n        /* \"contracts/struct.sol\":314:337  Apprenant(_name, _note) */\n      dup2\n      mstore\n      0x20\n      add\n        /* \"contracts/struct.sol\":331:336  _note */\n      dup4\n        /* \"contracts/struct.sol\":314:337  Apprenant(_name, _note) */\n      dup2\n      mstore\n      pop\n        /* \"contracts/struct.sol\":282:337  Apprenant memory newApprenant = Apprenant(_name, _note) */\n      swap1\n      pop\n        /* \"contracts/struct.sol\":388:398  apprenants */\n      0x00\n        /* \"contracts/struct.sol\":404:416  newApprenant */\n      dup2\n        /* \"contracts/struct.sol\":388:417  apprenants.push(newApprenant) */\n      swap1\n      dup1\n      0x01\n      dup2\n      sload\n      add\n      dup1\n      dup3\n      sstore\n      dup1\n      swap2\n      pop\n      pop\n      0x01\n      swap1\n      sub\n      swap1\n      0x00\n      mstore\n      keccak256(0x00, 0x20)\n      swap1\n      0x02\n      mul\n      add\n      0x00\n      swap1\n      swap2\n      swap1\n      swap2\n      swap1\n      swap2\n      pop\n      0x00\n      dup3\n      add\n      mload\n      dup2\n      0x00\n      add\n      swap1\n      dup2\n      tag_10\n      swap2\n      swap1\n      tag_11\n      jump\t// in\n    tag_10:\n      pop\n      0x20\n      dup3\n      add\n      mload\n      dup2\n      0x01\n      add\n      sstore\n      pop\n      pop\n        /* \"contracts/struct.sol\":245:424  {... */\n      pop\n        /* \"contracts/struct.sol\":178:424  function addApprenant(string memory _name, uint256 _note) external {... */\n      pop\n      pop\n      jump\t// out\n        /* \"#utility.yul\":7:82   */\n    tag_12:\n        /* \"#utility.yul\":40:46   */\n      0x00\n        /* \"#utility.yul\":73:75   */\n      0x40\n        /* \"#utility.yul\":67:76   */\n      mload\n        /* \"#utility.yul\":57:76   */\n      swap1\n      pop\n        /* \"#utility.yul\":7:82   */\n      swap1\n      jump\t// out\n        /* \"#utility.yul\":88:205   */\n    tag_13:\n        /* \"#utility.yul\":197:198   */\n      0x00\n        /* \"#utility.yul\":194:195   */\n      0x00\n        /* \"#utility.yul\":187:199   */\n      revert\n        /* \"#utility.yul\":211:328   */\n    tag_14:\n        /* \"#utility.yul\":320:321   */\n      0x00\n        /* \"#utility.yul\":317:318   */\n      0x00\n        /* \"#utility.yul\":310:322   */\n      revert\n        /* \"#utility.yul\":334:451   */\n    tag_15:\n        /* \"#utility.yul\":443:444   */\n      0x00\n        /* \"#utility.yul\":440:441   */\n      0x00\n        /* \"#utility.yul\":433:445   */\n      revert\n        /* \"#utility.yul\":457:574   */\n    tag_16:\n        /* \"#utility.yul\":566:567   */\n      0x00\n        /* \"#utility.yul\":563:564   */\n      0x00\n        /* \"#utility.yul\":556:568   */\n      revert\n        /* \"#utility.yul\":580:682   */\n    tag_17:\n        /* \"#utility.yul\":621:627   */\n      0x00\n        /* \"#utility.yul\":672:674   */\n      0x1f\n        /* \"#utility.yul\":668:675   */\n      not\n        /* \"#utility.yul\":663:665   */\n      0x1f\n        /* \"#utility.yul\":656:661   */\n      dup4\n        /* \"#utility.yul\":652:666   */\n      add\n        /* \"#utility.yul\":648:676   */\n      and\n        /* \"#utility.yul\":638:676   */\n      swap1\n      pop\n        /* \"#utility.yul\":580:682   */\n      swap2\n      swap1\n      pop\n      jump\t// out\n        /* \"#utility.yul\":688:868   */\n    tag_18:\n        /* \"#utility.yul\":736:813   */\n      0x4e487b7100000000000000000000000000000000000000000000000000000000\n        /* \"#utility.yul\":733:734   */\n      0x00\n        /* \"#utility.yul\":726:814   */\n      mstore\n        /* \"#utility.yul\":833:837   */\n      0x41\n        /* \"#utility.yul\":830:831   */\n      0x04\n        /* \"#utility.yul\":823:838   */\n      mstore\n        /* \"#utility.yul\":857:861   */\n      0x24\n        /* \"#utility.yul\":854:855   */\n      0x00\n        /* \"#utility.yul\":847:862   */\n      revert\n        /* \"#utility.yul\":874:1155   */\n    tag_19:\n        /* \"#utility.yul\":957:984   */\n      tag_55\n        /* \"#utility.yul\":979:983   */\n      dup3\n        /* \"#utility.yul\":957:984   */\n      tag_17\n      jump\t// in\n    tag_55:\n        /* \"#utility.yul\":949:955   */\n      dup2\n        /* \"#utility.yul\":945:985   */\n      add\n        /* \"#utility.yul\":1087:1093   */\n      dup2\n        /* \"#utility.yul\":1075:1085   */\n      dup2\n        /* \"#utility.yul\":1072:1094   */\n      lt\n        /* \"#utility.yul\":1051:1069   */\n      0xffffffffffffffff\n        /* \"#utility.yul\":1039:1049   */\n      dup3\n        /* \"#utility.yul\":1036:1070   */\n      gt\n        /* \"#utility.yul\":1033:1095   */\n      or\n        /* \"#utility.yul\":1030:1118   */\n      iszero\n      tag_56\n      jumpi\n        /* \"#utility.yul\":1098:1116   */\n      tag_57\n      tag_18\n      jump\t// in\n    tag_57:\n        /* \"#utility.yul\":1030:1118   */\n    tag_56:\n        /* \"#utility.yul\":1138:1148   */\n      dup1\n        /* \"#utility.yul\":1134:1136   */\n      0x40\n        /* \"#utility.yul\":1127:1149   */\n      mstore\n        /* \"#utility.yul\":917:1155   */\n      pop\n        /* \"#utility.yul\":874:1155   */\n      pop\n      pop\n      jump\t// out\n        /* \"#utility.yul\":1161:1290   */\n    tag_20:\n        /* \"#utility.yul\":1195:1201   */\n      0x00\n        /* \"#utility.yul\":1222:1242   */\n      tag_59\n      tag_12\n      jump\t// in\n    tag_59:\n        /* \"#utility.yul\":1212:1242   */\n      swap1\n      pop\n        /* \"#utility.yul\":1251:1284   */\n      tag_60\n        /* \"#utility.yul\":1279:1283   */\n      dup3\n        /* \"#utility.yul\":1271:1277   */\n      dup3\n        /* \"#utility.yul\":1251:1284   */\n      tag_19\n      jump\t// in\n    tag_60:\n        /* \"#utility.yul\":1161:1290   */\n      swap2\n      swap1\n      pop\n      jump\t// out\n        /* \"#utility.yul\":1296:1604   */\n    tag_21:\n        /* \"#utility.yul\":1358:1362   */\n      0x00\n        /* \"#utility.yul\":1448:1466   */\n      0xffffffffffffffff\n        /* \"#utility.yul\":1440:1446   */\n      dup3\n        /* \"#utility.yul\":1437:1467   */\n      gt\n        /* \"#utility.yul\":1434:1490   */\n      iszero\n      tag_62\n      jumpi\n        /* \"#utility.yul\":1470:1488   */\n      tag_63\n      tag_18\n      jump\t// in\n    tag_63:\n        /* \"#utility.yul\":1434:1490   */\n    tag_62:\n        /* \"#utility.yul\":1508:1537   */\n      tag_64\n        /* \"#utility.yul\":1530:1536   */\n      dup3\n        /* \"#utility.yul\":1508:1537   */\n      tag_17\n      jump\t// in\n    tag_64:\n        /* \"#utility.yul\":1500:1537   */\n      swap1\n      pop\n        /* \"#utility.yul\":1592:1596   */\n      0x20\n        /* \"#utility.yul\":1586:1590   */\n      dup2\n        /* \"#utility.yul\":1582:1597   */\n      add\n        /* \"#utility.yul\":1574:1597   */\n      swap1\n      pop\n        /* \"#utility.yul\":1296:1604   */\n      swap2\n      swap1\n      pop\n      jump\t// out\n        /* \"#utility.yul\":1610:1758   */\n    tag_22:\n        /* \"#utility.yul\":1708:1714   */\n      dup3\n        /* \"#utility.yul\":1703:1706   */\n      dup2\n        /* \"#utility.yul\":1698:1701   */\n      dup4\n        /* \"#utility.yul\":1685:1715   */\n      calldatacopy\n        /* \"#utility.yul\":1749:1750   */\n      0x00\n        /* \"#utility.yul\":1740:1746   */\n      dup4\n        /* \"#utility.yul\":1735:1738   */\n      dup4\n        /* \"#utility.yul\":1731:1747   */\n      add\n        /* \"#utility.yul\":1724:1751   */\n      mstore\n        /* \"#utility.yul\":1610:1758   */\n      pop\n      pop\n      pop\n      jump\t// out\n        /* \"#utility.yul\":1764:2189   */\n    tag_23:\n        /* \"#utility.yul\":1842:1847   */\n      0x00\n        /* \"#utility.yul\":1867:1933   */\n      tag_67\n        /* \"#utility.yul\":1883:1932   */\n      tag_68\n        /* \"#utility.yul\":1925:1931   */\n      dup5\n        /* \"#utility.yul\":1883:1932   */\n      tag_21\n      jump\t// in\n    tag_68:\n        /* \"#utility.yul\":1867:1933   */\n      tag_20\n      jump\t// in\n    tag_67:\n        /* \"#utility.yul\":1858:1933   */\n      swap1\n      pop\n        /* \"#utility.yul\":1956:1962   */\n      dup3\n        /* \"#utility.yul\":1949:1954   */\n      dup2\n        /* \"#utility.yul\":1942:1963   */\n      mstore\n        /* \"#utility.yul\":1994:1998   */\n      0x20\n        /* \"#utility.yul\":1987:1992   */\n      dup2\n        /* \"#utility.yul\":1983:1999   */\n      add\n        /* \"#utility.yul\":2032:2035   */\n      dup5\n        /* \"#utility.yul\":2023:2029   */\n      dup5\n        /* \"#utility.yul\":2018:2021   */\n      dup5\n        /* \"#utility.yul\":2014:2030   */\n      add\n        /* \"#utility.yul\":2011:2036   */\n      gt\n        /* \"#utility.yul\":2008:2120   */\n      iszero\n      tag_69\n      jumpi\n        /* \"#utility.yul\":2039:2118   */\n      tag_70\n      tag_16\n      jump\t// in\n    tag_70:\n        /* \"#utility.yul\":2008:2120   */\n    tag_69:\n        /* \"#utility.yul\":2129:2183   */\n      tag_71\n        /* \"#utility.yul\":2176:2182   */\n      dup5\n        /* \"#utility.yul\":2171:2174   */\n      dup3\n        /* \"#utility.yul\":2166:2169   */\n      dup6\n        /* \"#utility.yul\":2129:2183   */\n      tag_22\n      jump\t// in\n    tag_71:\n        /* \"#utility.yul\":1848:2189   */\n      pop\n        /* \"#utility.yul\":1764:2189   */\n      swap4\n      swap3\n      pop\n      pop\n      pop\n      jump\t// out\n        /* \"#utility.yul\":2209:2549   */\n    tag_24:\n        /* \"#utility.yul\":2265:2270   */\n      0x00\n        /* \"#utility.yul\":2314:2317   */\n      dup3\n        /* \"#utility.yul\":2307:2311   */\n      0x1f\n        /* \"#utility.yul\":2299:2305   */\n      dup4\n        /* \"#utility.yul\":2295:2312   */\n      add\n        /* \"#utility.yul\":2291:2318   */\n      slt\n        /* \"#utility.yul\":2281:2403   */\n      tag_73\n      jumpi\n        /* \"#utility.yul\":2322:2401   */\n      tag_74\n      tag_15\n      jump\t// in\n    tag_74:\n        /* \"#utility.yul\":2281:2403   */\n    tag_73:\n        /* \"#utility.yul\":2439:2445   */\n      dup2\n        /* \"#utility.yul\":2426:2446   */\n      calldataload\n        /* \"#utility.yul\":2464:2543   */\n      tag_75\n        /* \"#utility.yul\":2539:2542   */\n      dup5\n        /* \"#utility.yul\":2531:2537   */\n      dup3\n        /* \"#utility.yul\":2524:2528   */\n      0x20\n        /* \"#utility.yul\":2516:2522   */\n      dup7\n        /* \"#utility.yul\":2512:2529   */\n      add\n        /* \"#utility.yul\":2464:2543   */\n      tag_23\n      jump\t// in\n    tag_75:\n        /* \"#utility.yul\":2455:2543   */\n      swap2\n      pop\n        /* \"#utility.yul\":2271:2549   */\n      pop\n        /* \"#utility.yul\":2209:2549   */\n      swap3\n      swap2\n      pop\n      pop\n      jump\t// out\n        /* \"#utility.yul\":2555:2632   */\n    tag_25:\n        /* \"#utility.yul\":2592:2599   */\n      0x00\n        /* \"#utility.yul\":2621:2626   */\n      dup2\n        /* \"#utility.yul\":2610:2626   */\n      swap1\n      pop\n        /* \"#utility.yul\":2555:2632   */\n      swap2\n      swap1\n      pop\n      jump\t// out\n        /* \"#utility.yul\":2638:2760   */\n    tag_26:\n        /* \"#utility.yul\":2711:2735   */\n      tag_78\n        /* \"#utility.yul\":2729:2734   */\n      dup2\n        /* \"#utility.yul\":2711:2735   */\n      tag_25\n      jump\t// in\n    tag_78:\n        /* \"#utility.yul\":2704:2709   */\n      dup2\n        /* \"#utility.yul\":2701:2736   */\n      eq\n        /* \"#utility.yul\":2691:2754   */\n      tag_79\n      jumpi\n        /* \"#utility.yul\":2750:2751   */\n      0x00\n        /* \"#utility.yul\":2747:2748   */\n      0x00\n        /* \"#utility.yul\":2740:2752   */\n      revert\n        /* \"#utility.yul\":2691:2754   */\n    tag_79:\n        /* \"#utility.yul\":2638:2760   */\n      pop\n      jump\t// out\n        /* \"#utility.yul\":2766:2905   */\n    tag_27:\n        /* \"#utility.yul\":2812:2817   */\n      0x00\n        /* \"#utility.yul\":2850:2856   */\n      dup2\n        /* \"#utility.yul\":2837:2857   */\n      calldataload\n        /* \"#utility.yul\":2828:2857   */\n      swap1\n      pop\n        /* \"#utility.yul\":2866:2899   */\n      tag_81\n        /* \"#utility.yul\":2893:2898   */\n      dup2\n        /* \"#utility.yul\":2866:2899   */\n      tag_26\n      jump\t// in\n    tag_81:\n        /* \"#utility.yul\":2766:2905   */\n      swap3\n      swap2\n      pop\n      pop\n      jump\t// out\n        /* \"#utility.yul\":2911:3565   */\n    tag_6:\n        /* \"#utility.yul\":2989:2995   */\n      0x00\n        /* \"#utility.yul\":2997:3003   */\n      0x00\n        /* \"#utility.yul\":3046:3048   */\n      0x40\n        /* \"#utility.yul\":3034:3043   */\n      dup4\n        /* \"#utility.yul\":3025:3032   */\n      dup6\n        /* \"#utility.yul\":3021:3044   */\n      sub\n        /* \"#utility.yul\":3017:3049   */\n      slt\n        /* \"#utility.yul\":3014:3133   */\n      iszero\n      tag_83\n      jumpi\n        /* \"#utility.yul\":3052:3131   */\n      tag_84\n      tag_13\n      jump\t// in\n    tag_84:\n        /* \"#utility.yul\":3014:3133   */\n    tag_83:\n        /* \"#utility.yul\":3200:3201   */\n      0x00\n        /* \"#utility.yul\":3189:3198   */\n      dup4\n        /* \"#utility.yul\":3185:3202   */\n      add\n        /* \"#utility.yul\":3172:3203   */\n      calldataload\n        /* \"#utility.yul\":3230:3248   */\n      0xffffffffffffffff\n        /* \"#utility.yul\":3222:3228   */\n      dup2\n        /* \"#utility.yul\":3219:3249   */\n      gt\n        /* \"#utility.yul\":3216:3333   */\n      iszero\n      tag_85\n      jumpi\n        /* \"#utility.yul\":3252:3331   */\n      tag_86\n      tag_14\n      jump\t// in\n    tag_86:\n        /* \"#utility.yul\":3216:3333   */\n    tag_85:\n        /* \"#utility.yul\":3357:3420   */\n      tag_87\n        /* \"#utility.yul\":3412:3419   */\n      dup6\n        /* \"#utility.yul\":3403:3409   */\n      dup3\n        /* \"#utility.yul\":3392:3401   */\n      dup7\n        /* \"#utility.yul\":3388:3410   */\n      add\n        /* \"#utility.yul\":3357:3420   */\n      tag_24\n      jump\t// in\n    tag_87:\n        /* \"#utility.yul\":3347:3420   */\n      swap3\n      pop\n        /* \"#utility.yul\":3143:3430   */\n      pop\n        /* \"#utility.yul\":3469:3471   */\n      0x20\n        /* \"#utility.yul\":3495:3548   */\n      tag_88\n        /* \"#utility.yul\":3540:3547   */\n      dup6\n        /* \"#utility.yul\":3531:3537   */\n      dup3\n        /* \"#utility.yul\":3520:3529   */\n      dup7\n        /* \"#utility.yul\":3516:3538   */\n      add\n        /* \"#utility.yul\":3495:3548   */\n      tag_27\n      jump\t// in\n    tag_88:\n        /* \"#utility.yul\":3485:3548   */\n      swap2\n      pop\n        /* \"#utility.yul\":3440:3558   */\n      pop\n        /* \"#utility.yul\":2911:3565   */\n      swap3\n      pop\n      swap3\n      swap1\n      pop\n      jump\t// out\n        /* \"#utility.yul\":3571:3670   */\n    tag_28:\n        /* \"#utility.yul\":3623:3629   */\n      0x00\n        /* \"#utility.yul\":3657:3662   */\n      dup2\n        /* \"#utility.yul\":3651:3663   */\n      mload\n        /* \"#utility.yul\":3641:3663   */\n      swap1\n      pop\n        /* \"#utility.yul\":3571:3670   */\n      swap2\n      swap1\n      pop\n      jump\t// out\n        /* \"#utility.yul\":3676:3856   */\n    tag_29:\n        /* \"#utility.yul\":3724:3801   */\n      0x4e487b7100000000000000000000000000000000000000000000000000000000\n        /* \"#utility.yul\":3721:3722   */\n      0x00\n        /* \"#utility.yul\":3714:3802   */\n      mstore\n        /* \"#utility.yul\":3821:3825   */\n      0x22\n        /* \"#utility.yul\":3818:3819   */\n      0x04\n        /* \"#utility.yul\":3811:3826   */\n      mstore\n        /* \"#utility.yul\":3845:3849   */\n      0x24\n        /* \"#utility.yul\":3842:3843   */\n      0x00\n        /* \"#utility.yul\":3835:3850   */\n      revert\n        /* \"#utility.yul\":3862:4182   */\n    tag_30:\n        /* \"#utility.yul\":3906:3912   */\n      0x00\n        /* \"#utility.yul\":3943:3944   */\n      0x02\n        /* \"#utility.yul\":3937:3941   */\n      dup3\n        /* \"#utility.yul\":3933:3945   */\n      div\n        /* \"#utility.yul\":3923:3945   */\n      swap1\n      pop\n        /* \"#utility.yul\":3990:3991   */\n      0x01\n        /* \"#utility.yul\":3984:3988   */\n      dup3\n        /* \"#utility.yul\":3980:3992   */\n      and\n        /* \"#utility.yul\":4011:4029   */\n      dup1\n        /* \"#utility.yul\":4001:4082   */\n      tag_92\n      jumpi\n        /* \"#utility.yul\":4067:4071   */\n      0x7f\n        /* \"#utility.yul\":4059:4065   */\n      dup3\n        /* \"#utility.yul\":4055:4072   */\n      and\n        /* \"#utility.yul\":4045:4072   */\n      swap2\n      pop\n        /* \"#utility.yul\":4001:4082   */\n    tag_92:\n        /* \"#utility.yul\":4129:4131   */\n      0x20\n        /* \"#utility.yul\":4121:4127   */\n      dup3\n        /* \"#utility.yul\":4118:4132   */\n      lt\n        /* \"#utility.yul\":4098:4116   */\n      dup2\n        /* \"#utility.yul\":4095:4133   */\n      sub\n        /* \"#utility.yul\":4092:4176   */\n      tag_93\n      jumpi\n        /* \"#utility.yul\":4148:4166   */\n      tag_94\n      tag_29\n      jump\t// in\n    tag_94:\n        /* \"#utility.yul\":4092:4176   */\n    tag_93:\n        /* \"#utility.yul\":3913:4182   */\n      pop\n        /* \"#utility.yul\":3862:4182   */\n      swap2\n      swap1\n      pop\n      jump\t// out\n        /* \"#utility.yul\":4188:4329   */\n    tag_31:\n        /* \"#utility.yul\":4237:4241   */\n      0x00\n        /* \"#utility.yul\":4260:4263   */\n      dup2\n        /* \"#utility.yul\":4252:4263   */\n      swap1\n      pop\n        /* \"#utility.yul\":4283:4286   */\n      dup2\n        /* \"#utility.yul\":4280:4281   */\n      0x00\n        /* \"#utility.yul\":4273:4287   */\n      mstore\n        /* \"#utility.yul\":4317:4321   */\n      0x20\n        /* \"#utility.yul\":4314:4315   */\n      0x00\n        /* \"#utility.yul\":4304:4322   */\n      keccak256\n        /* \"#utility.yul\":4296:4322   */\n      swap1\n      pop\n        /* \"#utility.yul\":4188:4329   */\n      swap2\n      swap1\n      pop\n      jump\t// out\n        /* \"#utility.yul\":4335:4428   */\n    tag_32:\n        /* \"#utility.yul\":4372:4378   */\n      0x00\n        /* \"#utility.yul\":4419:4421   */\n      0x20\n        /* \"#utility.yul\":4414:4416   */\n      0x1f\n        /* \"#utility.yul\":4407:4412   */\n      dup4\n        /* \"#utility.yul\":4403:4417   */\n      add\n        /* \"#utility.yul\":4399:4422   */\n      div\n        /* \"#utility.yul\":4389:4422   */\n      swap1\n      pop\n        /* \"#utility.yul\":4335:4428   */\n      swap2\n      swap1\n      pop\n      jump\t// out\n        /* \"#utility.yul\":4434:4541   */\n    tag_33:\n        /* \"#utility.yul\":4478:4486   */\n      0x00\n        /* \"#utility.yul\":4528:4533   */\n      dup3\n        /* \"#utility.yul\":4522:4526   */\n      dup3\n        /* \"#utility.yul\":4518:4534   */\n      shl\n        /* \"#utility.yul\":4497:4534   */\n      swap1\n      pop\n        /* \"#utility.yul\":4434:4541   */\n      swap3\n      swap2\n      pop\n      pop\n      jump\t// out\n        /* \"#utility.yul\":4547:4940   */\n    tag_34:\n        /* \"#utility.yul\":4616:4622   */\n      0x00\n        /* \"#utility.yul\":4666:4667   */\n      0x08\n        /* \"#utility.yul\":4654:4664   */\n      dup4\n        /* \"#utility.yul\":4650:4668   */\n      mul\n        /* \"#utility.yul\":4689:4786   */\n      tag_99\n        /* \"#utility.yul\":4719:4785   */\n      0xffffffffffffffffffffffffffffffffffffffffffffffffffffffffffffffff\n        /* \"#utility.yul\":4708:4717   */\n      dup3\n        /* \"#utility.yul\":4689:4786   */\n      tag_33\n      jump\t// in\n    tag_99:\n        /* \"#utility.yul\":4807:4846   */\n      tag_100\n        /* \"#utility.yul\":4837:4845   */\n      dup7\n        /* \"#utility.yul\":4826:4835   */\n      dup4\n        /* \"#utility.yul\":4807:4846   */\n      tag_33\n      jump\t// in\n    tag_100:\n        /* \"#utility.yul\":4795:4846   */\n      swap6\n      pop\n        /* \"#utility.yul\":4879:4883   */\n      dup1\n        /* \"#utility.yul\":4875:4884   */\n      not\n        /* \"#utility.yul\":4868:4873   */\n      dup5\n        /* \"#utility.yul\":4864:4885   */\n      and\n        /* \"#utility.yul\":4855:4885   */\n      swap4\n      pop\n        /* \"#utility.yul\":4928:4932   */\n      dup1\n        /* \"#utility.yul\":4918:4926   */\n      dup7\n        /* \"#utility.yul\":4914:4933   */\n      and\n        /* \"#utility.yul\":4907:4912   */\n      dup5\n        /* \"#utility.yul\":4904:4934   */\n      or\n        /* \"#utility.yul\":4894:4934   */\n      swap3\n      pop\n        /* \"#utility.yul\":4623:4940   */\n      pop\n      pop\n        /* \"#utility.yul\":4547:4940   */\n      swap4\n      swap3\n      pop\n      pop\n      pop\n      jump\t// out\n        /* \"#utility.yul\":4946:5006   */\n    tag_35:\n        /* \"#utility.yul\":4974:4977   */\n      0x00\n        /* \"#utility.yul\":4995:5000   */\n      dup2\n        /* \"#utility.yul\":4988:5000   */\n      swap1\n      pop\n        /* \"#utility.yul\":4946:5006   */\n      swap2\n      swap1\n      pop\n      jump\t// out\n        /* \"#utility.yul\":5012:5154   */\n    tag_36:\n        /* \"#utility.yul\":5062:5071   */\n      0x00\n        /* \"#utility.yul\":5095:5148   */\n      tag_103\n        /* \"#utility.yul\":5113:5147   */\n      tag_104\n        /* \"#utility.yul\":5122:5146   */\n      tag_105\n        /* \"#utility.yul\":5140:5145   */\n      dup5\n        /* \"#utility.yul\":5122:5146   */\n      tag_25\n      jump\t// in\n    tag_105:\n        /* \"#utility.yul\":5113:5147   */\n      tag_35\n      jump\t// in\n    tag_104:\n        /* \"#utility.yul\":5095:5148   */\n      tag_25\n      jump\t// in\n    tag_103:\n        /* \"#utility.yul\":5082:5148   */\n      swap1\n      pop\n        /* \"#utility.yul\":5012:5154   */\n      swap2\n      swap1\n      pop\n      jump\t// out\n        /* \"#utility.yul\":5160:5235   */\n    tag_37:\n        /* \"#utility.yul\":5203:5206   */\n      0x00\n        /* \"#utility.yul\":5224:5229   */\n      dup2\n        /* \"#utility.yul\":5217:5229   */\n      swap1\n      pop\n        /* \"#utility.yul\":5160:5235   */\n      swap2\n      swap1\n      pop\n      jump\t// out\n        /* \"#utility.yul\":5241:5510   */\n    tag_38:\n        /* \"#utility.yul\":5351:5390   */\n      tag_108\n        /* \"#utility.yul\":5382:5389   */\n      dup4\n        /* \"#utility.yul\":5351:5390   */\n      tag_36\n      jump\t// in\n    tag_108:\n        /* \"#utility.yul\":5412:5503   */\n      tag_109\n        /* \"#utility.yul\":5461:5502   */\n      tag_110\n        /* \"#utility.yul\":5485:5501   */\n      dup3\n        /* \"#utility.yul\":5461:5502   */\n      tag_37\n      jump\t// in\n    tag_110:\n        /* \"#utility.yul\":5453:5459   */\n      dup5\n        /* \"#utility.yul\":5446:5450   */\n      dup5\n        /* \"#utility.yul\":5440:5451   */\n      sload\n        /* \"#utility.yul\":5412:5503   */\n      tag_34\n      jump\t// in\n    tag_109:\n        /* \"#utility.yul\":5406:5410   */\n      dup3\n        /* \"#utility.yul\":5399:5504   */\n      sstore\n        /* \"#utility.yul\":5317:5510   */\n      pop\n        /* \"#utility.yul\":5241:5510   */\n      pop\n      pop\n      pop\n      jump\t// out\n        /* \"#utility.yul\":5516:5589   */\n    tag_39:\n        /* \"#utility.yul\":5561:5564   */\n      0x00\n        /* \"#utility.yul\":5582:5583   */\n      0x00\n        /* \"#utility.yul\":5575:5583   */\n      swap1\n      pop\n        /* \"#utility.yul\":5516:5589   */\n      swap1\n      jump\t// out\n        /* \"#utility.yul\":5595:5784   */\n    tag_40:\n        /* \"#utility.yul\":5672:5704   */\n      tag_113\n      tag_39\n      jump\t// in\n    tag_113:\n        /* \"#utility.yul\":5713:5778   */\n      tag_114\n        /* \"#utility.yul\":5771:5777   */\n      dup2\n        /* \"#utility.yul\":5763:5769   */\n      dup5\n        /* \"#utility.yul\":5757:5761   */\n      dup5\n        /* \"#utility.yul\":5713:5778   */\n      tag_38\n      jump\t// in\n    tag_114:\n        /* \"#utility.yul\":5648:5784   */\n      pop\n        /* \"#utility.yul\":5595:5784   */\n      pop\n      pop\n      jump\t// out\n        /* \"#utility.yul\":5790:5976   */\n    tag_41:\n        /* \"#utility.yul\":5850:5970   */\n    tag_116:\n        /* \"#utility.yul\":5867:5870   */\n      dup2\n        /* \"#utility.yul\":5860:5865   */\n      dup2\n        /* \"#utility.yul\":5857:5871   */\n      lt\n        /* \"#utility.yul\":5850:5970   */\n      iszero\n      tag_118\n      jumpi\n        /* \"#utility.yul\":5921:5960   */\n      tag_119\n        /* \"#utility.yul\":5958:5959   */\n      0x00\n        /* \"#utility.yul\":5951:5956   */\n      dup3\n        /* \"#utility.yul\":5921:5960   */\n      tag_40\n      jump\t// in\n    tag_119:\n        /* \"#utility.yul\":5894:5895   */\n      0x01\n        /* \"#utility.yul\":5887:5892   */\n      dup2\n        /* \"#utility.yul\":5883:5896   */\n      add\n        /* \"#utility.yul\":5874:5896   */\n      swap1\n      pop\n        /* \"#utility.yul\":5850:5970   */\n      jump(tag_116)\n    tag_118:\n        /* \"#utility.yul\":5790:5976   */\n      pop\n      pop\n      jump\t// out\n        /* \"#utility.yul\":5982:6525   */\n    tag_42:\n        /* \"#utility.yul\":6083:6085   */\n      0x1f\n        /* \"#utility.yul\":6078:6081   */\n      dup3\n        /* \"#utility.yul\":6075:6086   */\n      gt\n        /* \"#utility.yul\":6072:6518   */\n      iszero\n      tag_121\n      jumpi\n        /* \"#utility.yul\":6117:6155   */\n      tag_122\n        /* \"#utility.yul\":6149:6154   */\n      dup2\n        /* \"#utility.yul\":6117:6155   */\n      tag_31\n      jump\t// in\n    tag_122:\n        /* \"#utility.yul\":6201:6230   */\n      tag_123\n        /* \"#utility.yul\":6219:6229   */\n      dup5\n        /* \"#utility.yul\":6201:6230   */\n      tag_32\n      jump\t// in\n    tag_123:\n        /* \"#utility.yul\":6191:6199   */\n      dup2\n        /* \"#utility.yul\":6187:6231   */\n      add\n        /* \"#utility.yul\":6384:6386   */\n      0x20\n        /* \"#utility.yul\":6372:6382   */\n      dup6\n        /* \"#utility.yul\":6369:6387   */\n      lt\n        /* \"#utility.yul\":6366:6415   */\n      iszero\n      tag_124\n      jumpi\n        /* \"#utility.yul\":6405:6413   */\n      dup2\n        /* \"#utility.yul\":6390:6413   */\n      swap1\n      pop\n        /* \"#utility.yul\":6366:6415   */\n    tag_124:\n        /* \"#utility.yul\":6428:6508   */\n      tag_125\n        /* \"#utility.yul\":6484:6506   */\n      tag_126\n        /* \"#utility.yul\":6502:6505   */\n      dup6\n        /* \"#utility.yul\":6484:6506   */\n      tag_32\n      jump\t// in\n    tag_126:\n        /* \"#utility.yul\":6474:6482   */\n      dup4\n        /* \"#utility.yul\":6470:6507   */\n      add\n        /* \"#utility.yul\":6457:6468   */\n      dup3\n        /* \"#utility.yul\":6428:6508   */\n      tag_41\n      jump\t// in\n    tag_125:\n        /* \"#utility.yul\":6087:6518   */\n      pop\n      pop\n        /* \"#utility.yul\":6072:6518   */\n    tag_121:\n        /* \"#utility.yul\":5982:6525   */\n      pop\n      pop\n      pop\n      jump\t// out\n        /* \"#utility.yul\":6531:6648   */\n    tag_43:\n        /* \"#utility.yul\":6585:6593   */\n      0x00\n        /* \"#utility.yul\":6635:6640   */\n      dup3\n        /* \"#utility.yul\":6629:6633   */\n      dup3\n        /* \"#utility.yul\":6625:6641   */\n      shr\n        /* \"#utility.yul\":6604:6641   */\n      swap1\n      pop\n        /* \"#utility.yul\":6531:6648   */\n      swap3\n      swap2\n      pop\n      pop\n      jump\t// out\n        /* \"#utility.yul\":6654:6823   */\n    tag_44:\n        /* \"#utility.yul\":6698:6704   */\n      0x00\n        /* \"#utility.yul\":6731:6782   */\n      tag_129\n        /* \"#utility.yul\":6779:6780   */\n      0x00\n        /* \"#utility.yul\":6775:6781   */\n      not\n        /* \"#utility.yul\":6767:6772   */\n      dup5\n        /* \"#utility.yul\":6764:6765   */\n      0x08\n        /* \"#utility.yul\":6760:6773   */\n      mul\n        /* \"#utility.yul\":6731:6782   */\n      tag_43\n      jump\t// in\n    tag_129:\n        /* \"#utility.yul\":6727:6783   */\n      not\n        /* \"#utility.yul\":6812:6816   */\n      dup1\n        /* \"#utility.yul\":6806:6810   */\n      dup4\n        /* \"#utility.yul\":6802:6817   */\n      and\n        /* \"#utility.yul\":6792:6817   */\n      swap2\n      pop\n        /* \"#utility.yul\":6705:6823   */\n      pop\n        /* \"#utility.yul\":6654:6823   */\n      swap3\n      swap2\n      pop\n      pop\n      jump\t// out\n        /* \"#utility.yul\":6828:7123   */\n    tag_45:\n        /* \"#utility.yul\":6904:6908   */\n      0x00\n        /* \"#utility.yul\":7050:7079   */\n      tag_131\n        /* \"#utility.yul\":7075:7078   */\n      dup4\n        /* \"#utility.yul\":7069:7073   */\n      dup4\n        /* \"#utility.yul\":7050:7079   */\n      tag_44\n      jump\t// in\n    tag_131:\n        /* \"#utility.yul\":7042:7079   */\n      swap2\n      pop\n        /* \"#utility.yul\":7112:7115   */\n      dup3\n        /* \"#utility.yul\":7109:7110   */\n      0x02\n        /* \"#utility.yul\":7105:7116   */\n      mul\n        /* \"#utility.yul\":7099:7103   */\n      dup3\n        /* \"#utility.yul\":7096:7117   */\n      or\n        /* \"#utility.yul\":7088:7117   */\n      swap1\n      pop\n        /* \"#utility.yul\":6828:7123   */\n      swap3\n      swap2\n      pop\n      pop\n      jump\t// out\n        /* \"#utility.yul\":7128:8523   */\n    tag_11:\n        /* \"#utility.yul\":7245:7282   */\n      tag_133\n        /* \"#utility.yul\":7278:7281   */\n      dup3\n        /* \"#utility.yul\":7245:7282   */\n      tag_28\n      jump\t// in\n    tag_133:\n        /* \"#utility.yul\":7347:7365   */\n      0xffffffffffffffff\n        /* \"#utility.yul\":7339:7345   */\n      dup2\n        /* \"#utility.yul\":7336:7366   */\n      gt\n        /* \"#utility.yul\":7333:7389   */\n      iszero\n      tag_134\n      jumpi\n        /* \"#utility.yul\":7369:7387   */\n      tag_135\n      tag_18\n      jump\t// in\n    tag_135:\n        /* \"#utility.yul\":7333:7389   */\n    tag_134:\n        /* \"#utility.yul\":7413:7451   */\n      tag_136\n        /* \"#utility.yul\":7445:7449   */\n      dup3\n        /* \"#utility.yul\":7439:7450   */\n      sload\n        /* \"#utility.yul\":7413:7451   */\n      tag_30\n      jump\t// in\n    tag_136:\n        /* \"#utility.yul\":7498:7565   */\n      tag_137\n        /* \"#utility.yul\":7558:7564   */\n      dup3\n        /* \"#utility.yul\":7550:7556   */\n      dup3\n        /* \"#utility.yul\":7544:7548   */\n      dup6\n        /* \"#utility.yul\":7498:7565   */\n      tag_42\n      jump\t// in\n    tag_137:\n        /* \"#utility.yul\":7592:7593   */\n      0x00\n        /* \"#utility.yul\":7616:7620   */\n      0x20\n        /* \"#utility.yul\":7603:7620   */\n      swap1\n      pop\n        /* \"#utility.yul\":7648:7650   */\n      0x1f\n        /* \"#utility.yul\":7640:7646   */\n      dup4\n        /* \"#utility.yul\":7637:7651   */\n      gt\n        /* \"#utility.yul\":7665:7666   */\n      0x01\n        /* \"#utility.yul\":7660:8278   */\n      dup2\n      eq\n      tag_139\n      jumpi\n        /* \"#utility.yul\":8322:8323   */\n      0x00\n        /* \"#utility.yul\":8339:8345   */\n      dup5\n        /* \"#utility.yul\":8336:8413   */\n      iszero\n      tag_140\n      jumpi\n        /* \"#utility.yul\":8388:8397   */\n      dup3\n        /* \"#utility.yul\":8383:8386   */\n      dup8\n        /* \"#utility.yul\":8379:8398   */\n      add\n        /* \"#utility.yul\":8373:8399   */\n      mload\n        /* \"#utility.yul\":8364:8399   */\n      swap1\n      pop\n        /* \"#utility.yul\":8336:8413   */\n    tag_140:\n        /* \"#utility.yul\":8439:8506   */\n      tag_141\n        /* \"#utility.yul\":8499:8505   */\n      dup6\n        /* \"#utility.yul\":8492:8497   */\n      dup3\n        /* \"#utility.yul\":8439:8506   */\n      tag_45\n      jump\t// in\n    tag_141:\n        /* \"#utility.yul\":8433:8437   */\n      dup7\n        /* \"#utility.yul\":8426:8507   */\n      sstore\n        /* \"#utility.yul\":8295:8517   */\n      pop\n        /* \"#utility.yul\":7630:8517   */\n      jump(tag_138)\n        /* \"#utility.yul\":7660:8278   */\n    tag_139:\n        /* \"#utility.yul\":7712:7716   */\n      0x1f\n        /* \"#utility.yul\":7708:7717   */\n      not\n        /* \"#utility.yul\":7700:7706   */\n      dup5\n        /* \"#utility.yul\":7696:7718   */\n      and\n        /* \"#utility.yul\":7746:7783   */\n      tag_142\n        /* \"#utility.yul\":7778:7782   */\n      dup7\n        /* \"#utility.yul\":7746:7783   */\n      tag_31\n      jump\t// in\n    tag_142:\n        /* \"#utility.yul\":7805:7806   */\n      0x00\n        /* \"#utility.yul\":7819:8027   */\n    tag_143:\n        /* \"#utility.yul\":7833:7840   */\n      dup3\n        /* \"#utility.yul\":7830:7831   */\n      dup2\n        /* \"#utility.yul\":7827:7841   */\n      lt\n        /* \"#utility.yul\":7819:8027   */\n      iszero\n      tag_145\n      jumpi\n        /* \"#utility.yul\":7912:7921   */\n      dup5\n        /* \"#utility.yul\":7907:7910   */\n      dup10\n        /* \"#utility.yul\":7903:7922   */\n      add\n        /* \"#utility.yul\":7897:7923   */\n      mload\n        /* \"#utility.yul\":7889:7895   */\n      dup3\n        /* \"#utility.yul\":7882:7924   */\n      sstore\n        /* \"#utility.yul\":7963:7964   */\n      0x01\n        /* \"#utility.yul\":7955:7961   */\n      dup3\n        /* \"#utility.yul\":7951:7965   */\n      add\n        /* \"#utility.yul\":7941:7965   */\n      swap2\n      pop\n        /* \"#utility.yul\":8010:8012   */\n      0x20\n        /* \"#utility.yul\":7999:8008   */\n      dup6\n        /* \"#utility.yul\":7995:8013   */\n      add\n        /* \"#utility.yul\":7982:8013   */\n      swap5\n      pop\n        /* \"#utility.yul\":7856:7860   */\n      0x20\n        /* \"#utility.yul\":7853:7854   */\n      dup2\n        /* \"#utility.yul\":7849:7861   */\n      add\n        /* \"#utility.yul\":7844:7861   */\n      swap1\n      pop\n        /* \"#utility.yul\":7819:8027   */\n      jump(tag_143)\n    tag_145:\n        /* \"#utility.yul\":8055:8061   */\n      dup7\n        /* \"#utility.yul\":8046:8053   */\n      dup4\n        /* \"#utility.yul\":8043:8062   */\n      lt\n        /* \"#utility.yul\":8040:8219   */\n      iszero\n      tag_146\n      jumpi\n        /* \"#utility.yul\":8113:8122   */\n      dup5\n        /* \"#utility.yul\":8108:8111   */\n      dup10\n        /* \"#utility.yul\":8104:8123   */\n      add\n        /* \"#utility.yul\":8098:8124   */\n      mload\n        /* \"#utility.yul\":8156:8204   */\n      tag_147\n        /* \"#utility.yul\":8198:8202   */\n      0x1f\n        /* \"#utility.yul\":8190:8196   */\n      dup10\n        /* \"#utility.yul\":8186:8203   */\n      and\n        /* \"#utility.yul\":8175:8184   */\n      dup3\n        /* \"#utility.yul\":8156:8204   */\n      tag_44\n      jump\t// in\n    tag_147:\n        /* \"#utility.yul\":8148:8154   */\n      dup4\n        /* \"#utility.yul\":8141:8205   */\n      sstore\n        /* \"#utility.yul\":8063:8219   */\n      pop\n        /* \"#utility.yul\":8040:8219   */\n    tag_146:\n        /* \"#utility.yul\":8265:8266   */\n      0x01\n        /* \"#utility.yul\":8261:8262   */\n      0x02\n        /* \"#utility.yul\":8253:8259   */\n      dup9\n        /* \"#utility.yul\":8249:8263   */\n      mul\n        /* \"#utility.yul\":8245:8267   */\n      add\n        /* \"#utility.yul\":8239:8243   */\n      dup9\n        /* \"#utility.yul\":8232:8268   */\n      sstore\n        /* \"#utility.yul\":7667:8278   */\n      pop\n      pop\n      pop\n        /* \"#utility.yul\":7630:8517   */\n    tag_138:\n      pop\n        /* \"#utility.yul\":7220:8523   */\n      pop\n      pop\n      pop\n        /* \"#utility.yul\":7128:8523   */\n      pop\n      pop\n      jump\t// out\n\n    auxdata: 0xa2646970667358221220fc840fcd3e98b1f3aadc970772dc4de3f8b060a17569de40dd81bb2c70815eb364736f6c634300081c0033\n}\n",
				"bytecode": {
					"linkReferences": {},
					"object": "6080604052348015600e575f5ffd5b506105948061001c5f395ff3fe608060405234801561000f575f5ffd5b5060043610610029575f3560e01c80638e73de121461002d575b5f5ffd5b6100476004803603810190610042919061022e565b610049565b005b5f60405180604001604052808481526020018381525090505f81908060018154018082558091505060019003905f5260205f2090600202015f909190919091505f820151815f01908161009c919061048f565b50602082015181600101555050505050565b5f604051905090565b5f5ffd5b5f5ffd5b5f5ffd5b5f5ffd5b5f601f19601f8301169050919050565b7f4e487b71000000000000000000000000000000000000000000000000000000005f52604160045260245ffd5b61010d826100c7565b810181811067ffffffffffffffff8211171561012c5761012b6100d7565b5b80604052505050565b5f61013e6100ae565b905061014a8282610104565b919050565b5f67ffffffffffffffff821115610169576101686100d7565b5b610172826100c7565b9050602081019050919050565b828183375f83830152505050565b5f61019f61019a8461014f565b610135565b9050828152602081018484840111156101bb576101ba6100c3565b5b6101c684828561017f565b509392505050565b5f82601f8301126101e2576101e16100bf565b5b81356101f284826020860161018d565b91505092915050565b5f819050919050565b61020d816101fb565b8114610217575f5ffd5b50565b5f8135905061022881610204565b92915050565b5f5f60408385031215610244576102436100b7565b5b5f83013567ffffffffffffffff811115610261576102606100bb565b5b61026d858286016101ce565b925050602061027e8582860161021a565b9150509250929050565b5f81519050919050565b7f4e487b71000000000000000000000000000000000000000000000000000000005f52602260045260245ffd5b5f60028204905060018216806102d657607f821691505b6020821081036102e9576102e8610292565b5b50919050565b5f819050815f5260205f209050919050565b5f6020601f8301049050919050565b5f82821b905092915050565b5f6008830261034b7fffffffffffffffffffffffffffffffffffffffffffffffffffffffffffffffff82610310565b6103558683610310565b95508019841693508086168417925050509392505050565b5f819050919050565b5f61039061038b610386846101fb565b61036d565b6101fb565b9050919050565b5f819050919050565b6103a983610376565b6103bd6103b582610397565b84845461031c565b825550505050565b5f5f905090565b6103d46103c5565b6103df8184846103a0565b505050565b5b81811015610402576103f75f826103cc565b6001810190506103e5565b5050565b601f82111561044757610418816102ef565b61042184610301565b81016020851015610430578190505b61044461043c85610301565b8301826103e4565b50505b505050565b5f82821c905092915050565b5f6104675f198460080261044c565b1980831691505092915050565b5f61047f8383610458565b9150826002028217905092915050565b61049882610288565b67ffffffffffffffff8111156104b1576104b06100d7565b5b6104bb82546102bf565b6104c6828285610406565b5f60209050601f8311600181146104f7575f84156104e5578287015190505b6104ef8582610474565b865550610556565b601f198416610505866102ef565b5f5b8281101561052c57848901518255600182019150602085019450602081019050610507565b868310156105495784890151610545601f891682610458565b8355505b6001600288020188555050505b50505050505056fea2646970667358221220fc840fcd3e98b1f3aadc970772dc4de3f8b060a17569de40dd81bb2c70815eb364736f6c634300081c0033",
					"opcodes": "PUSH1 0x80 PUSH1 0x40 MSTORE CALLVALUE DUP1 ISZERO PUSH1 0xE JUMPI PUSH0 PUSH0 REVERT JUMPDEST POP PUSH2 0x594 DUP1 PUSH2 0x1C PUSH0 CODECOPY PUSH0 RETURN INVALID PUSH1 0x80 PUSH1 0x40 MSTORE CALLVALUE DUP1 ISZERO PUSH2 0xF JUMPI PUSH0 PUSH0 REVERT JUMPDEST POP PUSH1 0x4 CALLDATASIZE LT PUSH2 0x29 JUMPI PUSH0 CALLDATALOAD PUSH1 0xE0 SHR DUP1 PUSH4 0x8E73DE12 EQ PUSH2 0x2D JUMPI JUMPDEST PUSH0 PUSH0 REVERT JUMPDEST PUSH2 0x47 PUSH1 0x4 DUP1 CALLDATASIZE SUB DUP2 ADD SWAP1 PUSH2 0x42 SWAP2 SWAP1 PUSH2 0x22E JUMP JUMPDEST PUSH2 0x49 JUMP JUMPDEST STOP JUMPDEST PUSH0 PUSH1 0x40 MLOAD DUP1 PUSH1 0x40 ADD PUSH1 0x40 MSTORE DUP1 DUP5 DUP2 MSTORE PUSH1 0x20 ADD DUP4 DUP2 MSTORE POP SWAP1 POP PUSH0 DUP2 SWAP1 DUP1 PUSH1 0x1 DUP2 SLOAD ADD DUP1 DUP3 SSTORE DUP1 SWAP2 POP POP PUSH1 0x1 SWAP1 SUB SWAP1 PUSH0 MSTORE PUSH1 0x20 PUSH0 KECCAK256 SWAP1 PUSH1 0x2 MUL ADD PUSH0 SWAP1 SWAP2 SWAP1 SWAP2 SWAP1 SWAP2 POP PUSH0 DUP3 ADD MLOAD DUP2 PUSH0 ADD SWAP1 DUP2 PUSH2 0x9C SWAP2 SWAP1 PUSH2 0x48F JUMP JUMPDEST POP PUSH1 0x20 DUP3 ADD MLOAD DUP2 PUSH1 0x1 ADD SSTORE POP POP POP POP POP JUMP JUMPDEST PUSH0 PUSH1 0x40 MLOAD SWAP1 POP SWAP1 JUMP JUMPDEST PUSH0 PUSH0 REVERT JUMPDEST PUSH0 PUSH0 REVERT JUMPDEST PUSH0 PUSH0 REVERT JUMPDEST PUSH0 PUSH0 REVERT JUMPDEST PUSH0 PUSH1 0x1F NOT PUSH1 0x1F DUP4 ADD AND SWAP1 POP SWAP2 SWAP1 POP JUMP JUMPDEST PUSH32 0x4E487B7100000000000000000000000000000000000000000000000000000000 PUSH0 MSTORE PUSH1 0x41 PUSH1 0x4 MSTORE PUSH1 0x24 PUSH0 REVERT JUMPDEST PUSH2 0x10D DUP3 PUSH2 0xC7 JUMP JUMPDEST DUP2 ADD DUP2 DUP2 LT PUSH8 0xFFFFFFFFFFFFFFFF DUP3 GT OR ISZERO PUSH2 0x12C JUMPI PUSH2 0x12B PUSH2 0xD7 JUMP JUMPDEST JUMPDEST DUP1 PUSH1 0x40 MSTORE POP POP POP JUMP JUMPDEST PUSH0 PUSH2 0x13E PUSH2 0xAE JUMP JUMPDEST SWAP1 POP PUSH2 0x14A DUP3 DUP3 PUSH2 0x104 JUMP JUMPDEST SWAP2 SWAP1 POP JUMP JUMPDEST PUSH0 PUSH8 0xFFFFFFFFFFFFFFFF DUP3 GT ISZERO PUSH2 0x169 JUMPI PUSH2 0x168 PUSH2 0xD7 JUMP JUMPDEST JUMPDEST PUSH2 0x172 DUP3 PUSH2 0xC7 JUMP JUMPDEST SWAP1 POP PUSH1 0x20 DUP2 ADD SWAP1 POP SWAP2 SWAP1 POP JUMP JUMPDEST DUP3 DUP2 DUP4 CALLDATACOPY PUSH0 DUP4 DUP4 ADD MSTORE POP POP POP JUMP JUMPDEST PUSH0 PUSH2 0x19F PUSH2 0x19A DUP5 PUSH2 0x14F JUMP JUMPDEST PUSH2 0x135 JUMP JUMPDEST SWAP1 POP DUP3 DUP2 MSTORE PUSH1 0x20 DUP2 ADD DUP5 DUP5 DUP5 ADD GT ISZERO PUSH2 0x1BB JUMPI PUSH2 0x1BA PUSH2 0xC3 JUMP JUMPDEST JUMPDEST PUSH2 0x1C6 DUP5 DUP3 DUP6 PUSH2 0x17F JUMP JUMPDEST POP SWAP4 SWAP3 POP POP POP JUMP JUMPDEST PUSH0 DUP3 PUSH1 0x1F DUP4 ADD SLT PUSH2 0x1E2 JUMPI PUSH2 0x1E1 PUSH2 0xBF JUMP JUMPDEST JUMPDEST DUP2 CALLDATALOAD PUSH2 0x1F2 DUP5 DUP3 PUSH1 0x20 DUP7 ADD PUSH2 0x18D JUMP JUMPDEST SWAP2 POP POP SWAP3 SWAP2 POP POP JUMP JUMPDEST PUSH0 DUP2 SWAP1 POP SWAP2 SWAP1 POP JUMP JUMPDEST PUSH2 0x20D DUP2 PUSH2 0x1FB JUMP JUMPDEST DUP2 EQ PUSH2 0x217 JUMPI PUSH0 PUSH0 REVERT JUMPDEST POP JUMP JUMPDEST PUSH0 DUP2 CALLDATALOAD SWAP1 POP PUSH2 0x228 DUP2 PUSH2 0x204 JUMP JUMPDEST SWAP3 SWAP2 POP POP JUMP JUMPDEST PUSH0 PUSH0 PUSH1 0x40 DUP4 DUP6 SUB SLT ISZERO PUSH2 0x244 JUMPI PUSH2 0x243 PUSH2 0xB7 JUMP JUMPDEST JUMPDEST PUSH0 DUP4 ADD CALLDATALOAD PUSH8 0xFFFFFFFFFFFFFFFF DUP2 GT ISZERO PUSH2 0x261 JUMPI PUSH2 0x260 PUSH2 0xBB JUMP JUMPDEST JUMPDEST PUSH2 0x26D DUP6 DUP3 DUP7 ADD PUSH2 0x1CE JUMP JUMPDEST SWAP3 POP POP PUSH1 0x20 PUSH2 0x27E DUP6 DUP3 DUP7 ADD PUSH2 0x21A JUMP JUMPDEST SWAP2 POP POP SWAP3 POP SWAP3 SWAP1 POP JUMP JUMPDEST PUSH0 DUP2 MLOAD SWAP1 POP SWAP2 SWAP1 POP JUMP JUMPDEST PUSH32 0x4E487B7100000000000000000000000000000000000000000000000000000000 PUSH0 MSTORE PUSH1 0x22 PUSH1 0x4 MSTORE PUSH1 0x24 PUSH0 REVERT JUMPDEST PUSH0 PUSH1 0x2 DUP3 DIV SWAP1 POP PUSH1 0x1 DUP3 AND DUP1 PUSH2 0x2D6 JUMPI PUSH1 0x7F DUP3 AND SWAP2 POP JUMPDEST PUSH1 0x20 DUP3 LT DUP2 SUB PUSH2 0x2E9 JUMPI PUSH2 0x2E8 PUSH2 0x292 JUMP JUMPDEST JUMPDEST POP SWAP2 SWAP1 POP JUMP JUMPDEST PUSH0 DUP2 SWAP1 POP DUP2 PUSH0 MSTORE PUSH1 0x20 PUSH0 KECCAK256 SWAP1 POP SWAP2 SWAP1 POP JUMP JUMPDEST PUSH0 PUSH1 0x20 PUSH1 0x1F DUP4 ADD DIV SWAP1 POP SWAP2 SWAP1 POP JUMP JUMPDEST PUSH0 DUP3 DUP3 SHL SWAP1 POP SWAP3 SWAP2 POP POP JUMP JUMPDEST PUSH0 PUSH1 0x8 DUP4 MUL PUSH2 0x34B PUSH32 0xFFFFFFFFFFFFFFFFFFFFFFFFFFFFFFFFFFFFFFFFFFFFFFFFFFFFFFFFFFFFFFFF DUP3 PUSH2 0x310 JUMP JUMPDEST PUSH2 0x355 DUP7 DUP4 PUSH2 0x310 JUMP JUMPDEST SWAP6 POP DUP1 NOT DUP5 AND SWAP4 POP DUP1 DUP7 AND DUP5 OR SWAP3 POP POP POP SWAP4 SWAP3 POP POP POP JUMP JUMPDEST PUSH0 DUP2 SWAP1 POP SWAP2 SWAP1 POP JUMP JUMPDEST PUSH0 PUSH2 0x390 PUSH2 0x38B PUSH2 0x386 DUP5 PUSH2 0x1FB JUMP JUMPDEST PUSH2 0x36D JUMP JUMPDEST PUSH2 0x1FB JUMP JUMPDEST SWAP1 POP SWAP2 SWAP1 POP JUMP JUMPDEST PUSH0 DUP2 SWAP1 POP SWAP2 SWAP1 POP JUMP JUMPDEST PUSH2 0x3A9 DUP4 PUSH2 0x376 JUMP JUMPDEST PUSH2 0x3BD PUSH2 0x3B5 DUP3 PUSH2 0x397 JUMP JUMPDEST DUP5 DUP5 SLOAD PUSH2 0x31C JUMP JUMPDEST DUP3 SSTORE POP POP POP POP JUMP JUMPDEST PUSH0 PUSH0 SWAP1 POP SWAP1 JUMP JUMPDEST PUSH2 0x3D4 PUSH2 0x3C5 JUMP JUMPDEST PUSH2 0x3DF DUP2 DUP5 DUP5 PUSH2 0x3A0 JUMP JUMPDEST POP POP POP JUMP JUMPDEST JUMPDEST DUP2 DUP2 LT ISZERO PUSH2 0x402 JUMPI PUSH2 0x3F7 PUSH0 DUP3 PUSH2 0x3CC JUMP JUMPDEST PUSH1 0x1 DUP2 ADD SWAP1 POP PUSH2 0x3E5 JUMP JUMPDEST POP POP JUMP JUMPDEST PUSH1 0x1F DUP3 GT ISZERO PUSH2 0x447 JUMPI PUSH2 0x418 DUP2 PUSH2 0x2EF JUMP JUMPDEST PUSH2 0x421 DUP5 PUSH2 0x301 JUMP JUMPDEST DUP2 ADD PUSH1 0x20 DUP6 LT ISZERO PUSH2 0x430 JUMPI DUP2 SWAP1 POP JUMPDEST PUSH2 0x444 PUSH2 0x43C DUP6 PUSH2 0x301 JUMP JUMPDEST DUP4 ADD DUP3 PUSH2 0x3E4 JUMP JUMPDEST POP POP JUMPDEST POP POP POP JUMP JUMPDEST PUSH0 DUP3 DUP3 SHR SWAP1 POP SWAP3 SWAP2 POP POP JUMP JUMPDEST PUSH0 PUSH2 0x467 PUSH0 NOT DUP5 PUSH1 0x8 MUL PUSH2 0x44C JUMP JUMPDEST NOT DUP1 DUP4 AND SWAP2 POP POP SWAP3 SWAP2 POP POP JUMP JUMPDEST PUSH0 PUSH2 0x47F DUP4 DUP4 PUSH2 0x458 JUMP JUMPDEST SWAP2 POP DUP3 PUSH1 0x2 MUL DUP3 OR SWAP1 POP SWAP3 SWAP2 POP POP JUMP JUMPDEST PUSH2 0x498 DUP3 PUSH2 0x288 JUMP JUMPDEST PUSH8 0xFFFFFFFFFFFFFFFF DUP2 GT ISZERO PUSH2 0x4B1 JUMPI PUSH2 0x4B0 PUSH2 0xD7 JUMP JUMPDEST JUMPDEST PUSH2 0x4BB DUP3 SLOAD PUSH2 0x2BF JUMP JUMPDEST PUSH2 0x4C6 DUP3 DUP3 DUP6 PUSH2 0x406 JUMP JUMPDEST PUSH0 PUSH1 0x20 SWAP1 POP PUSH1 0x1F DUP4 GT PUSH1 0x1 DUP2 EQ PUSH2 0x4F7 JUMPI PUSH0 DUP5 ISZERO PUSH2 0x4E5 JUMPI DUP3 DUP8 ADD MLOAD SWAP1 POP JUMPDEST PUSH2 0x4EF DUP6 DUP3 PUSH2 0x474 JUMP JUMPDEST DUP7 SSTORE POP PUSH2 0x556 JUMP JUMPDEST PUSH1 0x1F NOT DUP5 AND PUSH2 0x505 DUP7 PUSH2 0x2EF JUMP JUMPDEST PUSH0 JUMPDEST DUP3 DUP2 LT ISZERO PUSH2 0x52C JUMPI DUP5 DUP10 ADD MLOAD DUP3 SSTORE PUSH1 0x1 DUP3 ADD SWAP2 POP PUSH1 0x20 DUP6 ADD SWAP5 POP PUSH1 0x20 DUP2 ADD SWAP1 POP PUSH2 0x507 JUMP JUMPDEST DUP7 DUP4 LT ISZERO PUSH2 0x549 JUMPI DUP5 DUP10 ADD MLOAD PUSH2 0x545 PUSH1 0x1F DUP10 AND DUP3 PUSH2 0x458 JUMP JUMPDEST DUP4 SSTORE POP JUMPDEST PUSH1 0x1 PUSH1 0x2 DUP9 MUL ADD DUP9 SSTORE POP POP POP JUMPDEST POP POP POP POP POP POP JUMP INVALID LOG2 PUSH5 0x6970667358 0x22 SLT KECCAK256 0xFC DUP5 0xF 0xCD RETURNDATACOPY SWAP9 0xB1 RETURN 0xAA 0xDC SWAP8 SMOD PUSH19 0xDC4DE3F8B060A17569DE40DD81BB2C70815EB3 PUSH5 0x736F6C6343 STOP ADDMOD SHR STOP CALLER "
				},
				"gasEstimates": {
					"creation": {
						"codeDepositCost": "285600",
						"executionCost": "322",
						"totalCost": "285922"
					},
					"external": {
						"addApprenant(string,uint256)": "infinite"
					}
				},
				"methodIdentifiers": {
					"addApprenant(string,uint256)": "8e73de12"
				}
			},
			"storageLayout": {
				"storage": [
					{
						"astId": 10,
						"contract": "contracts/struct.sol:Test",
						"label": "apprenants",
						"offset": 0,
						"slot": "0",
						"type": "t_array(t_struct(Apprenant)6_storage)dyn_storage"
					}
				],
				"types": {
					"t_array(t_struct(Apprenant)6_storage)dyn_storage": {
						"base": "t_struct(Apprenant)6_storage",
						"encoding": "dynamic_array",
						"label": "struct Test.Apprenant[]",
						"numberOfBytes": "32"
					},
					"t_string_storage": {
						"encoding": "bytes",
						"label": "string",
						"numberOfBytes": "32"
					},
					"t_struct(Apprenant)6_storage": {
						"encoding": "inplace",
						"label": "struct Test.Apprenant",
						"members": [
							{
								"astId": 3,
								"contract": "contracts/struct.sol:Test",
								"label": "name",
								"offset": 0,
								"slot": "0",
								"type": "t_string_storage"
							},
							{
								"astId": 5,
								"contract": "contracts/struct.sol:Test",
								"label": "note",
								"offset": 0,
								"slot": "1",
								"type": "t_uint256"
							}
						],
						"numberOfBytes": "64"
					},
					"t_uint256": {
						"encoding": "inplace",
						"label": "uint256",
						"numberOfBytes": "32"
					}
				}
			},
			"userdoc": {
				"kind": "user",
				"methods": {},
				"version": 1
			}
		}
	}
}